:020000040800F2
:10000000B8080020D5380008631100086511000801
:10001000671100086B1100086F1100080000000054
:100020000000000000000000000000007311000844
:100030007511000800000000771100087911000810
:10004000EF380008EF380008EF380008EF380008F4
:10005000EF380008EF380008EF380008EF380008E4
:10006000EF380008EF380008EF380008EF380008D4
:10007000EF380008EF380008EF380008EF380008C4
:10008000EF380008EF380008EF380008EF380008B4
:10009000EF380008EF380008EF380008B316000802
:1000A000EF380008EF380008EF380008EF38000894
:1000B000535A0008EF380008EF380008EF380008FE
:1000C000EF380008EF380008EF380008EF38000874
:1000D000EF380008EF380008EF380008EF38000864
:1000E000EF380008EF380008EF380008EF38000854
:1000F000EF380008EF380008EF380008EF38000844
:10010000EF380008EF380008EF380008EF38000833
:10011000EF380008EF380008EF380008EF38000823
:10012000EF380008EF380008EF380008EF38000813
:1001300000F002F800F06BF80AA090E8000C82448E
:100140008344AAF10107DA4501D100F060F8AFF26B
:10015000090EBAE80F0013F0010F18BFFB1A43F0A5
:100160000103184778680000986800000A444FF0BF
:10017000000C10F8013B13F0070408BF10F8014B06
:100180001D1108BF10F8015B641E05D010F8016B4B
:10019000641E01F8016BF9D113F0080F1EBF10F8AF
:1001A000014BAD1C0C1B09D16D1E58BF01F801CBD2
:1001B000FAD505E014F8016B01F8016B6D1EF9D555
:1001C0009142D6D37047000000230024002500266A
:1001D000103A28BF78C1FBD8520728BF30C148BFAA
:1001E0000B607047642906F08F81752906F08C81B9
:1001F000782906F0C581632906F01983732906F072
:100200001E83002070471FB51FBD10B510BD06F03E
:1002100049FB1146FFF7F7FF00F09AFB06F067FB7A
:1002200003B4FFF7F2FF03BC00F098F810B56FF0CD
:10023000040003F0BEFB424800684249B0FBF1F005
:10024000414908700846007800EB4001C1EBC0103E
:100250004FF6FF7101EAC0003C49088010BD01461D
:10026000394A12784A434FF0E0235A6100229A61DA
:100270001A46126942F001021A6100BF4FF0E022F3
:10028000106900F001021AB100F48032002AF5D0A2
:100290004FF0E022126922F001024FF0E0231A61D0
:1002A00000229A61704710B5284B1B8843434FF0DA
:1002B000E02463610023A36123461B6943F001032B
:1002C000236100BF19B94FF0E0231A6908E0012942
:1002D00003D14FF0E0231A6902E04FF0E0231A69DE
:1002E00002F001031BB102F48033002BEAD04FF07F
:1002F000E0231B6923F001034FF0E0242361002376
:10030000A36110BD002009E0002101E04A1C91B268
:100310004FF6DC729142F9DB421C90B2B0F57A7F65
:10032000F2DB7047002007E0002101E04A1C91B297
:100330006429FBDB421C90B26428F5DB70470000A7
:100340002000002000127A0000000020020000209F
:1003500010B54FF4A06003F0DDFA10BD014600BFF8
:10036000704700BF284A128802F04002002AF9D0E4
:10037000C2B2254B1B1D1A80704710B586B00446CB
:10038000012144F2040003F0DDFE4FF40070ADF8EB
:10039000140003208DF8160018208DF8170005A909
:1003A0001A4803F013FC4FF48060ADF814000420E9
:1003B0008DF8170005A9154803F008FC25208DF8D5
:1003C000000003208DF801008DF8020001208DF857
:1003D0000300684603F0A3FA01940020ADF808007A
:1003E000ADF80A00ADF80C00ADF810000C20ADF827
:1003F0000E0001A9044804F05AFE0121024804F04D
:10040000E2FE06B010BD00000038014000080140C7
:1004100070B541F2243441F2EC35FB480068012804
:1004200019D1F948001F0068A8B9F74808380068D2
:1004300088B9F5480C38006801280CD1012100204A
:1004400001F0B4F92946204601F04AF900210A20BA
:10045000FFF729FFDBE0EC48006801281ED1EA48DD
:10046000001F0068D0B9E84808380068012815D195
:10047000E5480C380068012810D10121002001F066
:1004800095F905F54D7291B2A4F5167290B201F08E
:1004900027F900210A20FFF706FFB8E0DA480068D4
:1004A00001281ED1D848001F0068012819D1D6485C
:1004B00008380068A8B9D4480C380068012810D161
:1004C0000121002001F072F9A5F5167291B204F530
:1004D000487290B201F004F900210A20FFF7E3FE10
:1004E00095E0C9480068F0B9C748001F0068D0B956
:1004F000C54808380068012815D1C3480C38006881
:10050000012810D10121002001F050F905F54D72AC
:1005100091B2A4F5167290B201F0E2F800210A201F
:10052000FFF7C1FE73E0B848006801281DD1B64846
:10053000001F0068012818D1B34808380068A0B926
:10054000B1480C38006880B90121002001F02EF973
:10055000A5F5167291B204F5487290B201F0C0F898
:1005600000210A20FFF79FFE51E0A7480068F8B974
:10057000A548001F006801281AD1A3480838006860
:10058000012815D1A0480C380068012810D101219C
:10059000002001F00BF905F57F7291B2A4F54872C5
:1005A00090B201F09DF800210A20FFF77CFE2EE0BA
:1005B0009548006801281ED19348001F0068012853
:1005C00019D1914808380068012814D18E480C3898
:1005D000006880B90121002001F0E8F8A5F5487213
:1005E00091B204F57A7290B201F07AF800210A20F3
:1005F000FFF759FE0BE00121002001F0D7F8294652
:10060000204601F06DF800210A20FFF74CFE70BD76
:1006100070B541F224344FF49B557C4800680128A2
:1006200018D17A48001F0068A0B9784808380068D7
:1006300080B976480C38006801280BD1002101F000
:10064000B5F82946204601F04BF800210A20FFF7B3
:100650002AFED7E06D48006801281DD16B48001FB5
:100660000068C8B9694808380068012814D167488B
:100670000C38006801280FD1002101F097F805F52A
:100680002F7291B2A4F5FA7290B201F029F800210C
:100690000A20FFF708FEB5E05C48006801281DD17C
:1006A0005A48001F0068012818D1584808380068C7
:1006B000A0B956480C38006801280FD1002101F07C
:1006C00075F8A5F5FA7291B204F52F7290B201F0A7
:1006D00007F800210A20FFF7E6FD93E04B48006889
:1006E000E8B94A48001F0068C8B948480838006897
:1006F000012814D145480C38006801280FD1002189
:1007000001F054F805F52F7291B2A4F5FA7290B287
:1007100000F0E6FF00210A20FFF7C5FD72E03B482C
:10072000006801281DD13948001F0068012818D130
:10073000364808380068A0B934480C38006880B9D9
:100740000021012001F032F8A5F5FA7291B204F50A
:100750002F7290B200F0C4FF00210A20FFF7A3FD22
:1007600050E02A480068F0B92848001F00680128B6
:1007700019D1264808380068012814D123480C38BC
:10078000006801280FD1002101F010F805F5617211
:1007900091B2A4F52F7290B200F0A2FF00210A20BE
:1007A000FFF781FD2EE01948006801281ED1174887
:1007B000001F0068012819D1144808380068012872
:1007C00014D112480C38006880B90021012000F0D3
:1007D000EDFFA5F52F7291B204F5617290B200F0B1
:1007E0007FFF00210A20FFF75EFD0BE000210120C2
:1007F00000F0DCFF2946204600F072FF00210A20AD
:10080000FFF751FD70BD00000C012442340123426A
:1008100070B50446002503E0FFF7FAFD681C85B2B9
:10082000A542F9DB70BD70B50446002503E0FFF773
:10083000EFFE681C85B2A542F9DB70BD10B5012141
:10084000002000F0B3FF40F6B831084600F048FF42
:1008500000214FF4C870FFF726FD00F04DFF10BDDA
:1008600010B501E0FFF7D4FE374800680128F9D140
:1008700002E000F041FF03E0334800680128F8D0AF
:1008800000BF10BD10B50AE0FFF7C2FD02E000F0A6
:1008900033FF03E02C4800680128F8D000BF2A4845
:1008A00000680128F0D110BD10B501E0FFF7B0FEDF
:1008B000264800680128F9D102E000F01DFF03E09E
:1008C000224800680028F8D000BF10BD10B502E033
:1008D000002001F064F81C48001F00680028F7D0D1
:1008E00002E000F009FF04E01748001F006800283C
:1008F000F7D100BF10BD10B502E0012001F04FF8A4
:10090000114800680128F8D102E000F0F5FE03E08C
:100910000D4800680128F8D000BF10BD10B500F0E8
:10092000EBFE40F2CA31002000F07FFF00F0E4FE51
:10093000FFF7CCFF00F0E0FE4FF47071002000F0F4
:1009400074FF00F0D9FE10BD14012342388121420A
:100950002DE9F0470024A046A146A246FFF766FC19
:1009600000F070FEFFF7F4FC4FF41650FFF705FDA2
:10097000FE4841684820884701F094F902F0A8FF3A
:100980000121084600F0FAFB00214FF4E15001F08C
:1009900021F800214FF4E15001F055F840F2CF2149
:1009A00040F2CF7001F089F840F2CF2140F2CF70D1
:1009B00001F0BDF800F0A0FE4FF4AF6001F0AFFA17
:1009C00000F09AFE962001F045FA40F2523001F014
:1009D000AFFA00F091FE4FF49670FFF719FFFFF7A2
:1009E00051FF2820FFF714FFFFF74CFF2820FFF7E7
:1009F0000FFFFFF747FF4FF4E171002000F015FFF4
:100A0000FFF779FF6420FFF703FFFFF73BFF4FF489
:100A1000FA7000F0B7FE00F06FFE00F06DFE00F01F
:100A200090FC04462546C82000F088FE40F6C4101D
:100A300001F07EFA00F060FE40F6C41001F06FFA9B
:100A400000F05AFE40F2523001F072FA00F054FE0B
:100A5000204601F081FA00F04FFE00F072FC0446DF
:100A6000264600F049FE4FF4967000F067FE40F60F
:100A7000C41001F05DFA00F03FFE40F6C41001F032
:100A80004EFA00F039FE40F2523001F051FA00F017
:100A900033FE204601F01AFC26464FF47A7000F02F
:100AA00071FE00F029FE00F04CFC044600F024FE2C
:100AB00027464FF4967000F041FE40F6C41001F056
:100AC00037FA00F019FE40F6C41001F028FA00F0E1
:100AD00013FE40F2523001F02BFA00F00DFE2046DA
:100AE00001F083FD4FF4167000F015FE962001F022
:100AF000B1F9792001F048F93C2001F0ABF900F0A0
:100B0000FBFD3220FFF78FFEFFF7AAFE8C2001F0DD
:100B10003BF9962001F09EF9782001F035F950203C
:100B2000FFF776FEA02000F009FE40F6C41001F0A9
:100B3000FFF900F0E1FD40F6C41001F0F0F900F01B
:100B4000DBFD40F2523001F0F3F900F0D5FD322028
:100B5000FFF769FEFFF7A8FE1920FFF764FEFFF715
:100B6000A3FE1920FFF75FFEFFF79EFE4FF4E17131
:100B7000012000F05AFEFFF7A9FEFA20FFF748FE19
:100B8000FFF780FE4FF4FA7000F0C5FD322101201E
:100B900000F04BFE962001F05DF9782001F0F4F8AA
:100BA0003C2001F057F9962001F0EEF800F0A4FD8A
:100BB0004FF4FA7000F0C2FD2321002000F035FE52
:100BC00000F09AFD3C20FFF72EFEFFF749FE8C2037
:100BD00001F0DAF8962001F03DF95020FFF718FEF9
:100BE00000F08AFDA02000F0A9FD4FF4FA6001F0AA
:100BF00096F900F081FD40F6C41001F099F900F07B
:100C00007BFD40F6C41001F08AF900F075FD40F25A
:100C1000523001F08DF900F06FFD3220FFF703FE36
:100C2000FFF742FE1920FFF7FEFDFFF73DFE1920FA
:100C3000FFF7F9FDFFF738FE284601F04AFE00F005
:100C40005BFD4FF4FA7000F066FD3221012000F0E8
:100C5000ECFD962001F0FEF87A2001F095F83C209A
:100C600001F0F8F8962001F08FF800F045FD4FF400
:100C7000FA7000F063FD2821002000F0D6FD00F09E
:100C80003BFD3220FFF7CFFDFFF7EAFD822001F0A8
:100C90007BF8962001F0DEF85020FFF7B9FDA02088
:100CA00000F04CFD00F028FDFA2000F06BFD00F094
:100CB00048FB044600F020FDFA2000F03FFD40F61E
:100CC000C41001F035F900F017FD40F6C41001F032
:100CD00026F900F011FD40F2523001F029F900F040
:100CE0000BFD3720FFF79FFDFFF7DEFD1920FFF713
:100CF0009AFDFFF7D9FD1920FFF795FDFFF7D4FD09
:100D00004FF4E171012000F090FDFFF7DFFDFA20C4
:100D1000FFF77EFDFFF7B6FD4FF4167000F0FBFC09
:100D2000962001F097F8782001F02EF83C2001F091
:100D300091F800F0E1FC3220FFF775FDFFF790FD20
:100D40008C2001F021F8962001F084F8782001F041
:100D50001BF85020FFF75CFDA02000F0EFFC4FF4E3
:100D6000FA6001F0DCF800F0C7FC01E0A40000200C
:100D700040F6C41001F0DCF800F0BEFC40F6C410F0
:100D800001F0CDF800F0B8FC40F2523001F0D0F89C
:100D900000F0B2FC3220FFF746FDFFF785FD192079
:100DA000FFF741FDFFF780FD1920FFF73CFDFFF73E
:100DB0007BFD204601F040FF00F09EFC322000F059
:100DC000E1FC962001F046F86E2000F0DDFF3C20AB
:100DD00001F040F800F090FC3220FFF724FDFFF70F
:100DE0003FFD8C2000F0D0FF962001F033F87820F2
:100DF00000F0CAFF5020FFF70BFDA02000F09EFC82
:100E000040F6C41001F094F800F076FC40F6C410EF
:100E100001F085F800F070FC40F2523001F088F8E3
:100E200000F06AFC3220FFF7FEFCFFF73DFD1920C1
:100E3000FFF7F9FCFFF738FD1920FFF7F4FCFFF787
:100E400033FD4FF4E171012000F0EFFCFFF73EFDB0
:100E5000FA20FFF7DDFCFFF715FDFA2000F092FC09
:100E60003221012000F0E1FCA02000F067FC00F03E
:100E700043FC962000F0EEFF7D2000F085FF3C2033
:100E800000F0E8FF00F038FC4FF4FA7000F056FC78
:100E90002321002000F0C9FC00F02EFC6420FFF7A5
:100EA000C2FCFFF7DDFC8C2000F06EFF962000F006
:100EB000D1FF5020FFF7ACFC00F01EFCA02000F09A
:100EC0003DFC4FF4FA6001F02AF800F015FC40F602
:100ED000C41001F02DF800F00FFC40F6C41001F032
:100EE0001EF800F009FC40F2523001F021F800F049
:100EF00003FC3220FFF797FCFFF7D6FC1920FFF721
:100F000092FCFFF7D1FC1920FFF78DFCFFF7CCFC1A
:100F1000384602F0BEF900F0EFFB4FF4967000F097
:100F200031FC3221012000F080FC962000F092FF7D
:100F30007D2000F029FF3C2000F08CFF962000F07F
:100F400023FF00F0D9FB4FF4FA7000F0F7FB2821E3
:100F5000002000F06AFC00F0CFFB3220FFF763FCBA
:100F6000FFF77EFC822000F00FFF962000F072FF5A
:100F70005020FFF74DFCFA2000F0E0FB40F6C410D3
:100F800000F0D6FF00F0B8FB40F6C41000F0C7FF39
:100F900000F0B2FB40F2523000F0CAFF00F0ACFBB0
:100FA0003C20FFF740FCFFF77FFC1920FFF73BFCDC
:100FB000FFF77AFC1920FFF736FCFFF775FC4FF4BA
:100FC000E171012000F031FCFFF780FCFA20FFF70F
:100FD0001FFCFFF757FC322000F0D4FB962000F0F6
:100FE00039FF6E2000F0D0FE3C2000F033FF00F00F
:100FF00083FB3220FFF717FCFFF732FC8C2000F058
:10100000C3FE962000F026FF782000F0BDFE5020A1
:10101000FFF7FEFBA02000F091FB4FF4FA6000F018
:101020007EFF00F069FB40F6C41000F081FF00F085
:1010300063FB40F6C41000F072FF00F05DFB40F26D
:10104000523000F075FF00F057FB3220FFF7EBFB4A
:10105000FFF72AFC1920FFF7E6FBFFF725FC192014
:10106000FFF7E1FBFFF720FC304601F04FFF00F0F7
:1010700043FB2820FFF7CCFBFFF704FC00F03CFB10
:1010800000F03AFB00F05DF904464FF4C87000F040
:1010900055FB40F6C41000F04BFF00F02DFB40F66E
:1010A000C41000F03CFF00F027FB40F2523000F08B
:1010B0003FFF00F021FB4FF48C70FFF7B4FBFFF70C
:1010C000F3FB1920FFF7AFFBFFF7EEFB1920FFF74B
:1010D000AAFBFFF7E9FB4FF4E171012000F0A5FB4B
:1010E000FFF7F4FBFA20FFF793FBFFF7CBFB282079
:1010F000FFF78EFBFFF7C6FBA02000F01FFB00F000
:10110000FBFA4FF4FA6000F00AFF00F0F5FA40F63F
:10111000C41000F00DFF00F0EFFA40F6C41000F02C
:10112000FEFE00F0E9FA40F2523000F001FF00F05C
:10113000E3FA4FF48C70FFF776FBFFF7B5FB19204D
:10114000FFF771FBFFF7B0FB1920FFF76CFBFFF710
:10115000ABFB204602F062FA00F0CEFA0020BDE8B8
:10116000F0877047704700BFFEE700BFFEE700BF93
:10117000FEE77047704770477047000038B5054676
:101180000C460121042002F0DDFF4FF47850ADF849
:10119000000010208DF8030003208DF8020069463E
:1011A000A54802F013FDA5480560A548C0F8A84170
:1011B0000020A2491031086038BD10B500209F49B9
:1011C000083108609E49C1F8B0019E49088000219D
:1011D0000A20FFF768F89B4800889B490880002098
:1011E000984908800120954908310860091D086068
:1011F00000209449088000210A20FFF754F8914804
:1012000000889149488000208E4908808B49083128
:1012100008600120091D086000208A49088000211B
:101220000A20FFF740F88748008887498880002017
:1012300084490880012081490831086000208049E4
:10124000C1F8B00110BD10B500207C49083108601C
:101250007B49C1F8B0017B49088000210A20FFF7D3
:1012600022F8012075490831086000207449C1F84E
:10127000B00174480088C0EB002040F25F31B0FB41
:10128000F1F07249088008460088FF2801DDFF2040
:1012900008806E48008810BD10B5012067490831EC
:1012A00008606749C1F8B001002066490880002144
:1012B0000A20FEF7F8FF012060490831086000208D
:1012C0005F49C1F8B0015F480088C0EB002040F2E0
:1012D0006131B0FBF1F05E49088008460088FF28C4
:1012E00001DDFF2008805A48008810BD10B500209D
:1012F00052490831086001205149C1F8B00100206D
:101300005049088000210A20FEF7CDFF01204B49FB
:101310000831086000204A49C1F8B00149480088F6
:10132000C0EB002040F2DB41B0FBF1F049490880FE
:1013300008460088FF2801DDFF2008804548008816
:1013400010BD10B50024FFF77EFF43490880FFF76A
:10135000A3FF42490880FFF7C9FF414908803E4882
:101360000088FF2815DC3C480088C82811DD3B4870
:101370000088FF280DDC39480088C82809DD0846A8
:101380000088FF2805DC08460088C82801DD002009
:1013900010BD314800885A2809DA304800885A2898
:1013A00005DA2F4800885A2801DA0120F0E72A4898
:1013B0000088C72811DA2848008878280DDD2648DB
:1013C000008826490988884207DD23480088244987
:1013D0000988884201DD0220DAE720480088822857
:1013E00011DA1E4800885A280DDD1C4800881A4969
:1013F0000988884207DD1948008819490988884208
:1014000001DD0320C4E716480088872811DA144854
:1014100000885A280DDD124800880F490988884243
:1014200007DD0F4800880D490988884201DD042046
:10143000AEE72046ACE7000000080140A4012142CD
:101440000000214210000020180000200A000020A7
:101450000C0000200E0000201200002014000020CC
:10146000160000200CB50020019000906C48006828
:1014700040F480306A49086000BF6948006800F4A1
:10148000003000900198401C0190009818B9019814
:10149000B0F5A06FF1D16248006800F4003010B1DF
:1014A0000120009001E0002000900098012843D125
:1014B0005C48006840F010005A490860084600681F
:1014C00020F0030008600846006840F00200086051
:1014D000534840685249486008464068486008469A
:1014E000406840F4806048600846406820F47C1002
:1014F00048600846406840F4E810486008460068C4
:1015000040F08070086000BF4548006800F000703F
:101510000028F9D04248406820F003004049486064
:101520000846406840F00200486000BF3C48406800
:1015300000F00C000828F9D10CBD10B5FFF792FFA0
:1015400010BD10B53648006840F00100344908600D
:1015500008464068344908403149486008460068F8
:10156000324908402E4908600846006820F480206F
:1015700008600846406820F4FE0048604FF41F00F1
:101580008860FFF7DAFF4FF000602949086010BD5E
:1015900010B5002100200022214B5B6803F00C01F4
:1015A00021B1042906D0082928D107E0214B224C7B
:1015B000236027E01F4B204C236023E0184B5B681F
:1015C00003F47010164B5B6803F48032022303EBC4
:1015D000904022B9194B4343174C23600DE0104B48
:1015E0005B6803F4003323B1144B4343124C236074
:1015F00003E0104B4343104C236003E00D4B0E4CB3
:10160000236000BF00BF064B5B68C3F303130C4CA1
:10161000E15C094B1B68CB40074C236010BD000008
:1016200000100240002002400000FFF8FFFFF6FE1D
:1016300008ED00E000127A002000002000093D00C3
:10164000240000201FB50121042002F07BFD0121B0
:10165000084602F077FD4FF48070ADF80000482096
:101660008DF8030069461B4802F0B0FA04210020FF
:1016700002F0C2FB4FF48070029000208DF80C0045
:101680000C208DF80D0001208DF80E0002A802F04C
:10169000BDF917208DF8040002208DF80500002008
:1016A0008DF8060001208DF8070001A802F037F937
:1016B0001FBD10B54FF4807002F01FFA0648008875
:1016C0000649884204DA04480088401C0249088020
:1016D00010BD000000180140100000203F420F0024
:1016E00070B504460D4629462F4803F057FC2146A5
:1016F0002D4803F057FC70BD10B50121002000F00B
:1017000055F80A210846FFF7EBFF00214FF4FA7065
:10171000FEF7C9FD10BD10B504460021012000F000
:1017200045F840F6B8310846FFF7DAFF00214FF4DC
:101730009670FEF7B8FDFFF7DFFF10BD10B5044649
:101740000021012000F032F84FF4FA610846FFF75B
:10175000C7FF00212046FEF7A6FDFFF7CDFF10BD15
:1017600010B504460121002000F020F840F6B83101
:101770000846FFF7B5FF00212046FEF794FDFFF76E
:10178000BBFF10BD10B504460121002000F00EF88B
:101790004FF4FA610846FFF7A3FF00212046FEF749
:1017A00082FDFFF7A9FF10BD00080040024A10604B
:1017B000024AC2F8A8117047AC8121420080214240
:1017C00070B504460D46B4B901210020FFF7EEFFC5
:1017D0004FF4E16140F29E70FFF782FF002128463E
:1017E000FEF761FD4FF4FA710846FFF779FF00211B
:1017F0006420FEF758FD012C16D100210120FFF7CF
:10180000D5FF40F6660140F26C70FFF769FF0021DA
:101810002846FEF748FD4FF4FA710846FFF760FFCF
:1018200000216420FEF73FFD70BD70B504460D46F3
:10183000DCB900210846FFF7B9FF40F6B83140F6A1
:101840008630FFF74DFF00212846FEF72CFD0021D2
:101850002846FEF728FD4FF448714FF4FA70FFF761
:101860003FFF00216420FEF71EFD012C1AD101214B
:101870000846FFF79BFF40F6B83140F68630FFF789
:101880002FFF00212846FEF70EFD00212846FEF717
:101890000AFD4FF4FA710846FFF722FF0021642089
:1018A000FEF701FD70BD70B504460D46DCB90021A0
:1018B0000846FFF77BFF40F6B83140F68630FFF769
:1018C0000FFF00212846FEF7EEFC00212846FEF718
:1018D000EAFC4FF448714FF4FA70FFF701FF002162
:1018E0006420FEF7E0FC012C1AD101210846FFF725
:1018F0005DFF40F6B83140F68630FFF7F1FE00217B
:101900002846FEF7D0FC00212846FEF7CCFC4FF419
:10191000FA710846FFF7E4FE00216420FEF7C3FCDD
:1019200070BD70B504460D46DCB900210846FFF7CE
:101930003DFF40F6B83140F68630FFF7D1FE00217A
:101940002846FEF7B0FC00212846FEF7ACFC4FF419
:1019500048714FF4FA70FFF7C3FE00216420FEF7D0
:10196000A2FC012C1AD101210846FFF71FFF40F607
:10197000B83140F68630FFF7B3FE00212846FEF767
:1019800092FC00212846FEF78EFC4FF4FA710846BF
:10199000FFF7A6FE00216420FEF785FC70BD10B5A0
:1019A0000446012C09D100210846FFF7FFFE40F64E
:1019B000B83140F68630FFF793FE4CB90121084656
:1019C000FFF7F4FE40F6B83140F68630FFF788FEA8
:1019D00010BD000030B589B005460C460121042039
:1019E00002F0BDFB0121082002F0ACFB4020ADF865
:1019F000200018208DF8230003208DF8220008A96C
:101A0000A34802F0E3F8ADF81850ADF814400020F8
:101A1000ADF81A00ADF8160005A99E4802F0CAFC00
:101A20007020ADF804000120ADF806000220ADF8EA
:101A30000C0001A9974802F0FAFC0121954803F037
:101A400015F809B030BD30B589B005460C46012106
:101A5000042002F084FB0121082002F073FB4FF404
:101A60008070ADF8200018208DF8230003208DF839
:101A7000220008A9864802F0A9F8ADF81850ADF880
:101A800014400020ADF81A00ADF8160005A98148F1
:101A900002F090FC7020ADF804000120ADF80600C3
:101AA0000220ADF80C0001A97A4802F04FFD012197
:101AB000784802F0DBFF09B030BD30B589B005468B
:101AC0000C460121084602F04AFB0121042002F0E5
:101AD00039FB0420ADF8200018208DF823000220E7
:101AE0008DF8220008A96C4802F070F8ADF8185083
:101AF000ADF814400020ADF81A00ADF8160005A9A5
:101B00004FF0804002F056FC7020ADF80400012038
:101B1000ADF806000220ADF80C0001A9400702F064
:101B200015FD0121880702F0A1FF09B030BD30B5D5
:101B300089B005460C460121082002F010FB012166
:101B4000042002F0FFFA0120ADF8200018208DF8E3
:101B5000230002208DF8220008A94F4802F036F831
:101B6000ADF81850ADF814400020ADF81A00ADF8EB
:101B7000160005A9494802F01DFC7020ADF80400CC
:101B80000120ADF806000220ADF80C0001A9434881
:101B900002F04DFC0121414802F068FF09B030BD60
:101BA00070B588B006460C4615460121022002F0A9
:101BB000D6FA0121082002F0C5FA0120ADF81C0078
:101BC00018208DF81F0002208DF81E0007A930484C
:101BD00001F0FCFFADF81460ADF810400020ADF846
:101BE0001600ADF8120004A92D4802F0E3FB7020A6
:101BF000ADF800000120ADF802000220ADF80800A9
:101C0000ADF806506946264802F0A0FC01212448A0
:101C100002F02CFF08B070BD70B588B006460C46C7
:101C200015460121022002F09AFA0121082002F053
:101C300089FA0220ADF81C0018208DF81F00022040
:101C40008DF81E0007A9124801F0C0FFADF814601E
:101C5000ADF810400020ADF81600ADF8120004A950
:101C60000F4802F0A7FB7020ADF800000120ADF88E
:101C700002000220ADF80800ADF806506946084899
:101C800002F0AFFC0121064802F0F0FE08B070BD82
:101C9000000C01400008004000080140000C00401A
:101CA0000004004008B501214FF4A47002F04AFA84
:101CB0004FF44060ADF8000010208DF803000320C1
:101CC0008DF8020069462B4801F080FF4FF48040F8
:101CD000ADF8000048208DF8030003208DF80200C5
:101CE0006946244801F072FF4FF4F870ADF8000027
:101CF00010208DF8030003208DF8020069461E486D
:101D000001F064FF0820ADF8000048208DF80300C2
:101D100003208DF802006946184801F057FF4FF480
:101D20008070ADF8000010208DF8030003208DF8BE
:101D300002006946124801F049FF43F6FF50ADF832
:101D4000000048208DF8030003208DF8020069464A
:101D50000C4801F03BFFFF20ADF8000048208DF853
:101D6000030003208DF802006946034801F02EFFAE
:101D700008BD0000000C01400020014000080140A7
:101D800000140140001801402DE9FC4106460020E6
:101D9000009001900027002500246A4886808088F2
:101DA00069498988401A00906648C0886649C98890
:101DB000401A019000BF0AE05DF82500002804DA0F
:101DC0005DF8250040424DF82500681CC5B2022D83
:101DD000F2DBDDE90001884202DA019887B201E016
:101DE000009887B2002530E0022420E0564830F801
:101DF0001400544931F81410884207DA524830F878
:101E00001400401C504921F814000EE04E4830F8F0
:101E100014004C4931F81410884206DD4A4830F865
:101E20001400401E484921F81400601CC4B2042C60
:101E3000DCDB454881884FF0804003F0B3F8002197
:101E40000F20FEF730FA681CC5B2781C8542CBDB48
:101E5000BDE8FC812DE9FC41064600200090019080
:101E60000027002500243948C680808838498988A1
:101E7000401A00903548C0883549C988401A0190F9
:101E800000BF0AE05DF82500002804DA5DF82500AF
:101E900040424DF82500681CC5B2022DF2DBDDE999
:101EA0000001884202DA019887B201E0009887B207
:101EB00000252FE0022420E0254830F814002349B3
:101EC00031F81410884207DA214830F81400401C19
:101ED0001F4921F814000EE01D4830F814001B497A
:101EE00031F81410884206DD194830F81400401EFD
:101EF000174921F81400601CC4B2042CDCDB144820
:101F0000C188144803F04AF800210F20FEF7CBF9EE
:101F1000681CC5B2781C8542CCDBBDE8FC8110B5DD
:101F200004462246472144F61F60FFF739FE10BDE4
:101F300010B504462246472144F61F60FFF76CFEA9
:101F400010BD00003E0000204E00002036000020A2
:101F500046000020000C004010B50446002C4CD177
:101F60003C20FEF760FCFEF79FFC1920FEF75BFCAF
:101F7000FEF79AFC1920FEF756FCFEF795FCC821E7
:101F80000120FFF752FCFEF7A1FC4FF49670FEF71C
:101F90003FFCFEF777FC1E20FEF745FC40F6C41020
:101FA000FFF7C6FFFFF7A8FB4FF4AF60FFF7B7FFDF
:101FB000FFF7A2FB40F25230FFF7BAFFFFF79CFB9E
:101FC000FA20FEF730FCFEF76FFC1920FEF72BFC21
:101FD000FEF76AFC1920FEF726FCFEF765FCDC2103
:101FE0000120FFF722FCFEF771FC9620FEF710FCA3
:101FF000FEF748FCFFF780FB67E1012C4DD13C2048
:10200000FEF711FCFEF750FC1920FEF70CFCFEF762
:102010004BFC1920FEF707FCFEF746FC40F2EE21D0
:102020000120FFF702FCFEF751FC4FF49670FEF71B
:10203000EFFBFEF727FC1E20FEF7F5FB40F6C41071
:10204000FFF776FFFFF758FB4FF4AF60FFF767FF2E
:10205000FFF752FB40F25230FFF76AFFFFF74CFBED
:10206000FA20FEF7E0FBFEF71FFC1920FEF7DBFB72
:10207000FEF71AFC1920FEF7D6FBFEF715FCDC2153
:102080000020FFF7D2FBFEF736FC9620FEF7C0FBE0
:10209000FEF7F8FBFFF730FB17E1022C5ED13C2086
:1020A000FEF7C1FBFEF700FC1920FEF7BCFBFEF7B4
:1020B000FBFB1920FEF7B7FBFEF7F6FB4FF4E171CF
:1020C0000120FFF7B2FBFEF701FC9620FEF7A0FB14
:1020D000FEF7D8FB4FF47A70FFF754FB40F2DC5068
:1020E000FFF72CFB8220FFF74FFE3C20FFF7B2FEEC
:1020F0005020FFF749FE6420FEF78AFBFEF7C2FB83
:102100001E20FEF790FB4FF41660FFF711FFFFF75C
:10211000F3FA4FF4AF60FFF702FFFFF7EDFA40F27A
:102120005230FFF705FFFFF7E7FA5020FEF77BFB81
:10213000FEF796FB8C20FFF727FE9620FFF78AFE1E
:102140005020FFF721FE4FF47A70FFF71BFB4FF48E
:102150007A70FFF717FBFFF7CFFAB6E0032C37D101
:102160009620FEF755FBFEF78DFB1920FEF75BFB73
:1021700040F6C410FFF7DCFEFFF7BEFA4FF4AF6085
:10218000FFF7CDFEFFF7B8FA40F25230FFF7D0FE6E
:10219000FFF7B2FAFA20FEF746FBFEF785FB19209F
:1021A000FEF741FBFEF780FB1920FEF73CFBFEF734
:1021B0007BFB4FF4C8710120FFF737FBFEF786FB6E
:1021C0009620FEF725FBFEF75DFBFFF795FA7CE016
:1021D000042C7AD13220FEF726FBFEF765FB19208E
:1021E000FEF721FBFEF760FB1920FEF71CFBFEF754
:1021F0005BFB40F24C410120FFF717FBFEF766FB4B
:102200009620FEF705FBFEF73DFB4FF47A70FFF7D3
:10221000B9FA40F2DC50FFF791FA8220FFF7B4FDE3
:10222000FFF76AFA3C20FFF715FEFFF765FA50202A
:10223000FFF7AAFDFFF760FA6420FEF7E9FAFEF760
:1022400021FB1E20FEF7EFFA40F6C410FFF770FEE8
:10225000FFF752FA4FF4AF60FFF761FEFFF74CFA59
:1022600040F25230FFF764FEFFF746FA5020FEF7C7
:10227000DAFAFEF7F5FA4FF4AF60FFF75FFA8C2059
:10228000FFF782FD9620FFF7E5FD5020FFF77CFD6C
:102290001420FEF7C8FAFEF707FB1920FEF7C3FA71
:1022A000FEF702FB1920FEF7BEFAFEF7FDFA4FF427
:1022B000E1710020FFF7B9FAFEF71DFB9620FEF74B
:1022C000A7FAFEF7DFFAFFF717FA10BD10B50446BC
:1022D000002C4DD13C20FEF7A6FAFEF7E5FA1920B6
:1022E000FEF7A1FAFEF7E0FA1920FEF79CFAFEF7D6
:1022F000DBFADC210020FFF798FAFEF7FCFA4FF436
:102300009670FEF785FAFEF7BDFA1E20FEF78BFAEF
:1023100040F6C410FFF70CFEFFF7EEF94FF4AF6084
:10232000FFF7FDFDFFF7E8F940F25230FFF700FE3E
:10233000FFF7E2F9FA20FEF776FAFEF7B5FA192070
:10234000FEF771FAFEF7B0FA1920FEF76CFAFEF705
:10235000ABFA40F2EE210120FFF767FAFEF7B6FA7A
:102360009620FEF755FAFEF78DFAFFF7C5F93BE127
:10237000012C4CD13C20FEF756FAFEF795FA1920B5
:10238000FEF751FAFEF790FA1920FEF74CFAFEF725
:102390008BFADC210120FFF748FAFEF797FA4FF499
:1023A0009670FEF735FAFEF76DFA1E20FEF73BFA3F
:1023B00040F6C410FFF7BCFDFFF79EF94FF4AF6085
:1023C000FFF7ADFDFFF798F940F25230FFF7B0FD8F
:1023D000FFF792F9FA20FEF726FAFEF765FA1920C0
:1023E000FEF721FAFEF760FA1920FEF71CFAFEF755
:1023F0005BFADC210120FFF718FAFEF767FA962056
:10240000FEF706FAFEF73EFAFFF776F9ECE0022C4B
:1024100037D19620FEF7FCF9FEF734FA1920FEF7C3
:1024200002FA40F6C410FFF783FDFFF765F94FF499
:10243000AF60FFF774FDFFF75FF940F25230FFF72E
:1024400077FDFFF759F9FA20FEF7EDF9FEF72CFAC0
:102450001920FEF7E8F9FEF727FA1920FEF7E3F94D
:10246000FEF722FA4FF4C8710120FFF7DEF9FEF7FC
:102470002DFA9620FEF7CCF9FEF704FAFFF73CF9A7
:10248000B2E0032C4ED13C20FEF7CDF9FEF70CFA5A
:102490001920FEF7C8F9FEF707FA1920FEF7C3F96D
:1024A000FEF702FA4FF4E1710020FFF7BEF9FEF7E4
:1024B00022FA4FF49670FEF7ABF9FEF7E3F91E200F
:1024C000FEF7B1F940F6C410FFF732FDFFF714F93B
:1024D0004FF4AF60FFF723FDFFF70EF940F25230E3
:1024E000FFF726FDFFF708F9FA20FEF79CF9FEF743
:1024F000DBF91920FEF797F9FEF7D6F91920FEF758
:1025000092F9FEF7D1F940F24C410120FFF78DF925
:10251000FEF7DCF99620FEF77BF9FEF7B3F9FFF73B
:10252000EBF861E0042C5FD13C20FEF77CF9FEF76C
:10253000BBF91920FEF777F9FEF7B6F91920FEF777
:1025400072F9FEF7B1F94FF4E1710120FFF76DF96F
:10255000FEF7BCF99620FEF75BF9FEF793F94FF40E
:102560007A70FFF70FF940F2DC50FFF7E7F88220AE
:10257000FFF70AFCFFF7C0F83C20FFF76BFCFFF702
:10258000BBF85020FFF700FCFFF7B6F86420FEF719
:102590003FF9FEF777F91E20FEF745F94FF4166074
:1025A000FFF7C6FCFFF7A8F84FF4AF60FFF7B7FCE2
:1025B000FFF7A2F840F25230FFF7BAFCFFF79CF8A1
:1025C0005020FEF730F9FEF74BF98C20FFF7DCFBCB
:1025D0009620FFF73FFC5020FFF7D6FB4FF47A70B0
:1025E000FFF7D0F8FFF788F810BD10B50446002CAF
:1025F0004CD13C20FEF717F9FEF756F91920FEF7EB
:1026000012F9FEF751F91920FEF70DF9FEF74CF912
:1026100040F2EE210020FFF708F9FEF76CF94FF4C5
:102620009670FEF7F5F8FEF72DF91E20FEF7FBF881
:1026300040F6C410FFF77CFCFFF75EF84FF4AF6084
:10264000FFF76DFCFFF758F840F25230FFF770FCCF
:10265000FFF752F8FA20FEF7E6F8FEF725F9192001
:10266000FEF7E1F8FEF720F91920FEF7DCF8FEF797
:102670001BF94FF496610120FFF7D7F8FEF726F912
:10268000FA20FEF7C5F8FEF7FDF821E1012C4BD149
:102690003C20FEF7C8F8FEF707F91920FEF7C3F84B
:1026A000FEF702F91920FEF7BEF8FEF7FDF8DC216F
:1026B0000020FFF7BAF8FEF71EF94FF49670FEF708
:1026C000A7F8FEF7DFF81E20FEF7ADF840F6C410BD
:1026D000FFF72EFCFFF710F84FF4AF60FFF71FFC79
:1026E000FFF70AF840F25230FFF722FCFFF704F838
:1026F000FA20FEF798F8FEF7D7F81920FEF793F8BE
:10270000FEF7D2F81920FEF78EF8FEF7CDF84FF459
:10271000FA710120FFF789F8FEF7D8F8FA20FEF7E2
:1027200077F8FEF7AFF8D3E0022C4CD13220FEF759
:102730007AF8FEF7B9F81920FEF775F8FEF7B4F845
:102740001920FEF770F8FEF7AFF84FF4FA71002089
:10275000FFF76BF8FEF7CFF84FF49670FEF758F8D6
:10276000FEF790F81E20FEF75EF840F6C410FFF763
:10277000DFFBFEF7C1FF4FF4AF60FFF7D0FBFEF7C2
:10278000BBFF40F25230FFF7D3FBFEF7B5FFFA2054
:10279000FEF749F8FEF788F81920FEF744F8FEF72F
:1027A00083F81920FEF73FF8FEF77EF84FF44871E2
:1027B0000120FFF73AF8FEF789F8FA20FEF728F82B
:1027C000FEF760F884E0032C4CD13C20FEF72BF898
:1027D000FEF76AF81920FEF726F8FEF765F81920CB
:1027E000FEF721F8FEF760F840F24C410020FFF7B9
:1027F0001CF8FEF780F84FF49670FEF709F8FEF724
:1028000041F81E20FEF70FF840F6C410FFF790FBCA
:10281000FEF772FF4FF4AF60FFF781FBFEF76CFF2E
:1028200040F25230FFF784FBFEF766FFFA20FDF717
:10283000FAFFFEF739F81920FDF7F5FFFEF734F837
:102840001920FDF7F0FFFEF72FF84FF44871002034
:10285000FEF7EBFFFEF74FF8FA20FDF7D9FFFEF782
:1028600011F835E0042C33D13220FDF7D1FFFEF70B
:1028700009F81920FDF7D7FF40F6C410FFF758FB01
:10288000FEF73AFF4FF4AF60FFF749FBFEF734FF66
:1028900040F25230FFF74CFBFEF72EFFFA20FDF717
:1028A000C2FFFEF701F81920FDF7BDFFFDF7FCFFA1
:1028B0001920FDF7B8FFFDF7F7FFC8210120FEF74B
:1028C000B4FFFEF703F8FA20FDF7A2FFFDF7DAFFE9
:1028D00010BD10B50446002C54D14FF4E171012015
:1028E000FEF7A3FFFDF7F2FF4FF49670FDF790FFA0
:1028F000FDF7C8FFA020FEF721FF4FF4FA60FFF7B5
:102900000EFBFEF7F9FE40F6C410FFF711FBFEF7D1
:10291000F3FE40F6C410FFF702FBFEF7EDFE1920B0
:10292000FDF781FFFEF7E8FE40F69800FFF7F7FAA3
:10293000FEF7E2FE4FF4AF60FFF7F1FAFEF7DCFEC0
:10294000FA20FDF770FFFDF7AFFF1920FDF76BFFD1
:10295000FDF7AAFF1920FDF766FFFDF7A5FF40F27E
:102960005230FFF7E5FAFEF7C7FE40F24C41012076
:10297000FEF75BFFFDF7AAFFFA20FDF749FFFDF721
:1029800081FF58E1012C54D140F24C410120FEF767
:102990004CFFFDF79BFF4FF49670FDF739FFFDF7F5
:1029A00071FFA020FEF7CAFE40F63400FFF7B7FA29
:1029B000FEF7A2FE40F6C410FFF7BAFAFEF79CFE3F
:1029C00040F6C410FFF7ABFAFEF796FE1920FDF7AC
:1029D0002AFFFEF791FE40F63400FFF7A0FAFEF75B
:1029E0008BFE4FF4AF60FFF79AFAFEF785FEFA20F0
:1029F000FDF719FFFDF758FF1920FDF714FFFDF74C
:102A000053FF1920FDF70FFFFDF74EFF40F2523044
:102A1000FFF78EFAFEF770FE4FF4E1710120FEF72A
:102A200004FFFDF753FFFA20FDF7F2FEFDF72AFF42
:102A300001E1022C54D140F2EE210120FEF7F5FE17
:102A4000FDF744FF4FF49670FDF7E2FEFDF71AFF25
:102A5000A020FEF773FE4FF4FA60FFF760FAFEF76E
:102A60004BFE40F6C410FFF763FAFEF745FE40F652
:102A7000C410FFF754FAFEF73FFE1920FDF7D3FE0E
:102A8000FEF73AFE40F63400FFF749FAFEF734FE4F
:102A90004FF4AF60FFF743FAFEF72EFEFA20FDF782
:102AA000C2FEFDF701FF1920FDF7BDFEFDF7FCFE9C
:102AB0001920FDF7B8FEFDF7F7FE40F25230FFF7A0
:102AC00037FAFEF719FE40F2EE210120FEF7ADFEC7
:102AD000FDF7FCFEFA20FDF79BFEFDF7D3FEAAE012
:102AE000032C53D1DC210120FEF79FFEFDF7EEFE03
:102AF0004FF49670FDF78CFEFDF7C4FEA020FEF7A4
:102B00001DFE4FF4FA60FFF70AFAFEF7F5FD40F6F6
:102B1000C410FFF70DFAFEF7EFFD40F6C410FFF703
:102B2000FEF9FEF7E9FD1920FDF77DFEFEF7E4FD55
:102B300040F63400FFF7F3F9FEF7DEFD4FF4AF6027
:102B4000FFF7EDF9FEF7D8FDFA20FDF76CFEFDF773
:102B5000ABFE1920FDF767FEFDF7A6FE1920FDF775
:102B600062FEFDF7A1FE40F25230FFF7E1F9FEF7F9
:102B7000C3FD40F2EE210020FEF757FEFDF7BBFE3D
:102B8000FA20FDF745FEFDF77DFE54E0042C52D1FE
:102B900040F2EE210020FEF748FEFDF7ACFE4FF4B8
:102BA0009670FDF735FEFDF76DFEA020FEF7C6FD21
:102BB0004FF4FA60FFF7B3F9FEF79EFD40F6C4103C
:102BC000FFF7B6F9FEF798FD40F6C410FFF7A7F936
:102BD000FEF792FD1920FDF726FEFEF78DFD40F66B
:102BE0003400FFF79CF9FEF787FD4FF4AF60FFF765
:102BF00096F9FEF781FDFA20FDF715FEFDF754FE6C
:102C00001920FDF710FEFDF74FFE1920FDF70BFE12
:102C1000FDF74AFE40F25230FFF78AF9FEF76CFDED
:102C2000C8210120FEF701FEFDF750FEFA20FDF756
:102C3000EFFDFDF727FE10BD10B50446002C45D171
:102C40004FF4E1710120FEF7F0FDFDF73FFE4FF478
:102C50009670FDF7DDFDFDF715FE1920FDF7E3FD8C
:102C6000FEF74AFD40F6C410FFF762F9FEF744FD97
:102C70004FF4FA60FFF753F9FEF73EFD4FF4AF60F3
:102C8000FFF74DF9FEF738FDFA20FDF7CCFDFDF713
:102C90000BFE1920FDF7C7FDFDF706FE1920FDF715
:102CA000C2FDFDF701FE40F25230FFF741F9FEF799
:102CB00023FD40F24C410120FEF7B7FDFDF706FE73
:102CC000FA20FDF7A5FDFDF7DDFD1EE1012C47D142
:102CD00040F24C410120FEF7A8FDFDF7F7FD4FF44F
:102CE0009670FDF795FDFDF7CDFDFEF705FD19206A
:102CF000FDF799FDFEF700FD40F6C410FFF718F947
:102D0000FEF7FAFC40F63400FFF709F9FEF7F4FC91
:102D10004FF4AF60FFF703F9FEF7EEFCFA20FDF782
:102D200082FDFDF7C1FD1920FDF77DFDFDF7BCFD1E
:102D30001920FDF778FDFDF7B7FD40F25230FFF79F
:102D4000F7F8FEF7D9FC4FF4E1710120FEF76DFDB5
:102D5000FDF7BCFDFA20FDF75BFDFDF793FDD4E028
:102D6000022C45D140F2EE210120FEF75EFDFDF779
:102D7000ADFD4FF49670FDF74BFDFDF783FD192077
:102D8000FDF751FDFEF7B8FC40F6C410FFF7D0F890
:102D9000FEF7B2FC4FF4FA60FFF7C1F8FEF7ACFCA7
:102DA0004FF4AF60FFF7BBF8FEF7A6FCFA20FDF783
:102DB0003AFDFDF779FD1920FDF735FDFDF774FDAE
:102DC0001920FDF730FDFDF76FFD40F25230FFF79F
:102DD000AFF8FEF791FC40F2EE210120FEF725FD51
:102DE000FDF774FDFA20FDF713FDFDF74BFD8CE0B8
:102DF000032C44D1DC210120FEF717FDFDF766FD11
:102E00004FF49670FDF704FDFDF73CFD1920FDF72A
:102E10000AFDFEF771FC40F6C410FFF789F8FEF7D3
:102E20006BFC4FF4FA60FFF77AF8FEF765FC4FF49D
:102E3000AF60FFF774F8FEF75FFCFA20FDF7F3FCD4
:102E4000FDF732FD1920FDF7EEFCFDF72DFD1920F1
:102E5000FDF7E9FCFDF728FD40F25230FFF768F876
:102E6000FEF74AFC40F2EE210020FEF7DEFCFDF703
:102E700042FDFA20FDF7CCFCFDF704FD45E0042CF3
:102E800043D140F2EE210020FEF7CFFCFDF733FDE9
:102E90004FF49670FDF7BCFCFDF7F4FC1920FDF72C
:102EA000C2FCFEF729FC40F6C410FFF741F8FEF71C
:102EB00023FC4FF4FA60FFF732F8FEF71DFC4FF4E5
:102EC000AF60FFF72CF8FEF717FCFA20FDF7ABFC1C
:102ED000FDF7EAFC1920FDF7A6FCFDF7E5FC19203B
:102EE000FDF7A1FCFDF7E0FC40F25230FFF720F8BF
:102EF000FEF702FCC8210120FEF797FCFDF7E6FC77
:102F0000FA20FDF785FCFDF7BDFC10BD10B50446A9
:102F1000002C56D14FF4E1710120FEF786FCFDF73D
:102F2000D5FC4FF49670FDF773FCFDF7ABFCFEF794
:102F3000E3FBA020FEF702FC4FF4FA60FEF7EFFF80
:102F4000FEF7DAFB40F6C410FEF7F2FFFEF7D4FB03
:102F500040F6C410FEF7E3FFFEF7CEFB1920FDF7A5
:102F600062FCFEF7C9FB40F63400FEF7D8FFFEF71F
:102F7000C3FB4FF4AF60FEF7D2FFFEF7BDFBFA20B4
:102F8000FDF751FCFDF790FC1920FDF74CFCFDF717
:102F90008BFC1920FDF747FCFDF786FC40F2523010
:102FA000FEF7C6FFFEF7A8FB40F2DC510120FEF75A
:102FB0003CFCFDF78BFCFA20FDF72AFCFDF762FCD8
:102FC00066E1012C56D140F24C410120FEF72DFC68
:102FD000FDF77CFC4FF49670FDF71AFCFDF752FCF0
:102FE000FEF78AFBA020FEF7A9FB4FF4FA60FEF77C
:102FF00096FFFEF781FB40F6C410FEF799FFFEF73F
:103000007BFB40F6C410FEF78AFFFEF775FB192024
:10301000FDF709FCFEF770FB40F63400FEF77FFF7A
:10302000FEF76AFB4FF4AF60FEF779FFFEF764FB33
:10303000FA20FDF7F8FBFDF737FC1920FDF7F3FB4D
:10304000FDF732FC1920FDF7EEFBFDF72DFC40F2F9
:103050005230FEF76DFFFEF74FFB4FF4E171012098
:10306000FEF7E3FBFDF732FCFA20FDF7D1FBFDF79D
:1030700009FC0DE1022C5CD140F2EE210120FEF7AB
:10308000D4FBFDF723FC4FF49670FDF7C1FBFDF771
:10309000F9FBFEF731FBA020FEF750FB4FF4FA607E
:1030A000FEF73DFFFEF728FB40F6C410FEF740FF99
:1030B000FEF722FB40F6C410FEF731FFFEF71CFBC3
:1030C0001920FDF7B0FBFEF717FB40F6C410FEF722
:1030D0002FFFFEF711FB40F63400FEF720FFFEF74E
:1030E0000BFB4FF4AF60FEF71AFFFEF705FBFA206B
:1030F000FDF799FBFDF7D8FB1920FDF794FBFDF7D1
:10310000D3FB1920FDF78FFBFDF7CEFB40F25230C9
:10311000FEF70EFFFEF7F0FA40F2EE210120FEF777
:1031200084FBFDF7D3FBFA20FDF772FBFDF7AAFB4A
:10313000AEE0032C55D1DC210120FEF776FBFDF734
:10314000C5FB4FF49670FDF763FBFDF79BFBFEF7A5
:10315000D3FAA020FEF7F2FA4FF4FA60FEF7DFFE92
:10316000FEF7CAFA40F6C410FEF7E2FEFEF7C4FA14
:1031700040F6C410FEF7D3FEFEF7BEFA1920FDF7A5
:1031800052FBFEF7B9FA40F63400FEF7C8FEFEF730
:10319000B3FA4FF4AF60FEF7C2FEFEF7ADFAFA20C5
:1031A000FDF741FBFDF780FB1920FDF73CFBFDF728
:1031B0007BFB1920FDF737FBFDF776FB40F2523021
:1031C000FEF7B6FEFEF798FA40F2EE210020FEF779
:1031D0002CFBFDF790FBFA20FDF71AFBFDF752FBE5
:1031E00056E0042C54D140F2EE210020FEF71DFBE6
:1031F000FDF781FB4FF49670FDF70AFBFDF742FBEC
:10320000FEF77AFAA020FEF799FA4FF4FA60FEF77B
:1032100086FEFEF771FA40F6C410FEF789FEFEF74F
:103220006BFA40F6C410FEF77AFEFEF765FA192035
:10323000FDF7F9FAFEF760FA40F63400FEF76FFE8C
:10324000FEF75AFA4FF4AF60FEF769FEFEF754FA44
:10325000FA20FDF7E8FAFDF727FB1920FDF7E3FA5E
:10326000FDF722FB1920FDF7DEFAFDF71DFB40F20A
:103270005230FEF75DFEFEF73FFAC8210120FEF74F
:10328000D4FAFDF723FBFA20FDF7C2FAFDF7FAFAAC
:1032900010BD10B50446002C56D14FF4E171012049
:1032A000FEF7C3FAFDF712FB4FF49670FDF7B0FA84
:1032B000FDF7E8FAFEF720FA9620FEF73FFA40F60F
:1032C0003400FEF72CFEFEF717FA40F6C410FEF7A6
:1032D0002FFEFEF711FA40F6C410FEF720FEFEF7AF
:1032E0000BFA1920FDF79FFAFEF706FA40F63400B4
:1032F000FEF715FEFEF700FA4FF4AF60FEF70FFE83
:10330000FEF7FAF9FA20FDF78EFAFDF7CDFA19204B
:10331000FDF789FAFDF7C8FA1920FDF784FAFDF7E1
:10332000C3FA40F25230FEF703FEFEF7E5F940F231
:103330004C410120FEF779FAFDF7C8FAFA20FDF7B3
:1033400067FAFDF79FFA68E1012C56D140F24C4133
:103350000120FEF76AFAFDF7B9FA4FF49670FDF70F
:1033600057FAFDF78FFAFEF7C7F99620FEF7E6F950
:1033700040F63400FEF7D3FDFEF7BEF940F6C41068
:10338000FEF7D6FDFEF7B8F940F6C410FEF7C7FD0C
:10339000FEF7B2F91920FDF746FAFEF7ADF940F64F
:1033A0003400FEF7BCFDFEF7A7F94FF4AF60FEF75F
:1033B000B6FDFEF7A1F9FA20FDF735FAFDF774FA2C
:1033C0001920FDF730FAFDF76FFA1920FDF72BFAF7
:1033D000FDF76AFA40F25230FEF7AAFDFEF78CF9CB
:1033E0004FF4E1710120FEF720FAFDF76FFAFA20A1
:1033F000FDF70EFAFDF746FA0FE1022C5AD140F222
:10340000EE210120FEF711FAFDF760FA4FF49670F5
:10341000FDF7FEF9FDF736FAFEF76EF99620FEF796
:103420008DF940F63400FEF77AFDFEF765F940F6B7
:10343000C410FEF77DFDFEF75FF940F6C410FEF7FD
:103440006EFDFEF759F91920FDF7EDF940F6C410AD
:10345000FEF76EFDFEF750F940F63400FEF75FFD13
:10346000FEF74AF94FF4AF60FEF759FDFEF744F955
:10347000FA20FDF7D8F9FDF717FA1920FDF7D3F96F
:10348000FDF712FA1920FDF7CEF9FDF70DFA40F21B
:103490005230FEF74DFDFEF72FF940F2EE210120EC
:1034A000FEF7C3F9FDF712FAFA20FDF7B1F9FDF7BF
:1034B000E9F9B2E0032C59D1DC210120FEF7B5F97E
:1034C000FDF704FA4FF49670FDF7A2F9FDF7DAF96B
:1034D000FEF712F99620FEF731F940F63400FEF7B8
:1034E0001EFDFEF709F940F6C410FEF721FDFEF7B8
:1034F00003F940F6C410FEF712FDFEF7FDF819209F
:10350000FDF791F940F6C410FEF712FDFEF7F4F84E
:1035100040F63400FEF703FDFEF7EEF84FF4AF601F
:10352000FEF7FDFCFEF7E8F8FF20FDF77CF9FDF75C
:10353000BBF91920FDF777F9FDF7B6F91920FDF76A
:1035400072F9FDF7B1F940F25230FEF7F1FCFEF7E7
:10355000D3F840F2EE210020FEF767F9FDF7CBF932
:10356000FA20FDF755F9FDF78DF956E0042C54D1FA
:1035700040F2EE210020FEF758F9FDF7BCF94FF4B8
:103580009670FDF745F9FDF77DF9FEF7B5F8962041
:10359000FEF7D4F840F63400FEF7C1FCFEF7ACF8B5
:1035A00040F6C410FEF7C4FCFEF7A6F840F6C410BF
:1035B000FEF7B5FCFEF7A0F81920FDF734F9FEF789
:1035C0009BF840F63400FEF7AAFCFEF795F84FF49E
:1035D000AF60FEF7A4FCFEF78FF8FA20FDF723F9A1
:1035E000FDF762F91920FDF71EF9FDF75DF91920C5
:1035F000FDF719F9FDF758F940F25230FEF798FC43
:10360000FEF77AF8C8210120FEF70FF9FDF75EF901
:10361000FA20FDF7FDF8FDF735F910BD10B50446A9
:10362000002C44D14FF4E1710120FEF7FEF8FDF7C4
:103630004DF94FF49670FDF7EBF8FDF723F91920DB
:10364000FDF7F1F840F6C410FEF772FCFEF754F8EF
:1036500040F63400FEF763FCFEF74EF84FF4AF601F
:10366000FEF75DFCFEF748F8FA20FDF7DCF8FDF701
:103670001BF91920FDF7D7F8FDF716F91920FDF70A
:10368000D2F8FDF711F9FEF737F840F2EE210020ED
:10369000FEF7CBF8FDF72FF9FA20FDF7B9F8FDF7A3
:1036A000F1F81E20FDF7B4F8FDF7ECF80FE1012C5E
:1036B00048D140F24C410120FEF7B7F8FDF706F97A
:1036C0004FF49670FDF7A4F8FDF7DCF81920FDF72C
:1036D000AAF840F6C410FEF72BFCFEF70DF840F6F2
:1036E0003400FEF71CFCFEF707F84FF4AF60FEF75E
:1036F00016FCFEF701F8FA20FDF795F8FDF7D4F86F
:103700001920FDF790F8FDF7CFF81920FDF78BF899
:10371000FDF7CAF840F25230FEF70AFCFDF7ECFF65
:1037200040F2EE210120FEF780F8FDF7CFF8FA20F5
:10373000FDF76EF8FDF7A6F81E20FDF769F8FDF716
:10374000A1F8C4E0022C34D140F2EE210120FEF7B2
:103750006CF8FDF7BBF84FF49670FDF759F8FDF7DC
:1037600091F81920FDF75FF840F6C410FEF7E0FB72
:10377000FDF7C2FF40F63400FEF7D1FBFDF7BCFFBA
:103780004FF4AF60FEF7CBFBFDF7B6FF4FF4FA70D6
:10379000FDF749F8FDF788F81920FDF744F8FDF723
:1037A00083F81920FDF73FF8FDF77EF8FDF7A4FF39
:1037B0008DE0032C43D1DC210120FEF736F8FDF724
:1037C00085F84FF49670FDF723F8FDF75BF81920A4
:1037D000FDF729F840F6C410FEF7AAFBFDF78CFFB1
:1037E00040F63400FEF79BFBFDF786FF4FF4AF6019
:1037F000FEF795FBFDF780FFFA20FDF714F8FDF7C3
:1038000053F81920FDF70FF8FDF74EF81920FDF7D2
:103810000AF8FDF749F8FDF76FFF4FF4E17100205A
:10382000FEF703F8FDF767F8FA20FCF7F1FFFDF764
:1038300029F81E20FCF7ECFFFDF724F847E0042CE4
:1038400045D140F2EE210020FDF7EFFFFDF753F8E0
:103850004FF49670FCF7DCFFFDF714F81920FCF725
:10386000E2FF40F6C410FEF763FBFDF745FF40F6AC
:103870003400FEF754FBFDF73FFF4FF4AF60FEF757
:103880004EFBFDF739FFFA20FCF7CDFFFDF70CF8F2
:103890001920FCF7C8FFFDF707F81920FCF7C3FF54
:1038A000FDF702F8FDF728FFFDF726FF4FF4E17161
:1038B0000120FDF7BAFFFDF709F8FA20FCF7A8FF91
:1038C000FCF7E0FF1E20FCF7A3FFFCF7DBFF10BDB9
:1038D000704700000948804709480047FEE7FEE7B7
:1038E000FEE7FEE7FEE7FEE7FEE7FEE7FEE7FEE7B0
:1038F00004480549054A064B704700004315000877
:1039000031010008B8020020B8080020B8040020E7
:10391000B804002031490143314A1160704770B545
:10392000002100230F22C47804B32D4C246804F432
:10393000E064C4F5E064210AC1F10403CA4044789C
:1039400004FA03F18478144021430901254C0678D8
:10395000A155047804F01F050124AC4005786D11D1
:10396000AD0005F1E025C5F8004109E0047804F058
:103970001F050124AC401C4D0678761145F8264001
:1039800070BD1A4A0A400243154B1B1F1A6070474C
:1039900039B1134A121D12680243114B1B1D1A60E4
:1039A00006E00F4A121D126882430D4B1B1D1A6060
:1039B0007047042808D14FF0E021096941F0040163
:1039C0004FF0E022116107E04FF0E021096921F09A
:1039D00004014FF0E0221161704700000000FA0579
:1039E0000CED00E000E400E080E100E080FFFF1F5C
:1039F000002044490860091D0860091D0860091D70
:103A0000086041483F4914310860704700213D4932
:103A10008279002A3AD00A46126803689A430B4614
:103A20001A600A1D126803689A430B1D1A60027916
:103A300011440A6803681A430A60324A083212685D
:103A400003689A432F4B08331A601A1D12680368E3
:103A50009A432C4B0C331A604279102A0ED11A1F4C
:103A6000126803681A43274B08331A601A1D12683C
:103A700003681A43234B0C331A600DE02149427945
:103A800011440A6803681A430A6005E00279114488
:103A90000A6803689A430A60704700210160017157
:103AA0000C2141710021817170471649103109685C
:103AB0000143144A10321160704701460020114A38
:103AC000143212680A400AB1012000E00020704759
:103AD0000C49143108607047014600200022094B50
:103AE0001B6803EA0102074B14331B680B4013B138
:103AF0000AB1012000E0002070470249143108603B
:103B00007047000000040140FFFF0F0010B504469D
:103B1000CC48844208D10121042000F02DFB002173
:103B2000042000F029FB46E0C748844208D1012167
:103B3000082000F021FB0021082000F01DFB3AE0E6
:103B4000C248844208D10121102000F015FB002159
:103B5000102000F011FB2EE0BD48844208D1012165
:103B6000202000F009FB0021202000F005FB22E0CE
:103B7000B848844208D10121402000F0FDFA00211C
:103B8000402000F0F9FA16E0B348844208D1012140
:103B9000802000F0F1FA0021802000F0EDFA0AE028
:103BA000AE48844207D10121801500F0E5FA0021DA
:103BB000A01500F0E1FA10BD10B50121084600F093
:103BC000DBFA0021012000F0D7FA10BD2DE9F04109
:103BD000024600250026002000230024002791F83B
:103BE00003C00CF00F0591F803C00CF0100CBCF1F1
:103BF000000F03D091F802C04CEA050591F800C00F
:103C0000BCF1000F31D0146800202BE04FF0010C04
:103C10000CFA00F3B1F800C00CEA03069E4220D172
:103C200083004FF00F0C0CFA03F7BC4305FA03FCBA
:103C30004CEA040491F803C0BCF1280F06D14FF000
:103C4000010C0CFA00FCC2F814C00AE091F803C0A1
:103C5000BCF1480F05D14FF0010C0CFA00FCC2F882
:103C600010C0401C0828D1D31460B1F800C0BCF1CA
:103C7000FF0F34DD546800202EE000F1080C4FF0F7
:103C8000010808FA0CF3B1F800C00CEA03069E42E2
:103C900021D183004FF00F0C0CFA03F7BC4305FA57
:103CA00003FC4CEA040491F803C0BCF1280F05D1D1
:103CB00000F1080C08FA0CF8C2F8148091F803C05F
:103CC000BCF1480F07D100F1080C4FF0010808FAC9
:103CD0000CF8C2F81080401C0828CED35460BDE810
:103CE000F0814FF6FF710180022181700421C170C3
:103CF00070470246002093680B400BB1012000E0A2
:103D0000002070470146886880B270470246002054
:103D1000D3680B400BB1012000E000207047014642
:103D2000C86880B2704701617047416170470AB14D
:103D3000016100E041617047C16070474FF480321B
:103D40000A438261816182618269826970470246A9
:103D50000020434B18684FF68073184040EA021069
:103D600008433F4B186070473E49C8617047F0B543
:103D70000A46002300240021002500F00046B6F189
:103D8000004F02D1364EF16901E0354E7168C0F343
:103D9000034583B200F44016B6F5401F08D121F068
:103DA00070612F4E766826F070662D4F7E6012E0AF
:103DB00000F48016B6F5801F06D1032606FA05F436
:103DC000A14341F0706106E0460D360103FA06F6A4
:103DD000B14341F0706122B1460D360103FA06F697
:103DE000314300F00046B6F1004F02D11C4EF161A4
:103DF00001E01B4E7160F0BD30B500228B071C0F37
:103E00000F2303FA04F2164B08338C1053F82430B6
:103E10009343134C08348D1044F8253023468C10FE
:103E200053F824308C07240F00FA04F423430C4C7D
:103E300008348D1044F8253030BD0A49DC31086063
:103E40007047000000080140000C014000100140D4
:103E50000014014000180140001C014000200140F6
:103E60000000014000002042DF48006840F00100EF
:103E7000DD49086008464068DC490840DA49486086
:103E800008460068DA490840D749086008460068D3
:103E900020F4802008600846406820F4FE00486056
:103EA0004FF41F0088607047CF49096821F48031C2
:103EB000CD4A11601146096821F480211160B0F5E6
:103EC000803F03D0B0F5802F0ED106E0C6490968C7
:103ED00041F48031C44A116007E0C349096841F4E4
:103EE000A021C14A116000E000BF00BF704710B5BB
:103EF00001460022002300204A11012A02D1BA4CB7
:103F0000236806E0022A02D1B74C236A01E0B64CCE
:103F1000636A01F01F02012494401C400CB101208F
:103F200000E0002010BD38B50020009000240025DE
:103F300000BF3120FFF7DBFF05460098401C0090D2
:103F40000098B0F5A06F01D0002DF2D03120FFF71E
:103F5000CEFF08B1012400E00024204638BD014610
:103F60000020A14A106820F0F80040EAC10010606B
:103F70007047A04908607047024600209A4B586875
:103F800020F47C1042EA01031843974B58607047B5
:103F900098490866704701460020934A506820F00F
:103FA00003000843506070478F48406800F00C00E1
:103FB0007047014600208C4A506820F0F00008430A
:103FC0005060704701460020874A506820F4E06046
:103FD00008435060704701460020834A506820F42F
:103FE000605040EAC1005060704729B17E4A527A61
:103FF00002437D4B5A7204E07B4A527A82437A4BE9
:104000005A7270477B49D8310860704701460020DA
:10401000754A506820F440400843506070470021C2
:10402000714A20321170704A82F82010012802D0A3
:1040300004280AD104E001216B4A2032117005E006
:104040000521694A2032117000E000BF00BF7047AF
:104050006949086070476449096A0143624A11620C
:104060007047654944390860704730B50021002227
:10407000002400235C4D6D6805F00C0121B104297A
:1040800005D0082923D105E05C4D056022E05B4D99
:1040900005601FE0544D6D6805F47012524D6D6857
:1040A00005F48034022505EB92421CB9544D55436A
:1040B00005600BE04C4D6D6805F400351DB1504DA9
:1040C0005543056002E04D4D5543056002E04B4D00
:1040D000056000BF00BF444D6D6805F0F00109099F
:1040E000484D6B5C0568DD4045603F4D6D6805F4EB
:1040F000E061090A434D6B5C4568DD4085603A4DDF
:104100006D6805F46051C90A3E4D6B5C4568DD4041
:10411000C560354D6D6805F44041890B3A4D6B5CC7
:10412000C568B5FBF3F5056130BD29B12E4A52696A
:1041300002432D4B5A6104E02B4A526982432A4BB9
:104140005A61704729B1284A92690243264B9A6105
:1041500004E0254A92698243234B9A61704729B152
:10416000214AD2690243204BDA6104E01E4AD26937
:1041700082431D4BDA61704729B11B4AD268024362
:10418000194BDA6004E0184AD2688243164BDA60B1
:10419000704729B1144A12690243134B1A6104E0B3
:1041A000114A12698243104B1A6170471249403913
:1041B000086070470F49C86470470B49C871704761
:1041C0000948406A40F080700749486270470146DC
:1041D0000020054A92680A400AB1012000E0002050
:1041E0007047014988727047001002400000FFF8D4
:1041F000FFFFF6FE000042428004424200127A00B5
:1042000000093D00560000206600002010B504465D
:10421000FE48844208D10121C014FFF7ADFF002100
:10422000E014FFF7A9FFC4E0B4F1804F08D10121E9
:104230000846FFF7AEFF00210120FFF7AAFFB8E014
:10424000F348844208D101210220FFF7A2FF002198
:104250000220FFF79EFFACE0EE48844208D1012126
:104260000420FFF796FF00210420FFF792FFA0E053
:10427000E948844208D101210820FFF78AFF002184
:104280000820FFF786FF94E0E448844208D101212A
:104290001020FFF77EFF00211020FFF77AFF88E053
:1042A000DF48844208D101212020FFF772FF00215E
:1042B0002020FFF76EFF7CE0DA48844208D101211C
:1042C0004014FFF759FF00216014FFF755FF70E01D
:1042D000D548844209D10121C804FFF74DFF0021D0
:1042E0004FF40020FFF748FF63E0D048844209D133
:1042F00001210805FFF740FF00214FF48010FFF770
:104300003BFF56E0CA48844209D101214805FFF726
:1043100033FF00214FF40010FFF72EFF49E0C5489E
:10432000844208D101214020FFF733FF00214020C3
:10433000FFF72FFF3DE0C048844208D101218020D3
:10434000FFF727FF00218020FFF723FF31E0BB4864
:10435000844208D101218015FFF71BFF0021A01521
:10436000FFF717FF25E0B648844209D10121080470
:10437000FFF702FF00214FF48030FFF7FDFE18E049
:10438000B048844209D101214804FFF7F5FE00211D
:104390004FF40030FFF7F0FE0BE0AB48844208D149
:1043A00001218804FFF7E8FE00214FF48020FFF789
:1043B000E3FE10BD00220288944B98420ED0994B28
:1043C00098420BD0B0F1804F08D0914B984205D065
:1043D000904B984202D0904B984204D14FF68F7385
:1043E0001A404B881A438D4B984207D08C4B984209
:1043F00004D04FF6FF431A40CB881A4302808B88C3
:1044000083850B880385814B98420BD0854B98425E
:1044100008D08B4B984205D08A4B984202D08A4BE9
:10442000984201D10B7A038601238382704770B5CD
:10443000002400220023058C4FF6FE7635400584CB
:10444000028C8388048B4FF68F752C40B51E2C4050
:104450000D882C43751E2A400D892A434D882A4316
:104460006A4DA8420BD06F4DA84208D0744DA842A7
:1044700005D0744DA84202D0734DA84213D14FF617
:10448000F7752A404D892A434FF6FB752A408D88DF
:104490002A434FF6FF652B404FF6FF552B408D8981
:1044A0002B43CD892B4383800483CD88858602846A
:1044B00070BD70B5002400220023058C4FF6EF7606
:1044C00035400584028C8388048B48F6FF752C40A8
:1044D0004FF6FF452C400D884FF6FF7606EA05257E
:1044E0002C434FF6DF752A400D8906EA05152A434D
:1044F0004D8806EA05152A43444DA84202D0494D8D
:10450000A8421DD14FF67F752A404D894FF6FF76A0
:1045100006EA05152A434FF6BF752A408D8806EA3C
:1045200005152A434FF6FF352B404FF2FF752B4000
:104530008D8906EA85052B43CD8906EA85052B433F
:1045400083800483CD880587028470BD70B5002404
:1045500000220023058C4FF6FF6635400584028C4F
:104560008388848B4FF68F752C404FF6FC752C405A
:104570000D882C434FF6FF552A400D894FF6FF76E4
:1045800006EA05252A434D8806EA05252A431F4DDC
:10459000A84202D0234DA8421DD14FF2FF752A40F8
:1045A0004D894FF6FF7606EA05252A434FF6FF357B
:1045B0002A408D8806EA05252A434EF6FF752B40D2
:1045C0004DF6FF752B408D8906EA05152B43CD89E5
:1045D00006EA05152B4383808483CD888587028472
:1045E00070BD70B5002200230024058C4EF6FF76C6
:1045F00035400584038C8488828B48F6FF752A40F9
:104600004FF6FF452A400D8820E00000002C0140B5
:104610000004004000080040000C00400010004072
:104620000014004000340140004C014000500140A3
:104630000054014000180040001C004000200040D1
:104640000040014000440140004801404FF6FF7621
:1046500006EA05252A434DF6FF752B400D8906EA2B
:1046600005352B434D8806EA05352B43FA4DA84204
:1046700002D0FA4DA84208D14BF6FF752C408D8927
:104680004FF6FF7606EA85152C4384808283CD8819
:10469000A0F84050038470BD828B4FF2FF331A4064
:1046A0008283828B4FF6FF7303EA01231A438283CE
:1046B0007047F0B50C461546002200210026078CF5
:1046C0004EF6FF7C07EA0C070784828B018C4FF6BD
:1046D000FF7707EA043640F6FF473A404FF6FF7788
:1046E00007EA05273A434FF6FF7707EA03373A43CD
:1046F000D94FB8420ED0D94FB8420BD0B0F1804F4D
:1047000008D0D74FB84205D0D64FB84202D0D64FC6
:10471000B84206D14DF6FF77394046F48057394309
:1047200005E047F6FF57394044F480573943828308
:104730000184F0BD828B4FF6F3731A408283828B23
:104740000A4382837047F0B50C46154600220021CB
:104750000026078C4FF6FF6C07EA0C070784828B54
:10476000018C4FF6FF7707EA04264FF60C773A40A4
:104770004FF6FF7707EA03172F433A43B64FB84285
:104780000ED0B64FB8420BD0B0F1804F08D0B44F26
:10479000B84205D0B34FB84202D0B34FB84206D1A9
:1047A0004FF6FF57394046F48077394305E04FF222
:1047B000FF57394044F48077394382830184F0BD48
:1047C000028B4FF2FF331A400283028B4FF6FF73C6
:1047D00003EA01231A4302837047F0B50C461546DD
:1047E000002200210026078C4FF6EF7C07EA0C0719
:1047F0000784028B018C4FF6FF7707EA041640F618
:10480000FF473A404FF6FF7707EA03373A434FF640
:10481000FF7707EA05273A438F4FB8420ED08F4FF4
:10482000B8420BD0B0F1804F08D08D4FB84205D0C0
:104830008C4FB84202D08C4FB84206D14FF6DF778A
:10484000394046F01007394305E04FF65F773940AD
:1048500044F01007394302830184F0BD028B4FF608
:10486000F3731A400283028B0A4302837047F0B548
:104870000C46154600220021068C4FF6FE773E407E
:104880000684028B018C4FF60C7632407E1C06EAC1
:1048900003162E433243704EB0420ED06F4EB042DC
:1048A0000BD0B0F1804F08D06D4EB04205D06D4EA8
:1048B000B04202D06C4EB04206D14FF6FD76314088
:1048C00044F00106314305E04FF6F576314044F0FF
:1048D0000106314302830184F0BD70B505460C46E4
:1048E0005D4885420ED05D4885420BD0B5F1804FC2
:1048F00008D05B48854205D05A48854202D05A48C4
:10490000854200D100E000BF208850B92389A288E9
:1049100061882846FFF7ABFFE1882846FFF79EFF36
:1049200025E0208804280AD12389A28861882846A6
:10493000FFF753FFE1882846FFF742FF17E0208882
:1049400008280AD12389A28861882846FFF7FBFE40
:10495000E1882846FFF7EEFE09E02389A2886188F6
:104960002846FFF7A6FEE1882846FFF795FE70BDB2
:104970002DE9F04105460C4600260127608808B95C
:10498000022600E00026A088012801D1022700E0CD
:1049900001272088A0B92389A28861882846FFF7CB
:1049A00066FFE1882846FFF759FF23893A463146DA
:1049B0002846FFF712FFE1882846FFF701FF13E0C2
:1049C0002389A28861882846FFF707FFE1882846E7
:1049D000FFF7F6FE23893A4631462846FFF747FFA0
:1049E000E1882846FFF73AFFBDE8F0810A884B8846
:1049F0001A438B881A43CB881A430B891A434B8975
:104A00001A438B891A43A0F8442070474FF6FF7170
:104A1000818000210180C1804180017270470021A6
:104A2000018041808180C180018141818181C1817A
:104A30007047002101804180012181800021C180D7
:104A4000018170470021018041808180C180018106
:104A50004181818170470000002C014000340140F9
:104A60000004004000080040000C004021B1028812
:104A700042F00102028004E002884FF6FE731A4001
:104A80000280704731B1B0F8442042F40042A0F8EF
:104A9000442005E0B0F84420C2F30E02A0F8442000
:104AA00070471AB183890B43838102E083898B436A
:104AB000838170478182704741EA0203A0F8483041
:104AC00070471AB183890B43838102E083898B434A
:104AD0008381704701894FF6F87211400181704758
:104AE0000A46002101894FF68F7319401143018155
:104AF000704730B504460D4629462046FFF7F0FFC3
:104B0000208940F00700208130BD2DE9F0410446A6
:104B10000D4616461F46602D06D13B460122314602
:104B20002046FFF75AFE05E03B460122314620466B
:104B3000FFF79DFE29462046FFF7D2FF208940F06F
:104B400007002081BDE8F08130B50C4600210189C5
:104B5000C9B24FF6FF7505EA0325154325432943DE
:104B6000018130BD2DE9F04105460E4617469846B5
:104B7000002443463A4631462846FFF7E5FF2C8994
:104B80004FF6F870044044F007044FF68F7004406D
:104B900044F070042C81BDE8F081F0B504460D4668
:104BA00016461F463B46324629462046FFF7CCFFB5
:104BB000208940F480402081F0BD018582827047C9
:104BC0000A46002101884FF68F7319401143018076
:104BD0007047F0B50C4615461E4600210022002302
:104BE0000189028B038C4FF6F877394021434FF649
:104BF000FC473A4040F201173A434FF6DD773B401D
:104C00004FF6FF7707EA06172F433B4301810283E4
:104C10000384F0BD0A460021018B4FF68F731940C3
:104C20001143018370470A460021018B48F6FF7348
:104C300019404FF6FF7303EA0223194301837047BB
:104C40000A460021818B4FF68F73194011438183EF
:104C500070470A460021818B48F6FF7319404FF6D2
:104C6000FF7303EA022319438183704721B102884D
:104C700042F08002028004E002884FF67F731A40FF
:104C80000280704721B1828842F00402828004E0F1
:104C900082884FF6FB731A408280704721B1828868
:104CA00042F00802828004E082884FF6F7731A40CF
:104CB0008280704721B1828842F00102828004E044
:104CC00082884FF6FE731A40828070470A460021A0
:104CD000018B4FF6F77319401143018370470A4661
:104CE0000021018B4FF2FF7319404FF6FF7303EA67
:104CF00002231943018370470A460021818B4FF636
:104D0000F77319401143818370470A460021818B54
:104D10004FF2FF7319404FF6FF7303EA0223194362
:104D2000818370470A460021018B4FF6FB731940BF
:104D30001143018370470A460021018B4FF6FF3370
:104D400019404FF6FF7303EA0223194301837047AA
:104D50000A460021818B4FF6FB7319401143818372
:104D600070470A460021818B4FF6FF3319404FF6FA
:104D7000FF7303EA02231943818370470A46002127
:104D8000018B4FF67F7319401143018370470A4628
:104D90000021018BC1F30E014FF6FF7303EA0223DA
:104DA0001943018370470A460021818B4FF67F73B8
:104DB00019401143818370470A460021818BC1F35A
:104DC0000E014FF6FF7303EA0223194381837047F4
:104DD0000A460021018C4FF6FD73194011430184EE
:104DE00070470A460021018C4FF6F77319401143B2
:104DF000018470470A460021018C4FF6DF73194089
:104E00004FF6FF7303EA02131943018470470A4601
:104E10000021018C4FF67F7319404FF6FF7303EAB0
:104E200002131943018470470A460021018C4FF692
:104E3000FF5319404FF6FF7303EA0223194301841D
:104E400070470A460021018C4FF2FF7319404FF65C
:104E5000FF7303EA02231943018470470A460021C5
:104E6000018C4DF6FF7319404FF6FF7303EA0233CE
:104E700019430184704730B5002301248C40A3B24C
:104E8000048C9C430484048C02FA01F5ADB22C43DB
:104E9000048430BD30B5002304248C40A3B2048CBC
:104EA0009C430484048C02FA01F5ADB22C430484C3
:104EB00030BD70B503460020002418461830012587
:104EC0008D40ACB21D8CA5431D8409B1082909D1C0
:104ED00000EB6100056825F0700505600568154365
:104EE00005600EE00D1FC5F34E052844056825F446
:104EF000E045056005684FF6FF7606EA0226354371
:104F0000056070BD21B1028842F00202028004E017
:104F100002884FF6FD731A400280704721B1028863
:104F200042F00402028004E002884FF6FB731A404C
:104F30000280704721B1828842F08002828004E0C2
:104F400082884FF67F731A408280704702884FF63E
:104F5000F7731A40028002880A43028070478288F1
:104F60004FF68F731A40828082880A43828070478E
:104F700002894FF6F8731A40028102890A430281BE
:104F8000704702894FF67F731A40028102890A43F3
:104F900002817047818470478185704781867047A0
:104FA0000187704781877047A0F8401070470288DA
:104FB0004FF6FF431A40028002880A43028070477E
:104FC0000146888E70470146088F70470146888FDA
:104FD00070470146B1F8400070470146888C704721
:104FE0000146088D704702460020138A0B400BB122
:104FF000012000E000207047CA430282704730B5AC
:105000000246002000230024158A05EA0103958941
:1050100005EA010413B10CB1012000E0002030BD0D
:10502000CA4302827047000010B50446FB48844220
:1050300009D101218803FFF79FF800214FF4804038
:10504000FFF79AF832E0F648844209D1012148047A
:10505000FFF79FF800214FF40030FFF79AF825E0A2
:10506000F048844209D101218804FFF792F8002119
:105070004FF48020FFF78DF818E0EB48844209D107
:105080000121C804FFF785F800214FF40020FFF745
:1050900080F80BE0E548844208D101210805FFF7BC
:1050A00078F800214FF48010FFF773F810BD2DE958
:1050B000F04786B005460E460024A24600BFA14632
:1050C0000027B08900B100BF2F462C8A4CF6FF7034
:1050D0000440F08804432C82AC894EF6F31004405F
:1050E000B08831890843718908430443AC81AC8A94
:1050F0004FF6FF400440B0890443AC8201A8FEF79C
:10510000B4FFC648874202D1DDF810A001E0DDF807
:105110000CA0A88900F4004040B10AEBCA0000EBE3
:105120000A1031684900B0FBF1F807E00AEBCA0049
:1051300000EB0A1031688900B0FBF1F86420B8FB7D
:10514000F0F004012009642101FB1089A88900F412
:10515000004040B1322000EBC900B0FBF1F000F09C
:105160000700044308E0322000EB09106421B0FB83
:10517000F1F000F00F0004432C8106B0BDE8F08789
:105180004FF41651016000218180C18001810C2102
:10519000418100218181704710B502460020108AAC
:1051A0004FF2FF0318400B884C8823438C8823431D
:1051B000CC8823431843108210BD00210180418018
:1051C0008180C180704721B1828942F4005282817E
:1051D00004E082894DF6FF731A4082817047F0B572
:1051E0000346002400260025002040F66A17B94235
:1051F00000D100BF1846C1F3421401F01F06012779
:1052000007FA06F5012C01D10C3004E0022C01D183
:10521000103000E014301AB107682F43076002E035
:105220000768AF430760F0BD1AB1838A0B438382DE
:1052300002E0838A8B4383827047028A4FF6F073C1
:105240001A400282028A0A430282704782894FF220
:10525000FF731A40828182890A438281704721B19B
:10526000828942F00202828104E082894FF6FD7356
:105270001A4082817047028A4FF6DF731A40028219
:10528000028A0A430282704721B1028A42F48042B4
:10529000028204E0028A4BF6FF731A4002827047D2
:1052A000C1F308028280704701468888C0F3080075
:1052B0007047818941F0010181817047028BD2B230
:1052C0000283028B42EA012202837047028B02F4BE
:1052D0007F420283028B0A430283704721B1828A94
:1052E00042F02002828204E0828A4FF6DF731A4085
:1052F0008282704721B1828A42F01002828204E0E9
:10530000828A4FF6EF731A408282704721B1828AF7
:1053100042F00802828204E0828A4FF6F7731A4054
:105320008282704721B1828942F40042828103E087
:105330008289C2F30E028281704721B1828A42F4CF
:105340000062828204E0828A4FF2FF731A408282F6
:105350007047828A4FF6FB731A408282828A0A4320
:105360008282704721B1828A42F00202828204E086
:10537000828A4FF6FD731A408282704702460020EF
:10538000B1F5007F00D100BF13880B400BB10120A5
:1053900000E00020704701F40072B2F5007F00D1F8
:1053A00000BFCA430280704770B502460024002344
:1053B0000025002040F66A16B14200D100BFC1F3BB
:1053C000421501F01F03012606FA03F3012D02D155
:1053D0009689334006E0022D02D1168A334001E05F
:1053E000968A33400C12012606FA04F416883440DB
:1053F00013B10CB1012000E0002070BD10B50022F7
:10540000002340F66A14A14200D100BF0A12012411
:105410009440A3B2DC43048010BD0000003801407A
:105420000044004000480040004C00400050004054
:1054300010B58CB004461E230BAA03A9204600F029
:1054400015FE0090009810B101200CB010BD9DF821
:105450002C00044400200B900EE05E489DF82C20A8
:1054600050F8221003A800F069FD00B908E09DF88B
:105470002C00401CC0B20B909DF82C000828ECDBDF
:1054800000BF9DF82C00072879D2DFE800F0040562
:10549000395B8BA2A10000BF4FA000F0D9FF4FA045
:1054A00000F0D6FF5DA000F0D3FF6CA000F0D0FFAD
:1054B0007AA000F0CDFF89A000F0CAFF97A000F00D
:1054C000C7FFA4A000F0C4FFA9A000F0C1FFAEA0D8
:1054D00000F0BEFFB2A000F0BBFFB7A000F0B8FF25
:1054E000BBA000F0B5FFC1A000F0B2FFCCA000F05F
:1054F000AFFFD8A000F0ACFFE3A000F0A9FFA5E249
:1055000035A000F0A5FFF0A000F0A2FF00200B9056
:105510000EE0FD4800689DF82C2000EBC2004168B9
:10552000FAA000F095FF9DF82C00401CC0B20B9033
:10553000F548007D9DF82C108842EADC26A000F09A
:1055400087FF83E224A000F083FFF2A000F080FF39
:1055500000200B901CE0EC4909689DF82C2001EB21
:10556000C20101AB02AA486803A900F0A4FDE64805
:1055700000689DF82C1050F8312003A900E063E288
:10558000F4A000F065FF9DF82C00401CC0B20B9009
:10559000DD48007D9DF82C108842DCDC0EA000F078
:1055A00057FF53E20CA000F053FF0BAA03A92046BB
:1055B00000F058FE9DF82C0040B9694603A800F0A1
:1055C000F0FC0B909DF82C0008B9CDE1DEE1D0E1B4
:1055D0000DE2E1E16C0000200D0A00002D2D2D2DC3
:1055E0002D2D2D2D2D2D2D2D2D2D2D2D2D2D2D2DEB
:1055F0002D2D2D2D55534D4152542056322E382DE0
:105600002D2D2D2D2D2D2D2D2D2D2D2D2D2D2D2DCA
:105610002D2D2D2D2D2D2D200D0A00002020202098
:1056200055534D415254CAC7D3C9414C49454E54B4
:10563000454BBFAAB7A2B5C4D2BBB8F6C1E9C7C92A
:10564000B5C4B4AEBFDAB5F7CAD4BBA5BDBBD7E904
:10565000BCFE2CCDA8B9FD200D0A0000CBFC2CC44B
:10566000E3BFC9D2D4CDA8B9FDB4AEBFDAD6FACA69
:10567000D6B5F7D3C3B3CCD0F2C0EFC3E6B5C4C838
:10568000CEBACEBAAFCAFD2CB2A2D6B4D0D02ED2EA
:10569000F2B4CB2CC4E3BFC90D0A0000D2D4CBE6D0
:1056A000D2E2B8FCB8C4BAAFCAFDB5C4CAE4C8EB0C
:1056B000B2CECAFD28D6A7B3D6CAFDD7D628313078
:1056C0002F3136BDF8D6C629A1A2D7D6B7FBB4AEC6
:1056D000A1A2BAAFCAFDC8EB0D0A0000BFDAB5D867
:1056E000D6B7B5C8D7F7CEAAB2CECAFD292CB5A574
:1056F000B8F6BAAFCAFDD7EEB6E0D6A7B3D631300A
:10570000B8F6CAE4C8EBB2CECAFD2CB2A2D6A7B393
:10571000D6BAAFCAFDB7B5200D0A0000BBD8D6B5C2
:10572000CFD4CABE2ED0C2D4F6B2CECAFDCFD4CA10
:10573000BEBDF8D6C6C9E8D6C3B9A6C4DC2CD0C253
:10574000D4F6BDF8D6C6D7AABBBBB9A6C4DC2E0D0D
:105750000A000000BCBCCAF5D6A7B3D63A77777763
:105760002E6F70656E6564762E636F6D0D0A000096
:1057700055534D415254D3D036B8F6CFB5CDB3C3FF
:10578000FCC1EE3A0D0A00003F3A20202020BBF178
:10579000C8A1B0EFD6FAD0C5CFA20D0A0000000014
:1057A00068656C703A20BBF1C8A1B0EFD6FAD0C5DD
:1057B000CFA20D0A000000006C6973743A20BFC9C3
:1057C000D3C3B5C4BAAFCAFDC1D0B1ED0D0A0A004A
:1057D00069643A202020BFC9D3C3BAAFCAFDB5C49B
:1057E0004944C1D0B1ED0D0A0A0000006865783A5D
:1057F0002020B2CECAFD3136BDF8D6C6CFD4CABE3F
:105800002CBAF3B8FABFD5B8F12BCAFDD7D6BCB4C1
:10581000D6B4D0D0BDF8D6C6D7AABBBB0D0A0A00F5
:105820006465633A2020B2CECAFD3130BDF8D6C6D9
:10583000CFD4CABE2CBAF3B8FABFD5B8F12BCAFD83
:10584000D7D6BCB4D6B4D0D0BDF8D6C6D7AABBBBC9
:105850000D0A0A00C7EBB0B4D5D5B3CCD0F2B1E095
:10586000D0B4B8F1CABDCAE4C8EBBAAFCAFDC3FB35
:10587000BCB0B2CECAFDB2A2D2D4BBD8B3B5BCFCC8
:10588000BDE1CAF82E0D0A002D2D2D2D2D2D2D2D0B
:105890002D2D2D2D2D2D2D2D2D2D2D2D2D2D2D2D38
:1058A0002D2D414C49454E54454B2D2D2D2D2D2D43
:1058B0002D2D2D2D2D2D2D2D2D2D2D2D2D2D2D2D18
:1058C0002D2D2D200D0A00002D2D2D2D2D2D2D2DB2
:1058D0002D2D2D2D2D2D2D2D2D2D2D2D2D2D2D2DF8
:1058E0002DBAAFCAFDC7E5B5A52D2D2D2D2D2D2D1A
:1058F0002D2D2D2D2D2D2D2D2D2D2D2D2D2D2D2DD8
:105900002D2D2D2D200D0A00A400002025730D0A39
:10591000000000002D2D2D2D2D2D2D2D2D2D2D2D6B
:105920002D2D2D2D2D2D2D2D2D2D2D2D2DBAAFCAFB
:10593000FD204944202D2D2D2D2D2D2D2D2D2D2DAE
:105940002D2D2D2D2D2D2D2D2D2D2D2D2D2D2D2D87
:10595000200D0A0025732069642069733A0D0A300E
:1059600058253038580D0A00FBA0009900F070FD52
:105970000EE09DF82C00042801D0022065E5F9A076
:1059800000F066FD0120FC49C87501E002205CE5DD
:10599000F3A000F05DFD59E0F1A000F059FD0BAA65
:1059A00003A9204600F05EFC9DF82C00C8B96946AA
:1059B00003A800F0F6FA0B909DF82C0020B9EFA098
:1059C000009900F045FD0EE09DF82C00042801D060
:1059D00002203AE5ECA000F03BFD0020E649C87546
:1059E00001E0022031E5DEA000F032FD2EE0DCA077
:1059F00000F02EFD0BAA03A9204600F033FC9DF811
:105A00002C00D8B9694603A800F0CBFA0B909DF89A
:105A10002C0088B9D848C07D012806D100980146DD
:105A20000268DEA000F014FD0AE00098014602685A
:105A3000DEA000F00DFD03E0022006E5022004E5F3
:105A4000C7A000F005FD01E00120FEE400BF00203A
:105A5000FBE410B501218807FFF7D1FA10B1C64960
:105A60000869804701218807FFF7DAFA10BD7FB582
:105A700004460D4601210846FEF771FB41F28830CD
:105A8000ADF8080041F61F40ADF804000020ADF865
:105A90000A00ADF8060001A94FF08040FEF78AFC2D
:105AA000012241218807FEF7FCFF1C208DF8000031
:105AB00003208DF801008DF8020001208DF803000D
:105AC0006846FDF72CFF01218807FEF7CFFF7FBD59
:105AD00010B5044604EBC40000EB04100122C2EB35
