:020000040800F2
:1000000000090020E1690008B5670008B76700082B
:10001000BB670008BF670008C36700080000000056
:10002000000000000000000000000000C76700089A
:10003000C967000800000000CB670008CD67000812
:10004000FB690008FB690008FB690008FB69000800
:10005000FB690008FB690008FB690008FB690008F0
:10006000FB690008CF9B0008FB690008FB690008DA
:10007000FB690008FB690008FB690008FB690008D0
:10008000FB690008FB690008FB690008FB690008C0
:10009000FB690008FB690008FB690008FB690008B0
:1000A000FB690008FB690008FB690008FB690008A0
:1000B000FB690008FB690008FB690008FB69000890
:1000C000FB690008FB690008FB690008FB69000880
:1000D000FB6900084F880008FB690008FB690008FD
:1000E000FB690008FB690008FB690008FB69000860
:1000F000FB690008FB690008FB690008FB69000850
:10010000FB690008FB690008FB690008FB6900083F
:10011000FB690008FB690008FB690008EF8B000819
:10012000FB690008FB690008FB690008FB6900081F
:10013000FB690008FB690008FB690008FB6900080F
:10014000FB690008FB690008FB690008FB690008FF
:10015000FB690008FB690008FB690008FB690008EF
:10016000FB690008FB690008FB690008FB690008DF
:10017000FB690008FB690008FB690008FB690008CF
:10018000FB690008FB69000800F002F800F03CF889
:100190000AA090E8000C82448344AAF10107DA45E2
:1001A00001D100F031F8AFF2090EBAE80F0013F0F8
:1001B000010F18BFFB1A43F0010318476CA10000A0
:1001C0008CA10000103A24BF78C878C1FAD8520731
:1001D00024BF30C830C144BF04680C6070470000C1
:1001E0000023002400250026103A28BF78C1FBD840
:1001F000520728BF30C148BF0B6070471FB50AF0D7
:1002000082F81FBD10B510BD09F009FD1146FFF7BA
:10021000F5FF00F07BFA09F027FD03B4FFF7F2FFCA
:1002200003BC08F0B5FA000070B52DED048B044650
:100230002546002C7EDD91E04021F84806F0D0FDF7
:10024000F74908608021F54806F0CAFDF5490860C5
:100250004FF48071F14806F0C3FDF34908600221B4
:10026000F24806F0BDFDF24908604FF40071EB481A
:1002700006F0B6FDEF4908604FF48061E74806F0EC
:10028000AFFDED4908600221E44806F0A9FDEB4905
:1002900008600421E14806F0A3FDE949086008214F
:1002A000DE4806F09DFDE7490860E74890ED021B37
:1002B000B0EE410AF0EE610A51EC100B09F0EEFCD1
:1002C00008EE100AF8EE080AB0EE480ADF4808F017
:1002D000E5FFDD4890ED041BB0EE410AF0EE610A47
:1002E00051EC100B09F0DAFC08EE100AF0EE080AE7
:1002F000B0EE480AD64808F0D1FFD54890ED080A7C
:1003000010EE101A084609F08DFF41EC180BCF488B
:1003100090ED080A10EE101A084609F083FF41EC30
:10032000190BB0EE481AF0EE681AB0EE490AF0EE7A
:10033000690A00E014E008F0C6FCC348C069A042A6
:100340000CDDB7480068012807D0B64800680128CE
:1003500003D0B5480068012800D100E06CE700BF79
:10036000002C7CDC92E04021AC4806F039FDAC4921
:1003700008608021A94806F033FDAA4908604FF4BF
:100380008071A64806F02CFDA74908600221A74805
:1003900006F026FDA64908604FF400719F4806F05C
:1003A0001FFDA44908604FF480619C4806F018FDC9
:1003B000A14908600221994806F012FD9F49086092
:1003C0000421964806F00CFD9D49086008219348D9
:1003D00006F006FD9B4908609B4890ED021BB0EEBD
:1003E000410AF0EE610A51EC100B09F057FC08EEDF
:1003F000100AF0EE080AB0EE480A944808F04EFFE2
:10040000914890ED041BB0EE410AF0EE610A51EC08
:10041000100B09F043FC08EE100AF8EE080AB0EEE3
:10042000480A8B4808F03AFF894890ED080A10EE18
:10043000101A084609F0F6FE41EC180B834890EDBF
:10044000080A10EE101A084609F0ECFE41EC190BF0
:10045000B0EE481AF0EE681AB0EE490A00E017E074
:10046000F0EE690A08F02FFC774880696142884203
:100470000CDD6B480068012807D06A480068012835
:1004800003D069480068012800D100E06BE700BF95
:10049000002022E06F4951F82010491B6D4A42F8B4
:1004A0002010114651F82010B1F5C86F06DD114635
:1004B00051F82010A1F5486142F82010654951F823
:1004C000201011F5C86F07DC624951F8201001F5C2
:1004D0004861604A42F82010401C0828DADB0020FE
:1004E00059498861C8619FED5C0B5D4880ED000B48
:1004F00052E0554890ED021BB0EE410AF0EE610A61
:1005000051EC100B09F0CAFB08EE100ADFED550A9A
:10051000B0EE480A4D4808F0C1FE4B4890ED041B70
:10052000B0EE410AF0EE610A51EC100B09F0B6FB97
:1005300008EE100ADFED4B0AB0EE480A444808F016
:10054000ADFE434890ED080A10EE101A084609F077
:1005500069FE41EC180B3D4890ED080A10EE101AA8
:10056000084609F05FFE41EC190BB0EE481AF0EEB8
:10057000681AB0EE490AF0EE690A08F0A4FB9FED94
:100580003A0B53EC102B364890ED000B51EC100B4E
:1005900009F028FD00D200E0ABE700BFBDEC048B02
:1005A00070BD70B504460D460A2C6FD2DFE804F02A
:1005B000050B11171D23292F626840F692112C4854
:1005C00007F083FA63E040F60201294807F07DFA5C
:1005D0005DE040F25461264807F077FA57E04FF4A7
:1005E0009661234807F071FA51E04FF443712048B7
:1005F00007F06BFA4BE04FF470711D4807F065FA95
:1006000045E04FF4C8711A4807F05FFA3FE04FF435
:100610001661174807F059FA39E037E00008024040
:100620000000002004000020080000200004024018
:100630000C000020100000201400002018000020F2
:100640001C0000202000002060020020F00000209C
:1006500038010020780000200000000000000000A9
:10066000C8000020000000009A9999999999B93F13
:100670000018004040F29E71FE4807F026FA06E09E
:1006800040F2DC51FB4807F020FA00E000BF00BF59
:100690000A2C38D2DFE804F0050A0F14191E2328AB
:1006A0002D322946F34807F012FA2DE02946F24888
:1006B00007F00BFA28E02946EF4807F008FA23E094
:1006C0002946ED4807F007FA1EE02946EA4807F0F8
:1006D00000FA19E02946E74807F0F9F914E029463D
:1006E000E54807F0F2F90FE02946E34807F0EFF993
:1006F0000AE02946E04807F0EEF905E02946DE4821
:1007000007F0E7F900E000BF00BF70BD86B0DFED85
:10071000DB0A9FEDDA0ADA4A0021DA4808F090FD98
:10072000DFEDD60A9FEDD50AD54A0021D64808F05C
:1007300087FD4FF4A06006F073F9542007F0A6FF80
:1007400008F030FD08F01DF908F0C6F8012141F26B
:10075000873008F06CF9012141F2873008F0B4F9D4
:1007600008F000FA532144F61F6008F05BFBA72154
:1007700044F61F6008F0C2FBA72144F61F6008F092
:1007800008FC532144F61F6008F04FFC40F247314B
:1007900040F2E73008F0FFF909F0DDF901210846E1
:1007A00008F098FE40F25461B24807F08EF94FF419
:1007B000FA61B04807F08BF94FF4FA61AE4807F0E0
:1007C00084F94FF4FA61AC4807F081F94FF4FA610B
:1007D000A94807F080F94FF4FA61A74807F079F9C2
:1007E00040F2DC51A94807F070F94FF4FA61A848CB
:1007F00007F06BF94FF4FA6007F0AAFF0020A54953
:100800008861C86105F09DBFF2E04021A24806F072
:10081000E7FAA249086080219F4806F0E1FAA04962
:1008200008604FF480719C4806F0DAFA9D49086030
:1008300002219D4806F0D4FA9C4908604FF40071EB
:10084000954806F0CDFA9A4908604FF480619248C5
:1008500006F0C6FA9749086002218F4806F0C0FAF0
:100860009549086004218C4806F0BAFA934908605B
:100870000821894806F0B4FA91490860894800685F
:1008800090B98648006801280ED185480068012883
:100890000AD19FED8C0B8D4880ED000B9FED8C0BEA
:1008A0008D4880ED000B49E07E48006888B97B48A0
:1008B000006870B97A48006801280AD19FED870B5B
:1008C000824880ED000B9FED870B834880ED000B85
:1008D00034E074480068012811D17048006801288C
:1008E0000DD16F48006850B99FED790B774880EDC6
:1008F000000B9FED740B784880ED000B1EE06948FB
:100900000068012810D16548006868B9644800682B
:1009100050B99FED740B6D4880ED000B9FED6F0B90
:100920006D4880ED000B09E09FED700B674880ED8E
:10093000000B9FED6E0B684880ED000B634890ED57
:10094000000B51EC100B09F0A9F90590514890EDFE
:10095000020B8DED020B9DED020B51EC100B09F01B
:100960009DF90490DDED050A9DED040A454808F067
:1009700095FC594890ED000B51EC100B09F08EF9E5
:100980000590444890ED040B8DED020B9DED020B9C
:1009900051EC100B09F082F90490DDED050A9DED94
:1009A000040A394808F07AFC3748006A019009F0D7
:1009B00039FCCDE904013348006A019009F032FCAA
:1009C000CDE902019DED041B9DED020B08F07BF9C2
:1009D0004FF4FA610220FFF7E4FD2E48C06941F2AE
:1009E0008831884204DD34480068012800D100E0E5
:1009F0000BE700BF002027498861C8611FEDEA0BA3
:100A00003C4880ED000B8AE0224890ED020B8DED12
:100A1000020B9DED020B51EC100B09F03FF95FED5D
:100A2000EF0A05909DED050A164808F037FC1948B5
:100A300090ED040B8DED020B9DED020B51EC100BB4
:100A400009F02CF95FEDF90A05909DED050A0E48B5
:100A500008F024FC0C48006A019009F0E3FBCDE9A2
:100A600004010848006A019009F0DCFBCDE90201AD
:100A700042E00000001800400008004000409C4593
:100A80001CA30008F00000203801002000400140B5
:100A900000480140600200200008024000000020E1
:100AA0000400002008000020000402400C00002088
:100AB0001000002014000020180000201C0000205E
:100AC000200000200000000000001C402800002042
:100AD0000000000000001440300000200000000072
:100AE0000000204000000000000010400000000056
:100AF00000001840C80000209DED041B9DED020B76
:100B000008F0E1F89FEDFB0B53EC102BFB4890ED48
:100B1000000B51EC100B09F065FA00D200E073E70E
:100B200000BF9FEDF70BF54880ED000B4BE0F6485A
:100B300090ED020B8DED020B9DED020B51EC100BB5
:100B400009F0ACF8DFEDF10A05909DED050AF048DB
:100B500008F0A4FBEC4890ED040B8DED020B9DED2D
:100B6000020B51EC100B09F099F8DFEDE80A059043
:100B70009DED050AE74808F091FBE648006A019000
:100B800009F050FBCDE90401E148006A019009F049
:100B900049FBCDE902019DED041B9DED020B08F020
:100BA00092F84FF4FA710220FFF7FBFC9FEDDA0B8D
:100BB00053EC102BD14890ED000B51EC100B09F0C9
:100BC00011FA00D200E0B2E700BF9FEDCD0BCB4899
:100BD00080ED000B4BE0CC4890ED020B8DED020B4D
:100BE0009DED020B51EC100B09F058F8DFEDC70A30
:100BF00005909DED050AC64808F050FBC24890EDEF
:100C0000040B8DED020B9DED020B51EC100B09F066
:100C100045F8DFEDBE0A05909DED050ABD4808F0D8
:100C20003DFBBC48006A019009F0FCFACDE90401E3
:100C3000B748006A019009F0F5FACDE902019DED8F
:100C4000041B9DED020B08F03EF84FF4FA710720EB
:100C5000FFF7A7FC9FEDB20B53EC102BA74890EDCC
:100C6000000B51EC100B09F0BDF900D200E0B2E727
:100C700000BF9FEDA30BA14880ED000B4AE0A24806
:100C800090ED020B8DED020B9DED020B51EC100B64
:100C900009F004F8DFED9D0A05909DED050A9C48DA
:100CA00008F0FCFA984890ED040B8DED020B9DEDD9
:100CB000020B51EC100B08F0F1FFDFED940A0590E8
:100CC0009DED050A934808F0E9FA9248006A019000
:100CD00009F0A8FACDE904018D48006A019009F0F5
:100CE000A1FACDE902019DED041B9DED020B07F079
:100CF000EAFF08F0D7FC8C4988609FED8C0B53EC21
:100D0000102B7E4890ED000B51EC100B09F06AF9A6
:100D100000D200E0B3E700BF3AE14021854806F089
:100D20005FF8854908608021824806F059F88349B8
:100D300008604FF480717F4806F052F880490860DF
:100D40000221804806F04CF87F4908604FF400719A
:100D5000784806F045F87D4908604FF48061754891
:100D600006F03EF87A4908600221724806F038F829
:100D70007849086004216F4806F032F87649086027
:100D800008216C4806F02CF8744908607048006827
:100D900090B96D48006801280ED16C4800680128A0
:100DA0000AD19FED6F0B704880ED000B9FED6F0B2C
:100DB000704880ED000B49E06548006888B96248DA
:100DC000006870B96148006801280AD19FED6A0B7C
:100DD000654880ED000B9FED6A0B664880ED000BC7
:100DE00034E05B480068012811D1574800680128A9
:100DF0000DD15648006850B99FED5C0B5A4880ED04
:100E0000000B9FED570B5B4880ED000B1EE0504838
:100E10000068012810D14C48006868B94B48006848
:100E200050B99FED570B504880ED000B9FED520BD2
:100E3000504880ED000B09E09FED530B4A4880EDD0
:100E4000000B9FED510B4B4880ED000B464890ED99
:100E5000000B51EC100B08F021FF05902A4890ED93
:100E6000020B8DED020B9DED020B51EC100B08F007
:100E700015FF0490DDED050A9DED040A244808F0F5
:100E80000DFA3C4890ED000B51EC100B08F006FFFA
:100E900005901D4890ED040B8DED020B9DED020BAE
:100EA00051EC100B08F0FAFE0490DDED050A9DED03
:100EB000040A184808F0F2F91648006A019009F08F
:100EC000B1F9CDE904011248006A019009F0AAF9CC
:100ED000CDE902019DED041B9DED020B07F0F3FE31
:100EE0004FF4FA610420FFF75CFB1B4800680128FF
:100EF0004ED14EE09A9999999999B93FC80000202E
:100F0000000000000000000060020020000000005F
:100F1000F000002038010020000000000000F03F39
:100F200000000000000000408001002000000000E0
:100F30000000E03F00080240000000200400002004
:100F400008000020000402400C00002010000020D7
:100F500014000020180000201C00002020000020A9
:100F600000000000000012C0280000200000000067
:100F7000000016C03000002000000000000010C07B
:100F800000000000000018C000000000000014C0B5
:100F9000C3E600BF0020FE498861C8611FED280B31
:100FA000FC4880ED000B46E0F94890ED020B8DED1A
:100FB000020B9DED020B51EC100B08F06FFE5FED84
:100FC0002D0A05909DED050AF34808F067F9F048F1
:100FD00090ED040B8DED020B9DED020B51EC100B0F
:100FE00008F05CFE5FED370A05909DED050AEB48C1
:100FF00008F054F9E948006A019009F013F9CDE9C5
:101000000401E548006A019009F00CF9CDE90201FC
:101010009DED041B9DED020B07F055FE1FED3D0BF2
:1010200053EC102BDB4890ED000B51EC100B08F04B
:10103000D9FF00D200E0B7E700BFD948806905902A
:10104000FFF7F2F81FED520BD24880ED000B46E09F
:10105000CF4890ED020B8DED020B9DED020B51EC94
:10106000100B08F01BFE5FED570A05909DED050A79
:10107000C94808F013F9C64890ED040B8DED020B3A
:101080009DED020B51EC100B08F008FE5FED610ABC
:1010900005909DED050AC14808F000F9BF48006AB7
:1010A000019009F0BFF8CDE90401BB48006A019046
:1010B00009F0B8F8CDE902019DED041B9DED020B8E
:1010C00007F001FE1FED670B53EC102BB14890EDBC
:1010D000000B51EC100B08F085FF00D200E0B7E7E1
:1010E00000BF2BE14021AF4805F07AFEAE49086011
:1010F0008021AC4805F074FEAC4908604FF4807163
:10110000A84805F06DFEAA4908600221A94805F02B
:1011100067FEA94908604FF40071A24805F060FE1F
:10112000A64908604FF480619E4805F059FEA44925
:10113000086002219B4805F053FEA2490860042183
:10114000984805F04DFEA04908600821954805F033
:1011500047FE9E4908609648006890B9924800682A
:1011600001280ED19148006801280AD19FED980B03
:10117000994880ED000B9FED990B9A4880ED000B8C
:1011800049E08B48006888B98748006870B987488B
:10119000006801280AD19FED940B8F4880ED000B69
:1011A0009FED930B8F4880ED000B34E08048006882
:1011B000012811D17C48006801280DD17B480068C6
:1011C00050B99FED860B844880ED000B9FED800B9E
:1011D000844880ED000B1EE075480068012810D19E
:1011E0007148006868B97148006850B99FED800B7C
:1011F000794880ED000B9FED7C0B7A4880ED000B69
:1012000009E09FED7D0B744880ED000B9FED7A0B9C
:10121000744880ED000B704890ED000B51EC100B02
:1012200008F03CFD05905A4890ED020B8DED020B45
:101230009DED020B51EC100B08F030FD0490DDED3C
:10124000050A9DED040A544808F028F8654890ED19
:10125000000B51EC100B08F021FD05904C4890ED6F
:10126000040B8DED020B9DED020B51EC100B08F001
:1012700015FD0490DDED050A9DED040A474808F0D0
:101280000DF84648006A019008F0CCFFCDE9040152
:101290004148006A019008F0C5FFCDE902019DEDCB
:1012A000041B9DED020B07F00EFD4FF4FA610420C4
:1012B000FFF777F94348006801283FD107F048FA63
:1012C0004021384805F08CFD3749086080213548B9
:1012D00005F086FD354908604FF48071314805F00E
:1012E0007FFD334908600221324805F079FD32491B
:1012F00008604FF400712B4805F072FD2F4908601B
:101300004FF48061274805F06BFD2D4908600221EC
:10131000244805F065FD2B4908600421214805F0AB
:101320005FFD2949086008211E4805F059FD27493D
:10133000086024480068012800D100E0D2E600BF20
:10134000002013498861C8619FED2D0B114880ED85
:10135000000B86E00E4890ED020B8DED020B9DED2B
:10136000020B51EC100B08F099FCDFED270A0590F9
:101370009DED050A084807F091FF054890ED040B24
:101380008DED020B9DED020B51EC100B3EE00000C9
:1013900060020020C8000020F0000020380100207A
:1013A0007800002000080240000000200400002017
:1013B00008000020000402400C0000201000002063
:1013C00014000020180000201C0000202000002035
:1013D0000000000000001C40280000200000000069
:1013E00000001440300000200000000000002040F9
:1013F0000000000000001040000000000000184045
:1014000000000000000000000000000008F046FCA2
:101410005FED030A05909DED050AFE4807F03EFFCB
:10142000FC48006A019008F0FDFECDE90401FA488D
:10143000006A019008F0F6FECDE902019DED041B63
:101440009DED020B07F03FFC9FEDF40B53EC102BCE
:10145000F44890ED000B51EC100B08F0C3FD00D2E6
:1014600000E077E700BF1FED1A0BEE4880ED000BA0
:101470004BE0ED4890ED020B8DED020B9DED020B64
:1014800051EC100B08F00AFC5FED210A05909DED70
:10149000050AE14807F002FFE34890ED040B8DEDEB
:1014A000020B9DED020B51EC100B08F0F7FB5FED0A
:1014B0002A0A05909DED050AD64807F0EFFED548AB
:1014C000006A019008F0AEFECDE90401D248006A3E
:1014D000019008F0A7FECDE902019DED041B9DEDF2
:1014E000020B07F0F0FB4FF4FA710420FFF759F8F4
:1014F0009FEDCE0B53EC102BCA4890ED000B51EC36
:10150000100B08F06FFD00D200E0B2E700BF1FED46
:10151000440BC44880ED000B4BE0C34890ED020B38
:101520008DED020B9DED020B51EC100B08F0B6FB9C
:101530005FED4B0A05909DED050AB74807F0AEFE3A
:10154000B94890ED040B8DED020B9DED020B51ECB3
:10155000100B08F0A3FB5FED540A05909DED050A02
:10156000AC4807F09BFEAB48006A019008F05AFEB9
:10157000CDE90401A848006A019008F053FECDE9C6
:1015800002019DED041B9DED020B07F09CFB4FF447
:10159000FA710920FFF705F89FEDA60B53EC102B0D
:1015A000A04890ED000B51EC100B08F01BFD00D291
:1015B00000E0B2E700BF1FED6E0B9A4880ED000B14
:1015C00010E008F06FF89D4908619FED9D0B53EC0A
:1015D000102B944890ED000B51EC100B08F002FD1D
:1015E00000D200E0EDE700BF75E14021964805F02C
:1015F000F7FB964908608021934805F0F1FB944978
:1016000008604FF48071904805F0EAFB914908604A
:101610000221914805F0E4FB904908604FF4007105
:10162000894805F0DDFB8E4908604FF480618648EB
:1016300005F0D6FB8B4908600221834805F0D0FBFA
:10164000894908600421804805F0CAFB8749086081
:1016500008217D4805F0C4FB854908608148006881
:1016600090B97E48006801280ED17D4800680128A5
:101670000AD19FED800B814880ED000B9FED800B20
:10168000814880ED000B49E07648006888B97348CE
:10169000006870B97248006801280AD19FED7B0B81
:1016A000764880ED000B9FED7B0B774880ED000BBB
:1016B00034E06C480068012811D1684800680128AE
:1016C0000DD16748006850B99FED6D0B6B4880EDF8
:1016D000000B9FED680B6C4880ED000B1EE061482D
:1016E0000068012810D15D48006868B95C4800684E
:1016F00050B99FED680B614880ED000B9FED630BC7
:10170000614880ED000B09E09FED640B5B4880EDC4
:10171000000B9FED620B5C4880ED000B574890ED8D
:10172000000B51EC100B08F0B9FA05903E4890ED13
:10173000020B8DED020B9DED020B51EC100B08F02E
:10174000ADFA0490DDED050A9DED040A324807F07C
:10175000A5FD4D4890ED000B51EC100B08F09EFAE2
:101760000590314890ED040B8DED020B9DED020BC1
:1017700051EC100B08F092FA0490DDED050A9DED96
:10178000040A244807F08AFD2248006A019008F004
:1017900049FDCDE904012048006A019008F042FDAE
:1017A000CDE902019DED041B9DED020B07F08BFAC4
:1017B0004FF4FA610020FEF7F4FE2C48006801287F
:1017C00070D106F0C5FF40211F4805F009FB1F49F5
:1017D000086080211C4805F003FB1D4908604FF498
:1017E0008071194805F0FCFA1A49086002211A486C
:1017F00005F0F6FA194908604FF40071124805F037
:10180000EFFA174908604FF480610F4805F0E8FAD5
:10181000144948E038010020F00000209A99999975
:101820009999B93FC8000020600200200000000024
:101830000000F03F00000000000000408001002098
:10184000000000000000E03F00080240000000200F
:101850000400002008000020000402400C000020CA
:101860001000002014000020180000201C000020A0
:101870002000002000000000000012C0280000200E
:1018800000000000000016C0300000200000000032
:10189000000010C000000000000018C000000000A0
:1018A000000014C017E008600221F64805F098FA1D
:1018B000F54908600421F34805F092FAF3490860FD
:1018C0000821F04805F08CFAF1490860EF480068FB
:1018D000012800D100E088E600BF0020ED498861C2
:1018E000C8619FEDED0BEE4880ED000B46E0E94846
:1018F00090ED020B8DED020B9DED020B51EC100BE8
:1019000008F0CCF9DFEDE70A05909DED050AE64801
:1019100007F0C4FCDF4890ED040B8DED020B9DED4C
:10192000020B51EC100B08F0B9F9DFEDDE0A05905F
:101930009DED050ADD4807F0B1FCDC48006A019026
:1019400008F070FCCDE90401D748006A019008F066
:1019500069FCCDE902019DED041B9DED020B07F032
:10196000B2F91FED490B53EC102BCD4890ED000B55
:1019700051EC100B08F036FB00D200E0B7E700BFD7
:10198000CB4880680590FEF74FFC9FEDC30BC44821
:1019900080ED000B46E0BF4890ED020B8DED020B91
:1019A0009DED020B51EC100B08F078F9DFEDBD0A4C
:1019B00005909DED050ABC4807F070FCB54890ED18
:1019C000040B8DED020B9DED020B51EC100B08F09A
:1019D00065F9DFEDB40A05909DED050AB34807F0FF
:1019E0005DFCB248006A019008F01CFCCDE90401DE
:1019F000AD48006A019008F015FCCDE902019DEDAB
:101A0000041B9DED020B07F05EF91FED730B53EC09
:101A1000102BA34890ED000B51EC100B08F0E2FAEC
:101A200000D200E0B7E700BF6AE14021954805F029
:101A3000D7F9A04908608021924805F0D1F99E4964
:101A400008604FF480718F4805F0CAF99B4908601F
:101A500002219B4805F0C4F99A4908604FF40071CF
:101A6000884805F0BDF9984908604FF480618548C1
:101A700005F0B6F9954908600221824805F0B0F9F1
:101A80008149086004217F4805F0AAF97F49086070
:101A900008217C4805F0A4F97D4908608748006862
:101AA00090B98448006801280ED183480068012855
:101AB0000AD19FED870B884880ED000B9FED870BC7
:101AC000884880ED000B49E07C48006888B9794877
:101AD000006870B97848006801280AD19FED820B30
:101AE0007D4880ED000B9FED820B7E4880ED000B62
:101AF00034E072480068012811D16E48006801285E
:101B00000DD16D48006850B99FED740B724880ED9F
:101B1000000B9FED6F0B734880ED000B1EE06748D4
:101B20000068012810D16348006868B962480068FD
:101B300050B99FED6F0B684880ED000B9FED6A0B6D
:101B4000684880ED000B09E09FED6B0B624880ED6B
:101B5000000B9FED690B634880ED000B5E4890ED34
:101B6000000B51EC100B08F099F80590494890EDE6
:101B7000020B8DED020B9DED020B51EC100B08F0EA
:101B80008DF80490DDED050A9DED040A464807F046
:101B900085FB544890ED000B51EC100B08F07EF8DB
:101BA00005903C4890ED040B8DED020B9DED020B72
:101BB00051EC100B08F072F80490DDED050A9DED74
:101BC000040A3A4807F06AFB3848006A019008F0B6
:101BD00029FBCDE904013448006A019008F022FB9A
:101BE000CDE902019DED041B9DED020B07F06BF8A2
:101BF0004FF4FA610020FEF7D4FC23480068012866
:101C00007ED106F0A5FD40211E4805F0E9F82949DE
:101C1000086080211B4805F0E3F8274908604FF46D
:101C20008071184805F0DCF8244908600221244836
:101C300005F0D6F8234908604FF40071114805F00B
:101C4000CFF8214908604FF480610E4805F0C8F8CC
:101C50001E49086002210B4805F0C2F80A490860D5
:101C60000421084805F0BCF8084908600821054827
:101C700005F0B6F8064908600348006801283FD11E
:101C80003FE03DE000080240180000201C0000205A
:101C90002000002060020020000000000000000082
:101CA000C800002000000000F000002038010020E3
:101CB0007800002000000020040000200800002020
:101CC000000402400C00002010000020140000203E
:101CD0000000000000001C40280000200000000060
:101CE00000001440300000200000000000002040F0
:101CF000000000000000104000000000000018403C
:101D000093E600BF0020FE498861C8611FED1E0BED
:101D1000FC4880ED000B46E0F94890ED020B8DED9C
:101D2000020B9DED020B51EC100B07F0B7FF5FEDBE
:101D3000230A05909DED050AF34807F0AFFAF04835
:101D400090ED040B8DED020B9DED020B51EC100B91
:101D500007F0A4FF5FED2D0A05909DED050AEB4805
:101D600007F09CFAE948006A019008F05BFACDE9B7
:101D70000401E548006A019008F054FACDE9020137
:101D80009DED041B9DED020B06F09DFF9FEDE00B0A
:101D900053EC102BDB4890ED000B51EC100B08F0CE
:101DA00021F900D200E0B7E700BF1FED450BD54891
:101DB00080ED000B4BE0D24890ED020B8DED020B55
:101DC0009DED020B51EC100B07F068FF5FED4B0A25
:101DD00005909DED050ACC4807F060FAC84890EDE3
:101DE000040B8DED020B9DED020B51EC100B07F077
:101DF00055FF5FED540A05909DED050AC34807F0B5
:101E00004DFAC248006A019008F00CFACDE90401CD
:101E1000BD48006A019008F005FACDE902019DED88
:101E2000041B9DED020B06F04EFF4FF4FA710020EB
:101E3000FEF7B7FB9FEDB80B53EC102BB14890EDBC
:101E4000000B51EC100B08F0CDF800D200E0B2E727
:101E500000BF1FED6F0BAB4880ED000B4BE0A848B7
:101E600090ED020B8DED020B9DED020B51EC100B72
:101E700007F014FF5FED750A05909DED050AA24875
:101E800007F00CFA9E4890ED040B8DED020B9DEDD2
:101E9000020B51EC100B07F001FF5FED7E0A05907D
:101EA0009DED050A994807F0F9F99848006A0190F4
:101EB00008F0B8F9CDE904019348006A019008F0F0
:101EC000B1F9CDE902019DED041B9DED020B06F079
:101ED000FAFE4FF4FA710520FEF763FB9FED900BBD
:101EE00053EC102B874890ED000B51EC100B08F0D1
:101EF00079F800D200E0B2E700BF1FED990B8148EE
:101F000080ED000B10E007F0CDFB874908609FEDE6
:101F1000870B53EC102B7B4890ED000B51EC100B12
:101F200008F060F800D200E0EDE700BF72E1402168
:101F3000804804F055FF8049086080217D4804F006
:101F40004FFF7E4908604FF480717A4804F048FFE3
:101F50007B49086002217B4804F042FF7A4908600F
:101F60004FF40071734804F03BFF784908604FF468
:101F70008061704804F034FF7549086002216D48A3
:101F800004F02EFF7349086004216A4804F028FF1A
:101F9000714908600821674804F022FF6F49086012
:101FA0006B48006890B96848006801280ED16748FE
:101FB000006801280AD19FED6A0B6B4880ED000B89
:101FC0009FED6A0B6B4880ED000B49E060480068AC
:101FD00088B95D48006870B95C48006801280AD17A
:101FE0009FED650B604880ED000B9FED650B614830
:101FF00080ED000B34E056480068012811D15248AA
:10200000006801280DD15148006850B99FED570B69
:10201000554880ED000B9FED520B564880ED000BAC
:102020001EE04B480068012810D14748006868B995
:102030004648006850B99FED520B4B4880ED000BAD
:102040009FED4D0B4B4880ED000B09E09FED4E0BD3
:10205000454880ED000B9FED4C0B464880ED000B92
:10206000414890ED000B51EC100B07F017FE059066
:10207000234890ED020B8DED020B9DED020B51EC10
:10208000100B07F00BFE0490DDED050A9DED040A30
:102090001D4807F003F9374890ED000B51EC100B89
:1020A00007F0FCFD0590164890ED040B8DED020B3A
:1020B0009DED020B51EC100B07F0F0FD0490DDEDEF
:1020C000050A9DED040A114807F0E8F80F48006A78
:1020D000019008F0A7F8CDE904010B48006A0190CF
:1020E00008F0A0F8CDE902019DED041B9DED020B67
:1020F00006F0E9FD1848006801287DD148E000009D
:1021000060020020C8000020F000002038010020FC
:102110009A9999999999B93F000000000000F03F01
:1021200000000000000000408001002000000000CE
:102130000000E03F000802400000002004000020F2
:1021400008000020000402400C00002010000020C5
:1021500014000020180000201C0000202000002097
:1021600000000000000012C0280000200000000055
:10217000000016C03000002000000000000010C069
:1021800000000000000018C000000000000014C0A3
:1021900006F0DEFA4021F94804F022FEF849086012
:1021A0008021F64804F01CFEF64908604FF4807167
:1021B000F24804F015FEF44908600221F34804F0E7
:1021C0000FFEF34908604FF40071EC4804F008FE7C
:1021D000F04908604FF48061E84804F001FEEE49E0
:1021E00008600221E54804F0FBFDEC490860042189
:1021F000E24804F0F5FD00E00CE0E9490860082140
:10220000DE4804F0EDFDE7490860E5480068012874
:1022100000D100E08BE600BF0020E3498861C8617F
:102220009FEDE20BE34880ED000B46E0DE4890EDC9
:10223000020B8DED020B9DED020B51EC100B07F024
:102240002DFDDFEDDD0A05909DED050ADB4807F069
:1022500025F8D54890ED040B8DED020B9DED020B9A
:1022600051EC100B07F01AFDDFEDD30A05909DED40
:10227000050AD34807F012F8D148006A019007F028
:10228000D1FFCDE90401CD48006A019007F0CAFFF3
:10229000CDE902019DED041B9DED020B06F013FD3F
:1022A0001FED5E0B53EC102BC24890ED000B51EC70
:1022B000100B07F097FE00D200E0B7E700BF002048
:1022C000C049086049E3C048BE49096850F8210088
:1022D000BE4951F82000BE4951F820000590FDF795
:1022E000A3FF9FEDB20BB34880ED000BF3E040215C
:1022F000A24804F075FDA249086080219F4804F0BF
:102300006FFDA04908604FF480719C4804F068FD9F
:102310009D49086002219D4804F062FD9C490860C7
:102320004FF40071954804F05BFD9A4908604FF442
:102330008061924804F054FD9749086002218F485B
:1023400004F04EFD9549086004218C4804F048FDD6
:10235000934908600821894804F042FD91490860CA
:102360008948006890B98648006801280ED18548E0
:10237000006801280AD19FED970B984880ED000B6B
:102380009FED970B984880ED000B49E07E48006870
:1023900088B97B48006870B97A48006801280AD17A
:1023A0009FED920B8D4880ED000B9FED920B8E48B8
:1023B00080ED000B34E074480068012811D17048AA
:1023C000006801280DD16F48006850B99FED840B5B
:1023D000824880ED000B9FED7F0B834880ED000B62
:1023E0001EE069480068012810D16548006868B996
:1023F0006448006850B99FED7F0B784880ED000B72
:102400009FED7A0B784880ED000B09E09FED7B0B88
:10241000724880ED000B9FED790B734880ED000B47
:102420006E4890ED000B51EC100B07F037FC059057
:102430005D4890ED020B8DED020B9DED020B51EC12
:10244000100B07F02BFC0490DDED050A9DED040A4E
:102450005A4806F023FF644890ED000B51EC100B36
:1024600007F01CFC0590504890ED040B8DED020B1D
:102470009DED020B51EC100B07F010FC0490DDED0C
:10248000050A9DED040A4E4806F008FF4C48006A14
:10249000019007F0C7FECDE904014848006A0190A9
:1024A00007F0C0FECDE902019DED041B9DED020B7E
:1024B00006F009FC44484349096850F821004FF4EC
:1024C000FA710590FEF76DF83748C06940F6B831EB
:1024D000884200DD00E00AE700BF00203249886141
:1024E000C8619FED320B334880ED000B8EE02E4823
:1024F00090ED020B8DED020B9DED020B51EC100BDC
:1025000007F0CCFBDFED2C0A05909DED050A2B486A
:1025100006F0C4FE244890ED040B8DED020B9DEDFA
:10252000020B51EC100B07F0B9FBDFED230A05900D
:102530009DED050A224806F0B1FE2148006A01908F
:1025400007F070FECDE904011C48006A019007F015
:1025500069FECDE902019DED041B9DED020B06F025
:10256000B2FB9FED280B53EC102B124890ED000BA3
:1025700051EC100B07F036FD48D248E0000802404D
:102580000000002004000020080000200004024099
:102590000C00002010000020140000201800002073
:1025A0001C0000202000002060020020000000002D
:1025B00000000000C800002000000000F000002023
:1025C0003801002038000020440000208001002055
:1025D000780000200000000000001C4028000020BF
:1025E0000000000000001440300000200000000047
:1025F000000020400000000000001040000000002B
:10260000000018409A9999999999C93F6FE700BFBE
:102610001FED1A0BFC4880ED000B50E0FB48FC4915
:10262000096850F821004FF4FA610590FDF7B9FFF1
:10263000F84890ED020B8DED020B9DED020B51EC75
:10264000100B07F02BFB5FED240A05909DED050AAA
:10265000F14806F023FEEF4890ED040B8DED020BE0
:102660009DED020B51EC100B07F018FB5FED2E0AED
:1026700005909DED050AE94806F010FEE748006A5E
:10268000019007F0CFFDCDE90401E348006A019015
:1026900007F0C8FDCDE902019DED041B9DED020B85
:1026A00006F011FB9FEDDE0B53EC102BD64890ED9E
:1026B000000B51EC100B07F095FC00D200E0ADE7E9
:1026C00000BF0020D3498861C861ECE04021D648B2
:1026D00004F086FBD54908608021D34804F080FBD4
:1026E000D34908604FF48071CF4804F079FBD14999
:1026F00008600221D04804F073FBD04908604FF411
:102700000071C94804F06CFBCD4908604FF480614A
:10271000C54804F065FBCB4908600221C24804F0BB
:102720005FFBC94908600421BF4804F059FBC74951
:1027300008600821BC4804F053FBC5490860C14843
:10274000006890B9BD48006801280ED1BC480068F7
:1027500001280AD19FEDBF0BC04880ED000B9FED13
:10276000C00BC14880ED000B49E0B648006888B94D
:10277000B248006870B9B248006801280AD19FEDDC
:10278000BB0BB64880ED000B9FEDBA0BB64880ED51
:10279000000B34E0AB480068012811D1A74800685D
:1027A00001280DD1A648006850B99FEDAD0BAB488C
:1027B00080ED000B9FEDA70BAB4880ED000B1EE0FA
:1027C000A0480068012810D19C48006868B99C485E
:1027D000006850B99FEDA70BA04880ED000B9FED5E
:1027E000A30BA14880ED000B09E09FEDA40B9B48D3
:1027F00080ED000B9FEDA10B9B4880ED000B9748EF
:1028000090ED000B51EC100B07F048FA0590814851
:1028100090ED020B8DED020B9DED020B51EC100BB8
:1028200007F03CFA0490DDED050A9DED040A7A48B4
:1028300006F034FD8C4890ED000B51EC100B07F0C6
:102840002DFA0590734890ED040B8DED020B9DED74
:10285000020B51EC100B07F021FA0490DDED050A94
:102860009DED040A6D4806F019FD6C48006A019060
:1028700007F0D8FCCDE904016748006A019007F031
:10288000D1FCCDE902019DED041B9DED020B06F08C
:102890001AFA6048C0697B49884204DA6B480068CC
:1028A000012800D100E011E700BF1FEDC00B564822
:1028B00080ED000B46E0574890ED020B8DED020BCA
:1028C0009DED020B51EC100B07F0E8F95FEDC60A25
:1028D00005909DED050A504806F0E0FC4D4890ED4E
:1028E000040B8DED020B9DED020B51EC100B07F06C
:1028F000D5F95FEDCF0A05909DED050A474806F032
:10290000CDFC4648006A019007F08CFCCDE904013B
:102910004148006A019007F085FCCDE902019DED78
:10292000041B9DED020B06F0CEF91FEDCA0B53EC14
:10293000102B354890ED000B51EC100B07F052FBBB
:1029400000D200E0B7E700BF002032498861C861CB
:102950002F480068401C2E4908602D480068032855
:10296000FFF6B1AC484840680590FDF75DFC1FEDEF
:10297000F10B254880ED000B8EE0264890ED020B10
:102980008DED020B9DED020B51EC100B07F086F95B
:102990005FEDF70A05909DED050A1F4806F07EFCE5
:1029A0001C4890ED040B8DED020B9DED020B51ECDC
:1029B000100B07F073F9DFED350A05909DED050A60
:1029C000164806F06BFC1548006A019007F02AFCD7
:1029D000CDE904011048006A019007F023FCCDE91D
:1029E00002019DED041B9DED020B06F06CF99FEDBD
:1029F000280B53EC102B044890ED000B51EC100BFE
:102A000007F0F0FA48D248E0C80000204400002057
:102A10003800002060020020F00000203801002073
:102A2000000000000000F03F00080240000000200D
:102A30000400002008000020000402400C000020D8
:102A40001000002014000020180000201C000020AE
:102A50002000002000000000000012C0280000201C
:102A600000000000000016C0300000200000000040
:102A7000000010C000000000000018C000000000AE
:102A8000000014C048F4FFFF7800002000000000A0
:102A9000000000000000E03F6FE700BFF1E04FF4EE
:102AA000FA610320FDF77DFD4021FB4804F098F911
:102AB000FA4908608021F84804F092F9F849086062
:102AC0004FF48071F44804F08BF9F6490860022154
:102AD000F54804F085F9F54908604FF40071EE48B7
:102AE00004F07EF9F24908604FF48061EA4804F08E
:102AF00077F9F04908600221E74804F071F9EE49DE
:102B000008600421E44804F06BF9EC4908600821EE
:102B1000E14804F065F9EA490860E248006890B9C4
:102B2000DE48006801280ED1DD48006801280AD17E
:102B30009FEDE40BE54880ED000B9FEDE50BE648CB
:102B400080ED000B49E0D748006888B9D348006899
:102B500070B9D348006801280AD19FEDE00BDB482B
:102B600080ED000B9FEDDF0BDB4880ED000B34E0C8
:102B7000CC480068012811D1C848006801280DD14F
:102B8000C748006850B99FEDD20BD04880ED000BCC
:102B90009FEDCC0BD04880ED000B1EE0C1480068D3
:102BA000012810D1BD48006868B9BD48006850B917
:102BB0009FEDCC0BC54880ED000B9FEDC80BC648C0
:102BC00080ED000B09E09FEDC90BC04880ED000BC4
:102BD0009FEDC60BC04880ED000BBC4890ED000B8C
:102BE00051EC100B07F05AF80590C24890ED020B1B
:102BF0008DED020B9DED020B51EC100B07F04EF822
:102C00000490DDED050A9DED040ABB4806F046FB85
:102C1000B14890ED000B51EC100B07F03FF8059018
:102C2000B44890ED040B8DED020B9DED020B51ECC1
:102C3000100B07F033F80490DDED050A9DED040A52
:102C4000AE4806F02BFBAD48006A019007F0EAFAA7
:102C5000CDE90401A848006A019007F0E3FACDE944
:102C600002019DED041B9DED020B06F02CF8A1481E
:102C7000C069B0F5FA6F04DD8F480068012800D103
:102C800000E00CE700BF00209A498861C86143E179
:102C90004021814804F0A4F88049086080217E48E2
:102CA00004F09EF87E4908604FF480717A4804F081
:102CB00097F87C49086002217B4804F091F87B4931
:102CC00008604FF40071744804F08AF8784908608D
:102CD0004FF48061704804F083F87649086002215F
:102CE0006D4804F07DF87449086004216A4804F0D6
:102CF00077F8724908600821674804F071F8704954
:102D000008606848006890B96448006801280ED1DE
:102D10006348006801280AD19FED720B6B4880ED73
:102D2000000B9FED770B6C4880ED000B49E05D4890
:102D3000006888B95948006870B959480068012886
:102D40000AD19FED630B614880ED000B1FEDCC0BAA
:102D5000614880ED000B34E052480068012811D131
:102D60004E48006801280DD14D48006850B99FEDCC
:102D7000640B564880ED000B9FED5A0B564880EDD2
:102D8000000B1EE047480068012810D14348006846
:102D900068B94348006850B91FEDDF0B4B4880ED20
:102DA000000B9FED4B0B4C4880ED000B09E09FEDB5
:102DB000560B464880ED000B9FED530B464880EDC7
:102DC000000B424890ED000B51EC100B06F066FF33
:102DD0000590484890ED020B8DED020B9DED020B26
:102DE00051EC100B06F05AFF0490DDED050A9DED45
:102DF000040A414806F052FA374890ED000B51ECB6
:102E0000100B06F04BFF05903A4890ED040B8DED4A
:102E1000020B9DED020B51EC100B06F03FFF0490EE
:102E2000DDED050A9DED040A344806F037FA334813
:102E3000006A019007F0F6F9CDE904012E48006A16
:102E4000019007F0EFF9CDE902019DED041B9DED26
:102E5000020B05F038FF4FF4FA612D4804F037FEFD
:102E60004FF4FA612B4804F030FE4FF4FA61294820
:102E700004F02DFE4FF4FA61264804F02CFE4FF4C6
:102E8000FA61244804F025FE1A48C06940F26A41FC
:102E9000884241DD41E000000008024000000020BF
:102EA0000400002008000020000402400C00002064
:102EB0001000002014000020180000201C0000203A
:102EC000200000200000000000001C40280000201E
:102ED000000000000000144030000020000000004E
:102EE0000000204000000000000010400000000032
:102EF0000000184060020020F0000020380100208F
:102F00000000000000000040000000000000084039
:102F10000018004000080040BAE600BF4FF4FA7104
:102F2000FE4804F0D4FD4FF4FA71FD4804F0CDFDE5
:102F30004FF4FA71FA4804F0CAFD4FF4FA71F848F8
:102F400004F0C9FD4FF4FA71F54804F0C2FD9FED9D
:102F5000F50BF64880ED000B46E0F54890ED020BCE
:102F60008DED020B9DED020B51EC100B06F096FE61
:102F7000DFEDF00A05909DED050AEF4806F08EF9A9
:102F8000EB4890ED040B8DED020B9DED020B51EC27
:102F9000100B06F083FEDFEDE70A05909DED050AB4
:102FA000E64806F07BF9E548006A019007F03AF937
:102FB000CDE90401E048006A019007F033F9CDE95A
:102FC00002019DED041B9DED020B05F07CFE9FEDC3
:102FD000DC0B53EC102BD54890ED000B51EC100B93
:102FE00007F000F800D200E0B7E700BF9FEDCD0B7F
:102FF000CE4880ED000B4BE0CD4890ED020B8DEDFF
:10300000020B9DED020B51EC100B06F047FEDFEDBD
:10301000C90A05909DED050AC74806F03FF9C44866
:1030200090ED040B8DED020B9DED020B51EC100B9E
:1030300006F034FEDFEDBF0A05909DED050ABF489E
:1030400006F02CF9BD48006A019007F0EBF8CDE9D5
:103050000401B948006A019007F0E4F8CDE90201E3
:103060009DED041B9DED020B05F02DFE4FF4FA7152
:103070000620FDF796FA1FED5E0B53EC102BAB48C4
:1030800090ED000B51EC100B06F0ACFF00D200E00D
:10309000B2E700BF9FEDA30BA44880ED000B4AE010
:1030A000A34890ED020B8DED020B9DED020B51EC50
:1030B000100B06F0F3FDDFED9F0A05909DED050A6C
:1030C0009D4806F0EBF89A4890ED040B8DED020B4D
:1030D0009DED020B51EC100B06F0E0FDDFED950AC3
:1030E00005909DED050A954806F0D8F89348006ACA
:1030F000019007F097F8CDE904018F48006A01902C
:1031000007F090F8CDE902019DED041B9DED020B47
:1031100005F0D9FD06F0C6FA8B4948609FED8B0B90
:1031200053EC102B814890ED000B51EC100B06F086
:1031300059FF00D200E0B3E700BF00207C4988615E
:10314000C86139E14021834803F04AFE82490860A2
:103150008021804803F044FE804908604FF480716C
:103160007C4803F03DFE7E49086002217D4803F063
:1031700037FE7D4908604FF40071764803F030FE59
:103180007A4908604FF48061724803F029FE78495B
:10319000086002216F4803F023FE7649086004218D
:1031A0006C4803F01DFE744908600821694803F06B
:1031B00017FE724908606E48006890B96A48006856
:1031C00001280ED16948006801280AD19FED6C0BD7
:1031D0006D4880ED000B9FED6D0B6E4880ED000B90
:1031E00049E06348006888B95F48006870B95F4883
:1031F000006801280AD19FED680B634880ED000B41
:103200009FED670B634880ED000B34E05848006881
:10321000012811D15448006801280DD15348006895
:1032200050B99FED5A0B584880ED000B9FED540BA1
:10323000584880ED000B1EE04D480068012810D171
:103240004948006868B94948006850B99FED540B77
:103250004D4880ED000B9FED500B4E4880ED000B6C
:1032600009E09FED510B484880ED000B9FED4E0BA0
:10327000484880ED000B444890ED000B51EC100BDA
:1032800006F00CFD05902A4890ED020B8DED020B27
:103290009DED020B51EC100B06F000FD0490DDEDEE
:1032A000050A9DED040A244805F0F8FF394890ED21
:1032B000000B51EC100B06F0F1FC05901C4890ED52
:1032C000040B8DED020B9DED020B51EC100B06F083
:1032D000E5FC0490DDED050A9DED040A174805F0B4
:1032E000DDFF1648006A019006F09CFFCDE904015D
:1032F0001148006A019006F095FFCDE902019DEDAD
:10330000041B9DED020B05F0DEFC0948C06928494D
:10331000884251DA1848006801284BE00018004044
:10332000000800400000000000000000C80000206D
:103330006002002000000000F000002038010020A2
:10334000000000000000F03F8001002000000000AD
:103350000000E03F000802400000002004000020C0
:1033600008000020000402400C0000201000002093
:1033700014000020180000201C0000202000002065
:1033800000000000000012C0280000200000000023
:10339000000016C03000002000000000000010C037
:1033A00000000000000018C000000000000014C071
:1033B00048F4FFFF00D100E0C4E600BFFE484068CB
:1033C000C0F11400FC498968401AFB490969401A98
:1033D000F9490968401AF849C8600020F7490860AF
:1033E000F749086053E30020F6498861C861F64850
:1033F000F249096850F82100EF4951F82000F349DB
:1034000051F820000590FCF70FFF1FED3A0BF04834
:1034100080ED000BF2E04021EE4803F0E1FCEE49C4
:1034200008608021EB4803F0DBFCEC4908604FF4B6
:103430008071E84803F0D4FCE94908600221E948BA
:1034400003F0CEFCE84908604FF40071E14803F056
:10345000C7FCE64908604FF48061DE4803F0C0FC19
:10346000E34908600221DB4803F0BAFCE149086047
:103470000421D84803F0B4FCDF4908600821D5488E
:1034800003F0AEFCDD490860D548006890B9D24829
:10349000006801280ED1D148006801280AD19FEDAB
:1034A000D80BD94880ED000B9FEDD80BD94880EDA3
:1034B000000B49E0CA48006888B9C748006870B97D
:1034C000C648006801280AD19FEDD30BCE4880ED95
:1034D000000B9FEDD30BCF4880ED000B34E0C048CC
:1034E0000068012811D1BC48006801280DD1BB48F3
:1034F000006850B99FEDC50BC34880ED000B9FEDF0
:10350000C00BC44880ED000B1EE0B54800680128E0
:1035100010D1B148006868B9B048006850B99FED53
:10352000C00BB94880ED000B9FEDBB0BB94880ED97
:10353000000B09E09FEDBC0BB34880ED000B9FED45
:10354000BA0BB44880ED000BAF4890ED000B51EC86
:10355000100B06F0A3FB05909A4890ED020B8DED41
:10356000020B9DED020B51EC100B06F097FB049043
:10357000DDED050A9DED040AAD4805F08FFEA54876
:1035800090ED000B51EC100B06F088FB05908D4878
:1035900090ED040B8DED020B9DED020B51EC100B29
:1035A00006F07CFB0490DDED050A9DED040AA148C0
:1035B00005F074FE9F48006A019006F033FECDE9E5
:1035C00004019B48006A019006F02CFECDE902013F
:1035D0009DED041B9DED020B05F075FB7A487749C4
:1035E000096850F821004FF4FA710590FCF7D9FFF3
:1035F0007448C069B0F5FA6F00DD00E00BE700BF6A
:10360000002070498861C8611FEDBA0B704880EDD9
:10361000000B46E06B4890ED020B8DED020B9DED2B
:10362000020B51EC100B06F039FB5FEDBE0A059062
:103630009DED050A7E4805F031FE624890ED040BD1
:103640008DED020B9DED020B51EC100B06F026FBED
:103650005FEDC80A05909DED050A764805F01EFE4F
:103660007448006A019006F0DDFDCDE90401704860
:10367000006A019006F0D6FDCDE902019DED041B24
:103680009DED020B05F01FFB9FED6B0B53EC102B18
:103690004F4890ED000B51EC100B06F0A3FC00D24C
:1036A00000E0B7E700BF1FEDE10B494880ED000BDC
:1036B00050E045484149096850F821004FF4FA614B
:1036C0000590FCF76EFF3F4890ED020B8DED020B6D
:1036D0009DED020B51EC100B06F0E0FA5FEDEB0AEA
:1036E00005909DED050A524805F0D8FD354890ED4E
:1036F000040B8DED020B9DED020B51EC100B06F04F
:10370000CDFA5FEDF40A05909DED050A494805F0F4
:10371000C5FD4848006A019006F084FDCDE904012A
:103720004348006A019006F07DFDCDE902019DED60
:10373000041B9DED020B05F0C6FA9FED410B53EC07
:10374000102B234890ED000B51EC100B06F04AFCB7
:1037500000D200E0ADE700BF00201A498861C861CF
:1037600036E140211B4803F03BFB1B4908608021E8
:10377000184803F035FB194908604FF4807115486B
:1037800003F02EFB164908600221164803F028FBBF
:10379000154908604FF400710E4803F021FB1349EE
:1037A00008604FF480610B4803F01AFB1049086071
:1037B0000221084848E00000800100203800002075
:1037C0003C00002060020020500000207800002013
:1037D000C800002000080240000000200400002073
:1037E00008000020000402400C000020100000200F
:1037F00014000020180000201C00002020000020E1
:103800000000000000001C40280000200000000014
:1038100000001440300000200000000000002040A4
:1038200000000000000010400000000000001840F0
:10383000F0000020380100209A9999999999C93F80
:10384000000000000000F03F03F0CAFAFD490860E4
:103850000421FD4803F0C4FAFC4908600821FA4835
:1038600003F0BEFAFA490860FA48006890B9FA48CD
:10387000006801280ED1F948006801280AD19FED9F
:10388000F80BF94880ED000B9FEDF80BF94880ED3F
:10389000000B49E0EF48006888B9EF48006870B94C
:1038A000EE48006801280AD19FEDF30BEE4880ED49
:1038B000000B9FEDF30BEF4880ED000B34E0E54883
:1038C0000068012811D1E448006801280DD1E348BF
:1038D000006850B99FEDE50BE34880ED000B9FEDCC
:1038E000E00BE44880ED000B1EE0DA480068012898
:1038F00010D1D948006868B9D848006850B99FED20
:10390000E00BD94880ED000B9FEDDB0BD94880ED33
:10391000000B09E09FEDDC0BD34880ED000B9FED21
:10392000DA0BD44880ED000BCF4890ED000B51EC42
:10393000100B06F0B3F90590D54890ED020B8DED14
:10394000020B9DED020B51EC100B06F0A7F9049051
:10395000DDED050A9DED040ACE4805F09FFCC54843
:1039600090ED000B51EC100B06F098F90590C8484B
:1039700090ED040B8DED020B9DED020B51EC100B45
:1039800006F08CF90490DDED050A9DED040AC248AD
:1039900005F084FCC048006A019006F043FCCDE9C4
:1039A0000401BC48006A019006F03CFCCDE902012C
:1039B0009DED041B9DED020B05F085F9B448C0692F
:1039C00010F57A7F04DAA1480068012800D100E0F0
:1039D000C7E600BF9FEDB10BB24880ED000B46E09B
:1039E000AB4890ED020B8DED020B9DED020B51ECFF
:1039F000100B06F053F9DFEDAC0A05909DED050ABA
:103A0000A44805F04BFCA24890ED040B8DED020B91
:103A10009DED020B51EC100B06F040F9DFEDA20A10
:103A200005909DED050A9C4805F038FC9A48006A0F
:103A3000019006F0F7FBCDE904019648006A019079
:103A400006F0F0FBCDE902019DED041B9DED020B9C
:103A500005F039F91FED880B53EC102B914890EDD0
:103A6000000B51EC100B06F0BDFA00D200E0B7E7F6
:103A700000BF002086498861C8618C480068401CEE
:103A80008A4908608A480068401C8949086087485C
:103A900000680528FFF6A7AC8648C0690590FCF7CA
:103AA000C3FB9FED7E0B7F4880ED000B46E078481E
:103AB00090ED020B8DED020B9DED020B51EC100B06
:103AC00006F0ECF8DFED780A05909DED050A7148E7
:103AD00005F0E4FB6E4890ED040B8DED020B9DEDBF
:103AE000020B51EC100B06F0D9F8DFED6F0A0590D0
:103AF0009DED050A684805F0D1FB6748006A019012
:103B000006F090FBCDE904016248006A019006F0DE
:103B100089FBCDE902019DED041B9DED020B05F033
:103B2000D2F89FED650B53EC102B5E4890ED000B27
:103B300051EC100B06F056FA00D200E0B7E700BFD8
:103B400041E14FF4FA610320FCF72BFD40213E4890
:103B500003F046F95A49086080213B4803F040F9D8
:103B6000584908604FF48071374803F039F95649D5
:103B700008600221554803F033F9374908604FF4D3
:103B80000071314803F02CF9344908604FF480612A
:103B90002D4803F025F92F49086002212A4803F037
:103BA0001FF9284908600421274803F019F927491B
:103BB00008600821244803F013F9254908604248A9
:103BC000006890B93E48006801280ED13D48006861
:103BD00001280AD11FEDF60B234880ED000B1FEDE5
:103BE000F50B244880ED000B99E03748006888B950
:103BF0003348006870B93348006801280AD11FEDC6
:103C0000FA0B194880ED000B1FEDFB0B194880EDF6
:103C1000000B84E02C480068012861D12848006826
:103C200001285DD12748006850B99FED290B0E4847
:103C300080ED000B9FED280B0E4880ED000B6EE031
:103C40004EE0000018000020000802401C00002088
:103C500020000020140000200C0000201000002094
:103C600000000000000012C028000020000000003A
:103C7000000016C03000002000000000000010C04E
:103C800000000000000018C000000000000014C088
:103C900060020020F0000020380100200000000039
:103CA00000000000C80000200000000038000020D4
:103CB0003C00002078000020000000000000E03FF1
:103CC0000000002004000020080000200004024042
:103CD00000000000000014400000000000001C4034
:103CE000FE480068012810D1FD48006868B9FD4809
:103CF000006850B99FEDFC0BFD4880ED000B9FED77
:103D0000FD0BFE4880ED000B09E09FEDFD0BF84830
:103D100080ED000B9FEDFA0BF84880ED000BF448A6
:103D200090ED000B51EC100B05F0B8FF0590F64834
:103D300090ED020B8DED020B9DED020B51EC100B83
:103D400005F0ACFF0490DDED050A9DED040AEF4897
:103D500005F0A4FAE94890ED000B51EC100B05F0CA
:103D60009DFF0590E84890ED040B8DED020B9DED55
:103D7000020B51EC100B05F091FF0490DDED050AEC
:103D80009DED040AE24805F089FAE148006A0190D5
:103D900006F048FACDE90401DC48006A019006F01B
:103DA00041FACDE902019DED041B9DED020B04F0EB
:103DB0008AFFD548C069B0F5FA6F04DDD5480068C0
:103DC000012800D100E0BCE600BF0020CE49886198
:103DD000C86102E14021D04803F002F8C049086000
:103DE0008021CD4802F0FCFFBE4908604FF480718D
:103DF000C94802F0F5FFB94908600221C74802F03E
:103E0000EFFFC74908604FF40071C34802F0E8FFB4
:103E1000C44908604FF48061BF4802F0E1FFC24925
:103E200008600221BC4802F0DBFFBA4908600421A7
:103E3000B94802F0D5FFBD4908600821B64802F034
:103E4000CFFFBB490860A548006890B9A448006846
:103E500001280ED1A348006801280AD19FEDA20BCA
:103E6000A34880ED000B9FEDB30BA44880ED000B41
:103E700049E09A48006888B99948006870B999483B
:103E8000006801280AD11FED6E0B994880ED000BE8
:103E90009FEDAA0B994880ED000B34E08F48006835
:103EA000012811D18E48006801280DD18D48006885
:103EB00050B99FEDA00B8E4880ED000B9FED8A0B53
:103EC0008E4880ED000B1EE084480068012810D168
:103ED0008348006868B98348006850B99FED970B24
:103EE000834880ED000B1FED860B844880ED000BAE
:103EF00009E09FED940B7E4880ED000B9FED910B48
:103F00007E4880ED000B7A4890ED000B51EC100BD1
:103F100005F0C4FE05907C4890ED020B8DED020B80
:103F20009DED020B51EC100B05F0B8FE0490DDED99
:103F3000050A9DED040A754805F0B0F96F4890ED4B
:103F4000000B51EC100B05F0A9FE05906E4890EDAA
:103F5000040B8DED020B9DED020B51EC100B05F0E7
:103F60009DFE0490DDED050A9DED040A684805F00C
:103F700095F96748006A019006F054F9CDE904010B
:103F80006248006A019006F04DF9CDE902019DED0D
:103F9000041B9DED020B04F096FE4FF4FA616B4892
:103FA00003F095FD4FF4FA61694803F08EFD4FF47C
:103FB000FA61674803F08BFD4FF4FA61644803F03F
:103FC0008AFD4FF4FA61624803F083FD4E48C069F0
:103FD00040F26A41884200DD00E0FBE600BF4FF49A
:103FE000FA715A4803F073FD4FF4FA71584803F020
:103FF0006CFD4FF4FA71564803F069FD4FF4FA7105
:10400000534803F068FD4FF4FA71514803F061FD25
:104010001FEDDE0B4F4880ED000B46E03A4890ED77
:10402000020B8DED020B9DED020B51EC100B05F018
:1040300035FE5FEDE30A05909DED050A334805F076
:104040002DF9314890ED040B8DED020B9DED020B27
:1040500051EC100B05F022FE5FEDED0A05909DED91
:10406000050A2B4805F01AF92948006A019006F064
:10407000D9F8CDE904012548006A019006F0D2F88C
:10408000CDE902019DED041B9DED020B04F01BFE2A
:104090009FED2A0B53EC102B2E4890ED000B51ECAA
:1040A000100B05F09FFF00D200E0B7E700BF002033
:1040B00015498861C8612BE14021174802F090FE44
:1040C000074908608021144802F08AFE054908600B
:1040D0004FF48071104802F083FE3DE0080000209C
:1040E000000000200400002000000000000010403C
:1040F00028000020000000000000204030000020C8
:10410000000000000000184060020020F0000020C5
:10411000380100201800002000080240000402407E
:104120000C00002010000020140000201C000020C3
:1041300020000020000000000000004000000000FF
:104140000000F03F000000000000084000180040A0
:1041500000080040C8000020FE4908600221FE4817
:1041600002F03EFEFD4908604FF40071FC4802F089
:1041700037FEFC4908604FF48061F94802F030FED8
:10418000F94908600221F64802F02AFEF749086062
:104190000421F34802F024FEF54908600821F048A4
:1041A00002F01EFEF3490860EF48006890B9EB4842
:1041B000006801280ED1EB48006801280AD19FED64
:1041C000EE0BEF4880ED000B9FEDEE0BEF4880ED1E
:1041D000000B49E0E448006888B9E048006870B91D
:1041E000E048006801280AD19FEDE90BE44880ED22
:1041F000000B9FEDE90BE54880ED000B34E0DA4859
:104200000068012811D1D548006801280DD1D54892
:10421000006850B99FEDDB0BD94880ED000B9FED96
:10422000D60BDA4880ED000B1EE0CF48006801286D
:1042300010D1CA48006868B9CA48006850B99FEDF3
:10424000D60BCF4880ED000B9FEDD10BCF4880ED12
:10425000000B09E09FEDD20BC94880ED000B9FEDEC
:10426000D00BCA4880ED000BC54890ED000B51EC17
:10427000100B05F013FD0590CB4890ED020B8DED72
:10428000020B9DED020B51EC100B05F007FD0490A5
:10429000DDED050A9DED040AC44804F0FFFFBB48AC
:1042A00090ED000B51EC100B05F0F8FC0590BE48AA
:1042B00090ED040B8DED020B9DED020B51EC100BFC
:1042C00005F0ECFC0490DDED050A9DED040AB8480C
:1042D00004F0E4FFB648006A019005F0A3FFCDE9C1
:1042E0000401B248006A019005F09CFFCDE902018B
:1042F0009DED041B9DED020B04F0E5FCAA48C0698E
:10430000AC49884204DA9A480068012800D100E0EC
:10431000D2E600BF9FEDA80BA94880ED000B46E058
:10432000A14890ED020B8DED020B9DED020B51ECBF
:10433000100B05F0B3FCDFEDA30A05909DED050A17
:104340009A4804F0ABFF984890ED040B8DED020BFA
:104350009DED020B51EC100B05F0A0FCDFED990A6E
:1043600005909DED050A924804F098FF9048006A78
:10437000019005F057FFCDE904018C48006A0190D7
:1043800005F050FFCDE902019DED041B9DED020BF0
:1043900004F099FC9FED8C0B53EC102B884890EDAA
:1043A000000B51EC100B05F01DFE00D200E0B7E74A
:1043B00000BF00208649086090E300207A498861A8
:1043C000C86184488249096850F82100824951F83F
:1043D0002000824951F820000590FBF725FF9FED52
:1043E000760B774880ED000B51E140215C4802F0EC
:1043F000F7FC7B4908608021594802F0F1FC7949BB
:1044000008604FF48071564802F0EAFC5149086098
:104410000221514802F0E4FC504908604FF4007159
:104420004F4802F0DDFC4F4908604FF480614C4872
:1044300002F0D6FC4C4908600221494802F0D0FC49
:104440004A4908600421464802F0CAFC484908600D
:104450000821434802F0C4FC464908603D48006812
:1044600090B95F48006801280ED15E4800680128B5
:104470000AD19FED5D0B424880ED000B9FED5C0B78
:10448000424880ED000B49E03248006888B9544842
:10449000006870B95348006801280AD11FEDEB0B82
:1044A000374880ED000B1FEDF00B384880ED000B16
:1044B00034E028480068012811D1494800680128E3
:1044C0000DD14848006850B99FED490B2C4880ED4C
:1044D000000B9FED450B2D4880ED000B1EE01D48A5
:1044E0000068012810D13E48006868B93D4800685E
:1044F00050B99FED410B224880ED000B9FED400B22
:10450000224880ED000B09E09FED3F0B1C4880ED39
:10451000000B9FED3D0B1D4880ED000B184890ED02
:10452000000B51EC100B05F0B9FB05901E4890ED07
:10453000020B8DED020B9DED020B51EC100B05F003
:10454000ADFB0490DDED050A9DED040A174804F06B
:10455000A5FE5DE008000020000402400C000020E1
:104560000008024010000020140000201800002065
:104570001C0000202000002000000000000012C0ED
:104580002800002000000000000016C030000020BD
:1045900000000000000010C000000000000018C073
:1045A00000000000000014C060020020F0000020A5
:1045B0003801002048F4FFFF000000000000000068
:1045C000C800002000000000000000000000E03FE4
:1045D00038000020500000208001002078000020DA
:1045E00000000020040000200000000000001C402B
:1045F0000000000000001440000000000000104017
:1046000000000000000020400000000000001840F2
:10461000FE4890ED000B51EC100B05F03FFB0590B0
:10462000FB4890ED040B8DED020B9DED020B51EC60
:10463000100B05F033FB0490DDED050A9DED040A37
:10464000F44804F02BFEF348006A019005F0EAFDFF
:10465000CDE90401F048006A019005F0E3FDCDE9E1
:1046600002019DED041B9DED020B04F02CFBEB48B9
:10467000EB49096850F821004FF4FA710590FBF7F7
:1046800090FFE348C069B0F5487F00DD00E0ACE68C
:1046900000BF0020DE498861C8611FED390BE14889
:1046A00080ED000B46E0DA4890ED020B8DED020B39
:1046B0009DED020B51EC100B05F0F0FA5FED3F0A97
:1046C00005909DED050AD44804F0E8FDD04890ED32
:1046D000040B8DED020B9DED020B51EC100B05F060
:1046E000DDFA5FED480A05909DED050AC94804F022
:1046F000D5FDC848006A019005F094FDCDE904019C
:10470000C548006A019005F08DFDCDE902019DEDDF
:10471000041B9DED020B04F0D6FA9FEDC30B53EC86
:10472000102BC04890ED000B51EC100B05F05AFC1B
:1047300000D200E0B7E700BF1FED610BB94880ED84
:10474000000B50E0B548B649096850F821004FF415
:10475000FA610590FBF725FFAD4890ED020B8DED5A
:10476000020B9DED020B51EC100B05F097FA5FED7B
:104770006B0A05909DED050AA74804F08FFDA4483B
:1047800090ED040B8DED020B9DED020B51EC100B27
:1047900005F084FA5FED750A05909DED050A9D48C8
:1047A00004F07CFD9B48006A019005F03BFDCDE9DB
:1047B00004019948006A019005F034FDCDE9020139
:1047C0009DED041B9DED020B04F07DFA9FED960B11
:1047D00053EC102B934890ED000B51EC100B05F0AF
:1047E00001FC00D200E0ADE700BF002088498861ED
:1047F000C861E7E040218E4802F0F2FA8D49086076
:1048000080218B4802F0ECFA8B4908604FF48071EC
:10481000874802F0E5FA894908600221884802F0D9
:10482000DFFA884908604FF40071814802F0D8FA35
:10483000854908604FF480617D4802F0D1FA8349D0
:10484000086002217A4802F0CBFA8149086004210D
:10485000774802F0C5FA7F4908600821744802F0E1
:10486000BFFA7D4908607948006890B975480068CA
:1048700001280ED17448006801280AD11FEDC20B2F
:10488000764880ED000B1FEDC10B604880ED000BFA
:1048900049E06E48006888B96A48006870B96A489B
:1048A000006801280AD11FEDC60B6C4880ED000B93
:1048B0001FEDC70B554880ED000B34E063480068DE
:1048C000012811D15F48006801280DD15E480068B9
:1048D00050B91FEDD40B614880ED000B1FEDDA0BD2
:1048E0004A4880ED000B1EE058480068012810D1AE
:1048F0005448006868B95448006850B91FEDDA0B95
:10490000564880ED000B1FEDDE0B404880ED000B9C
:1049100009E01FEDDD0B514880ED000B1FEDE00BB2
:104920003A4880ED000B4D4890ED000B51EC100B18
:1049300005F0B4F90590364890ED020B8DED020BB1
:104940009DED020B51EC100B05F0A8F90490DDED84
:10495000050A9DED040A304804F0A0FC2B4890EDB8
:10496000000B51EC100B05F099F90590284890EDDB
:10497000040B8DED020B9DED020B51EC100B05F0BD
:104980008DF90490DDED050A9DED040A214804F03F
:1049900085FC2048006A019005F044FCCDE9040143
:1049A0001D48006A019005F03DFCCDE902019DED36
:1049B000041B9DED020B04F086F9264800680128CF
:1049C00000D100E016E700BF9FED250B154880EDF4
:1049D000000B78E00E4890ED020B8DED020B9DED83
:1049E000020B51EC100B05F059F9DFED1F0A059091
:1049F0009DED050A084804F051FC054890ED040BB4
:104A00008DED020B9DED020B30E000003000002028
:104A10006002002038010020F00000206400002027
:104A200038000020C8000020000000000000F03F17
:104A300000080240000000200400002008000020C0
:104A4000000402400C000020100000201400002090
:104A5000180000201C00002020000020280000205A
:104A600000000000000000000000000051EC100BEE
:104A700005F014F95FED040A05909DED050AFA486A
:104A800004F00CFCF848006A019005F0CBFBCDE97E
:104A90000401F648006A019005F0C4FBCDE902016B
:104AA0009DED041B9DED020B04F00DF99FEDF00B45
:104AB00053EC102BF04890ED000B51EC100B05F06F
:104AC00091FA00D200E085E700BF0020EB49886141
:104AD000C861EB480068401CE9490860E848006884
:104AE0000528FFF66AAC1FED220BE34880ED000BB2
:104AF00046E0E24890ED020B8DED020B9DED020BBE
:104B000051EC100B05F0CAF85FED290A05909DEDF8
:104B1000050AD64804F0C2FBD84890ED040B8DED91
:104B2000020B9DED020B51EC100B05F0B7F85FED99
:104B3000320A05909DED050ACB4804F0AFFBCA4848
:104B4000006A019005F06EFBCDE90401C748006AD8
:104B5000019005F067FBCDE902019DED041B9DED81
:104B6000020B04F0B0F89FEDC20B53EC102BC248BF
:104B700090ED000B51EC100B05F034FA00D200E080
:104B8000B7E700BF0020BD498861C861BD488069A2
:104B90000590FBF749FB1FED4E0BB74880ED000B6E
:104BA00046E0B64890ED020B8DED020B9DED020B39
:104BB00051EC100B05F072F85FED550A05909DED74
:104BC000050AAA4804F06AFBAC4890ED040B8DED91
:104BD000020B9DED020B51EC100B05F05FF85FED41
:104BE0005E0A05909DED050A9F4804F057FB9E481C
:104BF000006A019005F016FBCDE904019B48006AAC
:104C0000019005F00FFBCDE902019DED041B9DED28
:104C1000020B04F058F89FED960B53EC102B9648BE
:104C200090ED000B51EC100B05F0DCF900D200E028
:104C3000B7E700BF002092490860F5E300208F49E4
:104C40008861C8618E48006800287DDD86E04021CB
:104C50008D4802F0C5F88D49086080218A4802F02D
:104C6000BFF88B4908604FF48071874802F0B8F8AC
:104C7000884908600221884802F0B2F88749086034
:104C80004FF40071804802F0ABF8854908604FF49A
:104C900080617D4802F0A4F88249086002217A48C8
:104CA00002F09EF8804908600421774802F098F8E5
:104CB0007E4908600821744802F092F87C49086037
:104CC0006E4890ED020B8DED020B9DED020B51EC49
:104CD000100B04F0E3FFF0EE080A05909DED050AC5
:104CE000624804F0DBFA654890ED040B8DED020B91
:104CF0009DED020B51EC100B04F0D0FFF8EE080A0A
:104D000005909DED050A584804F0C8FA5648006A17
:104D1000019005F087FACDE904015448006A01903A
:104D200005F080FACDE902019DED041B9DED020B1B
:104D300003F0C9FF51488069B0F5C87F0EDD5748C0
:104D40000068012809D000E0BAE055480068012851
:104D500003D054480068012800D100E077E700BF85
:104D6000002005902BE04749059851F8200000F5F8
:104D7000C8700A46059942F821001146059851F875
:104D80002000B0F5C86F07DD059851F82000A0F5A8
:104D90004860059942F821003A49059851F82000E9
:104DA00010F5C86F08DC059851F8200000F5486040
:104DB0000A46059942F821000598401C059005987F
:104DC0000828D0DB00202D498861C8611FEDDC0B6D
:104DD000294880ED000B71E0284890ED020B8DED25
:104DE000020B9DED020B51EC100B04F057FF5FED31
:104DF000E20A05909DED050A1C4804F04FFA1F4891
:104E000090ED040B8DED020B9DED020B51EC100BA0
:104E100004F044FF5FEDEC0A05909DED050A124891
:104E200004F03CFA1048006A019005F0FBF9CDE966
:104E300004010E48006A019005F0F4F9CDE9020181
:104E40009DED041B9DED020B03F03DFF9FED190B43
:104E500053EC102B084890ED000B51EC100B05F0B3
:104E6000C1F82BD22BE0000038010020F000002018
:104E70009A9999999999C93FC80000206002002029
:104E800038000020780000200008024000000020C8
:104E90000400002008000020000402400C00002054
:104EA0001000002014000020180000201C0000202A
:104EB00020000020000000000000E03F8CE700BF61
:104EC000F2E04021F74801F08BFFF74908608021AC
:104ED000F44801F085FFF54908604FF48071F1480E
:104EE00001F07EFFF24908600221F24801F078FFEC
:104EF000F14908604FF40071EA4801F071FFEF4991
:104F000008604FF48061E74801F06AFFEC490860EF
:104F10000221E44801F064FFEA4908600421E14805
:104F200001F05EFFE84908600821DE4801F058FF03
:104F3000E6490860E248006890B9DF480068012847
:104F40000ED1DE48006801280AD19FEDE10BE2484E
:104F500080ED000B9FEDE10BE24880ED000B49E096
:104F6000D748006888B9D448006870B9D348006849
:104F700001280AD19FEDDC0BD74880ED000B9FED97
:104F8000DC0BD84880ED000B34E0CD4800680128E8
:104F900011D1C948006801280DD1C848006850B92E
:104FA0009FEDCE0BCC4880ED000B9FEDC90BCD489B
:104FB00080ED000B1EE0C2480068012810D1BE48F9
:104FC000006868B9BD48006850B99FEDC90BC24878
:104FD00080ED000B9FEDC40BC24880ED000B09E093
:104FE0009FEDC50BBC4880ED000B9FEDC30BBD488A
:104FF00080ED000BB84890ED000B51EC100B04F065
:105000004DFE0590BE4890ED020B8DED020B9DED1F
:10501000020B51EC100B04F041FE0490DDED050A8B
:105020009DED040AB74804F039F9AE4890ED000B45
:1050300051EC100B04F032FE0590B14890ED040BDA
:105040008DED020B9DED020B51EC100B04F026FED2
:105050000490DDED050A9DED040AAB4804F01EF94D
:10506000A948006A019005F0DDF8CDE90401A548E2
:10507000006A019005F0D6F8CDE902019DED041B10
:105080009DED020B03F01FFE40F2DC519F4802F041
:105090001CFD4FF4FA619E4802F017FD9848C06964
:1050A0009C49884200DA00E00BE700BF9FED9A0BB5
:1050B0009B4880ED000B46E0914890ED020B8DED92
:1050C000020B9DED020B51EC100B04F0E7FDDFED40
:1050D000950A05909DED050A8A4804F0DFF8884896
:1050E00090ED040B8DED020B9DED020B51EC100BBE
:1050F00004F0D4FDDFED8B0A05909DED050A824892
:1051000004F0CCF88048006A019005F08BF8CDE9F6
:1051100004017C48006A019005F084F8CDE90201A1
:105120009DED041B9DED020B03F0CDFD1FEDB00BBB
:1051300053EC102B7A4890ED000B51EC100B04F05F
:1051400051FF00D200E0B7E700BF50E06C4890ED9F
:10515000020B8DED020B9DED020B51EC100B04F0D8
:105160009DFDDFED700A05909DED050A654804F090
:1051700095F8634890ED040B8DED020B9DED020B4D
:1051800051EC100B04F08AFDDFED660A05909DEDF1
:10519000050A5D4804F082F85B48006A019005F05A
:1051A00041F8CDE904015748006A019005F03AF84A
:1051B000CDE902019DED041B9DED020B03F083FD83
:1051C00040F2DC51514802F080FC4FF461715048CC
:1051D00002F07BFC1FEDC90B53EC102B504890EDF7
:1051E000000B51EC100B04F0FDFE00D200E0ADE727
:1051F00000BF9FED490B4A4880ED000B50E040484E
:1052000090ED020B8DED020B9DED020B51EC100B9E
:1052100004F044FDDFED430A05909DED050A394891
:1052200004F03CF8364890ED040B8DED020B9DED3B
:10523000020B51EC100B04F031FDDFED3A0A059042
:105240009DED050A304804F029F82F48006A0190C6
:1052500004F0E8FFCDE904012A48006A019004F057
:10526000E1FFCDE902019DED041B9DED020B03F072
:105270002AFD40F2A461254802F027FC4FF4617139
:10528000234802F022FC9FED280B53EC102B2448FE
:1052900090ED000B51EC100B04F0A4FE00D247E09F
:1052A000ADE70000000802400000002004000020DC
:1052B00008000020000402400C0000201000002024
:1052C00014000020180000201C00002020000020F6
:1052D00000000000000012C02800002000000000B4
:1052E000000016C03000002000000000000010C0C8
:1052F00000000000000018C000000000000014C002
:1053000060020020F0000020380100200040014031
:105310000048014024FAFFFF0000000000000000E8
:10532000C800002000000000333333333333D33F51
:1053300000BFF3E04021FE4801F052FDFD49086046
:105340008021FB4801F04CFDFB4908604FF480715F
:10535000F74801F045FDF94908600221F84801F0DD
:105360003FFDF84908604FF40071F14801F038FD45
:10537000F54908604FF48061ED4801F031FDF349D3
:1053800008600221EA4801F02BFDF1490860042180
:10539000E74801F025FDEF4908600821E44801F0E5
:1053A0001FFDED490860E948006890B9E5480068CC
:1053B00001280ED1E448006801280AD11FED3C0BFA
:1053C000E64880ED000B1FED3B0BE54880ED000B40
:1053D0004AE0DE48006888B9DA48006870B9DA48FF
:1053E000006801280AD11FED400BDC4880ED000B5E
:1053F0001FED410BDA4880ED000B35E0D348006823
:10540000012812D1CF48006801280ED1CE4800688B
:1054100058B91FED4E0BD14880ED000B1FED540B1A
:10542000CF4880ED000B1FE0ADE3C84800680128BD
:1054300010D1C448006868B9C348006850B91FED6E
:10544000540BC64880ED000B1FED590BC44880ED8E
:10545000000B09E01FED580BC04880ED000B1FED5D
:105460005A0BBF4880ED000BBC4890ED000B51EC8F
:10547000100B04F013FC0590BA4890ED020B8DED73
:10548000020B9DED020B51EC100B04F007FC049095
:10549000DDED050A9DED040AB34803F0FFFEB048B8
:1054A00090ED000B51EC100B04F0F8FB0590AD48AB
:1054B00090ED040B8DED020B9DED020B51EC100BEA
:1054C00004F0ECFB0490DDED050A9DED040AA7480D
:1054D00003F0E4FEA548006A019004F0A3FECDE9C4
:1054E0000401A148006A019004F09CFECDE902018C
:1054F0009DED041B9DED020B03F0E5FB40F2A46162
:105500009B4802F0E2FA4FF461719A4802F0DDFA2A
:105510009448C0699849884200DA00E00AE700BF71
:105520001FED830B954880ED000B50E08D4890ED0A
:10553000020B8DED020B9DED020B51EC100B04F0F4
:10554000ADFB5FED880A05909DED050A864803F0E6
:10555000A5FE844890ED040B8DED020B9DED020B32
:1055600051EC100B04F09AFB5FED920A05909DED53
:10557000050A7E4803F092FE7C48006A019004F020
:1055800051FECDE904017848006A019004F04AFE1A
:10559000CDE902019DED041B9DED020B03F093FB91
:1055A00040F2A461724802F090FA40F2145171483E
:1055B00002F08BFA1FEDA40B53EC102B6F4890ED0B
:1055C000000B51EC100B04F00DFD00D200E0ADE734
:1055D00000BF1FEDAF0B694880ED000B50E0614844
:1055E00090ED020B8DED020B9DED020B51EC100BBB
:1055F00004F054FB5FEDB50A05909DED050A5A488D
:1056000003F04CFE574890ED040B8DED020B9DED21
:10561000020B51EC100B04F041FB5FEDBE0A05904C
:105620009DED050A514803F039FE5048006A01908B
:1056300004F0F8FDCDE904014B48006A019004F044
:10564000F1FDCDE902019DED041B9DED020B03F080
:105650003AFB40F2DC51464802F037FA40F214516E
:10566000444802F032FA9FED460B53EC102B4348AE
:1056700090ED000B51EC100B04F0B4FC00D200E0F4
:10568000ADE700BF1FEDDC0B3C4880ED000B7DE07B
:10569000344890ED020B8DED020B9DED020B51ECA9
:1056A000100B04F0FBFA5FEDE10A05909DED050A91
:1056B0002D4803F0F3FD2B4890ED040B8DED020B0C
:1056C0009DED020B51EC100B04F0E8FA5FEDEB0AD4
:1056D00005909DED050A254803F0E0FD2348006A8A
:1056E000019004F09FFDCDE904011F48006A01907C
:1056F00004F098FDCDE902019DED041B9DED020B28
:1057000003F0E1FA40F2DC51194802F0DEF94FF4FF
:105710006171184802F0D9F91FEDFD0B53EC102B05
:10572000164890ED000B51EC100B04F05BFC2BE0E5
:1057300000080240000000200400002008000020B3
:10574000000402400C000020100000201400002083
:10575000180000201C00002020000020280000204D
:105760003000002060020020F000002038010020FE
:10577000004001400048014048F4FFFFC8000020FD
:10578000000000000000E03F00D200E080E700BF22
:105790009FEDFD0BFE4880ED000B50E0FD4890EDC5
:1057A000020B8DED020B9DED020B51EC100B04F082
:1057B00075FADFEDF90A05909DED050AF74803F04B
:1057C0006DFDF44890ED040B8DED020B9DED020B89
:1057D00051EC100B04F062FADFEDEF0A05909DED3D
:1057E000050AEF4803F05AFDED48006A019004F005
:1057F00019FDCDE90401E948006A019004F012FDA9
:10580000CDE902019DED041B9DED020B03F05BFA57
:1058100040F2A461E34802F058F94FF46171E248A4
:1058200002F053F99FEDE10B53EC102BD84890EDAB
:10583000000B51EC100B04F0D5FB00D200E0ADE7FB
:1058400000BFF1E04021DB4801F0CAFADA49086004
:105850008021D84801F0C4FAD84908604FF480711B
:10586000D44801F0BDFAD64908600221D54801F0BC
:10587000B7FAD54908604FF40071CE4801F0B0FA8C
:10588000D24908604FF48061CA4801F0A9FAD049B2
:1058900008600221C74801F0A3FACE49086004213C
:1058A000C44801F09DFACC4908600821C14801F0C4
:1058B00097FACA490860C648006890B9C2480068AB
:1058C00001280ED1C148006801280AD19FEDC40B00
:1058D000C54880ED000B9FEDC50BC64880ED000B61
:1058E00049E0BB48006888B9B748006870B9B74854
:1058F000006801280AD19FEDC00BBB4880ED000B6A
:105900009FEDBF0BBB4880ED000B34E0B048006852
:10591000012811D1AC48006801280DD1AB480068BE
:1059200050B99FEDB20BB04880ED000B9FEDAC0B72
:10593000B04880ED000B1EE0A5480068012810D19A
:10594000A148006868B9A148006850B99FEDAC0B48
:10595000A54880ED000B9FEDA80BA64880ED000B3D
:1059600009E09FEDA90BA04880ED000B9FEDA60B71
:10597000A04880ED000B9C4890ED000B51EC100B03
:1059800004F08CF90590834890ED020B8DED020B2D
:105990009DED020B51EC100B04F080F90490DDED4D
:1059A000050A9DED040A7D4803F078FC914890EDCE
:1059B000000B51EC100B04F071F90590754890ED57
:1059C000040B8DED020B9DED020B51EC100B04F05E
:1059D00065F90490DDED050A9DED040A704803F0B9
:1059E0005DFC6F48006A019004F01CFCCDE90401E5
:1059F0006A48006A019004F015FCCDE902019DEDB2
:105A0000041B9DED020B03F05EF940F2A4616548B2
:105A100002F05BF84FF46171634802F056F86F488A
:105A20000068012800D100E00CE700BF9FED560B95
:105A3000574880ED000B50E0564890ED020B8DED7D
:105A4000020B9DED020B51EC100B04F027F9DFED7A
:105A5000520A05909DED050A504803F01FFC4D4881
:105A600090ED040B8DED020B9DED020B51EC100B34
:105A700004F014F9DFED480A05909DED050A484849
:105A800003F00CFC4648006A019004F0CBFBCDE922
:105A900004014248006A019004F0C4FBCDE9020110
:105AA0009DED041B9DED020B03F00DF940F2A46186
:105AB0003C4802F00AF840F214513B4802F005F865
:105AC0009FED3A0B53EC102B314890ED000B51EC4D
:105AD000100B04F087FA00D200E0ADE700BF9FEDA5
