:020000040800F2
:10000000D8100220790200081D2E0008752800086B
:10001000192E0008670C000877480008000000004F
:10002000000000000000000000000000C101000806
:10003000591A000800000000150200083D3E0008A3
:100040009D0200089D0200089D0200089D02000814
:100050009D0200089D0200089D0200089D02000804
:100060009D0200089D0200089D0200089D020008F4
:100070009D0200089D0200089D0200089D020008E4
:100080009D0200089D0200089D0200089D020008D4
:100090006D0C00089D0200089D0200085B1A000814
:1000A0009D0200089D0200089D0200089D020008B4
:1000B0009D020008B53E00089D0200089D02000850
:1000C0009D0200089D0200089D0200089D02000894
:1000D0009D020008E94400089D0200089D020008F6
:1000E0009D0200089D0200089D0200089D02000874
:1000F0009D0200089D0200089D0200089D02000864
:100100009D0200089D0200089D0200089D02000853
:100110009D0200089D020008C13F00089D020008E2
:100120009D0200089D0200089D0200089D02000833
:100130009D0200089D0200089D0200089D02000823
:10014000AD0D00089D0200089D0200089D020008F8
:10015000211700089D0200089D0200089D0200086A
:100160009D0200089D0200089D0200089D020008F3
:100170009D0200089D0200089D020008000000008A
:100180009D0200089D0200089D0200089D020008D3
:100190009D0200089D0200089D0200089D020008C3
:1001A00000000000000000009D020008DFF80CD0F5
:1001B00000F0B4F900480047D1750008D8100220BB
:1001C0002A4B19680868B0E8F04F80F30988BFF33C
:1001D0006F8F4FF0000080F311887047000000001F
:1001E00006480068006880F3088862B661B6BFF30D
:1001F0004F8FBFF36F8F00DF00BF00BF08ED00E03F
:10020000DFF80C00016841F470010160704700BF25
:1002100088ED00E0EFF30980BFF36F8F134B1A688E
:100220001EF0100F08BF20ED108A20E9F04F10607B
:1002300008B44FF0500080F31188BFF34F8FBFF325
:100240006F8F09F027F94FF0000080F3118808BC88
:1002500019680868B0E8F04F1EF0100F08BFB0EC46
:10026000108A80F30988BFF36F8F70472400002045
:10027000EFF30580704700000948016841F4700100
:1002800001600848804708480047FEE7FEE7FEE7B0
:10029000FEE7FEE7FEE7FEE7FEE7FEE7FEE700001B
:1002A00088ED00E04D3E0008AD0100089FED1A1AF0
:1002B000F5EE000A40EE010ABDEEE00AF5EEC00AD6
:1002C00010EE100AF1EE10FA38BF401E00EE100AD0
:1002D0001349F7EE001AB8EEC00A30EEC00ADFED9F
:1002E0000F0A20EE200AFCEEC00A10EE900AC0F3BE
:1002F000080000EE900A01EB8000F8EE600A90ED35
:10030000011A70EE600A90ED000A71EEE01A21EE1B
:10031000800A00EE810A704783F9223E0000004403
:1003200028A30008DFED190AB5EEC00A60EE200A26
:10033000BDEEE01A11EE100AF1EE10FA38BF401EC1
:1003400000EE100A1349F7EE001AB8EEC00A30EEBC
:10035000C00ADFED0F0A60EE200ABCEEE00A10EEE4
:10036000100AC0F3080000EE100A01EB8000B8EE9E
:10037000400A90ED011A70EEC00A90ED000A71EE8D
:10038000E01A21EE800A00EE810A704783F9223ECE
:100390000000004428A3000840EA01039B0703D0A3
:1003A00009E008C9121F08C0042AFAD203E011F8B4
:1003B000013B00F8013B521EF9D27047D2B201E076
:1003C00000F8012B491EFBD270470022F6E710B55A
:1003D00013460A4604461946FFF7F0FF204610BDB3
:1003E000421C10F8011B0029FBD1801A704700F055
:1003F000004230F000400AD0C10D01F56071C0F339
:10040000160042EA0151C20840071143704700201C
:100410000146704730B5041E71F1000404DB4FF053
:100420000044404264EB0101141E73F1000405DB3B
:100430001C464FF00043524263EB04038B4208BF5B
:10044000824230BD30B5041E71F1000404DB4FF070
:100450000044404264EB0101141E73F1000405DB0B
:100460001C464FF00043524263EB0403994208BF1D
:10047000904230BD01F0004330B421F0004150EA19
:10048000010206D00A0DA2F56072C1F31301002A21
:1004900002DC30BC00207047440F44EAC104C100B4
:1004A000E01830BC00EBC250AFF300800029A8BFB9
:1004B0007047401C490008BF20F00100704710B48D
:1004C000B0FA80FC00FA0CF050EA010404BF10BC42
:1004D000704749B1CCF1200421FA04F411FA0CF16F
:1004E00018BF012121430843A3EB0C01CB1D4FEAA8
:1004F00000614FEA102042BF002010BC704700EBA3
:10050000C35010440029A4BF10BC7047401C4900D0
:1005100008BF20F0010010BC70470000064C074DDA
:1005200006E0E06840F0010394E8070098471034C3
:10053000AC42F6D3FFF73EFE2CAB00084CAB0008F4
:1005400070B58C1810F8015B15F0070301D110F895
:10055000013B2A1106D110F8012B03E010F8016BC2
:1005600001F8016B5B1EF9D12B0705D40023521E45
:100570000DD401F8013BFAE710F8013BCB1A921CAD
:1005800003E013F8015B01F8015B521EF9D5A142AB
:10059000D8D3002070BDCA430260704721B1826881
:1005A00042F00102826003E0826822F00102826070
:1005B000704700000021084A1168084A1140D0E93C
:1005C00000231A4383681A43C3681A431143044A39
:1005D000C2F804137047000004230140E030FCFF20
:1005E000002001400146C86C80B2704702460020DE
:1005F00013680B400BB1012000E0002070470000A1
:1006000030B50246002000235068104C20400D7980
:100610000C6844EA05242043506090680C4C20404C
:10062000D1E903542C438D682C434D7944EA4504A9
:1006300020439060D06A20F470000C7D641EE4B208
:10064000234340EA0350D06230BD0000FFFEFFFCB0
:10065000FDF7FFC0F0B504460D4600200021092D2E
:1006600011DDE068A5F10A0606EB4607072606FA43
:1006700007F18843A5F10A0606EB460603FA06F1E0
:100680000843E0600CE0206905EB4507072606FA01
:1006900007F1884305EB450603FA06F1084320619C
:1006A000072A0FDA606B561E06EB86071F2606FA2E
:1006B00007F18843561E06EB860605FA06F1084345
:1006C000606322E00D2A0FDA206BD61F06EB860747
:1006D0001F2606FA07F18843D61F06EB860605FAA1
:1006E00006F10843206310E0E06AA2F10D0606EB74
:1006F00086071F2606FA07F18843A2F10D0606EBCE
:10070000860605FA06F10843E062F0BD816841F013
:10071000804181607047000038B10849096841F4A0
:100720000001074AC2F8041306E00449096821F4ED
:100730000001034AC2F8041370470000042301407B
:100740000020014010B52DED028BB0EE408AB0EED6
:10075000480A04F0D1F8BDEC028B10BD10B52DEDA8
:10076000028BB0EE408AF0EE608AF0EE680AB0EEDE
:10077000480A04F057F9BDEC028B10BD10B52DED01
:10078000028BB0EE408AB0EE480AFFF78FFDBDEC59
:10079000028B10BDF0EE400AF5EEC00AF1EE10FA41
:1007A00002DDB0EE600A7047B1EE600AFBE70000C0
:1007B00018B19FED020A80ED000A704700000000AA
:1007C00018B19FED020A80ED000A7047DF8FB44137
:1007D00070B52DED0C8B84B006460C4615469FED8A
:1007E000990AF0EE408A9FED970AB0EE409A9FED8D
:1007F000950AF0EE40BA9FED930AF0EE409A9FED15
:10080000910AB0EE40AA0EB104B11DB904B0BDEC1E
:100810000C8B70BD8C48FFF7CBFF8C48FFF7D0FFE7
:100820008A48D0ED000A9FED8A1A60EE810AB0EE88
:10083000600A00F039F9F0EE408A28EEA80AF0EEDE
:10084000408A8248D0ED000AB0EE001A60EE810ABC
:100850009FED7F1A60EE810AB0EE600A00F024F985
:10086000B0EE409A29EE090AB0EE409ADFED790A1F
:10087000B7EE000A00EEA80ADFED770A00EEC90A1B
:10088000DFED760A20EE200A754880ED000A6E48FA
:1008900090ED000ADFED730A80EE201AB7EE000A31
:1008A00031EE000A20EE000A6D48D0ED000A80EE1D
:1008B000801A6D4880ED001A94ED000AB5EEC00A6A
:1008C000F1EE10FA0DD194ED010AB5EEC00AF1EE89
:1008D00010FA06D194ED020AB5EEC00AF1EE10FA54
:1008E00046D09FED580AB0EE408A00200190029059
:1008F0000390D4ED000A60EEA00A94ED011AD4ED45
:10090000011A41EE210A94ED021AD4ED021A41EEC9
:10091000210AB0EE600A00F0A9F8B0EE408A94ED2A
:10092000000A20EE080A8DED010A94ED010A20EE7E
:10093000080A8DED020A94ED020A20EE080A8DEDF8
:10094000030ADDED010AF1EE600AB0EE600AFFF77E
:10095000F9FEF0EE409A9DED031AF0EE410A9DED8E
:10096000021AB0EE410AFFF7F9FEB0EE40AA07E026
:100970009FED340AF0EE409A9FED320AB0EE40AAA5
:1009800095ED000AB5EEC00AF1EE10FA0DD195ED25
:10099000010AB5EEC00AF1EE10FA06D195ED020A91
:1009A000B5EEC00AF1EE10FA3CD0B0EE690A00F0E4
:1009B0007BF8B0EE408AB0EE690AFFF7DFFEB0EEDA
:1009C00040DAB0EE4A0A00F06FF8F0EE40AAB0EE5E
:1009D0004A0AFFF7D3FEB0EE40BA28EE2A0AD5ED58
:1009E000010A20EE200AD5ED000A0DEE200A68EE7D
:1009F0000B0A95ED021A00EE810AB0EE40CA95EDA1
:100A0000010A20EE0B0AD5ED020A0AEEE00AF0EE2A
:100A100040CAF0EE6C0AB0EE4C0AFFF79FFEF0EE13
:100A200040BA03E09FED070AF0EE40BAB0EE4A1A72
:100A3000F0EE690AB0EE6B0A304604F017FB00BF17
:100A4000E4E6000000000000100200201402002074
:100A500035FA8E3CC1BFAD3B9DF8C5362F7C1C419D
:100A600018020020506CC24A1C020020F0EE400A1E
:100A7000F6EE001A60EEA11AB0EE611AB0EE600A4E
:100A800010EE100A0749A1EB600000EE100A21EEFB
:100A9000002AF7EE081A42EE401A61EE801AB0EE14
:100AA000610A7047DF59375F10B52DED028BB0EE4C
:100AB000408AB0EE480AFFF735FCBDEC028B10BD52
:100AC0002DE9F0412DED028B9AB00546B0EE408A3B
:100AD0000E461746984600201790189019901490CB
:100AE000159016904DB146B13FB1B8F1000F04D04A
:100AF000B5EEC08AF1EE10FA05D100201AB0BDECB7
:100B0000028BBDE8F08196ED000A8DED170A96ED97
:100B1000010A8DED180A96ED020A8DED190A97ED7E
:100B2000000A8DED140A97ED010A8DED150A97ED77
:100B3000020A8DED160A17AA14A9284604F0E8F84F
:100B4000402104A8FFF741FC002000900190029092
:100B50000390002417A904A808F0D0F800BF30E0E3
:100B600004A800EB041090ED000AD5ED000A20EE79
:100B7000200A04A800EB0410D0ED010A95ED011A3B
:100B800000EE810A04A800EB0410D0ED020A95EDF6
:100B9000021A00EE810A04A800EB0410D0ED030A4B
:100BA00095ED031A00EE810A20EE080AF0EE000A25
:100BB00080EE201A684600EB840080ED001A601C6D
:100BC000C4B2042CCCDB002410E005EB840090EDD3
:100BD000000A684600EB8400D0ED000A30EE200ADF
:100BE00005EB840080ED000A601CC4B2042CECDB31
:100BF000284607F043FD012080E738B54FF44070E8
:100C000002F04AF94FF47A7005F0CCFB06F052FC82
:100C100005F02CFD08F00EF807F0B6FD5A214EF64F
:100C2000602003F0DFF904F0E7FC002005231A46FA
:100C30000121009000F032F8002005231A4601211E
:100C4000009000F0CBF806F09FFE002408E020465C
:100C500006F0CEFE40F2C52005F002FC601CC4B2D6
:100C6000042CF4DB38BD00BFFEE7000010B5022104
:100C7000084800F06DFA58B10221064800F090F9DA
:100C8000054A0021034800F086FB034800F08EFC73
:100C900010BD000000640040E40902202DE9F0418D
:100CA0008AB004460D4616461F46DDF840800121F5
:100CB000082002F049FA0121480602F055FA012104
:100CC000480602F061FA00214FF0007002F05CFA71
:100CD0000320089002208DF8240000208DF82600C3
:100CE00003208DF8250001208DF8270008A92D4844
:100CF00001F066FB092200212A4801F0A9FB092224
:100D00000121284801F0A4FB00208DF81A000120E1
:100D10008DF81B0000208DF81C008DF81D008DF84B
:100D20001E008DF81F008DF816808DF817408DF885
:100D300018608DF81950ADF8147005A91A4800F024
:100D4000A0FA00208DF80E008DF80F0001208DF81C
:100D500010000020ADF80400ADF80600ADF8080062
:100D6000ADF80A00ADF80C0001208DF8110001A8C3
:100D700000F06AF9012202210B4800F079FA1420F0
:100D80008DF8000004208DF8010000208DF802008D
:100D900001208DF80300684602F042F800200AB0F6
:100DA000BDE8F081000C02400064004010B5022153
:100DB000084800F0CDF958B10221064800F0F0F8DB
:100DC000054A0021034800F0E6FA034800F0EEFB74
:100DD00010BD000000680040F80902202DE9F04134
:100DE0008AB004460D4616461F46DDF840800121B4
:100DF000022002F0A9F90121880602F0B5F90121CB
:100E0000880602F0C1F900214FF0806002F0BCF9C1
:100E10004FF44050089002208DF8240000208DF8F7
:100E2000260003208DF8250001208DF8270008A951
:100E30002D4801F0C5FA09220C212B4801F008FBCE
:100E400009220D21284801F003FB00208DF81A002B
:100E500001208DF81B0000208DF81C008DF81D006E
:100E60008DF81E008DF81F008DF816808DF8174044
:100E70008DF818608DF81950ADF8147005A91B484D
:100E800000F0FFF90E208DF80E0000208DF80F0005
:100E900001208DF810000020ADF80400ADF8060028
:100EA000ADF80800ADF80A00ADF80C0001208DF88F
:100EB000110001A800F0C8F8012202210B4800F03F
:100EC000D7F940208DF8000004208DF801000020A3
:100ED0008DF8020001208DF80300684601F0A0FFA4
:100EE00000200AB0BDE8F081000402400068004024
:100EF000F0B585B004460D4616461F464FF4007007
:100F0000009000208DF808008DF8090008208DF869
:100F10000A00200A8DF80B00E1B28DF80C10290AA6
:100F20008DF80D10E9B28DF80E10310A8DF80F1002
:100F3000F1B28DF81010390A8DF81110F9B28DF850
:100F400012106946024800F09EFA05B0F0BD00009C
:100F5000006800402DE9F04104460D4616461F4644
:100F600040F2FF100C490860002008724872082007
:100F70008872200AC87208460473290A417385736F
:100F8000310AC1730674390A4174877401460348F3
:100F900000F079FABDE8F081D00902200064004039
:100FA000B1F5007F3AD00FDC202928D006DC0129DA
:100FB0001CD004291DD0082940D11DE0402921D092
:100FC000B1F5807F3AD126E0B1F5004F31D006DC93
:100FD000B1F5806F25D0B1F5006F2FD124E0B1F5C8
:100FE000803F12D0B1F5003F28D111E0154A826050
:100FF00025E00822C26022E01022C2601FE0082221
:1010000002611CE01022026119E00822426016E031
:101010001022426013E00422426010E00422426089
:101020000DE0042242600AE0002282610422426054
:1010300005E0002282610422426000E000BF00BFA0
:10104000704700000101010010B50021837A0122E0
:1010500002FA03F13D4A126842F001023B4B1A606A
:101060003A4A1C3212688A43384B1C331A60027B9E
:10107000CAB9364A0C3212688A43344B0C331A60B0
:101080004288C38842EA0343304A4032847A42F8B5
:1010900034300288838842EA03432C4A4032847AFF
:1010A00002EBC4025360027B012A19D1274A0C3299
:1010B00012680A43254B0C331A604288038842EABF
:1010C0000343224A4032847A42F83430C28883880B
:1010D00042EA03431D4A4032847A02EBC402536061
:1010E000C27A3AB9194A121D12688A43174B1B1D5E
:1010F0001A6006E0154A121D12680A43134B1B1DA5
:101100001A60028932B9114A143212688A430F4BAD
:1011100014331A600289012A06D10C4A143212686B
:101120000A430A4B14331A60427B012A06D1074A4C
:101130001C3212680A43054B1C331A60034A1268BA
:1011400022F00102014B1A6010BD00000066004051
:1011500070B504460D46002660692840002871D00D
:10116000B5F5807F5CD010DC082D35D006DC012D74
:1011700020D0022D24D0042D72D127E0102D31D0A3
:10118000202D35D0402D6BD138E0B5F5004F60D023
:1011900009DCB5F5007F49D0B5F5806F4CD0B5F5C9
:1011A000006F5DD14FE0B5F5803F2DD0B5F5003F24
:1011B00056D12FE0A0682D4900F0A8FA064651E06C
:1011C000E068032100F0A2FA06464BE0E06808213F
:1011D00000F09CFA064645E0E068102100F096FA1F
:1011E00006463FE02069032100F090FA064639E008
:1011F0002069082100F08AFA064633E020691021B0
:1012000000F084FA06462DE06068082100F07EFABE
:10121000064627E06068102100F078FA064621E0D3
:10122000A069012100F072FA06461BE0A0690221C4
:1012300000F06CFA064615E0A069042100F066FA99
:1012400006460FE00FE0A069702100F05FFA064645
:1012500008E06068042100F059FA064602E0FFE762
:10126000002600BF00E00026304670BD01010100ED
:101270001AB143690B43436102E043698B43436105
:10128000704730B5024600200023146824F00204A1
:101290001460146844F00104146000E05B1C54689E
:1012A00004F001041CB94FF6FF74A342F6D1546850
:1012B00004F001040CB900206CE08C79012C04D1FD
:1012C000146844F08004146003E0146824F080047F
:1012D0001460CC79012C04D1146844F040041460EB
:1012E00003E0146824F0400414600C7A012C04D14B
:1012F000146844F02004146003E0146824F020040F
:1013000014604C7A012C04D1146844F01004146069
:1013100003E0146824F0100414608C7A012C04D1CA
:10132000146844F00804146003E0146824F008040E
:101330001460CC7A012C04D1146844F004041460C5
:1013400003E0146824F0040414608C78A407CD78BA
:1013500044EA05640D7944EA05444D7944EA0554AC
:101360000D886D1E2C43D461146824F001041460B0
:10137000002300E05B1C546804F001041CB14FF62C
:10138000FF74A342F6D1546804F001040CB10020AC
:1013900000E0012030BD10B500F5D87303EB011358
:1013A0001B6803F004031372137A53B900F5D87362
:1013B00003EB01131B6840F2FF7404EA53531360FC
:1013C00009E000F5D87303EB01131B686FF060446C
:1013D00004EAD303536000F5D87303EB01131B68D1
:1013E00003F00203537200F5D87303EB01135B683B
:1013F00003F00F03937200F5D87303EB01135B68DE
:101400001B0AD37400F5D87303EB01139B68D372E6
:1014100000F5D87303EB01139B681C0A147300F5E5
:10142000D87303EB01139B681C0C547300F5D8733D
:1014300003EB01139B681B0E937300F5D87303EB4A
:101440000113DB68D37300F5D87303EB0113DB687A
:101450001C0A147400F5D87303EB0113DB681C0C31
:10146000547400F5D87303EB0113DB681B0E9374FF
:1014700021B9C36843F02003C36003E0036943F06C
:101480002003036110BD10B502460020936803F0ED
:101490008063B3F1806F00D110E0936803F00063C4
:1014A000B3F1006F01D1012008E0936803F080538D
:1014B000B3F1805F01D1022000E00420042874D041
:1014C00002F5C07303EB00131B6803F0010402F57F
:1014D000C07303EB00131C600B7A7BB94B7A0C884A
:1014E00043EA445302F5C07404EB00142468234318
:1014F00002F5C07404EB0014236010E00B7A4C6812
:1015000043EAC4034C7A234302F5C07404EB00148D
:101510002468234302F5C07404EB001423608B7A23
:1015200003F00F038B7202F5C07303EB00135B68CB
:1015300023F00F0402F5C07303EB00135C6002F5A7
:10154000C07303EB00135B688C7A234302F5C0740D
:1015500004EB001463608B7B1C064B7B44EA034462
:101560000B7B44EA0323CC7A234302F5C07404EBDB
:101570000014A3608B7C1C064B7C44EA03440B7C68
:1015800044EA0323CC7B234302F5C07404EB00142C
:10159000E36002F5C07303EB00131B6843F0010422
:1015A00002F5C07303EB00131C6010BD0168A1F2CB
:1015B000012107297DD2DFE801F058595A5B042048
:1015C0003C004D49098809B24B4A1181017BC27A1E
:1015D00041EA0221484A1180827B417B42EA012193
:1015E00009B2454A5180027CC17B42EA012109B21D
:1015F000414A9180417C91717CE04049098809B25F
:101600003E4A1181017BC27A41EA02213B4A1180A4
:10161000827B417B42EA012109B2384A5180027C37
:10162000C17B42EA012109B2344A9180417C917127
:1016300060E03349098809B2314A1181017BC27ADD
:1016400041EA02212E4A1180827B417B42EA01213C
:1016500009B22B4A5180027CC17B42EA012109B2C6
:10166000274A9180417C917144E000BF00BF00BFD8
:101670000178491E234A11701146097801EB810156
:10168000214A32F8111009B21E4A127802EB820286
:101690001D4B03EB42021181017BC27A41EA022118
:1016A000184A127802EB820223F81210827B417BE7
:1016B00000E01EE042EA012109B2124A127802EB70
:1016C000820203EB42025180027CC17B42EA01218B
:1016D00009B20C4A127802EB820203EB42029180BB
:1016E000417C084A127802EB820203EB42029171BC
:1016F00000E000BF00BF7047880902209209022065
:101700009C090220D4010020A609022002460020E4
:1017100002EA01030BB1012000E000207047000045
:1017200010B51049104800F029F9C8B10D490E480C
:1017300000F022F805F08CFF08F034FB01280FD0F0
:101740000A490B48006807F02FFD0848006838B1C7
:101750004FF0805007490860BFF34F8FBFF36F8F82
:1017600010BD0000000800208864024044010020F1
:10177000C800002004ED00E00246094B9A4201D265
:10178000084801E00648103801F000531BB1064B31
:101790000B40C36002E0044B0B40836070470000C5
:1017A00010640240006002407D0F7D0F21B102688D
:1017B00042F00102026003E0026822F001020260CE
:1017C00070470000016821F0010101600021016003
:1017D00041608160C1600161212141614A498842C3
:1017E00004D13D21484A103A91608CE046491831B5
:1017F000884205D14FF47461434A103A916082E007
:1018000041493031884205D14FF474113E4A103AB3
:10181000916078E03C494831884205D14FF07461CD
:10182000394A103A91606EE037496031884204D1FC
:101830003649354A103AD16065E0334978318842FB
:1018400004D13349304A103AD1605CE02E499031DE
:10185000884204D12F492C4A103AD16053E02A49DA
:10186000A831884205D14FF03D51274A103AD16046
:1018700049E02949884204D13D21274A083A1160AC
:1018800041E025491831884205D14FF47461224A5C
:10189000083A116037E020493031884205D14FF4D1
:1018A00074111D4A083A11602DE01B4948318842E5
:1018B00005D14FF07461184A083A116023E01649C7
:1018C0006031884204D11149134A121F11601AE095
:1018D00011497831884204D10D490F4A121F116015
:1018E00011E00D499031884204D10A490A4A121F79
:1018F000116008E00849A831884204D14FF03D51F9
:10190000054A121F11607047106002403D00002020
:10191000400F002000003D201064024021B1026809
:1019200042F48022026003E0026822F48022026016
:10193000704722B1036843F40023036003E00368A7
:1019400023F40023036001617047014600200A6808
:1019500002F001020AB1012000E0002070470146B8
:10196000486880B27047014600200A6802F40022ED
:101970000AB1012000E000207047000030B50346A6
:101980000A46002000240B4DAB4201D20A4901E077
:101990000849103902F000550DB14C6800E00C68A0
:1019A000064D2C4004EA02050DB1012000E00020A4
:1019B00030BD000010640240006002407D0F7D0FCA
:1019C00010B501F080034BB122B1436943F08003AD
:1019D000436103E0436923F08003436180290BD016
:1019E0002AB1036801F01E042343036004E0036886
:1019F00001F01E04A343036010BD000010B50022D7
:101A00000268134B1A40CC680B6823434C6923438C
:101A10008C692343CC6923430C6A23434C6A2343D8
:101A20008C6A23434C6B23438C6B23431A43026021
:101A3000426922F00702D1E90B3423431A43426181
:101A40000B6943604B6883608B68C36010BD000006
:101A50003F801CF041607047704710B54FF48070B4
:101A600000F012F840B14FF4807000F007F805F074
:101A7000F7FD172001F0D4FE10BD000001490860F9
:101A800070470000143C014001460020034A1268E0
:101A90000A400AB1012000E000207047143C0140D8
:101AA000002123498279002A3AD00A461268036845
:101AB0009A430B461A600A1D126803689A430B1D6D
:101AC0001A60027911440A6803681A430A60184AC6
:101AD0000832126803689A43154B08331A601A1DBE
:101AE000126803689A43124B0C331A604279102A29
:101AF0000ED11A1F126803681A430D4B08331A607F
:101B00001A1D126803681A43094B0C331A600DE062
:101B10000749427911440A6803681A430A6005E0DC
:101B2000027911440A6803689A430A60704700000A
:101B3000003C014001490860704700000C3C024035
:101B400070B504460A460026092502B909E0012AB3
:101B500001D1160205E0022A01D1160201E04FF47C
:101B6000407600F09FF80546092D28D115480068F9
:101B700020F440701349086008460068304308604C
:101B80000846006820F0F80008600846006844F045
:101B9000020108430B4908600846006840F48030A1
:101BA000086000F07FF805460648006820F0020053
:101BB000044908600846006820F0F80008602846DC
:101BC00070BD0000103C024009201349096801F46F
:101BD0008031B1F5803F01D101201CE00E49096838
:101BE00001F0100109B1062015E00B49096801F464
:101BF000807109B102200EE00749096801F0E00197
:101C000009B1072007E00449096801F0020109B1A0
:101C1000082000E0092070470C3C0240034800689F
:101C200040F000400149086070470000103C02404D
:101C300030B502460C46092500F034F80546092D5A
:101C400019D10E48006820F440700C49086008461D
:101C5000006840F4007008600846006840F0010029
:101C60000860146000F01EF805460448006820F083
:101C7000010002490860284630BD0000103C0240C7
:101C80000548006800F0004028B1044802490C39BA
:101C90000860034808607047103C02402301674514
:101CA000AB89EFCD08B509200090FFF78DFF0090BC
:101CB00002E0FFF789FF00909DF800000128F8D0AE
:101CC0009DF8000008BD10B5044604B910BD94F895
:101CD000B80020B904F10C0005F05AFA10E094F8AD
:101CE000B800012804D104F10C0005F023FA07E044
:101CF00094F8B800022803D104F10C0005F059FA59
:101D000094F8980120B904F1EC0005F041FA10E0D4
:101D100094F89801012804D104F1EC0005F00AFAC6
:101D200007E094F89801022803D104F1EC0005F0D3
:101D300040FA00BFCAE710B52DED028B044614B976
:101D4000BDEC028B10BD606890ED010A84ED6B0A5A
:101D5000B4F89A11D4F8EC20108805F045FC84ED15
:101D6000690AA06890ED010A84ED6D0A606890ED43
:101D7000000A84ED330AB4F8BA10E268108805F05E
:101D800033FC84ED310AD4ED690AB0EE600AFEF747
:101D90008DFAA068D0ED020A20EE208AD4ED690AFF
:101DA000B0EE600AFEF7BEFAA068D0ED000A00EEC1
:101DB000608A84ED358A00BFC2E7000010B5044692
:101DC00004F03CFDE06004F031FDC4F8EC0004F0E8
:101DD00025FD606004F026FDA06004F0B1FD2060E8
:101DE000002184F8B91084F8B81084F8991184F8A7
:101DF00098119FED402ADFED3F1AB2EE001AF0EE87
:101E0000080AB2EE040A04F1100000F03BF99FED5D
:101E1000392ADFED381AB2EE001AF0EE080AB2EEF7
:101E2000040A04F1400000F02DF9DFED330A9FEDC4
:101E3000330A334A002104F1700001F02FF99FEDBD
:101E40002D2ADFED2C1AB2EE021AF0EE080AB2EEDD
:101E5000040A04F1F00000F015F9B6EE002ADFEDF7
:101E6000251AB1EE0C1AF0EE080AB2EE040A04F5D7
:101E7000907000F007F9DFED200A9FED200A214A5B
:101E8000002104F5A87001F009F904F1100000F038
:101E9000D9FC04F1400000F0D5FC04F1700001F021
:101EA0002DF904F1F00000F0CDFC04F5907000F085
:101EB000C9FC04F5A87001F021F92046FFF73BFFAB
:101EC00094ED330A84ED340A94ED310A84ED320A3C
:101ED00094ED350A84ED360A94ED6B0A84ED6C0AB4
:101EE00094ED690A84ED6A0A94ED6D0A84ED6E0A38
:101EF00010BD00000000000000409C450060EA4664
:101F0000D8A20008CCA2000800B9704790F8B91018
:101F100069B190F8B81051B9B0F9E81000EE101A94
:101F2000B8EEC00A80ED390A80ED380A18E090F862
:101F3000B910012908D090F8B810012904D190ED0A
:101F4000330A80ED340A0BE090F8B910022907D06B
:101F500090F8B810022903D190ED310A80ED320AD1
:101F600090F8B82080F8B92090F8991169B190F8EC
:101F7000981151B9B0F9C81100EE101AB8EEC00AA4
:101F800080ED710A80ED700A18E090F8991101292E
:101F900008D090F89811012904D190ED6B0A80EDDA
:101FA0006C0A0BE090F89911022907D090F898116B
:101FB000022903D190ED690A80ED6A0A90F8982110
:101FC00080F8992100BFA0E710B52DED048B0446E1
:101FD000B0EE408AF0EE608AB0EE419A24B99FEDEF
:101FE000260ABDEC048B10BD84ED048AC4ED038A7F
:101FF00078EEC89A9FED211ADFED210AB0EE690A4A
:1020000005F0B6FA84ED050A94ED000AD4ED050A50
:1020100020EE200A84ED080A94ED090AD4ED010AA5
:1020200094ED051A00EE810A84ED090A94ED020A86
:1020300020EE090A84ED0A0AD4ED070AB0EE600A20
:1020400004F1240002F04CFE94ED080AD4ED090AD4
:1020500030EE200AD4ED0A0A30EE200A84ED0B0A95
:10206000D4ED060AB0EE600A04F12C0002F038FE4E
:1020700094ED0B0AB5E7000000000000DB0F4940BB
:10208000DB0F49C000B9704780ED001AC0ED011A9E
:1020900080ED022ADFED062AC0ED052ADFED042AD5
:1020A000C0ED042AC0ED070A80ED060A00BFEAE78A
:1020B000000000001CB5044604B91CBD9FED240AB5
:1020C0008DED010A9FED220A8DED000A2246694638
:1020D00001A804F071FC94F8B80020B99DED010A44
:1020E00084ED380A14E094F8B800012806D19DED7B
:1020F000010A04F10C0000F037F809E094F8B80088
:10210000022805D19DED010A04F10C0000F0A6F8AB
:1021100094F8980120B99DED000A84ED700A14E04E
:1021200094F89801012806D19DED000A04F1EC0015
:1021300000F01AF809E094F89801022805D19DED05
:10214000000A04F1EC0000F089F800BFB5E70000D8
:102150000000000010B5044604B910BD204604F08C
:10216000E3FC00BFF9E7000010B52DED028B04463B
:10217000B0EE408A14B9BDEC028B10BDD4ED310A2B
:1021800094ED301A70EEC10AB0EE600A9FED2F1A7E
:10219000DFED2F0A05F0ECF92E4880ED000A94EDF2
:1021A0002E0AD0ED000A30EE200A30EE080AD4EDF7
:1021B0002C0AB4EEE00AF1EE10FA11DDB5EEC08A99
:1021C000F1EE10FA2DDD94ED2C0AD4ED2E0A30EE4E
:1021D000600AD0ED000A30EE600AB0EE408A20E0DE
:1021E00094ED2E0A1B48D0ED000A30EE200A30EEA6
:1021F000080AD4ED2D0AB4EEE00AF1EE10FA10D27E
:10220000B5EEC08AF1EE10FA0BD294ED2D0AD4EDA2
:102210002E0A30EE600AD0ED000A30EE600AB0EE11
:10222000408A94ED310A0C4880ED000AD0ED000A96
:1022300070EE880AB0EE600A9FED041ADFED040A22
:1022400005F096F984ED310A00BF94E7DB0F4940B1
:10225000DB0F49C0CC010020D001002000B970473D
:10226000D0ED2F0A70EE800AC0ED2F0AD0ED2F0AB4
:1022700090ED2C1AF4EEC10AF1EE10FA04DDD0ED67
:102280002C0AC0ED2F0A0CE0D0ED2F0A90ED2D1A8C
:10229000F4EEC10AF1EE10FA03D2D0ED2D0AC0ED32
:1022A0002F0A00BFDBE70000C92006F0CFFE1D4863
:1022B000FFF784FD06F098FB32E005F03BF9194882
:1022C000FFF748FF1748FFF71FFE1648FFF733FDDB
:1022D0001448FFF7EFFE1348FFF7F5FC06F0C2FACB
:1022E000114908800F48B0F8E800104908800D48EF
:1022F000B0F8C8010E49088000230B48B0F900204F
:102300000846B0F900100948B0F90000FEF722FEB7
:10231000012006F09BFE002006F042FD0549086002
:10232000CBE70000A0070220C8010020C401002064
:10233000C6010020C001002000B585B001210220A7
:1023400000F002FF0121880300F02EFF0821012088
:1023500001F05EFB4FF48070009000208DF80400C7
:1023600001208DF8060000208DF8070003208DF86D
:1023700005006946114800F023F84FF48070029080
:1023800000208DF80C0008208DF80D0001208DF83C
:102390000E0002A8FFF784FB17208DF8100005201F
:1023A0008DF8110000208DF8120001208DF8130027
:1023B00004A800F035FD05B000BD00000004024097
:1023C000F0B50A4600210023002400BF3DE00125AE
:1023D00005FA01F3156805EA03049C4234D1056847
:1023E0004F000326BE40B543056015794E00B54049
:1023F0000668354305601579012D02D01579022D47
:1024000016D185684F000326BE40B54385605579D7
:102410004E00B540866835438560456801268E408C
:10242000B5434560456896798E40B6B23543456000
:10243000C5684F000326BE40B543C560D5794E0040
:10244000B540C6683543C560491C1029BFD3F0BDEF
:10245000F0B5002300244D07ED0E02FA05F3CE106F
:1024600000F1200555F826504E07F70E0F26BE4006
:10247000B543CF1000F1200646F82750CE1000F1EA
:10248000200555F8265045EA0304CE1000F120053A
:1024900045F82640F0BD4183704701837047000036
:1024A000014600205C4A914203D2B1F1006F00D393
:1024B000B0E05A4A914204D2574A914201D30820CF
:1024C000A8E0574A914204D2544A914201D31020C5
:1024D000A0E0544A914204D2514A914201D31820BB
:1024E00098E0514A914204D24E4A914201D32020B1
:1024F00090E04E4A914204D24B4A914201D32820A7
:1025000088E04B4A914204D2484A914201D330209C
:1025100080E0484A914204D2454A914201D3382092
:1025200078E0454A914204D2424A914201D3402088
:1025300070E0424A914204D23F4A914201D348207E
:1025400068E03F4A914204D23C4A914201D3502074
:1025500060E0B1F1016F04D2394A914201D35820B1
:1025600058E0384A914204D2B1F1016F01D3802082
:1025700050E0354A914204D2324A914201D3882038
:1025800048E0324A914204D22F4A914201D390202E
:1025900040E02F4A914204D22C4A914201D3982024
:1025A00038E02C4A914204D2294A914201D3A0201A
:1025B00030E0294A914204D2264A914201D3A82010
:1025C00028E0264A914204D2234A914201D3B02006
:1025D00020E0234A914204D2204A914201D3B820FC
:1025E00018E0204A914204D21D4A914201D3C020F2
:1025F00010E01D4A914204D21A4A914201D3C820E8
:1026000008E01A4A914204D2174A914201D3D020DD
:1026100000E0D8207047000000400008008000085B
:1026200000C00008000001080000020800000408C3
:10263000000006080000080800000A0800000C0856
:1026400000000E08004010080080100800C01008AC
:10265000000011080000120800001408000016080D
:102660000000180800001A0800001C0800001E08DE
:10267000014600205D4A914204D2B1F1006F01D3BE
:102680001046B2E05A4A914204D2584A914201D3CC
:102690005748AAE0574A914204D2554A914201D381
:1026A0005448A2E0544A914204D2524A914201D382
:1026B00051489AE0514A914204D24F4A914201D383
:1026C0004E4892E04E4A914204D24C4A914201D384
:1026D0004B488AE04B4A914204D2494A914201D385
:1026E000484882E0484A914204D2464A914201D386
:1026F00045487AE0454A914204D2434A914201D387
:10270000424872E0424A914204D2404A914201D387
:102710003F486AE03F4A914204D23D4A914201D388
:102720003C4862E0B1F1016F05D23A4A914202D3CE
:102730004FF0016059E0384A914204D2B1F1016F83
:1027400001D3104651E0354A914204D2324A9142B7
:1027500001D3324849E0324A914204D22F4A914291
:1027600001D32F4841E02F4A914204D22C4A914292
:1027700001D32C4839E02C4A914204D2294A914293
:1027800001D3294831E0294A914204D2264A914294
:1027900001D3264829E0264A914204D2234A914295
:1027A00001D3234821E0234A914204D2204A914296
:1027B00001D3204819E0204A914204D21D4A914297
:1027C00001D31D4811E01D4A914204D21A4A914298
:1027D00001D31A4809E01A4A914204D2174A914299
:1027E00001D3174801E04FF0026070470040000835
:1027F0000080000800C00008000001080000020876
:1028000000000408000006080000080800000A088C
:1028100000000C0800000E0800401008008010089E
:1028200000C0100800001108000012080000140881
:10283000000016080000180800001A0800001C0814
:1028400000001E0800B970479FED090A80ED040AD8
:1028500080ED030A80ED050A9FED050A80ED0A0A66
:1028600080ED090A80ED080A80ED0B0A00BFEAE757
:102870000000000000BFFEE7F0B50546059C002003
:102880007FE093ED050A00EB4006404F07EB86061C
:10289000D6ED000A20EE200AD3ED060A00EB400632
:1028A00007EB860696ED011A00EE810AD3ED070AC2
:1028B00000EB400607EB860696ED021A00EE810A51
:1028C000334E06EB8006D6ED000A30EE200A05EB0B
:1028D000800686ED000A93ED010A00EB40062D4FBD
:1028E00007EB8606D6ED000A20EE200AD3ED020A99
:1028F00000EB400607EB860696ED011A00EE810A12
:10290000D3ED030A00EB400607EB860696ED021AAC
:1029100000EE810A204E06EB8006D6ED000A30EE6E
:10292000200A01EB800686ED000A94ED010A00EB17
:1029300040061A4F07EB8606D6ED000A20EE200A65
:10294000D4ED020A00EB400607EB860696ED011A6D
:1029500000EE810AD4ED030A00EB400607EB860681
:1029600096ED021A00EE810A0D4E06EB8006D6EDBA
:10297000000A30EE200A02EB800686ED000A461CB3
:10298000F0B20328FFF67DAFF0BD0000D0000020BC
:10299000B4050220F4000020C00502201801002028
:1029A000DC05022010B52DED028BB0EE408A2748E1
:1029B000007838B303F0BAFF00EE100AB8EEC00A90
:1029C000F0EE408AF0EE680AB0EE480A204800F0C7
:1029D0006DFA1F4890ED080AB5EEC00AF1EE10FA44
:1029E00003D29FED1C0A80ED080A194890ED080AF1
:1029F000BCEEC00A10EE100A84B22146164801F05F
:102A00002CFD20E003F092FF00EE100AB8EEC00AA1
:102A1000B4EEC80AF1EE10FA10D210480078401C4B
:102A20000E49087008460078C82807DD01200749CC
:102A300008709FED0B0A064880ED0A0A41F28731C3
:102A4000054801F00AFDBDEC028B10BD3C010020E1
:102A50002806022000000000000400404001002081
:102A600000401C4508B5072006F0F0FA00BF04F04E
:102A70002DFE0028FBD100BF04F092FC0028FBD102
:102A800004F06AFF044607F03BF9A4490860FFF729
:102A900053FC1722A249A34800F0FCFE0122114674
:102AA000A14800F07FFF012202219F4800F07AFF39
:102AB0000021102000F09CFE2EE100BF4FF0FF31FE
:102AC000012006F0E1F80128F8D198499448401C0B
:102AD00004F06AFE96499248103004F0A9FC94482C
:102AE000924B944A944900909448FFF7C5FE8F4852
:102AF000007800F00100002846D091480078E8BB3B
:102B0000012141F2883001F0EDF9DFED8E0A9FEDF1
:102B10008E0A8E4A01218E4800F0C0FA854A864905
:102B20008C48FDF755FE8C4B1A1F111F894803F086
:102B300089FE814890ED000A884880ED000A8848A7
:102B400080ED000A874880ED000A7B4890ED010A7D
:102B5000824880ED010A824880ED010A814880EDBB
:102B6000010A754890ED020A7C4880ED020A7C4813
:102B700080ED020A7B4880ED020A00E005E0704823
:102B80000078401C6E490870BAE0754890ED000A64
:102B9000744880ED000A714890ED000A704880ED9D
:102BA000000A90ED000A7048D0ED000A20EE200ADD
:102BB0006C48D0ED000A6C4890ED011A00EE810AD5
:102BC0005D48D0ED000A684890ED021A00EE810AD7
:102BD000624880ED000A624890ED010A614880ED8C
:102BE000010A5E4890ED010A5D4880ED010A90ED12
:102BF000010A5D48D0ED000A20EE200A5948D0EDC8
:102C0000010A594890ED011A00EE810A4A48D0EDB8
:102C1000010A554890ED021A00EE810A4F4880EDF6
:102C2000010A4F4890ED020A4E4880ED020A4B48D7
:102C300090ED020A4A4880ED020A90ED020A4A48E5
:102C4000D0ED000A20EE200A4648D0ED020A4648A0
:102C500090ED011A00EE810A3748D0ED020A424891
:102C600090ED021A00EE810A3C4880ED020A314BD9
:102C7000024632499FED3D0A3648FDF721FF364BAB
:102C80001A1F111F334803F0DDFD39480088B8B919
:102C9000384890ED000A384880ED000A354890ED3C
:102CA000010A354880ED010A324890ED020A3248A7
:102CB00080ED020A2E480088401C2D4908801FE044
:102CC0002B480088B0F5FA7F0EDA0021084602F0A2
:102CD0008BFA2A48007898B114480278244B174997
:102CE000254804F0ABFA0BE021480088B0F5FA7FE4
:102CF00006D102F071FA1E480088401C1C49088069
:102D00000A48D0ED040AB0EE600AFFF74BFE00203F
:102D100006F046F81A490860CFE60000C800002017
:102D2000700502208CA20008005001408805022096
:102D3000CC05022000060220F4050220E80502204E
:102D40003D0100200080894500A08C45A4A2000818
:102D500028060220180602201406022088060220F7
:102D60007C06022070060220B0A200086F12833A8F
:102D70003E010020A8050220B40502203C010020ED
:102D8000CC00002070B506460C4615461548007864
:102D900038B3288888B9144890ED000A134880EDAC
:102DA000000A114890ED010A104880ED010A0E4812
:102DB00090ED020A0D4880ED020A0D4802782B467C
:102DC0000C490A4804F03AFA084890ED000A84EDEC
:102DD000000A90ED010A84ED010A90ED020A84EDEB
:102DE000020A70BD3C010020A8050220B4050220A3
:102DF00088050220E805022091ED000A054A82EDCF
:102E0000000A91ED010A82ED010A91ED020A82EDBC
:102E1000020A7047A805022000BFFEE770470000C5
:102E200070B5002100230F22C4781CB3174C24680E
:102E300004F4E064C4F5E064C4F30721C1F10404C0
:102E4000E3B20A4144789C40E1B2847814402143C3
:102E50000C07210E0E4C05786155047804F01F050F
:102E60000124AC4005786D11AD0005F1E025C5F8F1
:102E7000004109E0047804F01F050124AC40054D31
:102E80000678761145F8264070BD00000CED00E094
:102E900000E400E080E100E002490143024A1160E1
:102EA000704700000000FA050CED00E0B0EE401A9B
:102EB00010B99FED790A704790ED100A80ED110A64
:102EC00090ED0F0A80ED100AC0ED060A80ED071A9A
:102ED00030EEC10A80ED0F0A0178002975D190ED1E
:102EE000010AD0ED0F1A20EE210A80ED090A90EDBB
:102EF0000A0AD0ED021A90ED0F2A01EE820A80ED47
:102F00000A0A90ED0D0A80ED0E0A90ED0C0A80ED94
:102F10000D0A90ED0F0AD0ED101A30EE610A80ED27
:102F20000C0A90ED030AD0ED0C1A20EE210A80ED78
:102F30000B0A90ED0A0AD0ED051AB4EEE10AF1EEA3
:102F400010FA04DD90ED050A80ED0A0A10E090ED1C
:102F50000A0AD0ED051AF1EE611AB4EEE10AF1EEBB
:102F600010FA05D290ED050AB1EE400A80ED0A0A8A
:102F700090ED090AD0ED0A1A30EE210AD0ED0B1AB5
:102F800030EE210A80ED080A90ED080AD0ED041A0F
:102F9000B4EEE10AF1EE10FA04DD90ED040A80EDE2
:102FA000080A76E090ED080AD0ED041AF1EE611AF5
:102FB000B4EEE10AF1EE10FA6BD290ED040AB1EE34
:102FC000400A80ED080A64E0FFE70178012960D13A
:102FD00090ED0F0AD0ED101A30EE610AD0ED011A13
:102FE00020EE210A80ED090A90ED020AD0ED0F1AB9
:102FF00020EE210A80ED0A0A90ED0D0A80ED0E0AFE
:1030000090ED0C0A80ED0D0A90ED0F0AD0ED101A2C
:10301000B0EE002A02EE610AD0ED111A30EE210A5C
:1030200080ED0C0A90ED030AD0ED0C1A20EE210A77
:1030300080ED0B0A90ED090AD0ED0A1A30EE210A54
:10304000D0ED0B1A30EE210AD0ED081A30EE210A2D
:1030500080ED080A90ED080AD0ED041AB4EEE10AFA
:10306000F1EE10FA04DD90ED040A80ED080A10E09C
:1030700090ED080AD0ED041AF1EE611AB4EEE10AFF
:10308000F1EE10FA05D290ED040AB1EE400A80ED9F
:10309000080A90ED080A0EE70000000000B102B92E
:1030A0007047017092ED001A80ED011A92ED011A3D
:1030B00080ED021A92ED021A80ED031A80ED040AE7
:1030C000C0ED050A9FED0C1A80ED0E1A80ED0D1A69
:1030D00080ED0C1A9FED081A80ED081A80ED0B1A8E
:1030E00080ED0A1A80ED091A80ED111A80ED101A90
:1030F00080ED0F1A00BFD3E70000000000B9704751
:103100009FED100A80ED110A80ED100A80ED0F0A84
:103110009FED0C0A80ED0E0A80ED0D0A80ED0C0A81
:103120009FED080A80ED0B0A80ED0A0A80ED090A7E
:1031300080ED080A9FED030A80ED060A80ED070A7C
:1031400000BFDCE70000000029B1064A1268024314
:10315000044B1A6004E0034A12688243014B1A6070
:10316000704700003038024029B1064A1268024315
:10317000044B1A6004E0034A12688243014B1A6050
:10318000704700004038024029B1064A12680243E5
:10319000044B1A6004E0034A12688243014B1A6030
:1031A000704700002038024029B1064A12680243E5
:1031B000044B1A6004E0034A12688243014B1A6010
:1031C000704700004438024029B1064A12680243A1
:1031D000044B1A6004E0034A12688243014B1A60F0
:1031E0007047000024380240F0B50021002200247E
:1031F000022500260223324F3F6807F00C0121B15F
:10320000042905D0082937D105E02E4F076036E0A4
:103210002D4F076033E02A4F3F1F3F68C7F38056AA
:10322000274F3F1F3F6807F03F036EB1264FB7FBA4
:10323000F3F7DFF88CC0ACF1040CDCF800C0CCF381
:10324000881C07FB0CF40CE01E4FB7FBF3F7DFF80C
:1032500070C0ACF1040CDCF800C0CCF3881C07FB98
:103260000CF4174F3F1F3F68C7F301477F1C7D00D9
:10327000B4FBF5F7076002E0124F076000BF00BF24
:103280000F4F3F6807F0F0010909104F7A5C07689B
:10329000D74047600A4F3F6807F4E051890A0B4F57
:1032A0007A5C4768D7408760054F3F6807F4604104
:1032B000490B064F7A5C4768D740C760F0BD0000F5
:1032C000083802400024F400001BB700140000205E
:1032D00070B590B004460E46154601214A48FFF7E6
:1032E00033FF01211020FFF75FFF01211020FFF7BE
:1032F0006BFF00211020FFF767FF072211464348AC
:10330000FFF7A6F880200E9002208DF83C000020E8
:103310008DF83E0003208DF83D0000208DF83F0021
:103320000EA93A48FFF74CF8394801F06DF93948D1
:103330000A900020ADF82C00ADF82E004FF480600C
:10334000ADF830000420ADF832000020ADF83400B4
:103350000AA92F4801F020FA012240212C4801F04F
:103360004AF910212A4801F031F9012240F22441A2
:10337000274801F0EBF90121254801F030F925201B
:103380008DF83C0004208DF83D0000208DF83E00B3
:1033900001208DF83F000FA8FFF742FD1E48FEF701
:1033A00011FA4FF0006001901948001D029003943B
:1033B00000200490059506904FF48060079000204F
:1033C000089009904FF480700A904FF440300B90B1
:1033D00000200C900D900E900F9001A90E48FEF762
:1033E0000DFB002231460C48FEF7A3FA01210A48E2
:1033F000FEF794FA00210848FEF7D8F901210648A3
:10340000FEF7D4F910B070BD020040000004024085
:1034100000100140A08601004064024010B5002069
:103420008149087015E08048007800EB800101EBCD
:10343000C0007E4908440079C00928B100207C49B9
:1034400008807C49087010BD77480078401C764998
:103450000870754800780528E5DB7648007878B96B
:1034600073480088B0F5FA6F0ADD06F0ABFC7249CC
:10347000086001206F49087000206D4908802AE02B
:103480006C480078022811D169480088B0F5FA6FBD
:103490000CDD002067490870654908806348407C5E
:1034A00020F0800080306149487414E06148007861
:1034B000032810D15E480088B0F5FA6F0BDD0020BC
:1034C0005C4908705A4908805848807F20F0800085
:1034D00080305649887759480068B0F9000010F5E7
:1034E000167F27DA55480068B0F9020010F5167FFC
:1034F00020DA52480068B0F90400B0F5167F19DDF3
:103500004E480068B0F9060010F5167F12DA4B48F5
:103510000068807A02280DD148480068C07A0228E5
:1035200008D14448007828B941480088401C4049E7
:10353000088066E041480068B0F90000B0F5167FE9
:103540002ADD3E480068B0F90200B0F5167F23DDA1
:103550003A480068B0F9040010F5167F1CDA3748C5
:103560000068B0F90600B0F5167F15DD3348006835
:10357000807A022810D131480068C07A02280BD125
:103580002C48007840B12A480088401C284908800F
:1035900002202849087034E028480068B0F900008B
:1035A000B0F5167F2ADD25480068B0F9020010F555
:1035B000167F23DA21480068B0F9040010F5167F61
:1035C0001CDA1E480068B0F9060010F5167F15DAFF
:1035D0001A480068807A022810D118480068C07A1A
:1035E00002280BD11348007840B111480088401CD4
:1035F0000F49088003200F49087002E000200C49A1
:10360000088006F0DFFB0E490860084600680A499A
:103610000968401A44F62061884203D90020054910
:10362000087010E700BF0EE7950100200007022098
:103630009E0100209C0100209801002054010020E0
:103640009001002010B50021014800F0C8FF10BD16
:103650000010014000B101B970470278437842EA96
:103660000322C2F30A020A804278D210837842EA27
:103670004312C2F30A024A8082789211C37842EA66
:103680008302037942EA8322C2F30A028A80027922
:103690005210437942EAC312C2F30A02CA80427945
:1036A000C2F301128A72427912119308CB728279A5
:1036B000C37942EA032212B28A81027A437A42EA49
:1036C000032213B201F10C02CB81827AC37A42EA5F
:1036D000032213B201F10C020B82037B8B74437B38
:1036E000CB74827BC37B42EA03228A82027C437CC6
:1036F00042EA032212B20A810A88A2F5806212B25B
:103700000A804A88A2F5806212B24A808A88A2F5AD
:10371000806212B28A80CA88A2F5806212B2CA8020
:103720000A89A2F5806212B20A8100BF94E7000004
:1037300000B587B001212020FFF706FD0121080513
:10374000FFF732FD4FF46070059002208DF81800ED
:1037500000208DF81A0001208DF81B0003208DF841
:10376000190005A92048FEF72BFE052207211E4857
:10377000FEF76EFE052208211B48FEF769FE0522B2
:1037800009211948FEF764FE01210805FFF71CFD19
:1037900000214FF48010FFF717FD0020ADF8000066
:1037A0004FF48270ADF802000020ADF80400022052
:1037B000ADF806000120ADF808004002ADF80A009F
:1037C0003820ADF80C000020ADF80E000720ADF851
:1037D00010006946054800F0FCF80121034800F09C
:1037E000D5F807B000BD00000014024000500140B1
:1037F0000A4A12884FF2C7731A40084B1A801A46B9
:10380000128802431A801A4612880A431A801A46FE
:10381000128842F040021A807047000000500140B8
:1038200010B5044600211848FDF7C0FF00211648D6
:103830001830FDF7BBFF00BF1348FEF786F80028DD
:10384000FAD100BF10481830FEF77FF80028F9D1F0
:103850000E490D481830FDF78FFF0D490A48FDF756
:103860008BFF21460848FEF7F5F821460648183038
:10387000FEF7F0F8012104481830FDF797FF012109
:103880000148FDF793FF10BD70640240000C00205A
:103890003000002070B590B005460E461446012158
:1038A0008805FFF751FC44208DF83C0005208DF879
:1038B0003D0000208DF83E0001208DF83F000FA84C
:1038C000FFF7AEFA2F48FDF77DFF00BF2D48FEF74A
:1038D0003CF80028FAD14FF0606000902A4801902F
:1038E000029600200390049405904FF480600690A7
:1038F00000200790089009904FF440300A90002073
:103900000B900C900D900E9069461E48FEF776F8CD
:10391000012210211B48FEF753F800211948FDF73A
:1039200045FF18481838FDF74DFF00BF15481838F7
:10393000FEF70BF80028F9D14FF080600090124894
:1039400001900295402003900494002005904FF4CC
:103950008060069000200790089009904FF4803016
:103960000A9000200B900C900D900E90694605482F
:103970001838FEF743F8002102481838FDF716FF03
:1039800010B070BD886402400C50014021B1028823
:1039900042F04002028004E002884FF6BF731A40F2
:1039A000028070471AB183880B43838002E08388CA
:1039B0008B43838070470246002013890B400BB174
:1039C000012000E00020704701468889704781810E
:1039D000704710B50022028802F441520B884C88CF
:1039E00023438C882343CC8823430C8923434C896D
:1039F00023438C892343CC8923431A430280838B3E
:103A00004FF2FF74234083830B8A038210BD0000B2
:103A100030B500228B071C0F0F2303FA04F20B4B67
:103A20008C1053F824309343084C8D1044F8253003
:103A300023468C1053F824308C07240F00FA04F42A
:103A40002343024C8D1044F8253030BD0838014026
:103A50000CB50020019000904148006840F480308F
:103A60003F49086000BF3E48006800F40030009005
:103A70000198401C0190009818B90198B0F5A04F2A
:103A8000F1D13748006800F4003010B101200090F7
:103A900001E0002000900098012860D130484030BB
:103AA000006840F080502E49403108602D48006881
:103AB00040F440402B4908602948083000682849F4
:103AC000083108600846006840F400400860084675
:103AD000006840F4A05008602348091F0860081FD0
:103AE000006840F08070091F086000BF1C48006833
:103AF00000F000700028F9D01A48006840F48030C7
:103B00001849086000BF1748406800F4803000285A
:103B1000F9D01448006840F400301249086000BF32
:103B20001048406800F400300028F9D040F20570D9
:103B30000E4908600A480830006820F00300084970
:103B4000083108600846006840F00200086000BFC5
:103B500003480830006800F00C000828F8D10CBDBC
:103B60000038024000700040062D4008003C024032
:103B70004E4890ED000A4E4880ED000A4D4890ED09
:103B8000000A4A4880ED000A4B4890ED000A474879
:103B9000D0ED000A20EE200A4748D0ED010A444843
:103BA00090ED001A01EE200A4448806AB0F9020044
:103BB00000EE900AF8EEE00A9FED411A60EE810AED
:103BC0003D4890ED021A00EE810A3A4880ED000A65
:103BD00090ED000A394880ED0B0A806A0088374969
:103BE000896AB1F90810401AB0F5805F08DD3348E2
:103BF00090F83800401E40B2304981F8380012E099
:103C00002E48806A00882D49896AB1F90810401A47
:103C100010F5805F07DA294890F83800401C40B260
:103C2000264981F83800254890F83800122804D138
:103C3000EF20224981F8380008E0204890F9380048
:103C4000123018B911201D4981F838001B4890F92D
:103C50003800C0EB40301949896A0988084400EEF1
:103C6000100AB8EEC00ADFED170A20EE200A13484A
:103C700080ED0D0A1448007890B114480068C07AAD
:103C800002280DD10D48B0F84A00B0F5FA6F0BDAF2
:103C90000A48B0F84A00401C0849A1F84A0003E06D
:103CA00000200649A1F84A0070470000E801002002
:103CB000E4010020EC010020F0A200080C0A022020
:103CC000F1A23E3BC2B8B237DC010020D80100208F
:103CD00010B54C480068C07A01280AD14A480078DB
:103CE000012806D04948007818B9012047490870D2
:103CF00014E044480068C07A012806D142480078A0
:103D0000012802D04148007828B93E480068007D6B
:103D100000F0800010B100203C490870394800686C
:103D2000C07A03280CD137480068007D00F04000BD
:103D300030B13648007818B901203449087011E0D4
:103D400030480068C07A03280CD12E480068007DF6
:103D500000F0800030B12D480078012802D1002009
:103D60002A49087003F056F910B10020274908705D
:103D70002648007801283ED122480068C07A0228EF
:103D800003D12148007802280FD1214890F8420041
:103D900018B11F4890F8440038B11D4890F843000E
:103DA00060B11B4890F8450040B9022017490870DF
:103DB0001748B0F856001649A1F858001448B0F852
:103DC0004600B0F5C87F0BD01148B0F84800B0F5F8
:103DD000C87F05D00E48B0F84A00B0F5FA6F0AD196
:103DE0000A480078032806D0094890F8550010B911
:103DF00002200649087003480068C07A40B20249B0
:103E0000087010BDD8010020F0010020DC01002066
:103E10000C0A0220042808D14FF0E021096941F082
:103E200004014FF0E022116107E04FF0E021096941
:103E300021F004014FF0E0221161704710B505F048
:103E4000B1FF012801D005F009FC10BD10B51548DF
:103E5000006840F47000134908601348006840F09F
:103E600001001149086000200F49083108600E4820
:103E700000680E4908400C4908600D48091D08609B
:103E8000081F006820F48020091F086000200649F0
:103E90000C310860FFF7DCFD4FF00060014980390C
:103EA000086010BD88ED00E000380240FFFFF6FE1C
:103EB0001030002410B50121084800F0C1F960B1AC
:103EC0000121064800F0D6F8054802684068521CF7
:103ED00040F1000002490A60486010BD0004004043
:103EE000A800002030B58BB005460C460121022009
:103EF000FFF73AF901210220FFF726F902220521F6
:103F00002D48FEF7A5FA01210220FFF73DF9002117
:103F10000220FFF739F91D208DF8140005208DF8D7
:103F2000150000208DF8160001208DF8170005A857
:103F3000FEF776FF681E0990601E80B2ADF8200083
:103F40000020ADF82200ADF82800012211461B48E0
:103F500000F087F908A9194800F084FA202006909B
:103F600002208DF81C0003208DF81D0000208DF824
:103F70001E0002208DF81F0006A90F48FEF720FA48
:103F80006020ADF800000120ADF802000020ADF87F
:103F90000C006946094800F0B5F90821074800F00F
:103FA00003FA0121054800F059F80121034800F007
:103FB00064F80BB030BD0000000402400004004073
:103FC00010B50121064800F03BF938B10121044841
:103FD00000F050F80021024800F04FF810BD00003A
:103FE000001000407FB505460C4601211020FFF768
:103FF000BBF801211020FFF7C7F800211020FFF7C0
:10400000C3F8154800F054F8681E0290601E80B294
:10401000ADF804000020ADF80600ADF80C0001A9D1
:104020000D4800F01FFA012211460B4800F019F963
:1040300036208DF8000004208DF8010000208DF856
:10404000020001208DF803006846FEF7E9FE012119
:10405000014800F012F87FBD0010004021B1028835
:1040600042F08002028004E002884FF67F731A401B
:1040700002807047CA430282704721B1028842F031
:104080000102028004E002884FF6FE731A400280AB
:10409000704731B1B0F8442042F40042A0F8442007
:1040A00005E0B0F84420C2F30E02A0F844207047A7
:1040B00010B504465548844208D101210846FFF74F
:1040C00083F800210120FFF77FF89DE0B4F1804FD5
:1040D00008D101210846FFF757F800210120FFF71A
:1040E00053F891E04A48844208D101210220FFF7A9
:1040F0004BF800210220FFF747F885E0454884424D
:1041000008D101210420FFF73FF800210420FFF728
:104110003BF879E04048844208D101210820FFF7AC
:1041200033F800210820FFF72FF86DE03B48844268
:1041300008D101211020FFF727F800211020FFF7F8
:1041400023F861E03648844208D101212020FFF79E
:104150001BF800212020FFF717F855E03148844272
:1041600008D101210220FFF72FF800210220FFF7DC
:104170002BF849E02C48844209D101210804FFF7BB
:1041800023F800214FF48030FFF71EF83CE0274869
:10419000844209D101214804FFF716F800214FF4A9
:1041A0000030FFF711F82FE02148844209D10121A6
:1041B0008804FFF709F800214FF48020FFF704F886
:1041C00022E01C48844208D101214020FEF7DCFF98
:1041D00000214020FEF7D8FF16E01748844208D19E
:1041E00001218020FEF7D0FF00218020FEF7CCFFC8
:1041F0000AE01248844207D101218015FEF7C4FF6E
:104200000021A015FEF7C0FF10BD00000000014016
:104210000004004000080040000C00400010004076
:1042200000140040000401400040014000440140EF
:104230000048014000180040001C004000200040E1
:1042400030B50246002000230024158A05EA010348
:10425000958905EA010413B10CB1012000E00020AA
:1042600030BD1AB183890B43838102E083898B437C
:104270008381704770B5002400220023058C4FF61F
:10428000FE7635400584028C8388048B4FF68F754B
:104290002C40B51E2C400D882C43751E2A408D895C
:1042A0002A434D882A43104DA84202D00F4DA84200
:1042B00013D14FF6F7752A40CD892A434FF6FB7587
:1042C0002A408D882A434FF6FF652B404FF6FF5555
:1042D0002B400D8A2B434D8A2B43838004838D68AA
:1042E0004563028470BD00000000014000040140ED
:1042F0000A460021018B4FF6F773194011430183E1
:104300007047000070B5002400220023058C4FF692
:10431000EF7635400584028C8388048B48F6FF7560
:104320002C404FF6FF452C400D884FF6FF7606EAED
:1043300005252C434FF6DF752A408D8906EA0515C1
:104340002A434D8806EA05152A43154DA84202D096
:10435000144DA8421DD14FF67F752A40CD894FF6E6
:10436000FF7606EA05152A434FF6BF752A408D8869
:1043700006EA05152A434FF6FF352B404FF2FF752D
:104380002B400D8A06EA85052B434D8A06EA8505F2
:104390002B43838004838D688563028470BD000095
:1043A00000000140000401400A460021018B4FF249
:1043B000FF7319404FF6FF7303EA02231943018389
:1043C0007047000070B5002200230024058C4EF6D3
:1043D000FF7635400584038C8488828B48F6FF7510
:1043E0002A404FF6FF452A400D884FF6FF7606EA31
:1043F00005252A434DF6FF752B408D8906EA0535C4
:104400002B434D8806EA05352B430A4DA84202D0BE
:10441000094DA84208D14BF6FF752C400D8A4FF686
:10442000FF7606EA85152C43848082838D680564B7
:10443000038470BD00000140000401400A460021D1
:10444000818B4FF2FF7319404FF6FF7303EA02238B
:1044500019438183704741637047816370470164EA
:104460007047000000220288184B98420ED0184B6B
:1044700098420BD0B0F1804F08D0164B984205D02F
:10448000154B984202D0154B984204D14FF68F73CA
:104490001A404B881A43124B984207D0114B98424E
:1044A00004D04FF6FF431A400B891A4302804B6831
:1044B000C3620B880385054B984202D0044B984297
:1044C00001D18B7A0386012383827047000001406B
:1044D000000401400004004000080040000C0040BF
:1044E000001000400014004010B540F22551314842
:1044F00000F002F918B12F4800F0B8F959E040F285
:1045000024412C4800F0F8F8002852D0294800F047
:10451000ADF92948FDF727FA28BB00212648FDF709
:1045200045F92548FDF71BFAC0F12400234908800E
:1045300024212148FDF78EFA1F48006840F400202E
:104540001D4908601E491C48FDF716F901211A484B
:10455000FDF72CF91948008812282AD119491A4860
:10456000FFF778F825E000211348FDF71FF91248FE
:10457000FDF7F5F9C0F124001049088024210E4808
:10458000FDF768FA0C48006820F400200A4908602A
:104590000B490948FDF7F0F801210748FDF706F936
:1045A00006480088122804D1064907482430FFF73E
:1045B00051F810BD00100140406402404C01002041
:1045C00000003010A0060220B606022001F400729E
:1045D000B2F5007F00D100BFCA430280704721B10D
:1045E000828942F40052828104E082894DF6FF7391
:1045F0001A40828170471AB1838A0B43838202E09A
:10460000838A8B438382704710B5044632488442C4
:1046100008D101211020FEF7D7FD00211020FEF760
:10462000D3FD57E02D48844209D101214804FEF70B
:10463000ABFD00214FF40030FEF7A6FD4AE028480C
:10464000844209D101218804FEF79EFD00214FF428
:104650008020FEF799FD3DE02248844209D10121E6
:10466000C804FEF791FD00214FF40020FEF78CFDF9
:1046700030E01D48844209D101210805FEF784FD80
:1046800000214FF48010FEF77FFD23E0174884429D
:1046900008D101212020FEF797FD00212020FEF700
:1046A00093FD17E01248844209D101218807FEF7E3
:1046B0006BFD00214FF08040FEF766FD0AE00D48DB
:1046C000844207D101214005FEF75EFD002160050F
:1046D000FEF75AFD10BD00000010014000440040EC
:1046E00000480040004C00400050004000140140D1
:1046F00000780040007C004070B502460024002392
:104700000025002040F66A16B14200D100BFC1F377
:10471000421501F01F03012606FA03F3012D02D111
:104720009689334006E0022D02D1168A334001E01B
:10473000968A33400C12012606FA04F41688344097
:1047400013B10CB1012000E0002070BDF0B50346AC
:10475000002400260025002040F66A17B94200D147
:1047600000BF1846C1F3421401F01F06012707FAE3
:1047700006F5012C01D10C3004E0022C01D11030DF
:1047800000E014301AB107682F43076002E00768A1
:10479000AF430760F0BD00002DE9FF4705460E4618
:1047A0000024A14600BFA046B08900B100BF2C8AFA
:1047B00024F44054F08804432C82AC8941F20C600C
:1047C0008443B08831890843718908430443AC812C
:1047D000AC8A24F44074B0890443AC826846FEF786
:1047E00003FD2048854202D01F48854202D1DDF8F2
:1047F0000C9001E0DDF80890A88900F4004040B179
:1048000009EBC90000EB091031684900B0FBF1F772
:1048100007E009EBC90000EB091031688900B0FB23
:10482000F1F76420B7FBF0F004012009642101FBDB
:104830001078A88900F4004040B1322000EBC80095
:10484000B0FBF1F000F00700044308E0322000EB79
:1048500008106421B0FBF1F000F00F0004432C813C
:10486000BDE8FF8700100140001401400146888820
:10487000C0F30800704700BFFEE7000001F0CEFF64
:1048800004461DE094ED000ADFED0E0A20EE200A3A
:104890000D4880ED000A94ED010ADFED0A0A20EED2
:1048A000200A80ED010A94ED020ADFED060A20EEEF
:1048B000200A80ED020A002004F072FA0349086021
:1048C000E0E70000333365429406022048010020EF
:1048D0004100080218BF04200A0E18BF40F0010072
:1048E0004FF07F4232EA010108BF40F00200012888
:1048F00008BF05207047000010B54FF00E402DEDA9
:10490000028BB0EE408A18EE104A00EB4400B0F182
:10491000506F4AD84FF0FC40B0EB440F22D2B0EEBB
:10492000C80AF7EE000A30EEC00AF6EE000A60EEA2
:10493000208A18EE900A04F0BDF801EE100A14F077
:10494000004F1DBFDFED2D0A9FED2D0AB1EE411A7C
:10495000DFED2C0A08BF9FED2C0AF8EE001A21EEBD
:10496000218A05E0DFED290A68EE088AB0EE600AC8
:104970009FED271ADFED271A30EE080A48EE811A5C
:104980009FED251A08EEA11ADFED241A48EE811AD0
:104990009FED231A08EEA11A68EE281ABDEC028BCF
:1049A00001EE810A30EE200A10BD4FF0E440B0EB7A
:1049B000440F0CD918EE100AFFF78AFF042808BF2D
:1049C00000F070F9B0EE480ABDEC028B10BD4FF05C
:1049D0007F40B0EB440F07D2B0EE480ABDEC028B2B
:1049E000BDE8104000F050B9012000F073F9BDECB3
:1049F000028BBDE8104000F04DB900000000C9BFB7
:104A000022AAFDB90000C93F22AAFD39000000001A
:104A100024FE1C3DC78AD83C1E67383D1B93993D38
:104A2000AFAA2A3E10EE100A10B510EE901A4FF001
:104A3000684202EB40032DED028BB3F1654F3CBFA2
:104A400002EB4102B2F1654F7CD200BFC0F3C75305
:104A5000C1F3C7529A1A1B2A09DD10F0004F14BF88
:104A60009FED6E0A9FED6E0ABDEC028B10BD12F138
:104A70001A0F1BDA11F0004F09D010F0004F0CBFD5
:104A80009FED680A9FED680ABDEC028B10BD80EEB9
:104A9000208A18EE100AFFF71BFF042808BF00F059
:104AA00001F9B0EE480ABDEC028B10BD4200B2EB3A
:104AB000410F37D910F0004F19BFDFED5C1A9FEDA1
:104AC0005C1ADFED5C1A9FED5C1AB0EE602A0A46B4
:104AD000F1EE400A80F00041B0EE420A10460A1A98
:104AE0005200B2F1807F34D2484010F0004FDFED29
:104AF000532A9FED533A1DBFBEEE002A71EEE21A13
:104B000031EE431AB6EE002A04BF71EEA21A31EE5E
:104B1000031AF0EE402A42EE602A40EE020A82EECC
:104B2000A02A18E011F0004F04BF9FED461AF0EEE6
:104B3000411AD4D010F0004F1CBFDFED431A9FED97
:104B4000431A00E026E004BFDFED411A9FED411A51
:104B5000C5E780EE202A22EE020ADFED3F0ADFEDF4
:104B60003F2ABDEC028B40EE202ADFED3D0A40EEED
:104B7000220ADFED3C2A40EE202ADFED3B0A40EE20
:104B8000220A22EE000A00EE201A31EE020A30EE6E
:104B9000210A10BD4FF07F42B2EB400F28BFB2EBAD
:104BA000410F05D2BDEC028BBDE8104000F06FB89C
:104BB00040EA01035B0008BF41F0FF410BD0B2EBBC
:104BC000400F08BFB2EB410F08D120F0804000EE4B
:104BD000100A21F0804100EE901A37E7B2EB400F47
:104BE00012BF5FEA410240F0FF4001F000413FF494
:104BF0002DAF4A0092EA40033FF528AF002AACBF30
:104C00009FED1A1A9FED1A1A20EE010A60EE810A32
:104C100010EE100A10EE901A18E70000DB0FC9BF63
:104C2000DB0FC93FDB0F4940DB0F49C00000C9BFA4
:104C300022AAFDB90000C93F22AAFD390060ED3E5D
:104C4000C30ACE3700000000000049C022AA7DBA86
:104C50000000494022AA7D3A2DAD65BD8FB8D53DF3
:104C60000FB511BE61C84C3EA8AAAABE0000804F75
:104C70000000802F2DED020B019820F000400190E4
:104C80009DED000B02B0704730EE000A704730EE29
:104C9000200A7047DFED020A80EEA00A704700008C
:104CA000000000009FED020A20EE000A704700009D
:104CB0000000001002E008C8121F08C1002AFAD143
:104CC00070477047002001E001C1121F002AFBD18C
:104CD0007047000001490860704700002002002072
:104CE000D0ED000AF4EEC00AF1EE10FA02DD80ED1C
:104CF000000A0CE0D0ED000AB1EE401AF4EEC10A51
:104D0000F1EE10FA03D2F1EE400AC0ED000A70474E
:104D100070B52DED028B8AB005460C4616460DB1D6
:104D200004B11EB90AB0BDEC028B70BD94ED000A4F
:104D3000B5EEC00AF1EE10FA0DD194ED010AB5EE10
:104D4000C00AF1EE10FA06D194ED020AB5EEC00ADF
:104D5000F1EE10FA7DD09FED600AB0EE408A00209F
:104D60000790089009900490059006905B4A07CA46
:104D700001AB07C395ED010AD5ED030A20EE200A29
:104D8000D5ED000A95ED021A00EEC10AF0EE000A18
:104D900020EE200A8DED070A95ED000AD5ED010AF7
:104DA00020EE200AD5ED020A95ED031A00EE810AE5
:104DB000F0EE000A20EE200A8DED080A95ED000ABB
:104DC00020EE000AD5ED030A95ED031A00EE810AE4
:104DD000F7EE000AB0EE001A51EE000ACDED090A16
:104DE00001AB22463146284600F07AF8D4ED000A9D
:104DF00060EEA00A94ED011AD4ED011A41EE210AE9
:104E000094ED021AD4ED021A41EE210AB0EE600AC6
:104E1000FBF72CFEB0EE408A94ED000A20EE080A63
:104E200084ED000A94ED010A20EE080A84ED010ADF
:104E300094ED020A20EE080A84ED020A94ED010ABC
:104E4000DDED090A20EE200AD4ED020A9DED081AD4
:104E500000E03EE000EEC10A8DED040A94ED020A86
:104E6000DDED070A20EE200AD4ED000A9DED091AB7
:104E700000EEC10A8DED050A94ED000ADDED080A89
:104E800020EE200AD4ED010A9DED071A00EEC10ABA
:104E90008DED060A96ED000ADDED010A9DED041A7E
:104EA00000EE810A86ED000A96ED010ADDED020AA8
:104EB0009DED051A00EE810A86ED010A96ED020AC3
:104EC000DDED030A9DED061A00EE810A86ED020A69
:104ED00000BF00BF26E70000000000001CA3000880
:104EE0002DE9F0412DED048B07460D4614461E4674
:104EF0009FED580AB0EE409A9FED560AB0EE408AF8
:104F00009FED540AF0EE408AD4ED000A60EEA00A4C
:104F100094ED011AD4ED011A41EE210A94ED021A22
:104F2000D4ED021A41EE210AB0EE600AFBF79EFDB5
:104F3000F7EE000A80EE801AB0EE419AD5ED000A35
:104F4000B0EE600AFBF726FCF0EE409AD5ED010AC0
:104F5000B0EE600AFBF71EFC79EE809AD5ED020AEE
:104F6000B0EE600AFBF716FC39EE800AF0EE408ADC
:104F70003948D0ED000A79EE600AB0EE600AFBF71E
:104F800009FCB0EE408A9FED350AB4EEC08AF1EE1E
:104F900010FA06DC9FED320AF4EEC08AF1EE10FA48
:104FA00053DD9FED2C2AB0EE420A9FED2A2AF0EE47
:104FB000421AB7EE002AF0EE420A9FED262AB0EE22
:104FC000421AB5EEC08AF1EE10FA05DD9FED232AF4
:104FD000C2EE082AB0EE620A9FED222AB4EEC20A9F
:104FE000F1EE10FA03D29FED1B2AB0EE420AF5EE65
:104FF000C08AF1EE10FA05DD9FED192AC2EE282ACB
:10500000F0EE621AB7EE002AB4EEC20AF1EE10FA20
:1050100003D220EE802AF0EE420AB7EE002AF4EE28
:10502000C21AF1EE10FA03D220EEA12AF0EE420AE3
:105030009FED0D2A20EE822AB0EE421A86ED001A6C
:1050400086ED011A86ED021A00BFBDEC048BBDE8A7
:10505000F0810000000000001C020020CDCCCC3DFF
:105060008FC2F53D9A99993ECDCC4C3E10B52DEDB1
:10507000048B86B00446B0EE408AF0EE608AB0EE53
:10508000419A0020039004900590009001900290B6
:10509000B0EE000AC8EE000AF0EE609AB0EE690ABF
:1050A000FBF76CFB8DED030AB0EE000AC8EE800A38
:1050B000F0EE609AB0EE690AFBF760FB8DED040A32
:1050C000B0EE000AC9EE000AF0EE609AB0EE690A8E
:1050D000FBF754FB8DED050AB0EE000AC8EE000A9E
:1050E000F0EE609AB0EE690AFBF7DEFC8DED000A87
:1050F000B0EE000AC8EE800AF0EE609AB0EE690ADF
:10510000FBF7D2FC8DED010AB0EE000AC9EE000AF1
:10511000F0EE609AB0EE690AFBF7C6FC8DED020A6C
:105120009DED050ADDED040A20EE200ADDED030AFF
:1051300020EE200ADDED020A9DED011A60EE810AE3
:105140009DED001A00EE810A84ED000A9DED020A31
:10515000DDED040A20EE200ADDED030A20EE200A30
:10516000DDED050A9DED011A60EE810A9DED001A44
:1051700000EEC10A84ED010A9DED050ADDED010A8C
:1051800020EE200ADDED030A20EE200ADDED020A02
:105190009DED041A60EE810A9DED001A00EE810A71
:1051A00084ED020A9DED050ADDED040A20EE200AD9
:1051B000DDED000A20EE200ADDED020A9DED011A68
:1051C00060EE810A9DED031A00EEC10A84ED030A28
:1051D00006B0BDEC048B10BD10B500210148FFF7EF
:1051E0003AF910BD0018004070B504460D46044859
:1051F0000480294602482838FFF72DF970BD0000C9
:10520000281800402DE9F05F0546884691469A46E9
:10521000DDF828B07DB1B8F1000F0CD0B9F1000F66
:1052200009D0BAF1000F06D0BBF1000F03D00B98E4
:1052300008B10C9808B9BDE8F09F002600270024AB
:10524000288A698A401A04B2002C03DA41F6FF70FA
:10525000204404B2204604EBD0712A8AA2EB6101FB
:105260000CB2B4F5005F04DBA4F5F850FF3804B2CB
:1052700005E0002C03DA41F6FF70204404B2A8F8E0
:105280000040B8F80010288A02F0AEF98AED000A52
:10529000B8F80010688A02F0A7F98BED000A95EDC6
:1052A000020ADFED370A80EE201ABDEEC10A10EEC9
:1052B000100A04B2A88A001B06B295ED030ADFEDBE
:1052C000300A80EE201ABDEEC10A10EE100A04B2B8
:1052D000E88A001B07B2B6F5005F04DBA6F5F850BC
:1052E000FF3806B205E0002E03DA41F6FF703044C5
:1052F00006B2B7F5005F04DBA7F5F850FF3807B238
:1053000005E0002F03DA41F6FF70384407B2F01BC6
:1053100004B2B4F5805F04DDA4F5F850FF3804B2A0
:1053200006E014F5805F03DA41F6FF70204404B212
:10533000204604EBD071A6EB61010CB2B4F5005F1E
:1053400004DBA4F5F850FF3804B205E0002C03DAC2
:1053500041F6FF70204404B2A9F80040B9F80010EB
:10536000A88A02F041F90B9880ED000AB9F8001004
:10537000E88A02F039F90C9880ED000A00BF5AE77C
:10538000DB0F493AF8B50024002500BF69E0364933
:1053900068180122694601F0C7F89DF8000004EB87
:1053A000840101EBC401314A50549DF8010004EB23
:1053B000840101EBC401114448709DF8020004EB24
:1053C000840101EBC401114488709DF8030004EBD3
:1053D000840101EBC4011144C870281D85B204EB9F
:1053E000840303EBC403164633441B7903F07F02A6
:1053F00004EB840303EBC4033344D3F805101A4BC6
:10540000E81801F091F804EB840000EBC400314689
:105410000844007900F07F0005EB800085B204EBC2
:10542000840000EBC4000844C078552817D004EB72
:10543000840000EBC4000844D0F8090078B104EB04
:10544000840000EBC4000844007920F08000803024
:1054500004EB840101EBC401324611440871601C65
:10546000C4B2052C93DBF8BD00001E080007022023
:10547000F0B59FB0002400251E2600BF2DE001A836
:10548000284404EB840101EBC401184A1144096863
:105490000160281D85B204EB840303EBC4031746A7
:1054A0003B441B795B06DA0D04EB840303EBC40376
:1054B0003B44D3F8051001AB5819FAF76DFF04EB24
:1054C000840000EBC40039460844007900F07F00F6
:1054D00005EB800085B2601CC4B2052CCFDB1E2218
:1054E00001A9034801F030F81FB0F0BD0007022009
:1054F00000001E087CB506460D463446ADB994ED55
:10550000042AF0EE421A94ED032AB0EE421A94ED0A
:10551000022AF0EE420A94ED012AB0EE420A6188B6
:10552000208803F03BF900207CBD012D0FD104F150
:105530001000011F0B1F221DCDE90010A11C2046E9
:1055400000F0CAFE08B10120EEE70020ECE70020E1
:10555000EAE7000070B506460C46354634B92946E0
:1055600005F10C00FDF748FC002070BD012C14D1A2
:105570000B4A294605F10C00FDF704FC0848008899
:1055800044F62061884204DD00200549088001209E
:10559000EBE7FEF757F80020E7E70020E5E700001B
:1055A000A001002070B505460C460CB9012070BD65
:1055B00000200F49087001F0C7F9BDEEC00A10EED7
:1055C000100A0A3040B20A494870084690F90100B2
:1055D0002D2801DD2D20487043F239000449488010
:1055E0009FED040A10EE100A48600120DFE700007A
:1055F00058010020DF8FB44110B5002400BF26E021
:105600002748015D04EB840000EBC400254A1044E8
:10561000007961F3060004EB840101EBC40111443D
:105620000871214850F8240004EB840101EBC40107
:105630001144C1F805001D4850F8240004EB840112
:1056400001EBC4011144C1F80900601CC4B2052C6F
:10565000D6DBFFF797FE00241FE004EB840000EB8D
:10566000C40010490844C078552814D104EB8400C4
:1056700000EBC4000844D0F8090060B10A4951F8B1
:10568000240004EB840101EBC401064B1944D1F85A
:10569000092000219047601CC4B2052CDDDB10BD41
:1056A0007401002000070220600100207C0100201E
:1056B00001F046F94A49086091E0FDF7AFFE00208D
:1056C000484908707EE04748007800EB800101EB14
:1056D000C000454908440079C00900286DD0414800
:1056E000007800EB800101EBC0003F490844D0F88E
:1056F0000900002861D03D493A4B1B7851F823003E
:105700003849097801EB810303EBC101364B194499
:10571000D1F8092001219047F0B33248007800EB1E
:1057200040003349085C2F49097801EB810202EB04
:10573000C1012D4A50542B48007800EB40002C4901
:10574000084440782749097801EB810202EBC10146
:10575000254A114448702348007800EB4000244952
:10576000084480781F49097801EB810202EBC101EE
:105770001D4A1144887055201A49097801EB8102AD
:1057800002EBC101184A1144C8701648007800EBBA
:10579000800101EBC00000E00FE0114608440079F1
:1057A00020F080000F49097801EB810202EBC10172
:1057B0000D4A11440871FFF75BFE0A480078401C4F
:1057C00008490870074800780528FFF67CAF0120DB
:1057D00003F03CFC002003F0E3FA064908606CE7A4
:1057E00054010020940100200007022060010020E5
:1057F000BCA20008500100202DE9F04107460C46EC
:1058000015461E4617B10CB105B10EB9BDE8F081C1
:105810001548007830B933462A462146384600F00C
:1058200045FD1FE010480078012806D133462A467E
:105830002146384600F03AFB14E00B480078022875
:1058400006D133462A462146384600F0E3F909E0FE
:1058500005480078042805D133462A4621463846B3
:1058600000F002FB00BFD1E7F801002000B970474B
:105870000168897A032903D104211A4A11700EE0C4
:105880000168897A022903D10121164A117006E0C4
:105890000168897A012902D10221124A1170114945
:1058A000097811B9032101741AE00E490978012918
:1058B00002D10221017413E00A490978022902D1B8
:1058C000002101740CE007490978042902D1022162
:1058D000017405E003490978052901D10321017408
:1058E00000BFC4E7F801002030B52DED088B85B06E
:1058F00005469FED6D0AB0EE408A9FED6B0AB0EE53
:10590000409A9FED690AF0EE408A002001900290D3
:10591000039004900024D5ED841AB0EE611AD5ED01
:10592000831AF0EE610AD5ED821AB0EE610A01A881
:1059300000F092FC287C03281AD100BF12E001A8D5
:1059400000EB840090ED000ABDEEC00A10EE100AD4
:1059500001B204EB840205F1140000EB8200018225
:10596000601CC4B2042CEADB05B0BDEC088B30BD72
:10597000002434E001A800EB840090ED000A04EB61
:10598000840105F1140000EB810080ED030A04EBB3
:10599000840205F1140000EB820090ED030A10EE82
:1059A000101A0846FAF723FD41EC1B0BB0EE4B0A28
:1059B000F0EE6B0AFFF75EF9B0EE40AAF0EE60AAD7
:1059C00051EC1A0BFAF756FD08EE900AB4EEE88A8D
:1059D000F1EE10FA01D2B0EE688A601CC4B2042C59
:1059E000C8DBB1EE040AB4EEC08AF1EE10FA1DDD98
:1059F000B1EE040AC0EE080AB0EE609A002413E08B
:105A000004EB840105F1140000EB810090ED030A22
:105A100020EE090A04EB840105F1140000EB81007B
:105A200080ED030A601CC4B2042CE9DB00241DE0F5
:105A300004EB840205F1140101EB820191ED031ADC
:105A4000F0EE410A04EB840205F1140101EB82013E
:105A500091ED021AB0EE410A04EBC40205F16401B3
:105A600001EBC200FDF722FA601CC4B2042CDFDB9C
:105A7000002415E004EBC40105F1640000EBC10053
:105A800090ED080ABDEEC00A10EE100A01B204EB58
:105A9000840205F1140000EB82000182601CC4B294
:105AA000042CE7DB00BF5FE70000000070B5044690
:105AB00004B970BD002500BF2DE005EB850104F1A0
:105AC000140050F82100B0F9020000EE100AB8EE00
:105AD000C00ADFED4A0A20EE200A05EB850104F139
