:020000040800F2
:10000000B00A022079020008471500083F150008D1
:10001000431500082D0700085B26000800000000BB
:10002000000000000000000000000000C101000806
:10003000E51300080000000015020008C11D0008BB
:100040009D0200089D0200089D0200089D02000814
:100050009D0200089D0200089D0200089D02000804
:100060009D0200089D0200089D0200089D020008F4
:100070009D0200089D0200089D0200089D020008E4
:100080009D0200089D0200089D0200089D020008D4
:10009000310700089D0200089D0200089D0200082B
:1000A0009D0200089D0200089D0200089D020008B4
:1000B0009D020008391E00089D0200089D020008EC
:1000C0009D0200089D0200089D0200089D02000894
:1000D0009D020008CD2200089D0200089D02000834
:1000E0009D0200089D0200089D0200089D02000874
:1000F0009D0200089D0200089D0200089D02000864
:100100009D0200089D0200089D0200089D02000853
:100110009D0200089D020008691E00089D0200085B
:100120009D0200089D0200089D0200089D02000833
:100130009D0200089D0200089D0200089D02000823
:10014000710800089D0200089D0200089D02000839
:100150009D0200089D0200089D0200089D02000803
:100160009D0200089D0200089D0200089D020008F3
:100170009D0200089D0200089D020008000000008A
:100180009D0200089D0200089D0200089D020008D3
:100190009D0200089D0200089D0200089D020008C3
:1001A00000000000000000009D020008DFF80CD0F5
:1001B00000F0A6F900480047552D0008B00A0220BB
:1001C0002A4B19680868B0E8F04F80F30988BFF33C
:1001D0006F8F4FF0000080F311887047000000001F
:1001E00006480068006880F3088862B661B6BFF30D
:1001F0004F8FBFF36F8F00DF00BF00BF08ED00E03F
:10020000DFF80C00016841F470010160704700BF25
:1002100088ED00E0EFF30980BFF36F8F134B1A688E
:100220001EF0100F08BF20ED108A20E9F04F10607B
:1002300008B44FF0500080F31188BFF34F8FBFF325
:100240006F8F03F077FF4FF0000080F3118808BC38
:1002500019680868B0E8F04F1EF0100F08BFB0EC46
:10026000108A80F30988BFF36F8F70472400002045
:10027000EFF30580704700000948016841F4700100
:1002800001600848804708480047FEE7FEE7FEE7B0
:10029000FEE7FEE7FEE7FEE7FEE7FEE7FEE700001B
:1002A00088ED00E0D11D0008AD01000840EA01031F
:1002B0009B0703D009E008C9121F08C0042AFAD21C
:1002C00003E011F8013B00F8013B521EF9D27047E0
:1002D000D2B201E000F8012B491EFBD27047002288
:1002E000F6E710B513460A4604461946FFF7F0FF35
:1002F000204610BD2DE9FE4F81EA030404F00044BE
:1003000021F0004100944FF0000B23F0004350EA2D
:1003100001045ED052EA03045BD0C3F30A54C1F374
:100320000A552C44A4F2F3340194A0FB0254C1F307
:10033000130141F48011C3F3130343F4801301FB51
:10034000024400FB034E840A970A44EA815447EAB8
:100350008357A4FB076802958D0A05FB07854FEAC2
:10036000932C04FB0C542705029D4FEA065847EADC
:100370001637B5EB08056EEB070C870E920E47EAB1
:10038000811742EA8312A7FB0201B6EB0B0164EB73
:1003900000042B0D43EA0C335E1844EB1C50DA4684
:1003A0005146E7FB0201C5F313044FEA0B3343EA5E
:1003B00014534FEA0432019C43EA0603A4F10C04EF
:1003C0000294009CCDE900B400F04BF803B0BDE806
:1003D000F08F00200146F9E70EB540F2334102915B
:1003E0000021CDE900110A460B4600F03AF803B0AF
:1003F00000BDC1F30A5210B5C1F3130140F2FF333F
:1004000041F480119A4201DA002010BD40F23343DA
:100410009A42A2F2334203DC524200F003F810BDCC
:10042000904010BD202A04DB203A21FA02F000217E
:10043000704721FA02F3D040C2F1200291400843F4
:100440001946704710B5141E73F1000408DA401CF9
:1004500041F1000192185B411A4301D120F00100E3
:1004600010BD2DE9F04D92469B4611B1B1FA81F2D3
:1004700002E0B0FA80F22032904600F053F80446D1
:100480000F4640EA0A0041EA0B0153465A46084328
:1004900013D0114653EA010019D0C8F1400250466A
:1004A000FFF7C0FF05460E4650465946424600F04B
:1004B00039F8084305D0012004E020463946BDE85C
:1004C000F08D0020054346EAE0762C4337430A9836
:1004D0006305E40AA0EB08000022FD0A44EA475441
:1004E0000A3002D500200146E9E7010510196941EB
:1004F000DDE9084500196941BDE8F04DA2E70000BB
:10050000064C074D06E0E06840F0010394E8070060
:1005100098471034AC42F6D3FFF74CFE5C4E00080F
:100520007C4E0008202A04DB203A00FA02F1002069
:1005300070479140C2F1200320FA03F31943904021
:10054000704721B1826842F00102826003E0826854
:1005500022F00102826070470021084A1168084AAF
:100560001140D0E900231A4383681A43C3681A4331
:100570001143044AC2F804137047000004230140E9
:10058000E030FCFF0020014030B50246002000238F
:100590005068104C20400D790C6844EA0524204333
:1005A000506090680C4C2040D1E903542C438D6876
:1005B0002C434D7944EA450420439060D06A20F4EE
:1005C00070000C7D641EE4B2234340EA0350D06205
:1005D00030BD0000FFFEFFFCFDF7FFC0F0B5044694
:1005E0000D4600200021092D11DDE068A5F10A0665
:1005F00006EB4607072606FA07F18843A5F10A0627
:1006000006EB460603FA06F10843E0600CE02069B9
:1006100005EB4507072606FA07F1884305EB450673
:1006200003FA06F108432061072A0FDA606B561EB1
:1006300006EB86071F2606FA07F18843561E06EBCF
:10064000860605FA06F10843606322E00D2A0FDAF8
:10065000206BD61F06EB86071F2606FA07F1884394
:10066000D61F06EB860605FA06F10843206310E064
:10067000E06AA2F10D0606EB86071F2606FA07F1CF
:100680008843A2F10D0606EB860605FA06F108433B
:10069000E062F0BD38B10849096841F40001074A39
:1006A000C2F8041306E00449096821F40001034A72
:1006B000C2F80413704700000423014000200140E9
:1006C00038B54FF4407000F07BFF4FF47A7002F0C1
:1006D0006FF902F0BBFA02F0FDF903F0EBF903F059
:1006E0006FF95A214EF6602001F0D0FB01F072FA4A
:1006F000002005231A460121009000F031F8002067
:1007000005231A460121009000F0CAF802F02EFBE2
:10071000002408E0204602F05DFB40F2C52002F014
:10072000A5F9601CC4B2042CF4DB38BD00BFFEE7A1
:1007300010B50221084800F047FA58B102210648D6
:1007400000F06AF9054A0021034800F060FB034805
:1007500000F068FC10BD0000006400408806022024
:100760002DE9F0418AB004460D4616461F46DDF8D5
:1007700040800121082001F055F80121480601F0D0
:1007800061F80121480601F06DF800214FF000707A
:1007900001F068F80320089002208DF82400002062
:1007A0008DF8260003208DF8250001208DF8270004
:1007B00008A92D4800F054FE092200212A4800F023
:1007C00097FE09220121284800F092FE00208DF8B2
:1007D0001A0001208DF81B0000208DF81C008DF8F8
:1007E0001D008DF81E008DF81F008DF816808DF805
:1007F00017408DF818608DF81950ADF8147005A9E0
:100800001A4800F07AFA00208DF80E008DF80F00DB
:1008100001208DF810000020ADF80400ADF80600AE
:10082000ADF80800ADF80A00ADF80C0001208DF815
:10083000110001A800F044F9012202210B4800F048
:1008400053FA14208DF8000004208DF801000020D8
:100850008DF8020001208DF80300684600F074FE58
:1008600000200AB0BDE8F081000C024000640040A6
:1008700010B50221084800F0A7F958B10221064836
:1008800000F0CAF8054A0021034800F0C0FA034806
:1008900000F0C8FB10BD0000006800409C0602206C
:1008A0002DE9F0418AB004460D4616461F46DDF894
:1008B00040800121022000F0B5FF0121880600F0F0
:1008C000C1FF0121880600F0CDFF00214FF08060BC
:1008D00000F0C8FF4FF44050089002208DF824002B
:1008E00000208DF8260003208DF8250001208DF8CA
:1008F000270008A92D4800F0B3FD09220C212B4840
:1009000000F0F6FD09220D21284800F0F1FD00203D
:100910008DF81A0001208DF81B0000208DF81C00B6
:100920008DF81D008DF81E008DF81F008DF81680C3
:100930008DF817408DF818608DF81950ADF81470C7
:1009400005A91B4800F0D9F90E208DF80E000020F3
:100950008DF80F0001208DF810000020ADF8040084
:10096000ADF80600ADF80800ADF80A00ADF80C00CF
:1009700001208DF8110001A800F0A2F80122022147
:100980000B4800F0B1F940208DF8000004208DF8EC
:10099000010000208DF8020001208DF80300684658
:1009A00000F0D2FD00200AB0BDE8F0810004024052
:1009B00000680040F0B585B004460D4616461F4657
:1009C0004FF40070009000208DF808008DF80900A9
:1009D00008208DF80A00200A8DF80B00E1B28DF88E
:1009E0000C10290A8DF80D10E9B28DF80E10310A9D
:1009F0008DF80F10F1B28DF81010390A8DF8111022
:100A0000F9B28DF812106946024800F078FA05B084
:100A1000F0BD000000640040B1F5007F3AD00FDC6B
:100A2000202928D006DC01291CD004291DD0082942
:100A300040D11DE0402921D0B1F5807F3AD126E098
:100A4000B1F5004F31D006DCB1F5806F25D0B1F59E
:100A5000006F2FD124E0B1F5803F12D0B1F5003FF7
:100A600028D111E0154A826025E00822C26022E008
:100A70001022C2601FE0082202611CE01022026105
:100A800019E00822426016E01022426013E00422BE
:100A9000426010E0042242600DE0042242600AE05D
:100AA000002282610422426005E000228261042269
:100AB000426000E000BF00BF70470000010101007C
:100AC00010B50021837A012202FA03F13D4A12682F
:100AD00042F001023B4B1A603A4A1C3212688A43C8
:100AE000384B1C331A60027BCAB9364A0C32126882
:100AF0008A43344B0C331A604288C38842EA03436A
:100B0000304A4032847A42F834300288838842EA9C
:100B100003432C4A4032847A02EBC4025360027BC6
:100B2000012A19D1274A0C3212680A43254B0C338B
:100B30001A604288038842EA0343224A4032847A98
:100B400042F83430C288838842EA03431D4A403267
:100B5000847A02EBC4025360C27A3AB9194A121D70
:100B600012688A43174B1B1D1A6006E0154A121DB6
:100B700012680A43134B1B1D1A60028932B9114ACD
:100B8000143212688A430F4B14331A600289012A07
:100B900006D10C4A143212680A430A4B14331A6005
:100BA000427B012A06D1074A1C3212680A43054BD0
:100BB0001C331A60034A126822F00102014B1A60CA
:100BC00010BD00000066004070B504460D460026CA
:100BD00060692840002871D0B5F5807F5CD010DCBA
:100BE000082D35D006DC012D20D0022D24D0042D77
:100BF00072D127E0102D31D0202D35D0402D6BD172
:100C000038E0B5F5004F60D009DCB5F5007F49D07C
:100C1000B5F5806F4CD0B5F5006F5DD14FE0B5F5FF
:100C2000803F2DD0B5F5003F56D12FE0A0682D496B
:100C300000F0A8FA064651E0E068032100F0A2FAAD
:100C400006464BE0E068082100F09CFA064645E0C5
:100C5000E068102100F096FA06463FE02069032183
:100C600000F090FA064639E02069082100F08AFA7F
:100C7000064633E02069102100F084FA06462DE094
:100C80006068082100F07EFA064627E060681021BF
:100C900000F078FA064621E0A069012100F072FA1E
:100CA00006461BE0A069022100F06CFA064615E03A
:100CB000A069042100F066FA06460FE00FE0A06983
:100CC000702100F05FFA064608E06068042100F039
:100CD00059FA064602E0FFE7002600BF00E00026C2
:100CE000304670BD010101001AB143690B434361F5
:100CF00002E043698B434361704730B502460020F0
:100D00000023146824F002041460146844F0010401
:100D1000146000E05B1C546804F001041CB94FF639
:100D2000FF74A342F6D1546804F001040CB900200A
:100D30006CE08C79012C04D1146844F080041460B8
:100D400003E0146824F080041460CC79012C04D1F1
:100D5000146844F04004146003E0146824F0400474
:100D600014600C7A012C04D1146844F0200414603F
:100D700003E0146824F0200414604C7A012C04D1A0
:100D8000146844F01004146003E0146824F01004A4
:100D900014608C7A012C04D1146844F008041460A7
:100DA00003E0146824F008041460CC7A012C04D108
:100DB000146844F00404146003E0146824F004048C
:100DC00014608C78A407CD7844EA05640D7944EA70
:100DD00005444D7944EA05540D886D1E2C43D461B9
:100DE000146824F001041460002300E05B1C5468C4
:100DF00004F001041CB14FF6FF74A342F6D154680D
:100E000004F001040CB1002000E0012030BD10B559
:100E100000F5D87303EB01131B6803F0040313728E
:100E2000137A53B900F5D87303EB01131B6840F232
:100E3000FF7404EA5353136009E000F5D87303EB21
:100E400001131B686FF0604404EAD303536000F59C
:100E5000D87303EB01131B6803F00203537200F510
:100E6000D87303EB01135B6803F00F03937200F573
:100E7000D87303EB01135B681B0AD37400F5D873B6
:100E800003EB01139B68D37200F5D87303EB0113D6
:100E90009B681C0A147300F5D87303EB01139B685D
:100EA0001C0C547300F5D87303EB01139B681B0EE5
:100EB000937300F5D87303EB0113DB68D37300F56C
:100EC000D87303EB0113DB681C0A147400F5D873A4
:100ED00003EB0113DB681C0C547400F5D87303EBAF
:100EE0000113DB681B0E937421B9C36843F0200320
:100EF000C36003E0036943F02003036110BD10B534
:100F000002460020936803F08063B3F1806F00D144
:100F100010E0936803F00063B3F1006F01D101208A
:100F200008E0936803F08053B3F1805F01D10220A1
:100F300000E00420042874D002F5C07303EB001312
:100F40001B6803F0010402F5C07303EB00131C607F
:100F50000B7A7BB94B7A0C8843EA445302F5C07490
:100F600004EB00142468234302F5C07404EB00145E
:100F7000236010E00B7A4C6843EAC4034C7A2343A5
:100F800002F5C07404EB00142468234302F5C07416
:100F900004EB001423608B7A03F00F038B7202F5CD
:100FA000C07303EB00135B6823F00F0402F5C073FA
:100FB00003EB00135C6002F5C07303EB00135B6886
:100FC0008C7A234302F5C07404EB001463608B7BBE
:100FD0001C064B7B44EA03440B7B44EA0323CC7A94
:100FE000234302F5C07404EB0014A3608B7C1C0641
:100FF0004B7C44EA03440B7C44EA0323CC7B23432D
:1010000002F5C07404EB0014E36002F5C07303EB57
:1010100000131B6843F0010402F5C07303EB0013D7
:101020001C6010BD0168A1F2012107297DD2DFE813
:1010300001F058595A5B04203C004D49098809B217
:101040004B4A1181017BC27A41EA0221484A118050
:10105000827B417B42EA012109B2454A5180027CF0
:10106000C17B42EA012109B2414A9180417C9171E0
:101070007CE04049098809B23E4A1181017BC27A6D
:1010800041EA02213B4A1180827B417B42EA0121F5
:1010900009B2384A5180027CC17B42EA012109B27F
:1010A000344A9180417C917160E03349098809B2EA
:1010B000314A1181017BC27A41EA02212E4A118014
:1010C000827B417B42EA012109B22B4A5180027C9A
:1010D000C17B42EA012109B2274A9180417C91718A
:1010E00044E000BF00BF00BF0178491E234A1170D1
:1010F0001146097801EB8101214A32F8111009B239
:101100001E4A127802EB82021D4B03EB4202118150
:10111000017BC27A41EA0221184A127802EB82026C
:1011200023F81210827B417B00E01EE042EA01219D
:1011300009B2124A127802EB820203EB420251809A
:10114000027CC17B42EA012109B20C4A127802EB0F
:10115000820203EB42029180417C084A127802EB42
:10116000820203EB4202917100E000BF00BF7047B2
:101170002C0602203606022040060220B80000207D
:101180004A0602200246002002EA01030BB10120B8
:1011900000E00020704700000246094B9A4201D24D
:1011A000084801E00648103801F000531BB1064B17
:1011B0000B40C36002E0044B0B40836070470000AB
:1011C00010640240006002407D0F7D0F21B1026873
:1011D00042F00102026003E0026822F001020260B4
:1011E00070470000016821F00101016000210160E9
:1011F00041608160C1600161212141614A498842A9
:1012000004D13D21484A103A91608CE0464918319A
:10121000884205D14FF47461434A103A916082E0EC
:1012200041493031884205D14FF474113E4A103A99
:10123000916078E03C494831884205D14FF07461B3
:10124000394A103A91606EE037496031884204D1E2
:101250003649354A103AD16065E0334978318842E1
:1012600004D13349304A103AD1605CE02E499031C4
:10127000884204D12F492C4A103AD16053E02A49C0
:10128000A831884205D14FF03D51274A103AD1602C
:1012900049E02949884204D13D21274A083A116092
:1012A00041E025491831884205D14FF47461224A42
:1012B000083A116037E020493031884205D14FF4B7
:1012C00074111D4A083A11602DE01B4948318842CB
:1012D00005D14FF07461184A083A116023E01649AD
:1012E0006031884204D11149134A121F11601AE07B
:1012F00011497831884204D10D490F4A121F1160FB
:1013000011E00D499031884204D10A490A4A121F5E
:10131000116008E00849A831884204D14FF03D51DE
:10132000054A121F11607047106002403D00002006
:10133000400F002000003D201064024021B10268EF
:1013400042F48022026003E0026822F480220260FC
:10135000704722B1036843F40023036003E003688D
:1013600023F400230360016170470146486880B29E
:101370007047014600200A6802F400220AB10120E9
:1013800000E000207047000010B500220268134BF7
:101390001A40CC680B6823434C6923438C69234370
:1013A000CC6923430C6A23434C6A23438C6A23434E
:1013B0004C6B23438C6B23431A430260426922F037
:1013C0000702D1E90B3423431A4342610B6943609E
:1013D0004B6883608B68C36010BD00003F801CF0C9
:1013E0004160704770470000C92002F0F7FC1A48BE
:1013F00001F02EFA2FE001F069FC174801F0AAF97C
:10140000012002F0E7FA4FF4FA7001F007FB5A20CE
:1014100002F0E0FA4FF4FA7001F000FBB42002F0A1
:10142000D9FA4FF47A7001F0F9FA0B4801F026F975
:10143000094CB4F95030B4F93C20B4F92810B4F98F
:101440001400FFF7B7FA012002F0C8FC002002F0F8
:101450006FFB02490860CEE768040220B400002058
:10146000F0B50A4600210023002400BF3DE001251D
:1014700005FA01F3156805EA03049C4234D10568B6
:101480004F000326BE40B543056015794E00B540B8
:101490000668354305601579012D02D01579022DB6
:1014A00016D185684F000326BE40B5438560557947
:1014B0004E00B540866835438560456801268E40FC
:1014C000B5434560456896798E40B6B23543456070
:1014D000C5684F000326BE40B543C560D5794E00B0
:1014E000B540C6683543C560491C1029BFD3F0BD5F
:1014F000F0B5002300244D07ED0E02FA05F3CE10DF
:1015000000F1200555F826504E07F70E0F26BE4075
:10151000B543CF1000F1200646F82750CE1000F159
:10152000200555F8265045EA0304CE1000F12005A9
:1015300045F82640F0BD418370470183704700BFE6
:10154000FEE700BFFEE7704770B5002100230F22C1
:10155000C4781CB3174C246804F4E064C4F5E06458
:10156000C4F30721C1F10404E3B20A4144789C406A
:10157000E1B28478144021430C07210E0E4C05780B
:101580006155047804F01F050124AC4005786D1105
:10159000AD0005F1E025C5F8004109E0047804F04C
:1015A0001F050124AC40054D0678761145F826400C
:1015B00070BD00000CED00E000E400E080E100E020
:1015C00002490143024A1160704700000000FA0519
:1015D0000CED00E0B0EE401A10B99FED790A7047AB
:1015E00090ED100A80ED110A90ED0F0A80ED100ABF
:1015F000C0ED060A80ED071A30EEC10A80ED0F0A31
:101600000178002975D190ED010AD0ED0F1A20EE76
:10161000210A80ED090A90ED0A0AD0ED021A90ED38
:101620000F2A01EE820A80ED0A0A90ED0D0A80ED84
:101630000E0A90ED0C0A80ED0D0A90ED0F0AD0ED28
:10164000101A30EE610A80ED0C0A90ED030AD0ED1D
:101650000C1A20EE210A80ED0B0A90ED0A0AD0ED5B
:10166000051AB4EEE10AF1EE10FA04DD90ED050A78
:1016700080ED0A0A10E090ED0A0AD0ED051AF1EEAD
:10168000611AB4EEE10AF1EE10FA05D290ED050A06
:10169000B1EE400A80ED0A0A90ED090AD0ED0A1A6F
:1016A00030EE210AD0ED0B1A30EE210A80ED080A47
:1016B00090ED080AD0ED041AB4EEE10AF1EE10FA4A
:1016C00004DD90ED040A80ED080A76E090ED080A4A
:1016D000D0ED041AF1EE611AB4EEE10AF1EE10FA5F
:1016E0006BD290ED040AB1EE400A80ED080A64E086
:1016F000FFE70178012960D190ED0F0AD0ED101AB3
:1017000030EE610AD0ED011A20EE210A80ED090ABF
:1017100090ED020AD0ED0F1A20EE210A80ED0A0AA0
:1017200090ED0D0A80ED0E0A90ED0C0A80ED0D0A89
:1017300090ED0F0AD0ED101AB0EE002A02EE610A09
:10174000D0ED111A30EE210A80ED0C0A90ED030A5B
:10175000D0ED0C1A20EE210A80ED0B0A90ED090A5B
:10176000D0ED0A1A30EE210AD0ED0B1A30EE210A24
:10177000D0ED081A30EE210A80ED080A90ED080A33
:10178000D0ED041AB4EEE10AF1EE10FA04DD90EDAA
:10179000040A80ED080A10E090ED080AD0ED041A62
:1017A000F1EE611AB4EEE10AF1EE10FA05D290ED15
:1017B000040AB1EE400A80ED080A90ED080A0EE72F
:1017C0000000000000B102B97047017092ED001AEC
:1017D00080ED011A92ED011A80ED021A92ED021AC3
:1017E00080ED031A80ED040AC0ED050A9FED0C1A86
:1017F00080ED0E1A80ED0D1A80ED0C1A9FED081A7F
:1018000080ED081A80ED0B1A80ED0A1A80ED091A96
:1018100080ED111A80ED101A80ED0F1A00BFD3E78A
:101820000000000029B1064A12680243044B1A6006
:1018300004E0034A12688243014B1A6070470000BB
:101840003038024029B1064A12680243044B1A603C
:1018500004E0034A12688243014B1A60704700009B
:101860004038024029B1064A12680243044B1A600C
:1018700004E0034A12688243014B1A60704700007B
:101880002038024029B1064A12680243044B1A600C
:1018900004E0034A12688243014B1A60704700005B
:1018A0004438024029B1064A12680243044B1A60C8
:1018B00004E0034A12688243014B1A60704700003B
:1018C00024380240F0B50021002200240225002621
:1018D0000223324F3F6807F00C0121B1042905D0E3
:1018E000082937D105E02E4F076036E02D4F0760FD
:1018F00033E02A4F3F1F3F68C7F38056274F3F1FF3
:101900003F6807F03F036EB1264FB7FBF3F7DFF8F0
:101910008CC0ACF1040CDCF800C0CCF3881C07FBD5
:101920000CF40CE01E4FB7FBF3F7DFF870C0ACF11E
:10193000040CDCF800C0CCF3881C07FB0CF4174F38
:101940003F1F3F68C7F301477F1C7D00B4FBF5F7DD
:10195000076002E0124F076000BF00BF0F4F3F68F3
:1019600007F0F0010909104F7A5C0768D74047601B
:101970000A4F3F6807F4E051890A0B4F7A5C4768C9
:10198000D7408760054F3F6807F46041490B064F19
:101990007A5C4768D740C760F0BD00000838024055
:1019A0000024F400001BB7001400002070B590B0B4
:1019B00004460E46154601214A48FFF733FF012130
:1019C0001020FFF75FFF01211020FFF76BFF0021C0
:1019D0001020FFF767FF072211464348FFF788FDF5
:1019E00080200E9002208DF83C0000208DF83E00F3
:1019F00003208DF83D0000208DF83F000EA93A48E5
:101A0000FFF72EFD394800F0F1FC39480A9000201C
:101A1000ADF82C00ADF82E004FF48060ADF830002A
:101A20000420ADF832000020ADF834000AA92F4898
:101A300000F0A4FD012240212C4800F0CEFC102132
:101A40002A4800F0B5FC012240F22441274800F06A
:101A50006FFD0121254800F0B4FC25208DF83C00E5
:101A600004208DF83D0000208DF83E0001208DF807
:101A70003F000FA8FFF768FD1E48FFF7B3FB4FF0CC
:101A8000006001901948001D02900394002004900A
:101A9000059506904FF4806007900020089009900B
:101AA0004FF480700A904FF440300B9000200C905F
:101AB0000D900E900F9001A90E48FFF765FC0022D3
:101AC00031460C48FFF745FC01210A48FFF736FC78
:101AD00000210848FFF77AFB01210648FFF776FB53
:101AE00010B070BD02004000000402400010014030
:101AF000A08601004064024000B101B9704702783D
:101B0000437842EA0322C2F30A020A804278D210E2
:101B1000837842EA4312C2F30A024A808278921121
:101B2000C37842EA8302037942EA8322C2F30A02BB
:101B30008A8002795210437942EAC312C2F30A0240
:101B4000CA804279C2F301128A7242791211930853
:101B5000CB728279C37942EA032212B28A81027A75
:101B6000437A42EA032213B201F10C02CB81827A5A
:101B7000C37A42EA032213B201F10C020B82037B07
:101B80008B74437BCB74827BC37B42EA03228A82C1
:101B9000027C437C42EA032212B20A810A88A2F53F
:101BA000806212B20A804A88A2F5806212B24A802C
:101BB0008A88A2F5806212B28A80CA88A2F5806201
:101BC00012B2CA800A89A2F5806212B20A8100BFED
:101BD00094E7000000B58BB001210420FFF732FE2E
:101BE00001210820FFF71EFE02220C212048FFF7EA
:101BF0007FFC4FF48050099002208DF828000320CC
:101C00008DF8290000208DF82A0001208DF82B0086
:101C100009A91748FFF724FC5320ADF8180000204D
:101C2000ADF81A0040F6C31007900020ADF8200070
:101C300006A9104800F008FB6020ADF80400012060
:101C4000ADF806000220ADF8100001A9094800F027
:101C500065FA0821074800F09FFA0121054800F0C5
:101C600051F90121034800F05CF90BB000BD000000
:101C7000000C0240000800400CB5002001900090CC
:101C80004148006840F480303F49086000BF3E484A
:101C9000006800F4003000900198401C019000980A
:101CA00018B90198B0F5A04FF1D13748006800F499
:101CB000003010B10120009001E000200090009859
:101CC000012860D130484030006840F080502E49F3
:101CD000403108602D48006840F440402B490860BE
:101CE000294808300068284908310860084600681B
:101CF00040F4004008600846006840F4A0500860C6
:101D00002348091F0860081F006840F08070091F01
:101D1000086000BF1C48006800F000700028F9D07F
:101D20001A48006840F480301849086000BF17481E
:101D3000406800F480300028F9D01448006840F46E
:101D400000301249086000BF1048406800F40030BD
:101D50000028F9D040F205700E4908600A480830A2
:101D6000006820F003000849083108600846006850
:101D700040F00200086000BF03480830006800F02F
:101D80000C000828F8D10CBD00380240007000405B
:101D9000062D4008003C0240042808D14FF0E02105
:101DA000096941F004014FF0E022116107E04FF0B2
:101DB000E021096921F004014FF0E0221161704730
:101DC00010B502F0EDFD012801D002F097FA10BD28
:101DD00010B51548006840F47000134908601348B6
:101DE000006840F001001149086000200F490831E7
:101DF00008600E4800680E4908400C4908600D480C
:101E0000091D0860081F006820F48020091F086071
:101E1000002006490C310860FFF72EFF4FF00060EC
:101E200001498039086010BD88ED00E000380240AB
:101E3000FFFFF6FE1030002410B50121084800F025
:101E400053F960B10121064800F068F805480268BE
:101E50004068521C40F1000002490A60486010BD11
:101E600000040040A000002010B50121064800F049
:101E70003BF938B10121044800F050F80021024834
:101E800000F04FF810BD0000001000407FB505467F
:101E90000C4601211020FFF7D5FC01211020FFF78F
:101EA000E1FC00211020FFF7DDFC154800F054F89C
:101EB000681E0290601E80B2ADF804000020ADF8EC
:101EC0000600ADF80C0001A90D4800F0BDF9012293
:101ED00011460B4800F019F936208DF80000042057
:101EE0008DF8010000208DF8020001208DF803001C
:101EF0006846FFF729FB0121014800F012F87FBD79
:101F00000010004021B1028842F08002028004E00B
:101F100002884FF67F731A4002807047CA430282DC
:101F2000704721B1028842F00102028004E0028879
:101F30004FF6FE731A400280704731B1B0F844206A
:101F400042F40042A0F8442005E0B0F84420C2F377
:101F50000E02A0F84420704710B50446554884424C
:101F600008D101210846FFF79DFC00210120FFF761
:101F700099FC9DE0B4F1804F08D101210846FFF79C
:101F800071FC00210120FFF76DFC91E04A4884427A
:101F900008D101210220FFF765FC00210220FFF794
:101FA00061FC85E04548844208D101210420FFF707
:101FB00059FC00210420FFF755FC79E04048844299
:101FC00008D101210820FFF74DFC00210820FFF770
:101FD00049FC6DE03B48844208D101211020FFF705
:101FE00041FC00211020FFF73DFC61E036488442AF
:101FF00008D101212020FFF735FC00212020FFF728
:1020000031FC55E03148844208D101210220FFF71C
:1020100049FC00210220FFF745FC49E02C4884429E
:1020200009D101210804FFF73DFC00214FF4803065
:10203000FFF738FC3CE02748844209D101214804DD
:10204000FFF730FC00214FF40030FFF72BFC2FE0AE
:102050002148844209D101218804FFF723FC002193
:102060004FF48020FFF71EFC22E01C48844208D178
:1020700001214020FFF7F6FB00214020FFF7F2FB93
:1020800016E01748844208D101218020FFF7EAFBBF
:1020900000218020FFF7E6FB0AE01248844207D1C6
:1020A00001218015FFF7DEFB0021A015FFF7DAFB09
:1020B00010BD000000000140000400400008004086
:1020C000000C0040001000400014004000040140DB
:1020D0000040014000440140004801400018004019
:1020E000001C00400020004030B5024600200023C4
:1020F0000024158A05EA0103958905EA010413B154
:102100000CB1012000E0002030BD1AB183890B43DF
:10211000838102E083898B438381704770B50024FB
:1021200000220023058C4FF6FE7635400584028C94
:102130008388048B4FF68F752C40B51E2C400D887C
:102140002C43751E2A408D892A434D882A43104D01
:10215000A84202D00F4DA84213D14FF6F7752A407E
:10216000CD892A434FF6FB752A408D882A434FF6C6
:10217000FF652B404FF6FF552B400D8A2B434D8AB0
:102180002B43838004838D684563028470BD000007
:1021900000000140000401400A460021018B4FF677
:1021A000F7731940114301837047000070B5002296
:1021B00000230024058C4EF6FF7635400584038C01
:1021C0008488828B48F6FF752A404FF6FF452A40E7
:1021D0000D884FF6FF7606EA05252A434DF6FF7572
:1021E0002B408D8906EA05352B434D8806EA0535D7
:1021F0002B430A4DA84202D0094DA84208D14BF604
:10220000FF752C400D8A4FF6FF7606EA85152C43A4
:10221000848082838D680564038470BD0000014062
:10222000000401400A460021818B4FF2FF731940E0
:102230004FF6FF7303EA022319438183704741631A
:10224000704701647047000000220288184B9842D2
:102250000ED0184B98420BD0B0F1804F08D0164BDF
:10226000984205D0154B984202D0154B984204D1A4
:102270004FF68F731A404B881A43124B984207D07F
:10228000114B984204D04FF6FF431A400B891A4372
:1022900002804B68C3620B880385054B984202D0CD
:1022A000044B984201D18B7A0386012383827047C5
:1022B000000001400004014000040040000800400C
:1022C000000C0040001000400014004010B540F227
:1022D0002551314800F002F918B12F4800F0B8F943
:1022E00059E040F224412C4800F0F8F8002852D080
:1022F000294800F0ADF92948FFF73BF828BB002139
:102300002648FEF763FF2548FFF72FF8C0F12400A9
:102310002349088024212148FFF762F81F480068FC
:1023200040F400201D4908601E491C48FEF734FF98
:1023300001211A48FEF74AFF1948008812282AD1BD
:1023400019491A48FFF7D8FB25E000211348FEF78A
:102350003DFF1248FFF709F8C0F12400104908803A
:1023600024210E48FFF73CF80C48006820F40020B8
:102370000A4908600B490948FEF70EFF012107488A
:10238000FEF724FF06480088122804D106490748B2
:102390002430FFF7B1FB10BD001001404064024043
:1023A000B000002000003010080402201E040220AB
:1023B00001F40072B2F5007F00D100BFCA43028071
:1023C000704721B1828942F40052828104E08289FF
:1023D0004DF6FF731A40828170471AB1838A0B430E
:1023E000838202E0838A8B438382704710B5044660
:1023F0003248844208D101211020FFF753FA00210E
:102400001020FFF74FFA57E02D48844209D10121EF
:102410004804FFF727FA00214FF40030FFF722FAB3
:102420004AE02848844209D101218804FFF71AFABA
:1024300000214FF48020FFF715FA3DE02248844246
:1024400009D10121C804FFF70DFA00214FF4002043
:10245000FFF708FA30E01D48844209D10121080540
:10246000FFF700FA00214FF48010FFF7FBF923E09B
:102470001748844208D101212020FFF713FA0021D8
:102480002020FFF70FFA17E01248844209D10121FA
:102490008807FFF7E7F900214FF08040FFF7E2F9E6
:1024A0000AE00D48844207D101214005FFF7DAF91F
:1024B00000216005FFF7D6F910BD000000100140B3
:1024C0000044004000480040004C004000500040E4
:1024D0000014014000780040007C004070B50246C6
:1024E000002400230025002040F66A16B14200D1E6
:1024F00000BFC1F3421501F01F03012606FA03F3E2
:10250000012D02D19689334006E0022D02D1168AB0
:10251000334001E0968A33400C12012606FA04F497
:102520001688344013B10CB1012000E0002070BDCA
:10253000F0B50346002400260025002040F66A1767
:10254000B94200D100BF1846C1F3421401F01F0682
:10255000012707FA06F5012C01D10C3004E0022C0A
:1025600001D1103000E014301AB107682F43076022
:1025700002E00768AF430760F0BD00002DE9FF47A8
:1025800005460E460024A14600BFA046B08900B112
:1025900000BF2C8A24F44054F08804432C82AC8978
:1025A00041F20C608443B088318908437189084343
:1025B0000443AC81AC8A24F44074B0890443AC82F7
:1025C0006846FFF77FF92048854202D01F488542C0
:1025D00002D1DDF80C9001E0DDF80890A88900F444
:1025E000004040B109EBC90000EB09103168490017
:1025F000B0FBF1F707E009EBC90000EB0910316807
:102600008900B0FBF1F76420B7FBF0F0040120096A
:10261000642101FB1078A88900F4004040B1322009
:1026200000EBC800B0FBF1F000F00700044308E045
:10263000322000EB08106421B0FBF1F000F00F0035
:1026400004432C81BDE8FF870010014000140140C5
:1026500001468888C0F30800704700BFFEE702E02B
:1026600008C8121F08C1002AFAD17047704700201D
:1026700001E001C1121F002AFBD1704770B5054669
:10268000002400BF15E09FED300A04EBC40105F102
:10269000540000EBC10080ED040A9FED2C0A04EB0E
:1026A000C40105F1540000EBC10080ED050A601C77
:1026B000C4B2042CE7DB00F041F9002427E02448F1
:1026C00000EB840090ED000A04EB8401281D00EB70
:1026D000810080ED030A04EB8402291D01EB8201D5
:1026E00091ED031AF0EE410A04EB8402291D01EB7F
:1026F000820191ED021AB0EE410A04EBC40205F129
:10270000540101EBC200FEF765FF601CC4B2042C4B
:10271000D5DB002414E004EBC40105F1540000EB08
:10272000C10090ED080ABDEEC00A10EE100A01B219
:1027300004EB8402281D00EB82000182601CC4B2FD
:10274000042CE8DB70BD000000606A4600409C4538
:102750001806022010B50146002000BF6EE000EB15
:1027600080030A1D52F82320B2F9022000EE102A3D
:10277000B8EEC00ADFED330A20EE200A00EB80033A
:102780000A1D02EB830282ED020A00EB80030A1DA0
:1027900052F82320138800EB80040A1D52F82420ED
:1027A000B2F908209A1AB2F5805F06DD264A125C5B
:1027B000521E53B2244A135416E000EB80030A1D44
:1027C00052F82320138800EB80040A1D52F82420BD
:1027D000B2F908209A1A12F5805F05DA1A4A125CDB
:1027E000521C53B2184A1354174A125C122A03D1CE
:1027F000EF23154A135406E0134A1256123212B947
:102800001123114A1354104A1256C2EB423300EB03
:1028100080040A1D52F8242012881A4400EE102A5F
:10282000B8EEC00ADFED090A20EE200A064A103A87
:1028300002EB800282ED000A421CD0B204288EDB3B
:1028400010BD0000F1A23E3BEC050220C2B8B23739
:1028500070B5064606B970BD002516E0284600F0A2
:10286000E9F905EB8502311D41F8220005EBC502AF
:10287000503101EBC200DFED2A0A9FED2A0A2A4AF5
:102880000021FEF79FFF681CC5B2042DE6DB304631
:10289000FFF760FF002400BF3DE000212348015501
:1028A00004EB8401301D50F82100008800EE100A6E
:1028B000B8EE400ADFED1E0A20EE200A1B48103851
:1028C00000EB840080ED000A00211848001D20F86C
:1028D00014100020174981F8C00101F5BA7000EB0F
:1028E000840090ED000A01F5C87000EB840080EDD3
:1028F000000A9FED110A01F5D07000EB840080ED15
:10290000000A9FED0D0A01F5D87000EB840080ED00
:10291000000A601CC4B2042CBFDB00BF9BE70000B0
:1029200000401C4500409C45504E0008EC0502202C
:10293000C2B8B237680402200000000010B59FED55
:10294000161ADFED160A9FED160A00F0D3F91548A6
:1029500080ED640AD0ED640A90ED5D1A70EEC10A54
:10296000B0EE600A9FED0C1ADFED0C0A00F0C2F920
:10297000DFED0D0AB4EEE00AF1EE10FA05DDB2EE7D
:10298000000A084880ED6C0A04E09FED080A05483B
:1029900080ED6C0A10BD0000DB0F4940DB0F49C021
:1029A000DA0F494068040220CDCC4C3D0000000005
:1029B00070B504460025681FFFF7EEF9134800685C
:1029C0001349B0FBF1F013490870104800684FF448
:1029D000FA51B0FBF1F0104908600CB94FF47A7469
:1029E0000A480068B0FBF4F0C5086D1E4FF0E02007
:1029F000006940F002004FF0E0210861084645619F
:102A0000006940F00100086170BD00000000002076
:102A100000127A00980000209C00002070B5034648
:102A2000002400210020002200254FF0E0267569D7
:102A30000D4E366803FB06F44FF0E026B16910E056
:102A40004FF0E026B06988420BD0884202D20E1ABD
:102A5000324402E02E1A0E4432440146A24200D310
:102A600000E0EDE700BF70BD9C00002070B503469C
:102A7000002400210020002200254FF0E026756987
:102A80000D4E367803FB06F44FF0E026B16910E0F6
:102A90004FF0E026B06988420BD0884202D20E1A6D
:102AA000324402E02E1A0E4432440146A24200D3C0
:102AB00000E0EDE700BF70BD9800002010B50446AF
:102AC0004FF4807040FA04F10148FEF736FD10BD66
:102AD0000018024000B58BB001210846FEF7A2FEA7
:102AE00001211020FEF79EFE01210846FEF7CAFED6
:102AF000012208214448FEF7FBFC01220E21434835
:102B0000FEF7F6FC4FF48070099002208DF8280043
:102B100000208DF829008DF82A008DF82B0009A9D6
:102B20003948FEF79DFC4FF48040099009A93748C9
:102B3000FEF796FC01210846FEF7B4FE00210120B5
:102B4000FEF7B0FE40F2CF700790B320ADF818004A
:102B50000020ADF81A00ADF8200006A92C48FFF7B8
:102B600073FB6020ADF804000120ADF806000020E2
:102B7000ADF81000ADF808000820ADF812004001D3
:102B8000ADF814000020ADF816004FF47A700390F1
:102B900001A91F48FFF7C2FA01A91D48FFF706FB6C
:102BA00008211B48FFF7F8FA08211948FFF73AFBFC
:102BB00001211748FFF7A6F901211548FFF7BDF9D4
:102BC00001211348FFF7ADF900F026F8012120207C
:102BD000FEF728FE4FF48060099000208DF8280051
:102BE0008DF82A0003208DF8290001208DF82B0094
:102BF00009A90848FEF734FC4FF480610548FEF748
:102C00009CFC0BB000BD0000000002400010024020
:102C1000000001400014024010B54FF47A710448DE
:102C2000FFF70DFB4FF47A710148FFF70AFB10BD67
:102C300000000140014601F0030000EB8000024A61
:102C400002EB4000704700004A0602201CB501213B
:102C50007020FEF7E7FD4FF48040009001208DF8D2
:102C6000040000208DF8060003208DF805000120E7
:102C70008DF8070069460D48FEF7F2FB4FF400603F
:102C8000009069460A48FEF7EBFB00F015F800F0EB
:102C900027F84FF4FF70009069460648FEF7E0FB06
:102CA0004FF4FF70FFF70AFF1CBD00000014024044
:102CB000001002400018024010B54FF48041024855
:102CC000FEF73BFC10BD00000014024010B54FF4AD
:102CD00080410248FEF72FFC10BD000000140240A6
:102CE00010B54FF400610248FEF727FC10BD00004C
:102CF00000100240B4EEE01AF1EE10FA00D2704774
:102D0000B4EEC10AF1EE10FA0EDD31EE602AF0EEFB
:102D1000421A03E030EE612AB0EE420AB4EEC10A74
:102D2000F1EE10FAF6DC13E0B4EEE00AF1EE10FA80
:102D30000ED231EE602AF0EE421A03E030EE212A84
:102D4000B0EE420AB4EEE00AF1EE10FAF6D300BF9C
:102D500000BFD4E7FDF7B4FC6420FFF75FFE00F08E
:102D60005BFE01F095F900BFFEE700001CB50121F4
:102D70008020FEF757FD3C20009001208DF80400D4
:102D800000208DF8060003208DF8050001208DF845
:102D9000070069460648FEF763FB002404E020466E
:102DA00000F008F8601CC4B2042CF8DB1CBD000065
:102DB000001C024010B50446032C00DD10BD0420A9
:102DC000A04081B20248FEF7B6FB00BFF6E7000064
:102DD000001C024010B50446032C00DD10BD042089
:102DE000A04081B20248FEF7A8FB00BFF6E7000052
:102DF000001C02402DE9F04105460E461C480768BC
:102E00001C480068001D00F07FFE50B9194800689A
:102E100090F82C1001208840174909688143164812
:102E20000160681C38B936B112480168091D1348A1
:102E300000F0BCFE1AE07C190E4800684460BC42F9
:102E400007D20C480168091D0D48006800F094FE87
:102E50000CE008480168091D0A48006800F08CFE73
:102E600009480068844201D207480460BDE8F08147
:102E700038000020240000203C000020CC0300206B
:102E80002C000020280000205400002010B504462B
:102E900000F098FE24480068401C2349086023483D
:102EA000006840B9214804600846006801280DD137
:102EB00000F0E0F90AE01E48006838B91B480068D5
:102EC000C06AE16A884201D818480460194800685D
:102ED000401C1849086008460068606494F82C108B
:102EE0000120884014490968084313490860E16AD1
:102EF00001EB8101114A02EB8100211D00F056FE19
:102F000000F08AFE0A48006868B108480068C06A94
:102F1000E16A884207D24FF0805009490860BFF348
:102F20004F8FBFF36F8F10BD3400002024000020AE
:102F300040000020500000203C000020FC00002049
:102F400004ED00E010B500F03DFE10480068D0B977
:102F50000F4800F001FE0F4800F0FEFD0C480E493E
:102F600008600C480D49086000220C210A2001F07D
:102F7000DFF9064908600846006820B108A1034847
:102F8000006800F0EFFE00F047FE10BD6800002072
:102F9000E0030020F4030020600000206400002013
:102FA000546D72510000000070B523E001F0BAF8D2
:102FB0001348006808B9012000E00020054601F030
:102FC00059FEBDB900F0FEFD0D48C068C468201D63
:102FD00000F09AFD0B480068401E0A4908600A4844
:102FE0000068401E0849086000F016FE204600F008
:102FF00060F800BF044800680028D7D170BD000009
:10300000B8030020340000203000002070B50446D2
:103010000D46206C70B1216CE0680844E060616886
:10302000E068884201D32068E0602846226CE168AD
:10303000FDF73CF970BD2DE9F04104460F461546F9
:103040004FF00008A66B206C40B9206860BB606838
:1030500001F060FD80460020606025E07DB93946C2
:10306000226CA068FDF722F9216CA0680844A060DA
:10307000D4E90110884217D32068A06014E03946D3
:10308000226CE068FDF712F9216CE068401AE060FC
:103090002168E068884203D2216C6068401AE060D1
:1030A000022D01D106B1761E701CA0634046BDE81A
:1030B000F08110B50446206B00F0CCFD204600F0F6
:1030C000C9FD10BD0146084A126812680AB90122FA
:1030D00000E000220A600A6822B9034A1268D26836
:1030E000106800E0002070476000002030B54FF409
:1030F0000033174800F007042CB1C01D20F0070072
:10310000134C041B1B1B0246124C22600024114D61
:103110006C60D018083820F007000F4C20600024A5
:103120000D4D2D686C600C4D2D682C601146441AB5
:103130004C60094C24680C60084D4C682C60084DAC
:103140004C682C604FF00044064D2C6030BD0000F0
:1031500008040020740000207C000020840000206F
:10316000800000208800002000BFFFF71DFF0648F8
:1031700000680128F9D94FF0805004490860BFF376
:103180004F8FBFF36F8FF0E7FC00002004ED00E0ED
:103190002DE9F04106460D4617469846069C0DB9A6
:1031A000246000E02760E66325640121204601F0E9
:1031B000CDF984F850800020A064BDE8F0812DE9AD
:1031C000F05F82460F4690469B460A9E0C9C4FEA53
:1031D0008801A522206BFDF77BF8A8F10100216B87
:1031E00001EB800929F0070909F0070008B901205F
:1031F00000E0002050B900BF502080F31188BFF3D9
:103200004F8FBFF36F8F00BF00BFFEE7002507E0C1
:10321000795D04F134004155785D00B902E06D1C20
:10322000102DF5D300BF002143200155202E00D3DF
:103230001F26E662E66400202065201D00F099FC50
:1032400004F1180000F095FC2461C6F12000A06193
:1032500064620020606584F858005A46514648462A
:1032600000F098FB20600B9808B10B980460BDE853
:10327000F09F000010B5002407E004EB84010F4A22
:1032800002EB810000F068FC641C202CF5D30C4894
:1032900000F062FC0B4800F05FFC0B4800F05CFCA7
:1032A0000A4800F059FC0A4800F056FC0448094955
:1032B000086004480849086010BD0000FC000020B8
:1032C0007C03002090030020A4030020B80300200A
:1032D000CC030020280000202C00002010B501465F
:1032E000164800E0006803688B42FBD3024643683F
:1032F00013448B4204D143684C6823444360014625
:103300000A464B6813440468A34211D10C4C03686D
:103310002468A34208D04B680468646823444B6067
:1033200003681B680B6005E0054B1B680B6001E040
:1033300003680B60884200D0016010BD740000205B
:103340007C0000202DE9F04104460D4616461F463C
:103350004FF0000865602461B5420CD8F01BA169EC
:10336000884202D34FF0010811E0211D094800688E
:1033700000F002FC0BE0BE4204D2BD4202D34FF08B
:10338000010804E0211D0448006800F0F5FB4046F8
:10339000BDE8F081640000206000002070B50546A3
:1033A00000F010FCA86B08B9012400E0002400F034
:1033B00033FC204670BD70B5054600F003FCA86BD9
:1033C000E96B884201D1012400E0002400F024FCD4
:1033D000204670BD2DE9F3410D460098846C00270E
:1033E00054B900BF502080F31188BFF34F8FBFF353
:1033F0006F8F00BF00BFFEE7A06BE16B884201D278
:10340000012000E0002050B900BF502080F3118857
:10341000BFF34F8FBFF36F8F00BF00BFFEE7A06BFE
:10342000E16B88421BD294F945602A4669462046E2
:10343000FFF701FE0746701C60B9606A08B90120F9
:1034400000E0002050B904F1240001F0C7FB28B1CE
:10345000012703E0701C40B284F8450000BF3846E5
:10346000BDE8FC81F8B505460F4616480068C068FF
:10347000C468201D00F048FBE06901281DD1A06947
:1034800041192B463A462046FFF75CFFA8B10020C1
:1034900003462A4601460090204601F097FC064666
:1034A00056B900BF502080F31188BFF34F8FBFF390
:1034B0006F8F00BF00BFFEE700BF2046616A8847EC
:1034C000F8BD00006000002070B586B06AE0039887
:1034D000002867DB059C606908B9012000E0002036
:1034E00010B9201D00F010FB02A800F0BDF8054641
:1034F00003980A2854D2DFE800F009050731334F5A
:103500000608323400BF00BF00BF00BF0498A269A4
:10351000811803462A462046FFF714FFE8B12046EB
:10352000616A8847E069012817D10020009004985B
:10353000A169421800231946204601F047FC0646BF
:1035400056B900BF502080F31188BFF34F8FBFF3EF
:103550006F8F00BF00BFFEE700BF22E000BF20E08A
:1035600000BF0498A061A06908B1012000E000201C
:1035700050B900BF502080F31188BFF34F8FBFF3C5
:103580006F8F00BF00BFFEE7A06941192B462A4696
:103590002046FFF7D7FE04E0204600F05BFB00E08A
:1035A00000BF00BF00231A4603A90448006800F0CA
:1035B000EBFE00288BD106B070BD00006800002033
:1035C000F8B505460C4600F0ADFD684600F04CF835
:1035D0000646009820BB44B9B54206D801F04AFB24
:1035E00031462846FFF73EFF1CE03CB10E4800681C
:1035F000006808B9012000E000200446A91B22460B
:103600000A48006800F0C4FB01F034FB50B94FF0E9
:10361000805007490860BFF34F8FBFF36F8F01E001
:1036200001F028FBF8BD00006400002068000020C5
:1036300004ED00E00A490968096809B9012100E0C0
:10364000002121B14FF0FF31064A116006E0044924
:103650000968C968C868034A41681160704700007A
:10366000280000205400002070B5044601F0A8F99D
:10367000054607480068854204D200F00BF8012097
:10368000206001E00020206001480560284670BDF0
:10369000700000202DE9F84332E024480068C0683B
:1036A000056822480068C068C468201D00F02CFA34
:1036B0002046616A8847E069012821D1A06946193E
:1036C000AE4207D966602461211D1848006800F0E9
:1036D00053FA15E0002003462A4601460090204692
:1036E00001F074FB074657B900BF502080F31188E2
:1036F000BFF34F8FBFF36F8F00BF00BFFEE700BF68
:103700000A480068006808B9012000E0002000288D
:10371000C3D00648D0F80080054800680349086017
:103720000348C0F80080BDE8F88300006000002076
:10373000640000200246002101E0521C491C107860
:10374000A528FAD0890888B2704700000E480068A2
:10375000401C08B9012000E0002050B900BF5020F3
:1037600080F31188BFF34F8FBFF36F8F00BF00BF8F
:10377000FEE700BF502080F31188BFF34F8FBFF3E7
:103780006F8F00BF00BFFEE78C00002008B500BFB0
:103790006846FFF797FC044620460099FFF710FFA4
:1037A000FFF792FEF4E770B5044600F00BFA94F9C7
:1037B00045501AE0A06C38B100212046FFF70AFE00
:1037C00088B100F0B3FB0EE0606A08B9012000E0A8
:1037D000002038B904F1240001F000FA18B100F01B
:1037E000A5FB00E003E0681E45B2002DE2DC00BF4F
:1037F000FF2084F8450000F00FFA00F0E3F994F997
:10380000445010E0206908B9012000E0002048B9C8
:1038100004F1100001F0E2F908B100F087FB681E26
:1038200045B200E001E0002DECDC00BFFF2084F891
:10383000440000F0F1F970BD2DE9F04104464FF06D
:10384000000800F06FFC4648006808B9FFF74EFC1E
:1038500044480068204000286BD1D4B1083404F0FB
:103860000700B0B104F00700C0F10800044404F000
:10387000070008B9012000E0002050B900BF502027
:1038800080F31188BFF34F8FBFF36F8F00BF00BF6E
:10389000FEE7002C4DD034480068844249D8334EAE
:1038A0003046056801E02E462D686868A04202D2C5
:1038B00028680028F7D12A480068854239D0306846
:1038C00000F10808286830606868001B102819D9C2
:1038D0002F1907F0070008B9012000E0002050B9B7
:1038E00000BF502080F31188BFF34F8FBFF36F8F5D
:1038F00000BF00BFFEE76868001B78606C60384658
:10390000FFF7ECFC184968680968081A164908604E
:103910000846006816490968884203D212480068C0
:10392000134908600F496868096808436860002007
:10393000286001F09FF908F0070008B9012000E0B5
:10394000002050B900BF502080F31188BFF34F8F83
:10395000BFF36F8F00BF00BFFEE74046BDE8F081B8
:103960007C000020880000208000002074000020DF
:10397000840000200648006830B10549096801F15B
:103980005000096D491C0160014800687047000043
:1039900024000020001F4FF080730360001F21F0FF
:1039A00001030360001F054B036014380260001F11
:1039B0006FF0020303602038704700004D370008A5
:1039C00010B524220249A1F12400FDF7EFFF10BD3C
:1039D0004204022070B52DED048B04462046FCF70E
:1039E000FBFC41EC190B9FED090B53EC102BFCF782
:1039F00081FC41EC180BFCF7FCFC05462946054808
:103A0000FEF71DFCBDEC048B70BD000050FC18736C
:103A1000D7822540000800401CB50548012100233D
:103A20004A02CDE9001003A1054800F089FF1CBD42
:103A3000AC00002073746172745F7461736B00007A
:103A4000453A00081CB5044600F0BCF808481321AC
:103A500000234FF40072CDE9001006A1084800F0E1
:103A60006FFF0848006800F0E7F900F0D5F81CBDCA
:103A7000A800002047494D42414C5F7461736B00C0
:103A8000E9130008AC00002000B587B000200190C9
:103A90008DF808008DF809000390059001208DF83D
:103AA000180001A90248FCF76FFD07B000BD000037
:103AB000002001401FB501210802FDF7E3FE0121AE
:103AC0000802FDF7EFFE00214FF48070FDF7EAFEDB
:103AD0000120FCF7DFFD00200090039002904FF4DE
:103AE000803001906846FCF737FDFFF7CDFF0123DA
:103AF0001A4612210348FCF771FD01210148FCF729
:103B000020FD1FBD0020014001460A69D1E90130B6
:103B10009860D1E9010358605068884201D18868F3
:103B20005060002008611068401E106010687047E7
:103B30002DE9F041044614B90648006800E020462B
:103B400007463D6B2846FFF7F5FD06463046BDE8C3
:103B5000F08100002400002000F1080141604FF0D6
:103B6000FF31816000F10801C16001610021016045
:103B7000704700210161704710B502460B685C1C5C
:103B80000CB9106907E002F1080000E040684468E1
:103B900024689C42FAD944684C604C68A1608860F3
:103BA00041600A611468641C146010BD42684A6078
:103BB00093688B60936859609160086103685B1C2F
:103BC0000360704700BF502080F31188BFF34F8F10
:103BD000BFF36F8F00BF0E480068401C0C4908609F
:103BE00008460068012812D10A480068C0B208B926
:103BF000012000E0002050B900BF502080F3118860
:103C0000BFF34F8FBFF36F8F00BF00BFFEE770475A
:103C10008C00002004ED00E00D48006850B900BFA2
:103C2000502080F31188BFF34F8FBFF36F8F00BF19
:103C300000BFFEE706480068401E054908600846C8
:103C4000006820B9002080F3118800BF00BF7047D2
:103C50008C00002070B506463546002E3FD0083D4A
:103C60002C461F4960680968084008B1012000E03F
:103C7000002050B900BF502080F31188BFF34F8F50
:103C8000BFF36F8F00BF00BFFEE7206808B90120B7
:103C900000E0002050B900BF502080F31188BFF32E
:103CA0004F8FBFF36F8F00BF00BFFEE70C49606806
:103CB0000968084098B1206888B9094960680968AE
:103CC0008843606000F02EFA06496068096808447D
:103CD000044908602046FFF701FB00F0CBFF70BDF0
:103CE00088000020800000207047000070B5FCF7BD
:103CF000BFFA0446102C16D304F1E02090F8F053DC
:103D000015480078854201DB012000E0002050B911
:103D100000BF502080F31188BFF34F8FBFF36F8F28
:103D200000BF00BFFEE70D48006800F4E0600C49EA
:103D30000968884201D8012000E0002050B900BF86
:103D4000502080F31188BFF34F8FBFF36F8F00BFF8
:103D500000BFFEE770BD0000900000200CED00E009
:103D600094000020024600200BE0084B53F830304E
:103D700033B9064B43F8301003EBC0035A6002E03E
:103D8000401C0828F1D300BF70470000BC00002091
:103D90002DE9F04105460E4617462C46FFF712FF67
:103DA00094F94400401C10B9002084F8440094F9B0
:103DB0004500401C10B9002084F84500FFF72CFF97
:103DC000A06B28B93A46314604F1240000F0D0F83F
:103DD0002046FFF7E8FCBDE8F081000070B504461E
:103DE0000025D4B11248006808B9012000E0002085
:103DF00050B900BF502080F31188BFF34F8FBFF33D
:103E00006F8F00BF00BFFEE700F08CF90021204655
:103E1000FEF7F0FF00F02EFF05463DB94FF0805051
:103E200004490860BFF34F8FBFF36F8F70BD000070
:103E30005C00002004ED00E070B50546FFF7C2FE0F
:103E400015B93048006800E028460446201DFFF7F9
:103E50005BFE78B9E06A00EB80002B4951F8200046
:103E600040B994F82C100120884028490968814302
:103E700026480160A06A18B104F11800FFF744FE5B
:103E800023480068401C224908601E48006884429C
:103E900009D1211D1F48FFF789FE1F480068401CFB
:103EA0001D49086009E01D480068401E1B49086064
:103EB0002046FFF7FEF8FFF7BDFBFFF7ADFE184801
:103EC0000068E8B10F480068844219D115480068BD
:103ED00008B9012000E0002050B900BF502080F355
:103EE0001188BFF34F8FBFF36F8F00BF00BFFEE796
:103EF0004FF080500C490860BFF34F8FBFF36F8FB6
:103F000070BD000024000020FC0000203C000020C8
:103F100050000020B80300203000002034000020B2
:103F2000400000205C00002004ED00E00120014979
:103F3000086070474800002070B504460D4654B92B
:103F400000BF502080F31188BFF34F8FBFF36F8FF6
:103F500000BF00BFFEE70548016818312046FFF7A3
:103F60000BFE01212846FEF745FF70BD240000200E
:103F700070B505460E46144655B900BF502080F373
:103F80001188BFF34F8FBFF36F8F00BF00BFFEE7F5
:103F90000648016818312846FFF708FE0CB14FF0BB
:103FA000FF3621463046FEF725FF70BD2400002075
:103FB00070B505462C46002D4BD02649E06A0968AD
:103FC000C96A884245D2A06900F0004028B921485A
:103FD0000068C06AC0F12000A061E16A01EB8101C4
:103FE0001D4A02EB81016069884201D1012000E095
:103FF000002050B3201DFFF787FD78B9E06A00EB81
:104000008000154951F8200040B994F82C10012087
:104010008840124909688143104801600D480068D2
:10402000C06AE06294F82C10012088400B490968AE
:1040300008430A490860E16A01EB8101064A02EB84
:104040008100211DFFF7B2FD03E002480068C06A4D
:10405000E06270BD24000020FC0000203C00002035
:1040600050B900BF502181F31188BFF34F8FBFF3C8
:104070006F8F00BF00BFFEE7034909680160034975
:1040800009684160704700004C00002038000020A3
:104090001CB51D4800210B468022CDE900101BA154
:1040A0001C4800F04DFC0446012C02D100F064FED7
:1040B0000446012C15D100BF502080F31188BFF3B6
:1040C0004F8FBFF36F8F00BF4FF0FF301249086072
:1040D00001201249086000201149086000F070F8C2
:1040E00010E0601C08B1012000E0002050B900BFC2
:1040F000502080F31188BFF34F8FBFF36F8F00BF45
:1041000000BFFEE71CBD00005800002049444C459C
:104110000000000069310008540000204000002029
:104120003800002002480068401C014908607047C0
:104130005C0000201D48006818B101201C4908607F
:1041400032E000201A4908601A480068B0FA80F08E
:10415000C0F11F0101EB8100174A52F8200008B19D
:10416000012000E0002050B900BF502080F31188EA
:10417000BFF34F8FBFF36F8F00BF00BFFEE701EBB0
:1041800081020D4B03EB820042685268426000F1ED
:1041900008024368934202D1426852684260426812
:1041A000D268064B1A6000BF704700005C00002018
:1041B000480000203C000020FC00002024000020DB
:1041C0001CB5474800684749884201D0012000E0FB
:1041D000002050B900BF502080F31188BFF34F8FEB
:1041E000BFF36F8F00BF00BFFEE73D4800683D4949
:1041F000491E884201D0012000E0002050B900BFD4
:10420000502080F31188BFF34F8FBFF36F8F00BF33
:1042100000BFFEE73449084600780190FF200A46B7
:1042200010700846007800909DF8000000F0F00043
:104230009DF80020904201D1012000E0002050B9FB
:1042400000BF502080F31188BFF34F8FBFF36F8FF3
:1042500000BF00BFFEE79DF8000000F05000234AB9
:1042600010700720224A106009E021480068401EB3
:104270001F4A10609DF800004006000E00909DF857
:10428000000000F080008028EFD01948006800028C
:10429000174A10601046008800F4E0601060124A6F
:1042A000019810700E482030006840F470000C49EE
:1042B000203108600846006840F070400860FFF751
:1042C00013FD00200B490860FBF79AFF0A480068BD
:1042D00040F0404008490860FBF782FF00201CBD09
:1042E00000ED00E071C20F4100E400E0900000200A
:1042F000940000208C00002034EF00E010B500BFD7
:10430000502080F31188BFF34F8FBFF36F8F00BF32
:1043100000F05CFB18B14FF080500449086000BF0A
:10432000002080F3118800BF10BD000004ED00E004
:104330002DE9F84305460E4690460DB1012000E0F8
:10434000002050B900BF502080F31188BFF34F8F79
:10435000BFF36F8F00BF00BFFEE70EB9002701E07B
:1043600005FB06F707F15400FFF766FA044644B16F
:1043700004F1540943464A46314628460094FEF764
:1043800007FF2046BDE8F8832DE9FF4782B00546C8
:104390000E461F464FF0000A2C4654B900BF50206D
:1043A00080F31188BFF34F8FBFF36F8F00BF00BF43
:1043B000FEE70EB9206C08B9012000E0002050B9DA
:1043C00000BF502080F31188BFF34F8FBFF36F8F72
:1043D00000BF00BFFEE700F0E3FA08B9049808B98F
:1043E000012000E0002050B900BF502080F3118868
:1043F000BFF34F8FBFF36F8F00BF00BFFEE700BF5B
:10440000FFF7E0FBD4F83890B9F1000F3DD0D4F8B5
:104410000C8031462046FEF7F9FDDFB9A9F1010015
:10442000A063206810B9FFF7A5FA6060206908B999
:10443000012000E0002010BB04F1100000F0CEFBD2
:10444000E8B14FF0805040490860BFF34F8FBFF391
:104450006F8F14E0C4F80C80606A08B9012000E096
:10446000002060B904F1240000F0B8FB38B14FF02F
:10447000805035490860BFF34F8FBFF36F8FFFF750
:10448000CBFB012006B0BDE8F087049818B9FFF710
:10449000C3FB0020F6E7BAF1000F04D16846FFF72E
:1044A000DFFD4FF0010AFFF7B7FBFFF73BFEFFF719
:1044B00089FB94F94400401C10B9002084F84400A2
:1044C00094F94500401C10B9002084F84500FFF71E
:1044D000A3FB04A9684600F0EDF940BB2046FEF7B7
:1044E0005DFFF0B1206830B9FFF76CFB6068FFF743
:1044F0005FFDFFF791FB04F124000499FFF71CFD19
:104500002046FFF750F900F0B5FB00287FF478AFA4
:104510004FF080500C490860BFF34F8FBFF36F8F8F
:104520006EE72046FFF73FF900F0A4FB68E720465E
:10453000FFF739F900F09EFB2046FEF72FFF002819
:10454000EED000209EE7000004ED00E070B50546C7
:104550000E462C4654B900BF502080F31188BFF39B
:104560004F8FBFF36F8F00BF00BFFEE7FFF72AFB3F
:10457000D4E90F12206801FB020060600020A063F4
:104580002068A060E06B401E226C216800FB0210D6
:10459000E060FF2084F8440084F845009EB920695B
:1045A00008B9012000E00020A8B904F1100000F0D3
:1045B00015FB80B14FF0805009490860BFF34F8F61
:1045C000BFF36F8F07E004F11000FFF7C5FA04F1A5
:1045D0002400FFF7C1FAFFF71FFB012070BD0000A8
:1045E00004ED00E02DE9FF4383B0064688461D46F2
:1045F0004FF00009344654B900BF502080F31188B1
:10460000BFF34F8FBFF36F8F00BF00BFFEE7B8F15E
:10461000000F01D1206C08B9012000E0002050B942
:1046200000BF502080F31188BFF34F8FBFF36F8F0F
:1046300000BF00BFFEE7022D02D1E06B012801D1CF
:10464000012000E0002050B900BF502080F3118805
:10465000BFF34F8FBFF36F8F00BF00BFFEE700F0C7
:104660009FF908B9059808B9012000E0002050B969
:1046700000BF502080F31188BFF34F8FBFF36F8FBF
:1046800000BF00BFFEE700BFFFF79CFAA06BE16B25
:10469000884201D3022D38D12A4641462046FEF7F2
:1046A000CAFC0746A06C68B129462046FEF792FE78
:1046B00028B34FF080503C490860BFF34F8FBFF3E1
:1046C0006F8F1CE0606A08B9012000E0002068B923
:1046D00004F1240000F082FA88B14FF08050324992
:1046E0000860BFF34F8FBFF36F8F08E03FB14FF00B
:1046F00080502D490860BFF34F8FBFF36F8FFFF7D6
:104700008BFA012007B0BDE8F083059818B9FFF7D0
:1047100083FA0020F6E7B9F1000F04D101A8FFF7F2
:104720009FFC4FF00109FFF777FAFFF7FBFCFFF75B
:1047300049FA94F94400401C10B9002084F8440060
:1047400094F94500401C10B9002084F84500FFF79B
:1047500063FA05A901A800F0ADF8F0B92046FEF70C
:104760002AFEA0B104F110000599FFF7E5FB2046F1
:10477000FFF719F800F07EFA002885D14FF080503D
:1047800009490860BFF34F8FBFF36F8F7CE7204666
:10479000FFF709F800F06EFA76E72046FFF703F816
:1047A00000F068FA0020ADE704ED00E02DE9F05FCD
:1047B00080468A4615461E46444654B900BF5020DE
:1047C00080F31188BFF34F8FBFF36F8F00BF00BF1F
:1047D000FEE7BAF1000F01D1206C08B9012000E01A
:1047E000002050B900BF502080F31188BFF34F8FD5
:1047F000BFF36F8F00BF00BFFEE7022E02D1E06B58
:10480000012801D1012000E0002050B900BF502054
:1048100080F31188BFF34F8FBFF36F8F00BF00BFCE
:10482000FEE7FFF763FA00BF5021EFF3118081F339
:104830001188BFF34F8FBFF36F8F00BF0746A06B88
:10484000E16B884201D3022E2BD194F945B0324658
:1048500051462046FEF7EFFB0BF10100C8B9A06CF2
:1048600040B131462046FEF7B5FDB8B1B5B10120E3
:10487000286013E0606A08B9012000E0002068B9F0
:1048800004F1240000F0AAF940B13DB101202860F4
:1048900004E00BF1010040B284F845004FF001093B
:1048A00001E04FF0000900BF87F3118800BF4846C0
:1048B000BDE8F09F70B504460D4654B900BF5020C6
:1048C00080F31188BFF34F8FBFF36F8F00BF00BF1E
:1048D000FEE755B900BF502080F31188BFF34F8F1A
:1048E000BFF36F8F00BF00BFFEE7FFF76BF9124801
:1048F00003682868401C08B9002619E00F492068A1
:104900000968884204D06068984201D801260FE007
:104910006068181A2968884209D228686168591A9B
:10492000401A28602046FFF79BFB002600E0012686
:10493000FFF772F9304670BD380000204C000020AF
:104940002DE9FF4F85B0804689461746DDE912AB59
:10495000B800FEF771FF064656B15C20FEF76CFF0B
:1049600004460CB1266304E03046FFF773F900E01B
:1049700000247CB10020CDE900ABCDE902403A46ED
:1049800049464046089BFEF71AFC2046FEF77EFA91
:10499000012501E04FF0FF35284609B0BDE8F08F52
:1049A0000549096809B9012005E00449096809B900
:1049B000022000E000207047400000205C00002042
:1049C0000149086870470000380000202DE9F041D7
:1049D0004FF0000844480068002877D14348006839
:1049E000451C4248056015BB41480068006808B98D
:1049F000012000E0002050B900BF502080F3118852
:104A0000BFF34F8FBFF36F8F00BF00BFFEE7384883
:104A100007683848006836490860364807603648F5
:104A20000068401C34490860FEF704FE00BF3348AC
:104A3000006885423CD300BF2D480068006808B973
:104A4000012000E0002020B14FF0FF302B4908602A
:104A50002DE027480068C068C4686668B54202D285
:104A60002648066023E0201DFFF74EF8A06A18B123
:104A700004F11800FFF748F894F82C100120884042
:104A80001F49096808431E490860E16A01EB81017A
:104A90001C4A02EB8100211DFFF788F81A49E06AE1
:104AA0000968C96A8842C7D34FF00108C4E700BF4C
:104AB00015480068C06A00EB8000124951F82000D8
:104AC000012801D94FF0010805E0FFE70F48006811
:104AD000401C0E4908600E48006808B14FF00108FC
:104AE0004046BDE8F08100005C0000203800002056
:104AF000280000202C0000204C0000205400002042
:104B00003C000020FC000020240000204400002085
:104B10004800002070B505462C460026002D55D0D3
:104B20002B480068844201D1012000E0002050B9E8
:104B300000BF502080F31188BFF34F8FBFF36F8FFA
:104B400000BF00BFFEE7206D50B900BF502080F3CA
:104B50001188BFF34F8FBFF36F8F00BF00BFFEE719
:104B6000206D401E2065E16CE06A88422ED0206DE9
:104B700060BB201DFEF7C8FF78B9E06A00EB80003B
:104B8000144951F8200040B994F82C1001208840B5
:104B900011490968814310480160E06CE062E06AF5
:104BA000C0F12000A06194F82C10012088400A492F
:104BB0000968084308490860E16A01EB8101054A78
:104BC00002EB8100211DFEF7F1FF0126304670BD8A
:104BD00024000020FC0000203C00002070B50646A8
:104BE000F068C46854B900BF502080F31188BFF347
:104BF0004F8FBFF36F8F00BF00BFFEE704F11800B7
:104C0000FEF782FF15480068A8B9201DFEF77CFF5B
:104C100094F82C1001208840114909680843104974
:104C20000860E16A01EB81010E4A02EB8100211D5F
:104C3000FEF7BCFF04E004F118010B48FEF7B6FFD5
:104C40000A49E06A0968C96A884204D90125012035
:104C50000749086000E00025284670BD5C00002080
:104C60003C000020FC000020A403002024000020C1
:104C70004800002070B5002400263648006850B96E
:104C800000BF502080F31188BFF34F8FBFF36F8FA9
:104C900000BF00BFFEE7FEF795FF2E480068401EEC
:104CA0002C4908600846006800284FD12A4800684F
:104CB00000284BD024E02948C068C46804F11800DB
:104CC000FEF722FF201DFEF71FFF94F82C10012095
:104CD000884023490968084321490860E16A01EBDB
:104CE0008101204A02EB8100211DFEF75FFF1E4972
:104CF000E06A0968C96A884202D301201B4908603A
:104D00001648006808B9012000E000200028D2D031
:104D10000CB1FEF78FFC1648056865B100BFFFF7C0
:104D200055FE10B10120114908606D1E002DF6D10D
:104D300000200F4908600D48006838B1012630078F
:104D40000C490860BFF34F8FBFF36F8FFEF764FF0E
:104D5000304670BD5C00002034000020A403002019
:104D60003C000020FC00002024000020480000201F
:104D70004400002004ED00E01CB50024FEF7E2F83A
:104D80000D48006850B10D4802210023CA01CDE949
:104D900000100BA10C48FFF7D3FD044654B900BF27
:104DA000502080F31188BFF34F8FBFF36F8F00BF88
:104DB00000BFFEE720461CBD680000206C000020FC
:104DC000546D7220537663008D3700082DE9FE4341
:104DD00004460D4616461F46DDF828804FF00009B0
:104DE00054B900BF502080F31188BFF34F8FBFF339
:104DF0006F8F00BF00BFFEE71448006810B3009536
:104E000001960294062D15DAFFF7CAFD022808D193
:104E10000023424669460D480068FFF7E3FB8146E0
:104E200010E000231A46694608480068FFF7DAFBDD
:104E3000814607E000233A46694604480068FFF7C8
:104E4000B5FC81464846BDE8FE83000068000020AE
:104E50000000614400000000000000007C4E0008DB
:104E600000000020BC0000005E260008384F00084B
:104E7000BC000020F40902006E2600080095BA0A62
:104E800000000000000000000102030406070809FA
:104E900000000000010203040102030406070809E0
:104EA0000000000000000000000000000000000002
:104EB00000000000000000000000000000000000F2
:104EC00000000000000000000000000000000000E2
:104ED00000000000000000000000000000000000D2
:104EE00000000000000000000000000000000000C2
:104EF00000000000000000000000000000000000B2
:104F00000000000000000000AAAAAAAA00000000F9
:104F10000000000000000000000000000000000091
:104F20000000000000000000000000000000000081
:084F3000000000000000000079
:04000005080001AD41
:00000001FF
