:020000040800F2
:1000000080070020C95300089D5100089F51000837
:10001000A3510008A7510008AB51000800000000E0
:10002000000000000000000000000000AF510008C8
:10003000B151000800000000B3510008B55100089C
:10004000E3530008E3530008E3530008E3530008B8
:10005000E3530008E3530008E3530008E3530008A8
:10006000E3530008BD7C0008E3530008E353000895
:10007000E3530008E3530008E3530008E353000888
:10008000E3530008E3530008E3530008E353000878
:10009000E3530008E3530008E3530008E353000868
:1000A000E3530008E3530008E3530008E353000858
:1000B000E3530008E3530008E3530008E353000848
:1000C000E3530008E3530008E3530008E353000838
:1000D000E3530008E3530008E3530008C774000823
:1000E000E3530008E3530008E3530008E353000818
:1000F000E3530008E3530008E3530008E353000808
:10010000E3530008E3530008E3530008E3530008F7
:10011000E3530008E3530008E35300083973000871
:10012000E3530008E3530008E3530008E3530008D7
:10013000E3530008E3530008E3530008E3530008C7
:10014000E3530008E3530008E3530008E3530008B7
:10015000E3530008E3530008E3530008E3530008A7
:10016000E3530008E3530008E3530008E353000897
:10017000E3530008E3530008E3530008E353000887
:10018000E3530008E353000800F002F800F03CF8E5
:100190000AA090E8000C82448344AAF10107DA45E2
:1001A00001D100F031F8AFF2090EBAE80F0013F0F8
:1001B000010F18BFFB1A43F0010318479C80000091
:1001C000BC800000103A24BF78C878C1FAD8520722
:1001D00024BF30C830C144BF04680C6070470000C1
:1001E0000023002400250026103A28BF78C1FBD840
:1001F000520728BF30C148BF0B6070471FB508F0D9
:1002000025F81FBD10B510BD07F069FD1146FFF7B9
:10021000F5FF00F0AFFA07F087FD03B4FFF7F2FF38
:1002200003BC07F08FFD000010B50446052C24D256
:10023000DFE804F0030910161D004FF4AF61481009
:1002400007F06EF91FE040F214514FF47A7007F096
:1002500067F918E04FF49661084607F061F912E07B
:100260004FF47A7140F2145007F05AF90BE04FF452
:100270002F71480007F054F905E04FF496610846E5
:1002800007F04EF900BF00BF10BD10B50446052CA5
:1002900026D2DFE804F0030A11171E004FF42F7175
:1002A0004FF4966007F03CF920E04FF4617140F2A2
:1002B0004C4007F035F919E04FF47A71084607F021
:1002C0002FF913E04FF496614FF4617007F028F9AD
:1002D0000CE040F24C414FF42F7007F021F905E09B
:1002E0004FF47A71084607F01BF900BF00BF10BD3C
:1002F00010B52DED028BB0EE408AF0EE608A00243E
:1003000061E0F84800EBC40090ED001BB0EE410A3C
:10031000F0EE610A53EC102B51EC180B07F0A0FE25
:10032000F04A02EBC40203C2EE4800EBC40090EDB9
:10033000001BB0EE410AF0EE610A9FEDEB1B53EC9F
:10034000112B51EC100B07F055FE14D2E54800EBD1
:10035000C40090ED001BB0EE410AF0EE610A9FED83
:10036000E41B53EC112B51EC100B07F085FEDD4A1A
:1003700002EBC40203C2DB4800EBC40090ED001B9B
:10038000B0EE410AF0EE610A9FEDDB1B53EC112B3E
:1003900051EC100B07F09EFD14D8D24800EBC400BE
:1003A00090ED001BB0EE410AF0EE610A9FEDD01B0C
:1003B00053EC112B51EC100B07F0D8FCC94A02EB9F
:1003C000C40203C2641C082C9BDBBDEC028B10BD75
:1003D00010B52DED068BB0EE408AF0EE608A9FEDF1
:1003E000C80BC94880ED000BB0EE489AF0EE689A51
:1003F0009FEDC30B53EC102B51EC180B07F0FAFDDB
:1004000069D266E04021C14805F0DEF9C0490860C4
:100410008021BE4805F0D8F9BE4908604FF48071CC
:10042000BA4805F0D1F9BC4908604FF40071B748EB
:1004300005F0CAF9B94908604FF48061B34805F086
:10044000C3F9B74908604FF40061B04805F0BCF942
:10045000B44908600221AD4805F0B6F9B249086018
:100460000421AA4805F0B0F9B04908600821A7485E
:1004700005F0AAF9AE4908604FF48061AD4805F077
:10048000BDF94FF40071AB4805F0BAF94FF40061C3
:10049000A84805F0B3F94FF48051A64805F0B0F92B
:1004A0004FF44871A44806F004F84FF44871480628
:1004B00006F001F8944890ED000B53EC102B51EC32
:1004C000180B07F007FD04D291480068012800D1FD
:1004D00000E097E779E09FED8A0B53EC102B51EC8D
:1004E000180B07F0F7FC70D26CE04021874805F04C
:1004F0006BF9874908608021844805F065F98549D2
:1005000008604FF48071814805F05EF98249086007
:100510004FF400717D4805F057F9804908604FF4A9
:1005200080617A4805F050F97D4908604FF4006118
:10053000764805F049F97B4908600221734805F0C7
:1005400043F9794908600421704805F03DF977497D
:10055000086008216D4805F037F9754908604FF4C7
:100560000071744805F04AF94FF48061714805F054
:1005700047F94FF480516F4805F040F94FF400619E
:100580006C4805F03DF94FF448716B4805F091FF58
:100590004FF44871480605F08EFF51EC180B07F038
:1005A000D8FB41EC1A0B584890ED000B53EC102B84
:1005B00051EC1A0B07F08EFC04D255480068012854
:1005C00000D101E091E700E000BF9FED4D0B4E48E8
:1005D00080ED000B20E04FF40071564805F010F953
:1005E0004FF48061534805F00BF94FF480515148A6
:1005F00005F006F94FF400614E4805F001F99FED52
:100600004F0B53EC102B404890ED000B51EC100BAE
:1006100007F0F0FC00D200E0DDE700BFB0EE490AD1
:10062000F0EE690AFFF764FEBDEC068B10BD70B5F5
:1006300004460D460A2C42D2DFE804F0050B1117E0
:100640001D23292F353B4FF42F713E4805F031FF14
:1006500036E040F6FC013B4805F02BFF30E040F26D
:100660006C71384805F025FF2AE040F2DC5135482E
:1006700005F01FFF24E040F24C41324805F019FF1D
:100680001EE04FF4C8612F4805F013FF18E04FF447
:100690007A712C4805F00DFF12E040F2A461294860
:1006A00005F007FF0CE040F69801264805F001FF31
:1006B00006E040F22A31234805F0FBFE00E000BFCF
:1006C00000BF052C53D2DFE804F0030843484D0077
:1006D00029461D4805F0EFFE4AE029461B4805F073
:1006E000E8FE45E04000002000000000000000405F
:1006F000000000000000104000000000000000C0EA
:100700000000000000000000E0000020000802409F
:100710000000002004000020080000200C00002041
:100720001000002014000020180000201C000020F1
:100730002000002000100240000C004000000000DB
:100740000000E03F001800400004004000080040A6
:100750002946FE4805F0AFFE0AE02946FB4805F0B1
:10076000ACFE05E02946F94805F0A9FE00E000BF0F
:1007700000BF70BD4FF4A06004F046FE542006F0A8
:1007800079FC07F05FFA06F0BEFD06F0B0FE01212D
:10079000084607F0D5F8012141F2873006F0ECFC5D
:1007A000012141F2873006F034FD532144F61F60E9
:1007B00006F0DAFEA72144F61F6006F021FFA7210C
:1007C00044F61F6006F067FF532144F61F6007F0F0
:1007D0005CF8532144F61F6006F0A9FF532142F252
:1007E0000F7006F064FD40F26C71D94805F061FEAF
:1007F0004FF4FA61D74805F05EFE4FF4FA61D34832
:1008000005F057FE4FF4FA61D04805F054FE4FF45E
:10081000FA61CE4805F051FE4FF4FA61CB4805F07D
:100820004EFE4FF47A71CC4805F043FE40F2DC51A5
:10083000CA4805F03EFE4FF4FA6006F07DFC04F075
:100840008EBC1FED510BC64880ED000BF9E0402136
:10085000C44804F0B9FFC44908608021C14804F0CD
:10086000B3FFC24908604FF48071BE4804F0ACFF8A
:10087000BF4908604FF40071BA4804F0A5FFBD49B4
:1008800008604FF48061B74804F09EFFBA490860E1
:100890004FF40061B34804F097FFB84908600221A3
:1008A000B04804F091FFB64908600421AD4804F057
:1008B0008BFFB44908600821AA4804F085FFB249BB
:1008C00008604FF40071B14804F098FF4FF4806164
:1008D000AE4804F095FF4FF40061AC4804F08EFF81
:1008E0004FF48051A94804F08BFFA148006801280B
:1008F00008D19D48006828B99C48006810B90020BC
:10090000A34908609A480068012809D19648006800
:10091000012805D19548006810B901209C4908605C
:100920009348006848B990480068012805D18F486D
:10093000006810B90220964908608D48006850B9D7
:1009400089480068012806D188480068012802D13A
:1009500003208F4908608648006848B982480068CB
:1009600030B982480068012802D104208849086013
:100970007F48006801280AD17B480068012806D119
:100980007A480068012802D1022081490860804825
:100990000068FFF749FC4FF4FA610220FFF747FEB9
:1009A0009FED7C0B53EC102B6D4890ED000B51EC40
:1009B000100B07F01FFB44D273480068012840D198
:1009C00006F0BAFB4021674804F0FEFE6649086065
:1009D0008021644804F0F8FE644908604FF4807197
:1009E000604804F0F1FE624908604FF400715D4810
:1009F00004F0EAFE5F4908604FF48061594804F052
:100A0000E3FE5D4908604FF40061564804F0DCFEE7
:100A10005A4908600221534804F0D6FE584908603C
:100A20000421504804F0D0FE5649086008214D4882
:100A300004F0CAFE5449086008460068012800D145
:100A400000E004E700BF1FEDD20B454880ED000B2E
:100A500020E04FF400714D4804F0D2FE4FF4806165
:100A60004A4804F0CDFE4FF48051484804F0C8FED7
:100A70004FF40061454804F0C3FE9FED480B53EC72
:100A8000102B374890ED000B51EC100B07F0B2FA29
:100A900000D200E0DDE700BF4FF4FA710720FFF756
:100AA000C6FD4FF47A7006F047FB1FEDEB0B2C48A8
:100AB00080ED000B27E140212A4804F085FE2A49F9
:100AC00008608021274804F07FFE284908604FF421
:100AD0008071244804F078FE254908604FF40071C5
:100AE000204804F071FE234908604FF480611D48DE
:100AF00004F06AFE204908604FF40061194804F0D0
:100B000063FE1E4908600221164804F05DFE1C4980
:100B100008600421134804F057FE1A4908600821B0
:100B2000104804F051FE184908604FF480611748DE
:100B300004F064FE4FF40071144804F061FE4FF4B9
:100B40008051124804F05AFE2CE0000000080040DA
:100B500000180040000400400048014000400140EF
:100B6000E0000020000802400000002004000020F7
:100B7000080000200C0000201000002014000020BD
:100B8000180000201C00002020000020001002405F
:100B90002800002000000000000008409A99999960
:100BA0009999B93F4FF40061F74804F029FEF748DE
:100BB0000068012808D1F648006828B9F54800689F
:100BC00010B90020F4490860F0480068012809D1F4
:100BD000EF480068012805D1EE48006810B90120EF
:100BE000ED490860E948006848B9E948006801280B
:100BF00005D1E848006810B90220E7490860E348D9
:100C0000006850B9E2480068012806D1E148006850
:100C1000012802D10320E0490860DC48006848B997
:100C2000DB48006830B9DB480068012802D10420A5
:100C3000D9490860D548006801280AD1D44800681D
:100C4000012806D1D3480068012802D10220D249E8
:100C50000860D1480068FFF718FB4FF4FA710720CD
:100C6000FFF7E5FC9FEDCD0B53EC102BCD4890ED3D
:100C7000000B51EC100B07F0BDF944D2CA480068D4
:100C8000012840D106F058FA4021C84804F09CFDE4
:100C9000C74908608021C54804F096FDC549086031
:100CA0004FF48071C14804F08FFDC34908604FF4D0
:100CB0000071BE4804F088FDB54908604FF48061BA
:100CC000BA4804F081FDB34908604FF40061B748A9
:100CD00004F07AFDAD4908600221B44804F074FDC7
:100CE000B14908600421B14804F06EFDB3490860C1
:100CF0000821AE4804F068FDB1490860AA480068C0
:100D0000012800D100E0D6E600BF9FEDAE0BA5485C
:100D100080ED000B20E04FF400719B4804F070FD63
:100D20004FF48061984804F06BFD4FF48051964871
:100D300004F066FD4FF40061934804F061FD9FEDFF
:100D4000970B53EC102B974890ED000B51EC100BC8
:100D500007F050F900D200E0DDE700BF06F0D9FE51
:100D60009A4908609A4890ED0C1BB0EE410AF0EEEB
:100D7000610AFFF72DFB9FED930B8A4880ED000B76
:100D8000F9E04021894804F01FFD8949086080216D
:100D9000864804F019FD874908604FF48071834844
:100DA00004F012FD844908604FF400717F4804F09C
:100DB0000BFD774908604FF480617C4804F004FD26
:100DC000744908604FF40061784804F0FDFC6F49F5
:100DD00008600221754804F0F7FC7349086004219B
:100DE000724804F0F1FC7549086008216F4804F06E
:100DF000EBFC734908604FF40071634804F0FEFC9B
:100E00004FF48061604804F0FBFC4FF400615E48E1
:100E100004F0F4FC4FF480515B4804F0F1FC6648A8
:100E20000068012808D16248006828B96148006854
:100E300010B90020584908605F480068012809D1AE
:100E40005B480068012805D15A48006810B90120A4
:100E5000514908605848006848B955480068012859
:100E600005D15448006810B902204B490860524827
:100E7000006850B94E480068012806D14D48006806
:100E8000012802D10320444908604B48006848B952
:100E90004748006830B947480068012802D104205B
:100EA0003D4908604448006801280AD1404800686C
:100EB000012806D13F480068012802D102203649A6
:100EC000086035480068FFF7AFF94FF4FA61042075
:100ED000FFF7ADFB9FED310B53EC102B314890ED3C
:100EE000000B51EC100B07F085F844D23448006831
:100EF000012840D106F020F940212C4804F064FC80
:100F00002B4908608021294804F05EFC29490860CB
:100F10004FF48071254804F057FC274908604FF4CE
:100F20000071224804F050FC194908604FF48061B8
:100F30001E4804F049FC174908604FF400611B4843
:100F400004F042FC114908600221184804F03CFCFE
:100F5000154908600421154804F036FC174908605B
:100F60000821124804F030FC154908600846006862
:100F7000012800D100E004E700BF9FED120B0948F3
:100F800080ED000B47E0000000100240140000203C
:100F90000C00002010000020280000209A99999948
:100FA0009999C93FE0000020180000200008024085
:100FB0000000002004000020080000201C00002089
:100FC000200000200000000000000000FC000020C5
:100FD000400000204FF40071FE4804F011FC4FF473
:100FE0008061FC4804F00CFC4FF48051F94804F097
:100FF00007FC4FF40061F74804F002FC9FEDF60B8C
:1010000053EC102BF64890ED000B51EC100B06F052
:10101000F1FF00D200E0DDE700BF4FF4FA710920D4
:10102000FFF705FB4FF47A7006F086F81FED1B0BF7
:10103000EB4880ED000BF9E04021EA4804F0C4FBE6
:10104000E94908608021E74804F0BEFBE7490860F1
:101050004FF48071E34804F0B7FBE54908604FF4B2
:101060000071E04804F0B0FBE24908604FF4806191
:10107000DC4804F0A9FBE04908604FF40061D9485E
:1010800004F0A2FBDD4908600221D64804F09CFB75
:10109000DB4908600421D34804F096FBD949086075
:1010A0000821D04804F090FBD74908604FF48061D4
:1010B000C84804F0A3FB4FF40071C64804F0A0FB3D
:1010C0004FF48051C34804F099FB4FF40061C148CC
:1010D00004F096FBC9480068012808D1C54800689B
:1010E00028B9C548006810B90020C8490860C3483D
:1010F0000068012809D1BF480068012805D1BE4811
:10110000006810B90120C1490860BC48006848B9AE
:10111000B8480068012805D1B748006810B9022016
:10112000BA490860B548006850B9B248006801285B
:1011300006D1B1480068012802D10320B3490860F4
:10114000AE48006848B9AB48006830B9AA480068A2
:10115000012802D10420AD490860A8480068012890
:101160000AD1A4480068012806D1A34800680128D4
:1011700002D10220A5490860A4480068FFF785F85D
:101180004FF4FA710920FFF752FA1FED7C0B53EC74
:10119000102B934890ED000B51EC100B06F02AFF3A
:1011A00044D297480068012840D105F0C5FF40218E
:1011B0008C4804F009FB8C4908608021894804F0C0
:1011C00003FB8A4908604FF48071864804F0FCFAFA
:1011D000874908604FF40071824804F0F5FA8549A8
:1011E00008604FF480617F4804F0EEFA824908609D
:1011F0004FF400617B4804F0E7FA8049086002215F
:10120000784804F0E1FA7E4908600421754804F04A
:10121000DBFA7C4908600821724804F0D5FA7A4963
:10122000086077480068012800D100E004E700BFAB
:101230001FED9C0B6A4880ED000B20E04FF400711D
:10124000644804F0DDFA4FF48061624804F0D8FA93
:101250004FF480515F4804F0D3FA4FF400615D48C9
:1012600004F0CEFA1FEDB30B53EC102B5C4890ED5D
:10127000000B51EC100B06F0BDFE00D200E0DDE7E4
:1012800000BF06F046FC62498860624890ED041B8E
:10129000B0EE410AF0EE610AFFF79AF81FEDB70BC6
:1012A0004F4880ED000B1CE140214E4804F08CFAC1
:1012B0004D49086080214B4804F086FA4B4908608C
:1012C0004FF48071474804F07FFA494908604FF4B1
:1012D0000071444804F078FA464908604FF4806190
:1012E000404804F071FA444908604FF400613D48F9
:1012F00004F06AFA4149086002213A4804F064FAAD
:101300003F4908600421374804F05EFA3D4908600F
:101310000821344804F058FA3B4908604FF4007142
:101320002C4804F06BFA4FF480612A4804F068FA04
:101330004FF40061274804F061FA4FF480512548CA
:1013400004F05EFA2A480068012808D1264800689F
:1013500028B92648006810B900202C4908602448A4
:101360000068012809D120480068012805D11F48DC
:10137000006810B90120254908601D48006848B977
:1013800019480068012805D11848006810B90220E2
:101390001E4908601648006850B9134800680128C3
:1013A00006D112480068012802D1032017490860BD
:1013B0000F48006848B90C48006830B90B4800680D
:1013C000012802D104201149086009480068012859
:1013D0002DD121E000100240333333333333D33F78
:1013E000E00000200008024000000020040000206F
:1013F000080000200C000020100000201400002035
:10140000180000201C0000202000002028000020E0
:10141000FC00002040000020FE480068012806D1A2
:10142000FD480068012802D10220FC490860FB4801
:101430000068FEF7F9FE4FF4FA610020FFF7F7F8B5
:101440009FEDF70B53EC102BF74890ED000B51EC90
:10145000100B06F0CFFD44D2F4480068012840D1BB
:1014600005F06AFE4021F24804F0AEF9E94908604F
:101470008021EF4804F0A8F9E74908604FF4807133
:10148000EB4804F0A1F9EB4908604FF40071E8481B
:1014900004F09AF9E84908604FF48061E44804F0E8
:1014A00093F9E64908604FF40061E14804F08CF9D3
:1014B000E34908600221DE4804F086F9E14908604A
:1014C0000421DB4804F080F9DF4908600821D8488E
:1014D00004F07AF9D549086008460068012800D16F
:1014E00000E0E1E600BF9FEDD90BCF4880ED000B97
:1014F00020E04FF40071D74804F082F94FF4806186
:10150000D44804F07DF94FF48051D24804F078F9C2
:101510004FF40061CF4804F073F99FEDCF0B53EC0B
:10152000102BC14890ED000B51EC100B06F062FD42
:1015300000D200E0DDE700BF4FF4FA710520FFF7AD
:1015400076F84FF47A7005F0F7FD9FEDC00BB648C2
:1015500080ED000BF9E04021B54804F035F9AD49C4
:1015600008608021B24804F02FF9AB4908604FF4BD
:101570008071AF4804F028F9AE4908604FF400715B
:10158000AB4804F021F9AC4908604FF48061A848E9
:1015900004F01AF9A94908604FF40061A44804F066
:1015A00013F9A74908600221A14804F00DF9A549E3
:1015B000086004219E4804F007F9A3490860082147
:1015C0009B4804F001F9994908604FF48061A148F3
:1015D00004F014F94FF400719E4804F011F94FF42F
:1015E00080519C4804F00AF94FF40061994804F0D6
:1015F00007F993480068012808D18F48006828B986
:101600008E48006810B90020844908608C48006842
:10161000012809D188480068012805D18748006859
:1016200010B901207D4908608548006848B98248A2
:101630000068012805D18148006810B90220774967
:1016400008607F48006850B97B480068012806D1CF
:101650007A480068012802D1032070490860784860
:10166000006848B97448006830B9744800680128B7
:1016700002D10420694908607148006801280AD134
:101680006D480068012806D16C480068012802D125
:1016900002206249086061480068FEF7F6FD4FF4D9
:1016A000FA710520FEF7C3FF9FED5D0B53EC102B85
:1016B0005D4890ED000B51EC100B06F09BFC44D202
:1016C00060480068012840D105F036FD40215848A7
:1016D00004F07AF84F4908608021554804F074F806
:1016E0004D4908604FF48071514804F06DF851493C
:1016F00008604FF400714E4804F066F84E490860E7
:101700004FF480614A4804F05FF84C4908604FF498
:101710000061474804F058F84949086002214448EC
:1017200004F052F8474908600421414804F04CF89D
:101730004549086008213E4804F046F83B490860E6
:1017400040480068012800D100E004E700BF9FED99
:101750003F0B354880ED000B20E04FF400713D4811
:1017600004F04EF84FF480613A4804F049F84FF421
:101770008051384804F044F84FF40061354804F0D3
:101780003FF89FED270B53EC102B274890ED000BF3
:1017900051EC100B06F02EFC00D200E0DDE700BF9C
:1017A00006F0B7F92E49086100202E4908602E493D
:1017B0000860CDE22A482C49096850F821002B49DD
:1017C00001EBC00090ED001BB0EE410AF0EE610AA3
:1017D000FEF7FEFD9FED1D0B134880ED000B2CE185
:1017E0004021134803F0F0FF0A49086080211048A7
:1017F00003F0EAFF084908604FF480710C4803F0D9
:10180000E3FF0C4908604FF40071094803F0DCFF66
:1018100009492DE0000000200400002028000020DD
:101820009A9999999999C93FE000002020000020D9
:1018300000080240080000200C00002010000020DA
:1018400014000020180000201C00002000000000F0
:1018500000000000001002409A9999999999B93FA7
:10186000FC00002030000020340000204000002058
:1018700008604FF48061FE4803F0A6FFFD49086050
:101880004FF40061FA4803F09FFFFB490860022112
:10189000F74803F099FFF94908600421F44803F080
:1018A00093FFF74908600821F14803F08DFFF549DF
:1018B00008604FF40071F44803F0A0FF4FF480611A
:1018C000F14803F09DFF4FF40061EF4803F096FFED
:1018D0004FF48051EC4803F093FFEC480068012876
:1018E00008D1EB48006828B9EA48006810B9002020
:1018F000E9490860E5480068012809D1E448006822
:10190000012805D1E348006810B90120E2490860C8
:10191000DE48006848B9DE480068012805D1DD4886
:10192000006810B90220DC490860D848006850B946
:10193000D7480068012806D1D6480068012802D19E
:101940000320D5490860D148006848B9D0480068EC
:1019500030B9D0480068012802D10420CE4908607F
:10196000CA48006801280AD1C9480068012806D180
:10197000C8480068012802D10220C7490860C6484B
:101980000068FEF751FCC549C54A126851F82200AB
:101990004FF4FA71FEF74BFE9FEDC20B53EC102B88
:1019A000C24890ED000B51EC100B06F023FB44D223
:1019B000B4480068012840D105F0BEFB4021AC4886
:1019C00003F002FFB24908608021A94803F0FCFE41
:1019D000B04908604FF48071A54803F0F5FEAB49AB
:1019E00008604FF40071A24803F0EEFEB0490860B1
:1019F0004FF480619E4803F0E7FE9E4908604FF473
:101A000000619B4803F0E0FE9B4908600221984872
:101A100003F0DAFE994908600421954803F0D4FEEA
:101A2000974908600821924803F0CEFE9549086066
:101A300008460068012800D100E0D1E600BF1FED94
:101A40007D0B9A4880ED000B20E04FF400718E482A
:101A500003F0D6FE4FF480618B4803F0D1FE4FF4C3
:101A60008051894803F0CCFE4FF40061864803F0B2
:101A7000C7FE1FED870B53EC102B8C4890ED000B2D
:101A800051EC100B06F0B6FA00D200E0DDE700BF23
:101A90008249834A126851F822004FF4FA61FEF736
:101AA000C6FD4FF47A7005F047FB1FED980B7F4899
:101AB00080ED000B17E140216D4803F085FE74496D
:101AC000086080216A4803F07FFE724908604FF485
:101AD0008071674803F078FE6C4908604FF400712C
:101AE000634803F071FE724908604FF480616048FA
:101AF00003F06AFE5F4908604FF400615C4803F040
:101B000063FE5D4908600221594803F05DFE5B49B0
:101B100008600421564803F057FE5949086008211F
:101B2000534803F051FE574908604FF4806156480E
:101B300003F064FE4FF40071534803F061FE4FF46C
:101B40008051514803F05AFE4FF400614E4803F0B3
:101B500057FE49480068012808D15548006828B94F
:101B60004448006810B900204B49086042480068AA
:101B7000012809D14E480068012805D13D48006878
:101B800010B90120444908603B48006848B94848FA
:101B90000068012805D13748006810B902203E4985
:101BA00008603548006850B941480068012806D1EE
:101BB00030480068012802D10320374908602E48C8
:101BC000006848B93A48006830B92A4800680128D6
:101BD00002D10420304908602748006801280AD152
:101BE00033480068012806D122480068012802D144
:101BF00002202949086028480068FEF746FB9FED4F
:101C0000290B53EC102B294890ED000B51EC100BD5
:101C100006F0F0F967D219480068012863D105F091
:101C20008BFA4021124803F0CFFD1949086080214A
:101C30000F4803F0C9FD174908604FF480710C4844
:101C400003F0C2FD114908604FF40071084803F029
:101C5000BBFD174908604FF48061054803F0B4FDEF
:101C6000044908604FF40061014803F0ADFD21E034
:101C7000000802401000002014000020180000207E
:101C80001C0000202000002000100240080000205E
:101C90000000002004000020280000208000002018
:101CA00030000020000000000000F83FE0000020AD
:101CB0000C000020FE4908600221FE4803F084FD6C
:101CC000FD4908600421FB4803F07EFDFB490860E4
:101CD0000821F84803F078FDF9490860F6480068E3
:101CE000012800D100E0E6E600BF9FEDF60BF748C3
:101CF00080ED000B20E04FF40071F54803F080FD0B
:101D00004FF48061F24803F07BFD4FF48051F048BE
:101D100003F076FD4FF40061ED4803F071FD9FED97
:101D2000ED0B53EC102BE94890ED000B51EC100B30
:101D300006F060F900D200E0DDE700BFE748006888
:101D4000401CE6490860E6480068801CE4490860D9
:101D5000E24800680328FFF62DADE24890ED021B33
:101D6000B0EE410AF0EE610AFEF732FB9FEDD50BB3
:101D7000D64880ED000BF9E04021CE4803F024FD69
:101D8000D94908608021CB4803F01EFDD74908607F
:101D90004FF48071C74803F017FDD54908604FF430
:101DA0000071C44803F010FDD24908604FF480610F
:101DB000C04803F009FDD04908604FF40061BD48F8
:101DC00003F002FDBA4908600221BA4803F0FCFCA6
:101DD000B94908600421B74803F0F6FCB749086028
:101DE0000821B44803F0F0FCB54908604FF40071D5
:101DF000B74803F003FD4FF48061B54803F000FDE0
:101E00004FF40061B24803F0F9FC4FF48051B04840
:101E100003F0F6FCB6480068012808D1B248006813
:101E200028B9B248006810B90020B4490860B04829
:101E30000068012809D1AC480068012805D1AB48E9
:101E4000006810B90120AD490860A948006848B988
:101E5000A5480068012805D1A448006810B90220EF
:101E6000A6490860A248006850B99F480068012848
:101E700006D19E480068012802D103209F490860CE
:101E80009B48006848B99848006830B9974800688E
:101E9000012802D10420994908609548006801286A
:101EA0000AD191480068012806D1904800680128AD
:101EB00002D102209149086090480068FEF7B4F909
:101EC0004FF4FA610320FEF7B2FB9FED8D0B53EC4C
:101ED000102B7E4890ED000B51EC100B06F08AF8A9
:101EE00044D277480068012840D105F025F9402107
:101EF000704803F069FC7C49086080216D4803F05C
:101F000063FC7A4908604FF480716A4803F05CFC16
:101F1000774908604FF40071664803F055FC754935
:101F200008604FF48061634803F04EFC724908601A
:101F30004FF400615F4803F047FC5D4908600221EF
:101F40005C4803F041FC5C4908600421594803F0F7
:101F50003BFC5A4908600821564803F035FC5849B3
:101F6000086008460068012800D100E004E700BFCF
:101F70009FED540B554880ED000B20E04FF40071AD
:101F8000534803F03DFC4FF48061514803F038FCA6
:101F90004FF480514E4803F033FC4FF400614C483D
:101FA00003F02EFC9FED580B53EC102B474890ED9F
:101FB000000B51EC100B06F01DF800D200E0DDE73D
:101FC00000BF9FED400B414880ED000BE2E0402157
:101FD000384803F0F9FB444908608021354803F094
:101FE000F3FB424908604FF48071324803F0ECFB88
:101FF0003F4908604FF400712E4803F0E5FB3D496E
:1020000008604FF480612B4803F0DEFB3A4908601A
:102010004FF40061274803F0D7FB254908600221EF
:10202000244803F0D1FB244908600421214803F02F
:10203000CBFB2249086008211E4803F0C5FB20495C
:1020400008604FF40071224803F0D8FB4FF4806120
:102050001F4803F0D5FB4FF400611D4803F0CEFB91
:102060004FF480511A4803F0CBFB21480068012847
:1020700008D11D48006828B91C48006810B9002024
:102080001E4908601A480068012809D116480068EE
:10209000012805D11548006810B9012017490860CA
:1020A00013480068A0BB10480068012837D130E011
:1020B0001400002000080240180000201C0000202E
:1020C000200000200000000000000000E0000020D0
:1020D000001002409A9999999999B93F30000020CF
:1020E00034000020400000200000002004000020F8
:1020F000080000200C000020100000202800002014
:10210000000000000000F03F9A9999999999C93F01
:1021100005E0FE48006810B90220FD490860FD484E
:10212000006850B9FC480068012806D1F7480068EB
:10213000012802D10320F6490860F648006848B932
:10214000F548006830B9F1480068012802D1042040
:10215000EF490860EF48006801280AD1EE4800689E
:10216000012806D1E9480068012802D10220E84987
:102170000860E7480068FEF757F89FEDE80B53EC5E
:10218000102BE84890ED000B51EC100B05F032FFDE
:1021900000D200E01BE700BF1FED360BE14880EDE9
:1021A000000B20E04FF40071DF4803F029FB4FF4EF
:1021B0008061DD4803F024FB4FF48051DA4803F0DE
:1021C0001FFB4FF40061D84803F01AFB9FEDD70BBB
:1021D00053EC102BD34890ED000B51EC100B05F095
:1021E00009FF00D200E0DDE700BF4FF4FA71D148EB
:1021F00004F061F94FF4FA71CF4804F05AF94FF442
:10220000FA71CD4804F057F94FF4FA71CA4804F056
:1022100054F94FF4FA71C84804F051F94FF47A7048
:1022200004F08AFF1FED590BBE4880ED000BF9E06A
:102230004021C24803F0C8FAB74908608021BF486E
:1022400003F0C2FAB14908604FF48071BB4803F053
:10225000BBFAB04908604FF40071B84803F0B4FA13
:10226000B74908604FF48061B44803F0ADFAB5494E
:1022700008604FF40061B14803F0A6FAB249086063
:102280000221AE4803F0A0FAB04908600421AB482F
:1022900003F09AFAAE4908600821A84803F094FABE
:1022A000AC4908604FF480619F4803F0A7FA4FF4EF
:1022B00000719D4803F0A4FA4FF480519A4803F04E
:1022C0009DFA4FF40061984803F09AFA9E4800681E
:1022D000012808D19A48006828B99A48006810B9BE
:1022E00000208B49086098480068012809D194486B
:1022F0000068012805D19348006810B9012084497D
:1023000008609148006848B98D480068012805D1E7
:102310008C48006810B902207D4908608A4800682E
:1023200050B987480068012806D18648006801280E
:1023300002D10320764908608348006848B9804884
:10234000006830B97F480068012802D10420704934
:1023500008607D48006801280AD179480068012892
:1023600006D178480068012802D102206849086037
:1023700067480068FDF789FF4FF4FA710620FEF701
:1023800056F99FED750B53EC102B664890ED000B42
:1023900051EC100B05F02EFE44D26C480068012869
:1023A00040D104F0C9FE4021644803F00DFA5A49B7
:1023B00008608021614803F007FA544908604FF42F
:1023C00080715E4803F000FA524908604FF40071D2
:1023D0005A4803F0F9F95A4908604FF480615748A8
:1023E00003F0F2F9574908604FF40061534803F0D5
:1023F000EBF9554908600221504803F0E5F95349CB
:10240000086004214D4803F0DFF9514908600821B4
:102410004A4803F0D9F94F4908604C480068012840
:1024200000D100E004E700BF1FEDDA0B3D4880ED6E
:10243000000B20E04FF400713B4803F0E1F94FF44A
:102440008061394803F0DCF94FF48051364803F0DD
:10245000D7F94FF40061344803F0D2F91FEDD60BE1
:1024600053EC102B2F4890ED000B51EC100B05F0A6
:10247000C1FD00D200E0DDE700BF05F04AFB3849AE
:1024800048600846006802280DD0084640680228C7
:1024900009D008468068022805D00846006902284D
:1024A00001D00220C8602E48006803280ED02C48B6
:1024B000406803280AD02A488068032806D02848A4
:1024C0000069032802D003202549C8602448006819
:1024D00004280ED02248406804280AD0204880688A
:1024E000042806D01E480069042802D004201C4994
:1024F000C8601B48006805283BD01948406805287B
:1025000037D017488068052833D02BE0040000201E
:102510002800002008000020000000209A999999C6
:102520009999E13FE0000020001002400000000007
:102530000000E03F000400400008004000080240A6
:102540000C000020100000201400002018000020C3
:102550001C000020200000200000000000000040BF
:10256000FC000020FE480069052802D00520FC4937
:10257000C860FB48006806280ED0F9484068062865
:102580000AD0F7488068062806D0F5480069062872
:1025900002D00620F249C8600020F249086067E2D4
:1025A000EF48F049096850F82100EF4901EBC000FD
:1025B00090ED001BB0EE410AF0EE610AFDF708FF56
:1025C0009FEDEA0BEB4880ED000BB9E04021EA48B3
:1025D00003F0FAF8E94908608021E74803F0F4F8CD
:1025E000E74908604FF48071E34803F0EDF8E549EE
:1025F00008604FF40071E04803F0E6F8E249086033
:102600004FF48061DC4803F0DFF8E04908604FF4E4
:102610000061D94803F0D8F8DD4908600221D648A6
:1026200003F0D2F8DB4908600421D34803F0CCF86A
:10263000D94908600821D04803F0C6F8D749086096
:102640004FF40071D64803F0D9F84FF48061D448B4
:1026500003F0D6F84FF40061D14803F0CFF84FF4FF
:102660008051CF4803F0CCF8C6480068012808D153
:10267000C248006828B9C248006810B90020C9499A
:102680000860C0480068012809D1BC4800680128DA
:1026900005D1BB48006810B90120C2490860B9489B
:1026A000006848B9B5480068012805D1B4480068F9
:1026B00010B90220BB490860B248006850B9AF4861
:1026C0000068012806D1AE480068012802D1032025
:1026D000B4490860AB48006848B9A848006830B9F8
:1026E000A7480068012802D10420AE490860A54827
:1026F000006801280AD1A1480068012806D1A04835
:102700000068012802D10220A6490860A548006897
:10271000FDF78AFDA449934A126851F822004FF44C
:10272000FA71FDF784FF9FEDA10B53EC102B91483C
:1027300090ED000B51EC100B05F05CFC00D200E0BA
:1027400044E700BF9FED890B8A4880ED000B20E035
:102750004FF40071924803F053F84FF480619048B1
:1027600003F04EF84FF480518D4803F049F84FF4D0
:1027700000618B4803F044F89FED8E0B53EC102B57
:102780007C4890ED000B51EC100B05F033FC00D2AF
:1027900000E0DDE700BF8449724A126851F8220068
:1027A0004FF4FA61FDF743FF4FF47A7004F0C4FC74
:1027B0009FED6E0B6F4880ED000B29E140216E48C4
:1027C00003F002F86D49086080216B4802F0FCFFBD
:1027D0006B4908604FF48071674802F0F5FF694962
:1027E00008604FF40071644802F0EEFF664908602B
:1027F0004FF48061604802F0E7FF644908604FF4DD
:1028000000615D4802F0E0FF6149086002215A481A
:1028100002F0DAFF5F4908600421574802F0D4FF54
:102820005D4908600821544802F0CEFF5B4908600A
:102830004FF480615A4802F0E1FF4FF400715848AC
:1028400002F0DEFF4FF48051554802F0D7FF4FF4FD
:102850000061534802F0D4FF4D480068012808D1B8
:102860004948006828B94948006810B900204D4916
:10287000086047480068012809D1434800680128DA
:1028800005D14248006810B9012046490860404817
:10289000006848B93C480068012805D13B480068F9
:1028A00010B902203F4908603948006850B93648DD
:1028B0000068012806D135480068012802D10320AC
:1028C000384908603248006848B92F48006830B974
:1028D0002E480068012802D10420324908602C48A3
:1028E000006801280AD128480068012806D1274835
:1028F0000068012802D102202A490860294800689E
:10290000FDF7C3FC9FED2D0B53EC102B194890EDF8
:10291000000B51EC100B05F06DFB79D21D480068DF
:10292000012875D104F008FC4021134802F04CFF47
:10293000124908608021104802F046FF10490860E3
:102940004FF480710C4802F03FFF0E4908604FF4CD
:102950000071094802F038FF0B49086032E00000BE
:10296000FC0000203000002040000020000000009B
:1029700000000000E00000200008024000000020ED
:1029800004000020080000200C000020100000209F
:1029900014000020180000201C000020200000204F
:1029A00000100240280000208C0000209A9999997C
:1029B0009999F13F9A9999999999B93F333333335A
:1029C0003333F33F4FF48061FE4802F0FDFEFE49D1
:1029D00008604FF40061FB4802F0F6FEFB49086016
:1029E0000221F84802F0F0FEF94908600421F54898
:1029F00002F0EAFEF74908600821F24802F0E4FE1E
:102A0000F5490860F2480068012801D101E0FFE7BC
:102A1000D4E600BF1FED2B0BF04880ED000B20E04B
:102A20004FF40071EE4802F0EBFE4FF48061EC4889
:102A300002F0E6FE4FF48051E94802F0E1FE4FF467
:102A40000061E74802F0DCFE1FED260B53EC102B73
:102A5000E24890ED000B51EC100B05F0CBFA00D2E0
:102A600000E0DDE700BFDF480068401CDD4908608A
:102A7000DC4800680528FFF693ADDB4890ED0E1B9F
:102A8000B0EE410AF0EE610AFDF7A2FC1FED490B22
:102A9000D24880ED000BF9E04021CA4802F094FED4
:102AA000D24908608021C74802F08EFED0490860F4
:102AB0004FF48071C34802F087FECE4908604FF49E
:102AC0000071C04802F080FECB4908604FF480617D
:102AD000BC4802F079FEBC4908604FF40061B94877
:102AE00002F072FEB94908600221B64802F06CFE9D
:102AF000B74908600421B34802F066FEB549086092
:102B00000821B04802F060FEB34908604FF400713C
:102B1000B34802F073FE4FF48061B14802F070FEDA
:102B20004FF40061AE4802F069FE4FF48051AC48AA
:102B300002F066FEAF480068012808D1AB48006883
:102B400028B9AB48006810B90020AC490860A94812
:102B50000068012809D1A5480068012805D1A448CA
:102B6000006810B90120A5490860A248006848B96A
:102B70009E480068012805D19D48006810B90220D0
:102B80009E4908609B48006850B998480068012831
:102B900006D197480068012802D1032097490860B0
:102BA0009448006848B99148006830B99048006876
:102BB000012802D10420914908608E48006801284C
:102BC0000AD18A480068012806D18948006801288E
:102BD00002D102208949086088480068FDF724FB7B
:102BE0004FF4FA610320FDF722FD1FED8C0B53EC2F
:102BF000102B7A4890ED000B51EC100B05F0FAF910
:102C000044D275480068012840D104F095FA40216B
:102C10006C4802F0D9FD754908608021694802F0CE
:102C2000D3FD734908604FF48071664802F0CCFD13
:102C3000704908604FF40071624802F0C5FD6E49AA
:102C400008604FF480615F4802F0BEFD5E49086095
:102C50004FF400615B4802F0B7FD5C490860022157
:102C6000584802F0B1FD5A4908600421554802F065
:102C7000ABFD584908600821524802F0A5FD5649AD
:102C8000086008460068012800D100E004E700BFA2
:102C90001FEDCA0B514880ED000B20E04FF400718E
:102CA0004F4802F0ADFD4FF480614D4802F0A8FDA1
:102CB0004FF480514A4802F0A3FD4FF400614848A8
:102CC00002F09EFD9FED4E0B53EC102B434890ED10
:102CD000000B51EC100B05F08DF900D200E0DDE7A0
:102CE00000BF1FEDDE0B3D4880ED000BD3E040211F
:102CF000344802F069FD3D4908608021314802F006
:102D000063FD3B4908604FF480712E4802F05CFD82
:102D1000384908604FF400712A4802F055FD3649E1
:102D200008604FF48061274802F04EFD2649086094
:102D30004FF40061234802F047FD24490860022156
:102D4000204802F041FD2249086004211D4802F09C
:102D50003BFD2049086008211A4802F035FD1E4954
:102D600008604FF400711E4802F048FD4FF4806186
:102D70001B4802F045FD4FF40061194802F03EFD8A
:102D80004FF48051164802F03BFD1A4800680128B4
:102D900008D11648006828B91548006810B9002005
:102DA0001649086013480068012809D10F480068D7
:102DB000012805D10E48006810B901200F490860AC
:102DC0000C4821E000080240100000201400002000
:102DD000180000201C00002020000020E00000203F
:102DE00000100240300000204000002000000020C1
:102DF00004000020080000200C0000202800002013
:102E00009A9999999999C93F006848B9FE4800680C
:102E1000012805D1FD48006810B90220FC4908606E
:102E2000FC48006850B9F8480068012806D1F74806
:102E30000068012802D10320F5490860F5480068C0
:102E400048B9F148006830B9F0480068012802D15B
:102E50000420EF490860EF48006801280AD1EA48D9
:102E60000068012806D1E9480068012802D1022043
:102E7000E7490860E6480068FDF7D6F99FEDE60BE4
:102E800053EC102BE64890ED000B51EC100B05F0C5
:102E9000B1F800D200E02AE700BF9FEDE20BE04866
:102EA00080ED000B20E04FF40071E04802F0A8FC38
:102EB0004FF48061DD4802F0A3FC4FF48051DB4801
:102EC00002F09EFC4FF40061D84802F099FC1FED1F
:102ED000340B53EC102BD24890ED000B51EC100B3F
:102EE00005F088F800D200E0DDE700BF4FF4FA718A
:102EF000CF4803F0E0FA4FF4FA71CE4803F0D9FA64
:102F00004FF4FA71CB4803F0D6FA4FF4FA71C9487E
:102F100003F0D3FA4FF4FA71C64803F0D0FA4FF435
:102F20007A7004F009F99FEDBF0BBD4880ED000BEE
:102F3000F4E04021C04802F047FCB349086080211A
:102F4000BD4802F041FCB14908604FF48071BA48B5
:102F500002F03AFCAF4908604FF40071B64802F045
:102F600033FCB64908604FF48061B34802F02CFC92
:102F7000B34908604FF40061AF4802F025FCB14945
:102F800008600221AC4802F01FFCAF490860042130
:102F9000A94802F019FCAD4908600821A64802F0D2
:102FA00013FCAB4908604FF48061A04802F026FC96
:102FB0004FF400719D4802F023FC4FF480519B4870
:102FC00002F01CFC4FF40061984802F019FC9D4887
:102FD0000068012808D19948006828B99848006815
:102FE00010B900208A49086096480068012809D174
:102FF00092480068012805D19148006810B9012065
:10300000834908608F48006848B98C4800680128E7
:1030100005D18B48006810B902207D4908608948B5
:10302000006850B985480068012806D184480068C6
:10303000012802D10320764908608248006848B917
:103040007E48006830B97E480068012802D104201B
:103050006F4908607B48006801280AD177480068FA
:10306000012806D176480068012802D1022068496B
:10307000086067480068FDF708F99FED760B53EC90
:10308000102B674890ED000B51EC100B04F0B2FFD1
:1030900044D26D480068012840D104F04DF8402129
:1030A000654802F091FB584908608021624802F0AF
:1030B0008BFB564908604FF480715F4802F084FB37
:1030C000544908604FF400715B4802F07DFB5B4996
:1030D00008604FF48061584802F076FB5849086058
:1030E0004FF40061544802F06FFB5649086002211A
:1030F000514802F069FB5449086004214E4802F02F
:1031000063FB5249086008214B4802F05DFB5049BF
:1031100008604D480068012800D100E009E700BFC1
:103120009FED400B3E4880ED000B20E04FF4007116
:103130003E4802F065FB4FF480613C4802F060FBC2
:103140004FF48051394802F05BFB4FF4006137487F
:1031500002F056FB1FEDD60B53EC102B304890EDD0
:10316000000B51EC100B04F045FF00D200E0DDE74E
:1031700000BF002039490860D3E23948374909685F
:1031800050F82100374901EBC00090ED001BB0EE74
:10319000410AF0EE610AFDF71BF99FED220B204872
:1031A00080ED000B2EE14021234802F00DFB164973
:1031B00008608021204802F007FB144908604FF4A2
:1031C00080711D4802F000FB124908604FF4007145
:1031D000194802F0F9FA194908604FF4806116485D
:1031E00002F0F2FA164908604FF40061124802F04A
:1031F000EBFA1449086002210F4802F0E5FA12497F
:10320000086004210C482FE000000020040000208A
:1032100028000020080000209A9999999999E13F87
:10322000E00000200000000000000000001002404C
:103230000004004000080040000802400C0000208C
:103240001000002014000020180000201C000020A6
:10325000200000200000000000000040300000209E
:10326000FC0000204000002002F0AEFAFE49086099
:103270000821FE4802F0A8FAFD4908604FF40071E9
:10328000FC4802F0BBFA4FF48061FA4802F0B8FA49
:103290004FF40061F74802F0B1FA4FF48051F5485D
:1032A00002F0AEFAF4480068012808D1F34800683B
:1032B00028B9F348006810B90020F2490860EE48C8
:1032C0000068012809D1ED480068012805D1EC48C3
:1032D000006810B90120EB490860E748006848B968
:1032E000E6480068012805D1E548006810B90220C9
:1032F000E4490860E048006850B9E04800680128E7
:1033000006D1DF480068012802D10320DD490860AA
:10331000D948006848B9D948006830B9D848006829
:10332000012802D10420D7490860D3480068012849
:103330000AD1D2480068012806D1D1480068012886
:1033400002D10220CF490860CE480068FCF76CFF2C
:10335000CD49CE4A126851F822004FF4FA71FDF7B8
:1033600066F99FEDCB0B53EC102BCB4890ED000B87
:1033700051EC100B04F03EFE44D2BD480068012819
:1033800040D103F0D9FE4021B84802F01DFABB49F4
:1033900008608021B54802F017FAB94908604FF477
:1033A0008071B24802F010FAB34908604FF400711E
:1033B000AE4802F009FAB94908604FF48061AB48A1
:1033C00002F002FAB64908604FF40061A74802F023
:1033D000FBF9B44908600221A44802F0F5F9B249AA
:1033E00008600421A14802F0EFF99F490860082114
:1033F0009E4802F0E9F99E490860084600680128E5
:1034000000D100E0CFE600BF1FED7A0BA24880EDAF
:10341000000B20E04FF40071964802F0F1F94FF4F0
:103420008061944802F0ECF94FF48051914802F029
:10343000E7F94FF400618F4802F0E2F99FED9B0B32
:1034400053EC102B944890ED000B51EC100B04F052
:10345000D1FD00D200E0DDE700BF8B498B4A126846
:1034600051F822004FF4FA61FDF7E1F84FF47A7059
:1034700003F062FE1FED950B874880ED000B20E105
:1034800040217A4802F0A0F97C4908608021774801
:1034900002F09AF97A4908604FF48071734802F09B
:1034A00093F9754908604FF40071704802F08CF987
:1034B0007A4908604FF480616C4802F085F97849D8
:1034C00008604FF40061694802F07EF975490860B0
:1034D0000221664802F078F97349086004216348C4
:1034E00002F072F9604908600821604802F06CF946
:1034F0005F4908604FF480615E4802F07FF94FF445
:1035000000715C4802F07CF94FF48051594802F098
:1035100075F94FF40061574802F072F9614800688C
:10352000012808D15D48006828B95D48006810B9D5
:103530000020544908605B480068012809D15748B9
:103540000068012805D15648006810B901204D498E
:1035500008605448006848B950480068012805D1FF
:103560004F48006810B90220464908604D4800687D
:1035700050B94A480068012806D149480068012826
:1035800002D103203F4908604648006848B94348D3
:10359000006830B942480068012802D10420394946
:1035A00008604048006801280AD13C4800680128AA
:1035B00006D13B480068012802D102203149086049
:1035C00030480068FCF761FE9FED3A0B53EC102B7E
:1035D000314890ED000B51EC100B04F00BFD70D254
:1035E0003148006801286CD103F0A6FD40211F4836
:1035F00002F0EAF82149086080211C4802F0E4F852
:103600001F4908604FF48071184802F0DDF81A492C
:1036100008604FF40071154802F0D6F81F490860A1
:103620004FF48061114802F0CFF81D4908604FF453
:1036300000610E4802F0C8F81A49086002210B48E0
:1036400002F0C2F8184908600421084802F0BCF8EA
:10365000054908600821054802F0B6F804490860E9
:103660001148006801282AE01C00002000080240E0
:103670002000002000100240080000200000002070
:103680000400002028000020A000002030000020BE
:103690009A9999999999C93FE00000200C0000205F
:1036A000100000201400002018000020000000007E
:1036B0000000F03F000000000000E03F01E000D10A
:1036C00000E0DDE600BF9FEDFD0BFE4880ED000B46
:1036D00020E04FF40071FC4802F092F84FF4806152
:1036E000F94802F08DF84FF48051F74802F088F85D
:1036F0004FF40061F44802F083F81FED120B53EC15
:10370000102BF04890ED000B51EC100B04F072FC04
:1037100000D200E0DDE700BFEC480068401CEB4948
:103720000860EA4800680528FFF627AD0020E74951
:10373000086001F0C7BB4FF4FA7003F0FDFC9FED89
:10374000E40BFCF745FEE1480068012807D0DF489C
:103750000068022803D0DD48006803287ED19FED71
:10376000D70BD84880ED000B00E14021DA4802F089
:103770002BF8DA4908608021D74802F025F8D849AB
:1037800008604FF48071D44802F01EF8D5490860F3
:103790004FF40071D04802F017F8D34908604FF495
:1037A0008061CD4802F010F8D04908604FF4006104
:1037B000C94802F009F8CE4908600221C64802F063
:1037C00003F8CC4908600421C34801F0FDFFCA4951
:1037D00008600821C04801F0F7FFC84908604FF4AD
:1037E0008061B94802F00AF84FF40071B64802F05F
:1037F00007F84FF48051B44802F000F84FF400612C
:10380000B14801F0FDFFBA480068012808D1B64868
:10381000006828B9B548006810B90020B8490860A8
:10382000B3480068012809D1AF480068012805D1D4
:10383000AE48006810B90120B1490860AC48006882
:1038400048B9A9480068012805D1A848006810B9FE
:103850000220AB490860A648006800E0FEE350B9CA
:10386000A1480068012806D1A0480068012802D1BB
:103870000320A34908609E48006848B99A48006838
:1038800030B99A480068012802D104209C49086098
:103890009748006801280AD193480068012806D19A
:1038A00092480068012802D1022095490860944896
:1038B0000068FCF7EAFC40F2AA51924802F0F9FDD8
:1038C00040F2DC51904802F0F4FD1FED860B53EC02
:1038D000102B7C4890ED000B51EC100B04F08AFB90
:1038E00044D285480068012840D103F025FC4021DE
:1038F000794801F069FF794908608021764801F034
:1039000063FF774908604FF48071734801F05CFFF2
:10391000744908604FF400716F4801F055FF724917
:1039200008604FF480616C4801F04EFF6F490860F9
:103930004FF40061684801F047FF6D4908600221BB
:10394000654801F041FF6B4908600421624801F0BD
:103950003BFF6949086008215F4801F035FF67496E
:10396000086065480068012800D100E0FDE600BF5E
:103970009FED520B534880ED000BE3E04021564889
:1039800001F022FF554908608021534801F01CFFD7
:10399000534908604FF480714F4801F015FF5149B9
:1039A00008604FF400714C4801F00EFF4E4908606A
:1039B0004FF48061484801F007FF4C4908604FF41C
:1039C0000061454801F000FF494908600221424872
:1039D00001F0FAFE4749086004213F4801F0F4FE77
:1039E0004549086008213C4801F0EEFE4349086063
:1039F0004FF48061344801F001FF4FF40071324808
:103A000001F0FEFE4FF480512F4801F0F7FE4FF415
:103A100000612D4801F0F4FE35480068012808D106
:103A20003148006828B93148006810B9002034498D
:103A300008602F480068012809D12B480068012838
:103A400005D12A48006810B901202D49086028488E
:103A5000006848B924480068012805D12348006857
:103A600010B90220264908602148006850B91E4854
:103A70000068012806D11D480068012802D10320F2
:103A80001F4908601A48006848B91748006830B9EB
:103A900016480068012802D104201949086014481A
:103AA0000068012833D11048006801282FD10F4841
:103AB000006801282BD10220114927E000000000F6
:103AC00000000000E0000020001002403000002054
:103AD000000000000000E0BF0008024000000020DD
:103AE00004000020080000200C000020100000202E
:103AF00014000020180000201C00002020000020DE
:103B00002800002000400140004801400860FE48B5
:103B10000068FCF7BAFB40F2AA51FC4802F0C9FC6D
:103B200040F2DC51FA4802F0C4FC9FEDFA0B53EC72
:103B3000102BFA4890ED000B51EC100B04F05AFAE0
:103B400000D200E01AE700BF1FED240BF34880ED20
:103B5000000B20E04FF40071F14801F051FE4FF4EA
:103B60008061EF4801F04CFE4FF48051EC4801F0C9
:103B700047FE4FF40061EA4801F042FE9FEDE90B79
:103B800053EC102BE54890ED000B51EC100B04F0BA
:103B900031FA00D200E0DDE700BF4FF4FA71DC48F3
:103BA00002F087FC4FF4FA6003F0C6FA40F272614B
:103BB000D64802F07EFC4FF4FA6003F0BDFA1FED28
:103BC000410BD64880ED000BF4E04021D74801F0CE
:103BD000FBFDD74908608021D44801F0F5FDD549A7
:103BE00008604FF48071D14801F0EEFDD2490860C1
:103BF0004FF40071CD4801F0E7FDD04908604FF463
:103C00008061CA4801F0E0FDCD4908604FF40061D1
:103C1000C64801F0D9FDCB4908600221C34801F034
:103C2000D3FDC94908600421C04801F0CDFDC74952
:103C300008600821BD4801F0C7FDC54908604FF480
:103C40008061B74801F0DAFD4FF40071B44801F02B
:103C5000D7FD4FF48051B24801F0D0FD4FF4006120
:103C6000AF4801F0CDFDB7480068012808D1B3483E
:103C7000006828B9B248006810B90020A24908605D
:103C8000B0480068012809D1AC480068012805D176
:103C9000AB48006810B901209B490860A94800683A
:103CA00048B9A6480068012805D1A548006810B9A0
:103CB000022095490860A348006850B99F480068F1
:103CC000012806D19E480068012802D103208E49B0
:103CD00008609C48006848B99848006830B998481E
:103CE0000068012802D104208749086095480068CF
:103CF00001280AD191480068012806D1904800683F
:103D0000012802D10220804908607F480068FCF742
:103D1000BCFA9FED900B53EC102B804890ED000BFC
:103D200051EC100B04F066F944D289480068012870
:103D300040D103F001FA40217C4801F045FD7C4967
:103D400008608021794801F03FFD7A4908604FF40E
:103D50008071764801F038FD774908604FF40071B2
:103D6000724801F031FD754908604FF480616F4879
:103D700001F02AFD724908604FF400616B4801F0C0
:103D800023FD704908600221684801F01DFD6E495D
:103D900008600421654801F017FD6C49086008219E
:103DA000624801F011FD6A49086008460068012870
:103DB00000D100E009E700BF1FEDC00B574880EDC0
:103DC000000BDBE04021594801F0FEFC5849086037
:103DD0008021564801F0F8FC564908604FF4807184
:103DE000524801F0F1FC544908604FF400714F480B
:103DF00001F0EAFC514908604FF480614B4801F042
:103E0000E3FC4F4908604FF40061484801F0DCFCD6
:103E10004C4908600221454801F0D6FC4A49086037
:103E20000421424801F0D0FC4849086008213F487D
:103E300001F0CAFC464908604FF48061384801F03F
:103E4000DDFC4FF40071364801F0DAFC4FF480518C
:103E5000334801F0D3FC4FF40061314801F0D0FC4D
:103E600038480068012808D13448006828B9344827
:103E7000006810B900202449086032480068012811
:103E800009D12E480068012805D12D48006810B9D5
:103E900001201D4908602B48006848B92748006880
:103EA000012805D12648006810B90220164908608B
:103EB0002448006850B921480068012806D12048EC
:103EC0000068012802D103200F4908601D480068DE
:103ED00048B91A48006830B919480068012802D169
:103EE0000420094908601748006801280AD11348CE
:103EF0000068012806D112480068012802D102207A
:103F000001490860004829E02800002000400140E5
:103F1000004801409A9999999999B93FE000002089
:103F200000100240333333333333D33F00080240B1
:103F30000000002004000020080000200C000020E9
:103F40001000002014000020180000201C00002099
:103F500020000020000000000000E03F0068FCF7A7
:103F600094F91FED140B53EC102BFE4890ED000B51
:103F700051EC100B04F03EF800D200E022E700BF45
:103F80009FEDF90BF74880ED000B20E04FF4007136
:103F9000F74801F035FC4FF48061F54801F030FC42
:103FA0004FF48051F24801F02BFC4FF40061F048CF
:103FB00001F026FC1FED250B53EC102BE94890ED8A
:103FC000000B51EC100B04F015F800D200E0DDE717
:103FD00000BF40F2DC51E74802F06BFA4FF47A7010
:103FE00003F0AAF840F2AA51E34802F062FA4FF453
:103FF0007A7003F0A1F84FF4FA71DE4802F059FA32
:104000004FF47A7003F098F840F27261DA4802F0E7
:1040100050FA4FF47A7003F08FF89FEDD30BD1482C
:1040200080ED000BF6E04021D44801F0CDFBD449EF
:1040300008608021D14801F0C7FBD24908604FF4E5
:104040008071CE4801F0C0FBCF4908604FF4007189
:10405000CA4801F0B9FBCD49086000E031E24FF4F5
:104060008061C64801F0B0FBC94908604FF40061A7
:10407000C24801F0A9FBC74908600221BF4801F00E
:10408000A3FBC54908600421BC4801F09DFBC3495E
:1040900008600821B94801F097FBC14908604FF456
:1040A0008061B34801F0AAFB4FF40071B04801F001
:1040B000A7FB4FF48051AE4801F0A0FB4FF4006124
:1040C000AB4801F09DFBB3480068012808D1AF4818
:1040D000006828B9AE48006810B90020B1490860EE
:1040E000AC480068012809D1A8480068012805D11A
:1040F000A748006810B90120AA490860A5480068CF
:1041000048B9A2480068012805D1A148006810B943
:104110000220A44908609F48006850B99B48006885
:10412000012806D19A480068012802D103209D4940
:1041300008609848006848B99448006830B99448C5
:104140000068012802D1042096490860914800685F
:1041500001280AD18D480068012806D18C480068E2
:10416000012802D102208F4908608E480068FCF7C0
:104170008CF81FED880B53EC102B7A4890ED000B58
:1041800051EC100B03F036FF44D28448006801283C
:1041900040D102F0D1FF4021784801F015FB784969
:1041A00008608021754801F00FFB764908604FF4E4
:1041B0008071724801F008FB734908604FF4007188
:1041C0006E4801F001FB714908604FF480616B4853
:1041D00001F0FAFA6E4908604FF40061674801F097
:1041E000F3FA6C4908600221644801F0EDFA6A496B
:1041F00008600421614801F0E7FA68490860082175
:104200005E4801F0E1FA66490860644800680128E8
:1042100000D100E007E700BF9FED530B514880ED50
:10422000000B20E04FF40071514801F0E9FA4FF41F
:1042300080614F4801F0E4FA4FF480514C4801F09E
:10424000DFFA4FF400614A4801F0DAFA1FEDCB0BB8
:1042500053EC102B434890ED000B51EC100B03F086
:10426000C9FE00D200E0DDE700BF40F2DC5141486A
:1042700002F01FF94FF47A7002F05EFF40F2AA518B
:104280003D4802F016F94FF47A7002F055FF4FF4F2
:10429000FA71384802F00DF94FF47A7002F04CFFD1
:1042A00040F2DC51334802F004F94FF47A7002F026
:1042B00043FF9FED2D0B2B4880ED000BDBE04021F1
:1042C0002E4801F081FA2E49086080212B4801F028
:1042D0007BFA2C4908604FF48071284801F074FA89
:1042E000294908604FF40071244801F06DFA27490C
:1042F00008604FF48061214801F066FA24490860A3
:104300004FF400611D4801F05FFA22490860022164
:104310001A4801F059FA204908600421174801F0B1
:1043200053FA1E4908600821144801F04DFA1C494F
:1043300008604FF400710E4801F060FA4FF480619C
:104340000B4801F05DFA4FF40061094801F056FA9C
:104350004FF48051064801F053FA0B4800680128D9
:104360002BD121E0E0000020000000000000000050
:104370000010024000480140004001400008024097
:104380000000002004000020080000200C00002095
:104390001000002014000020180000201C00002045
:1043A0002000002028000020FE48006828B9FE48B0
:1043B000006810B90020FD490860FD480068012828
:1043C00009D1F8480068012805D1F748006810B9FC
:1043D0000120F6490860F648006848B9F1480068CD
:1043E000012805D1F048006810B90220EF490860A3
:1043F000EF48006850B9EB480068012806D1EA4848
:104400000068012802D10320E8490860E8480068F4
:1044100048B9E448006830B9E3480068012802D18F
:104420000420E2490860E248006801280AD1DD481A
:104430000068012806D1DC480068012802D102206A
:10444000DA490860D9480068FBF7EEFE9FEDD90B0A
:1044500053EC102BD94890ED000B51EC100B03F0EE
:10446000C9FD08D2D6480068012804D1D5480068A3
:10447000012800D100E022E700BF20E04FF40071E6
:10448000D14801F0BDF94FF48061CF4801F0B8F98F
:104490004FF48051CC4801F0B3F94FF40061CA48A1
:1044A00001F0AEF99FEDC90B53EC102BC34890ED12
:1044B000000B51EC100B03F09DFD00D200E0DDE796
:1044C000FEE31FED570BBD4880ED000BFEE04021E1
:1044D000C04801F079F9B34908608021BD4801F076
:1044E00073F9B14908604FF48071BA4801F06CF972
:1044F000AF4908604FF40071B64801F065F9B6495C
:1045000008604FF48061B34801F05EF9B349086078
:104510004FF40061AF4801F057F9B149086002213A
:10452000AC4801F051F9A64908600421A94801F0FE
:104530004BF9A44908600821A64801F045F9A949AA
:1045400008604FF48061A04801F058F94FF4007101
:104550009D4801F055F94FF480519B4801F04EF908
:104560004FF40061984801F04BF99D48006801281C
:1045700008D19948006828B99848006810B9002007
:104580008A49086096480068012809D19248006865
:10459000012805D19148006810B9012083490860BD
:1045A0008F48006848B98C480068012805D18B48BD
:1045B000006810B902207D4908608948006850B938
:1045C00085480068012806D184480068012802D186
:1045D0000320764908608248006848B97E48006830
:1045E00030B97E480068012802D104206F49086074
:1045F0007B48006801280AD177480068012806D165
:1046000076480068012802D102206849086067489E
:104610000068FBF73AFE40F2AA51734801F049FFE7
:1046200040F2DC51714801F044FF9FED710B53ECF7
:10463000102B624890ED000B51EC100B03F0DAFCEC
:1046400044D260480068012840D102F075FD402145
:10465000604801F0B9F85349086080215D4801F0D5
:10466000B3F8514908604FF480715A4801F0ACF832
:104670004F4908604FF40071564801F0A5F85649BB
:1046800008604FF48061534801F09EF85349086078
:104690004FF400614F4801F097F85149086002213A
:1046A0004C4801F091F8464908600421494801F05E
:1046B0008BF8444908600821464801F085F84949CB
:1046C000086040480068012800D100E0FFE600BF14
:1046D0001FEDDB0B394880ED000BDBE040213D484E
:1046E00001F072F82F49086080213A4801F06CF817
:1046F0002D4908604FF48071364801F065F82C4967
:1047000008604FF40071334801F05EF832490860E8
:104710004FF480612F4801F057F8304908604FF49A
:1047200000612C4801F050F82D4908600221294809
:1047300001F04AF8224908600421264801F044F8B3
:10474000204908600821234801F03EF82549086007
:104750004FF480611C4801F051F84FF400711A4881
:1047600001F04EF84FF48051174801F047F84FF42C
:104770000061154801F044F819480068012808D183
:104780001548006828B91548006810B90020074985
:10479000086013480068012834D10F4800680128D8
:1047A00030D129E000000020040000202800002073
:1047B00008000020000000000000E03FE0000020B2
:1047C000180000201C000020001002403333333357
:1047D0003333D33F000802400C00002010000020BB
:1047E000140000202000002000400140004801404B
:1047F000000000000000F03FFE48006810B90120F2
:10480000FD490860FD48006848B9FD480068012876
:1048100005D1F848006810B90220F7490860F74848
:10482000006850B9F6480068012806D1F1480068D0
:10483000012802D10320F0490860F048006848B917
:10484000EF48006830B9EB480068012802D1042025
:10485000E9490860E948006801280AD1E848006889
:10486000012806D1E3480068012802D10220E2496C
:104870000860E1480068FBF708FD9FEDE20B53EC90
:10488000102BE24890ED000B51EC100B03F0B2FB43
:1048900000D200E022E700BF9FEDDD0BDB4880ED9A
:1048A000000B20E04FF40071DB4800F0A9FF4FF44B
:1048B0008061D94800F0A4FF4FF48051D64800F041
:1048C0009FFF4FF40061D44800F09AFF1FED410BA9
:1048D00053EC102BCD4890ED000B51EC100B03F076
:1048E00089FB00D200E0DDE700BF40F2DC51CB489D
:1048F00001F0DFFD4FF47A7002F01EFC40F2AA5185
:10490000C74801F0D6FD4FF47A7002F015FC4FF461
:10491000FA71C24801F0CDFD4FF47A7002F00CFC40
:1049200040F27261BE4801F0C4FD4FF47A7002F0AB
:1049300003FC9FEDB70BB54880ED000BF4E0402180
:10494000B84800F041FFB84908608021B54800F040
:104950003BFFB64908604FF48071B24800F034FF65
:10496000B34908604FF40071AE4800F02DFFA44930
:1049700008604FF48061AB4800F026FF9D49086055
:104980004FF40061A74800F01FFF9C490860022116
:10499000A44800F019FFA74908600421A14800F0CD
:1049A00013FFA549086008219E4800F00DFFA349A8
:1049B00008604FF48061984800F020FF4FF40071C8
:1049C000954800F01DFF4FF48051934800F016FF0A
:1049D0004FF40061904800F013FF884800680128F8
:1049E00008D18748006828B98248006810B90020BB
:1049F0008149086081480068012809D18048006821
:104A0000012805D17B48006810B901207A49086067
:104A10007A48006848B97A480068012805D1754885
:104A2000006810B90220744908607448006850B9E1
:104A300073480068012806D16E480068012802D139
:104A400003206D4908606D48006848B96C480068EB
:104A500030B968480068012802D10420664908601E
:104A60006648006801280AD165480068012806D117
:104A700060480068012802D102205F4908605E4852
:104A80000068FBF702FC1FEDB50B53EC102B5F48E1
:104A900090ED000B51EC100B03F0ACFA44D26648D9
:104AA0000068012840D102F047FB40215D4800F03A
:104AB0008BFE5D49086080215A4800F085FE5B4905
:104AC00008604FF48071574800F07EFE5849086036
:104AD0004FF40071534800F077FE494908604FF4E5
:104AE0008061504800F070FE424908604FF4006158
:104AF0004C4800F069FE414908600221494800F035
:104B000063FE4C4908600421464800F05DFE4A49B6
:104B100008600821434800F057FE484908604648AD
:104B20000068012800D100E009E700BF9FED380BC5
:104B3000364880ED000B20E04FF40071364800F05D
:104B40005FFE4FF48061344800F05AFE4FF480510C
:104B5000314800F055FE4FF400612F4800F050FE40
:104B60001FEDE60B53EC102B284890ED000B51EC99
:104B7000100B03F03FFA00D200E0DDE700BF40F287
:104B8000DC51264801F095FC4FF47A7002F0D4FA1B
:104B900040F2AA51224801F08CFC4FF47A7002F0E6
:104BA000CBFA4FF4FA711D4801F083FC4FF47A7090
:104BB00002F0C2FA40F2DC51184801F07AFC4FF4DE
:104BC0007A7002F0B9FA9FED120B104880ED000BDD
:104BD0004DE14021134800F0F7FD134908608021A2
:104BE000104800F0F1FD114908604FF480710D4844
:104BF00026E0000010000020280000201400002003
:104C00000C0000209A9999999999C93FE0000020D9
:104C100000000000000000000010024000480140B9
:104C20000040014000080240000000200400002075
:104C300008000020180000201C0000202000002098
:104C400000F0C2FDFE4908604FF40071FD4800F01D
:104C5000BBFDFD4908604FF48061FA4800F0B4FDE7
:104C6000FA4908604FF40061F64800F0ADFDF849DC
:104C700008600221F34800F0A7FDF649086004210E
:104C8000F04800F0A1FDF44908600821ED4800F06B
:104C90009BFDF24908604FF40071F14800F0AEFD51
:104CA0004FF48061EE4800F0ABFD4FF40061EC483A
:104CB00000F0A4FD4FF48051E94800F0A1FD00E0B0
:104CC000FBE0DF480068012808D1E648006828B901
:104CD000E548006810B90020E4490860D848006839
:104CE000012809D1DF480068012805D1DE480068A5
:104CF00010B90120DD490860D148006848B9D94899
:104D00000068012805D1D848006810B90220D749A9
:104D10000860CB48006850B9D2480068012806D125
:104D2000D1480068012802D10320D0490860C44856
:104D3000006848B9CB48006830B9CB480068012802
:104D400002D10420C9490860BD48006801280AD181
:104D5000C4480068012806D1C3480068012802D170
:104D60000220C2490860C1480068052826D2DFE851
:104D700000F0030A11171E004FF496614FF4FA7009
:104D800002F0CEFB21E040F24C414FF4487002F0BB
:104D9000C7FB1AE04FF47A71084602F0C1FB14E039
:104DA0004FF4487140F24C4002F0BAFB0DE04FF472
:104DB000FA714FF4966002F0B3FB06E04FF47A719B
:104DC00040F24C4002F0ACFB00BF00BF9FEDA80BCF
:104DD00053EC102BA84890ED000B51EC100B03F096
:104DE00009F944D29C480068012840D102F0A4F996
:104DF0004021944800F0E8FC9A49086080219148DD
:104E000000F0E2FC984908604FF480718D4800F092
:104E1000DBFC8B4908604FF400718A4800F0D4FC39
:104E2000894908604FF48061864800F0CDFC8749CD
:104E300008604FF40061834800F0C6FC84490860B4
:104E40000221804800F0C0FC8249086004217D48AE
:104E500000F0BAFC8049086008217A4800F0B4FCF0
:104E60007E4908607C480068012800D100E0B0E677
:104E700000BF20E04FF40071794800F0C1FC4FF40E
:104E80008061774800F0BCFC4FF48051744800F01A
:104E9000B7FC4FF40061724800F0B2FC9FED770B55
:104EA00053EC102B744890ED000B51EC100B03F0F9
:104EB000A1F800D200E0DDE700BF72480068401CA6
:104EC000704908606F4800680528FEF634AC4FF45E
:104ED000FA7002F031F96C4890ED001BB0EE410A17
:104EE000F0EE610AFBF774FA1FEDB70B624880ED34
:104EF000000B1CE14021534800F066FC5949086052
:104F00008021504800F060FC574908604FF48071E0
:104F10004C4800F059FC4A4908604FF40071494878
:104F200000F052FC484908604FF48061454800F0A9
:104F30004BFC464908604FF40061424800F044FCD5
:104F40004349086002213F4800F03EFC41490860A7
:104F500004213C4800F038FC3F49086008213948EA
:104F600000F032FC3D4908604FF400713C4800F00D
:104F700045FC4FF480613A4800F042FC4FF4006178
:104F8000374800F03BFC4FF48051354800F038FCC6
:104F90002B480068012808D13248006828B93248F7
:104FA000006810B9002031490860254800680128D0
:104FB00009D12C480068012805D12B48006810B998
:104FC00001202A4908601E48006848B92548006841
:104FD000012805D12448006810B90220234908603F
:104FE0001748006850B91F480068012806D11E48BC
:104FF0000068012802D103201C490860104800689D
:1050000048B91848006830B917480068012802D12B
:105010000420164908600A48006801280AD111488E
:105020000068012806D110480068012802D102203A
:105030000E4908600D480068FBF7F6F826E000000E
:1050400008000020000802400C0000201000002092
:1050500014000020180000201C0000202000002068
:105060000010024000000020040000202800002062
:105070000000000000000440E00000203333333320
:105080003333D33F30000020400000209FED350B2C
:1050900053EC102B354890ED000B51EC100B02F047
:1050A000A9FF44D232480068012840D102F044F8F8
:1050B0004021304800F088FB2F49086080212D48AE
:1050C00000F082FB2D4908604FF48071294800F000
:1050D0007BFB2B4908604FF40071264800F074FBFD
:1050E000284908604FF48061224800F06DFB264992
:1050F00008604FF400611F4800F066FB2349086018
:1051000002211C4800F060FB214908600421194875
:1051100000F05AFB164908600821164800F054FBBD
:105120001C49086012480068012800D100E0E1E64F
:1051300000BF13E04FF40071174800F061FB4FF41B
:105140008061154800F05CFB4FF48051124800F07C
:1051500057FB4FF40061104800F052FBEAE7FBF701
:1051600070BB00000000000000000040E0000020D4
:105170001C00002000080240000000200400002065
:10518000080000200C000020100000201400002067
:10519000180000202000002000100240704700BFCF
:1051A000FEE700BFFEE700BFFEE700BFFEE7704777
:1051B00070477047704700000CB5002001900090C8
:1051C0007648006840F480307449086000BF734836
:1051D000006800F4003000900198401C0190009895
:1051E00018B90198B0F5A04FF1D16C48006800F4EF
:1051F000003010B10120009001E0002000900098E4
:10520000012846D165484030006840F0805063492D
:10521000403108606248006840F4404060490860DE
:105220005E48083000685D4908310860084600683B
:1052300040F4004008600846006840F4A050086050
:105240005848091F0860081F006840F08070091F57
:10525000086000BF5148006800F000700028F9D0D5
:1052600040F20570504908604C480830006820F052
:1052700003004A49083108600846006840F002000F
:10528000086000BF45480830006800F00C0008289E
:10529000F8D10CBD10B54548006840F47000434992
:1052A00008603E48006840F001003C49086000206A
:1052B0003A4908310860394800683D490840374993
:1052C00008603C48091D0860081F006820F4802021
:1052D000091F0860002031490C310860FFF76CFF9E
:1052E0004FF0006031498039086010BD70B5002072
:1052F0000022022300240221284D08352D6805F0E4
:105300000C0020B1042806D0082834D107E02A4D2B
:105310002A4E356033E02A4D284E35602FE01F4D70
:105320002D1D2D68C5F380541C4D2D1D2D6805F0D5
:105330003F0154B1224DB5FBF1F5184E361D3668CC
:10534000C6F3881605FB06F209E01B4DB5FBF1F527
:10535000124E361D3668C6F3881605FB06F20F4D51
:105360002D1D2D68C5F301456D1C6B00B2FBF3F5D7
:10537000124E356003E0104D104E356000BF00BF87
:10538000064D08352D68C5F303150E4E705D0B4DA7
:105390002D68C540094E356070BD000000380240E0
:1053A0000070004008544007003C024088ED00E0D7
:1053B000FFFFF6FE103000240024F400B4000020AB
:1053C00000127A00B80000200948804709480047C9
:1053D000FEE7FEE7FEE7FEE7FEE7FEE7FEE7FEE7A5
:1053E000FEE7FEE704480549054A064B7047000002
:1053F00095520008890100088001002080070020E4
:10540000800300208003002032490143324A1160AA
:10541000704770B5002100230F22C4781CB32E4CB6
:10542000246804F4E064C4F5E064C4F30721C1F126
:105430000404E3B20A4144789C40E1B28478144009
:1054400021430C07210E254C05786155047804F0A2
:105450001F050124AC4005786D11AD0005F1E02574
:10546000C5F8004109E0047804F01F050124AC40B0
:105470001B4D0678761145F8264070BD194A0A4042
:105480000243154B1B1F1A60704739B1124A121D97
:1054900012680243104B1B1D1A6006E00E4A121DD3
:1054A000126882430C4B1B1D1A607047042808D1F8
:1054B0004FF0E021096941F004014FF0E022116151
:1054C00007E04FF0E021096921F004014FF0E022EC
:1054D000116170470000FA050CED00E000E400E007
:1054E00080E100E080FFFF1F002041490860091DA6
:1054F0000860091D0860091D08603E483C491431D8
:105500000860704700213A498279002A3AD00A4659
:10551000126803689A430B461A600A1D12680368F2
:105520009A430B1D1A60027911440A6803681A43F2
:105530000A602F4A0832126803689A432C4B0833DA
:105540001A601A1D126803689A43294B0C331A60BB
:105550004279102A0ED11A1F126803681A43244B8D
:1055600008331A601A1D126803681A43204B0C3363
:105570001A600DE01E49427911440A6803681A4313
:105580000A6005E0027911440A6803689A430A60D8
:1055900070470021016001710C214171002181716E
:1055A00070471349103109680143114A10321160E4
:1055B0007047014600200E4A143212680A400AB1B0
:1055C000012000E00020704709491431086070474D
:1055D00001460020064A143212680A400AB101202E
:1055E00000E0002070470249143108607047000055
:1055F000003C0140FFFF7F0010B5044698488442FC
:1056000008D10121084600F086FB0021012000F0AE
:1056100082FB76E09348844208D10121022000F009
:105620007AFB0021022000F076FB6AE08E4884427B
:1056300008D10121042000F06EFB0021042000F0BD
:105640006AFB5EE08948844208D10121082000F00D
:1056500062FB0021082000F05EFB52E08448844297
:1056600008D10121102000F056FB0021102000F08D
:1056700052FB46E07F48844208D10121202000F0FF
:105680004AFB0021202000F046FB3AE07A488442A1
:1056900008D10121402000F03EFB0021402000F015
:1056A0003AFB2EE07548844208D10121802000F0A9
:1056B00032FB0021802000F02EFB22E07048844263
:1056C00008D10121801500F026FB0021A01500F073
:1056D00022FB16E06B48844208D10121401500F0FE
:1056E0001AFB0021601500F016FB0AE066488442B0
:1056F00007D10121001500F00EFB0021201500F05C
:105700000AFB10BDF0B50A4600210023002400BFAB
:105710003DE0012505FA01F3156805EA03049C4202
:1057200034D105684F000326BE40B54305601579A6
:105730004E00B5400668354305601579012D02D04D
:105740001579022D16D185684F000326BE40B5435A
:10575000856055794E00B54086683543856045685B
:1057600001268E40B5434560456896798E40B6B2B5
:1057700035434560C5684F000326BE40B543C5604C
:10578000D5794E00B540C6683543C560491C10291F
:10579000BFD3F0BD4FF6FF7101600021017141716F
:1057A0008171C171704708B54FF480320092009A40
:1057B0000A430092009AC261C161009AC261C26943
:1057C0000092C269009208BD0246002013690B4096
:1057D0000BB1012000E0002070470146086980B24B
:1057E00070470246002053690B400BB1012000E0D6
:1057F000002070470146486980B2704701837047B6
:10580000418370470AB1018300E0418370474161E1
:10581000704742694A4042617047F0B50023002456
:105820004D07ED0E02FA05F3CE1000F1200555F8F4
:1058300026504E07F70E0F26BE40B543CF1000F19D
:10584000200646F82750CE1000F1200555F82650C6
:1058500045EA0304CE1000F1200545F82640F0BDCE
:10586000000002400004024000080240000C024018
:10587000001002400014024000180240001C0240C8
:10588000002002400024024000280240F94800683D
:1058900040F00100F74908600020F649083108602F
:1058A000F4480068F4490840F2490860F348091DCB
:1058B0000860F348EF4984310860F0481038091D4A
:1058C0000860EC48006820F48020EA490860002065
:1058D000E8490C310860E7498C31086070470021C5
:1058E000E44A921C117011460870704710B50146C9
:1058F0000022002300204A11012A02D1DD4C236836
:1059000008E0022A03D1DB4C7034236802E0D94C52
:105910007434236801F01F02012494401C400CB130
:10592000012000E0002010BD38B5002000900024C8
:10593000002500BF3120FFF7D9FF05460098401C25
:1059400000900098B0F5A04F01D0002DF2D031208A
:10595000FFF7CCFF08B1012400E00024204638BD49
:1059600001460020C34A106820F0F80040EAC10058
:1059700010607047C349086070470021BD4A70320B
:1059800011701170012802D004280AD104E001210D
:10599000B84A7032117005E00521B64A70321170B4
:1059A00000E000BF00BF7047B7490860704770B59E
:1059B000049C41EA82150126C6EB530645EA0645DA
:1059C000054345EA0465AB4E361D356070BDAD49F3
:1059D00008667047820142EA0172A64B84331A605E
:1059E0007047A8498866704710B5830143EA016390
:1059F00043EA02739F4C8834236010BDA1490867B5
:105A00007047A049C864704702460020994B08338C
:105A1000186820F0EC6042EA01031843954B083304
:105A20001860704702460020924B0833186820F037
:105A3000784042EA010318438E4B083318607047E0
:105A4000014600208B4A0832106820F0030008430A
:105A50001060704787480830006800F00C007047FD
:105A600001460020834A0832106820F0F000084305
:105A700010607047014600207E4A0832106820F40A
:105A8000E05008431060704701460020794A083210
:105A9000106820F4604040EAC10010607047F0B523
:105AA000002100220024022500260223714F08371E
:105AB0003F6807F00C0121B1042905D0082937D12E
:105AC00005E0724F076036E0714F076033E0694FC1
:105AD0003F1D3F68C7F38056664F3F1D3F6807F084
