:020000040800F2
:1000000090060020C90500088D0300088F03000832
:1000100093030008970300089B03000800000000FA
:100020000000000000000000000000009F03000826
:10003000A103000800000000A3030008A5030008B6
:10004000E3050008E3050008E3050008E3050008F0
:10005000E3050008E3050008E3050008E3050008E0
:10006000E3050008E3050008E3050008E3050008D0
:10007000E3050008E3050008E3050008E3050008C0
:10008000E3050008E3050008E3050008E3050008B0
:10009000E3050008E3050008E3050008E3050008A0
:1000A000E3050008E3050008E3050008E305000890
:1000B000E3050008E3050008E3050008E305000880
:1000C000E3050008E3050008E3050008E305000870
:1000D000E3050008E3050008E3050008E305000860
:1000E000E3050008E3050008E3050008E305000850
:1000F000E3050008E3050008E3050008E305000840
:10010000E3050008E3050008E3050008E30500082F
:10011000E3050008E3050008E3050008E30500081F
:10012000E3050008E3050008E3050008E30500080F
:1001300000F002F800F03CF80AA090E8000C8244BD
:100140008344AAF10107DA4501D100F031F8AFF29A
:10015000090EBAE80F0013F0010F18BFFB1A43F0A5
:10016000010318472811000048110000103A24BF6D
:1001700078C878C1FAD8520724BF30C830C144BF0C
:1001800004680C607047000000230024002500264E
:10019000103A28BF78C1FBD8520728BF30C148BFEA
:1001A0000B6070471FB501F069F81FBD10B510BD99
:1001B00001F02FF81146FFF7F5FF00F0C5F801F048
:1001C0004DF803B4FFF7F2FF03BC00F001F80000A4
:1001D000014600BF704700BF274A128812F0400F47
:1001E000FAD0C2B2254B1A80704710B586B00446CB
:1001F000012144F2040000F096FD4FF40070ADF8C8
:10020000140003208DF8160018208DF8170005A99A
:100210001B4800F0D5FA4FF48060ADF814000420BC
:100220008DF8170005A9164800F0CAFA25208DF8A8
:10023000000003208DF801008DF8020001208DF8E8
:100240000300684600F0E5F901940020ADF80800CD
:10025000ADF80A00ADF80C00ADF810000C20ADF8B8
:100260000E0001A9044800F00CFE0121024800F034
:1002700094FE06B010BD0000003801400438014073
:100280000008014010B56FF0040000F016FA2A488B
:1002900000682A49B0FBF1F0294908700846007847
:1002A0004FF47A7148432749088010BD0146244A1B
:1002B00012784A434FF0E0235A6100229A611A46AD
:1002C000126942F001021A6100BF4FF0E02210698A
:1002D00010F0010F02D010F4803FF6D04FF0E02272
:1002E000126922F001024FF0E0231A6100229A61A4
:1002F00070470146134A12884A434FF0E0235A617F
:1003000000229A611A46126942F001021A6100BF86
:100310004FF0E022106910F0010F02D010F4803F7E
:10032000F6D04FF0E022126922F001024FF0E023F4
:100330001A6100229A6170470400002000127A00BE
:100340000000002002000020FFF79CFF00F010F9E1
:1003500017E000200B4908604FF001000A49C1F87E
:10036000B8014FF49670FFF7C4FF012005490860FB
:100370004FF000000449C1F8B8014FF49670FFF740
:10038000B8FFE6E7B481224200002442704700BF74
:10039000FEE700BFFEE700BFFEE700BFFEE77047D5
:1003A000704770477047000000210020674A1268BC
:1003B00042F48032654B1A6000BF644A126802F44E
:1003C0000030491C10B9B1F5A06FF6D15F4A126830
:1003D00012F4003F01D0012000E00020012842D1AA
:1003E0005B4A126842F01002594B1A601A461268B2
:1003F00022F003021A601A46126842F002021A60E2
:10040000524A5268514B5A601A4652685A601A460C
:10041000526842F480625A601A46526822F47C1292
:100420005A601A46526842F4E8125A601A46126834
:1004300042F080721A6000BF444A126812F0007FD6
:10044000FAD0424A526822F00302404B5A601A46E0
:10045000526842F002025A6000BF3C4A526802F001
:100460000C02082AF9D1704710B5FFF79DFF10BDA7
:1004700010B53648006840F001003449086008466D
:1004800040683449084031494860084600683249AC
:1004900008402E4908600846006820F48020086063
:1004A0000846406820F4FE0048604FF41F00886052
:1004B000FFF7DAFF4FF000602849086010BD10B563
:1004C000002100200022214B5B6803F00C0121B1C8
:1004D000042906D0082928D107E0214B214C2360AC
:1004E00027E01F4B1F4C236023E0184B5B6803F48D
:1004F0007010164B5B6803F48032022303EB9040CC
:1005000022B9194B4343174C23600DE00F4B5B6836
:1005100013F4003F04D0144B4343124C236003E018
:100520000F4B43430F4C236003E00D4B0D4C2360F6
:1005300000BF00BF054B5B68C3F303130B4CE15CCA
:10054000084B1B68CB40074C236010BD00100240D5
:10055000002002400000FFF8FFFFF6FE08ED00E07B
:1005600000127A000400002000093D00080000206D
:1005700008B501214FF4907000F0D5FB4FF4005006
:10058000ADF8000003208DF8020010208DF8030064
:1005900069460B4800F014F94FF40051084800F088
:1005A000BAF94FF48040ADF800006946054800F004
:1005B00007F94FF48041034800F0ADF908BD000091
:1005C00000140140002001400948804709480047C5
:1005D000FEE7FEE7FEE7FEE7FEE7FEE7FEE7FEE7F3
:1005E000FEE7FEE704480549054A064B7047000050
:1005F00071040008310100089000002090060020DE
:10060000900200209002002036490143364A1160D2
:10061000704770B5002100230F22C4784CB3324CD0
:10062000246804F4E064C4F5E0644FEA1421C1F1E5
:10063000040322FA01F2447804FA03F1847804EA0C
:10064000020444EA01014FEA0111284C0678A15541
:10065000047804F01F054FF0010404FA05F405784E
:100660004FEA65154FF0E02606EB8505C5F8004119
:1006700009E0047804F01F050124AC401C4D067805
:10068000761145F8264070BD1A4A0A4002431A4BBB
:100690001A60704741B1194A126842EA00024FF0ED
:1006A000E023C3F8102D07E0144A126822EA000282
:1006B0004FF0E023C3F8102D7047042808D14FF005
:1006C000E021096941F004014FF0E022116107E0E7
:1006D0004FF0E021096921F004014FF0E02211619F
:1006E000704700000000FA050CED00E000E400E0B7
:1006F00080E100E080FFFF1F08ED00E010ED00E06A
:1007000010B50446CA48844208D10121042000F0F3
:1007100024FB0021042000F020FB46E0C548844271
:1007200008D10121082000F018FB0021082000F06A
:1007300014FB3AE0C048844208D10121102000F0A7
:100740000CFB0021102000F008FB2EE0BB48844287
:1007500008D10121202000F000FB0021202000F022
:10076000FCFA22E0B648844208D10121402000F082
:10077000F4FA0021402000F0F0FA16E0B14884427B
:1007800008D10121802000F0E8FA0021802000F04B
:10079000E4FA0AE0AC48844207D10121801500F058
:1007A000DCFA0021A01500F0D8FA10BD10B5012127
:1007B000084600F0D2FA0021012000F0CEFA10BD68
:1007C0002DE9F041024600250026002000230024E8
:1007D000002791F803C00CF00F0591F803C01CF03E
:1007E000100F03D091F802C04CEA0505B1F800C023
:1007F0001CF0FF0F31D0146800202BE04FF0010CEB
:100800000CFA00F3B1F800C00CEA03069E4220D1B6
:1008100083004FF00F0C0CFA03F7BC4305FA03FCFE
:100820004CEA040491F803C0BCF1280F06D14FF044
:10083000010C0CFA00FCC2F814C00AE091F803C0E5
:10084000BCF1480F05D14FF0010C0CFA00FCC2F8C6
:1008500010C0401C0828D1D31460B1F800C0BCF10E
:10086000FF0F34DD546800202EE000F1080C4FF03B
:10087000010808FA0CF3B1F800C00CEA03069E4226
:1008800021D183004FF00F0C0CFA03F7BC4305FA9B
:1008900003FC4CEA040491F803C0BCF1280F05D115
:1008A00000F1080C08FA0CF8C2F8148091F803C0A3
:1008B000BCF1480F07D100F1080C4FF0010808FA0D
:1008C0000CF8C2F81080401C0828CED35460BDE854
:1008D000F0814FF6FF710180022181700421C17007
:1008E00070470246002093680B4201D0012000E0CF
:1008F000002070470146886880B270470246002099
:10090000D3680B4201D0012000E00020704701466F
:10091000C86880B2704701617047416170470AB191
:10092000016100E041617047C16070474FF480325F
:100930000A438261816182618269826970470246ED
:100940000020424B18684FF68073184040EA0210AE
:1009500008433E4B186070473D49C8617047F0B589
:100960000A46002300240021002500F00046B6F1CD
:10097000004F02D1354EF16901E0344E7168C0F389
:10098000034583B200F44016B6F5401F08D121F0AC
:1009900070612E4E766826F070662C4F7E6012E0F5
:1009A00000F48016B6F5801F06D1032606FA05F47A
:1009B000A14341F0706106E0460D360103FA06F6E8
:1009C000B14341F0706122B1460D360103FA06F6DB
:1009D000314300F00046B6F1004F02D11B4EF161E9
:1009E00001E01A4E7160F0BD30B500228B071C0F7C
:1009F0000F2303FA04F2154B08338C1053F82430FC
:100A00009343124C08348D1044F8253023468C1043
:100A100053F824308C07240F00FA04F423430B4CC2
:100A200008348D1044F8253030BD0A4908607047FD
:100A300000080140000C014000100140001401407A
:100A400000180140001C014000200140000001404E
:100A500000002042DC002042DB48006840F001003A
:100A6000D949086008464068D8490840D6494860D6
:100A700008460068D6490840D3490860084600681F
:100A800020F4802008600846406820F4FE0048609A
:100A90004FF41F0088607047CB49096821F480310A
:100AA000C94A11601146096821F480211160B0F52E
:100AB000803F03D0B0F5802F0ED106E0C24909680F
:100AC00041F48031C04A116007E0BF49096841F430
:100AD000A021BD4A116000E000BF00BF704710B503
:100AE00001460022002300204A11012A02D1B64CFF
:100AF000236806E0022A02D1B34C236A01E0B24C1B
:100B0000636A01F01F02012494401C4201D00120BD
:100B100000E0002010BD70B500240025002600BFB5
:100B20003120FFF7DCFF0646641CB4F5A06F01D04E
:100B3000002EF5D03120FFF7D2FF08B1012500E0EB
:100B40000025284670BD014600209F4A106820F00D
:100B5000F80040EAC100106070479E490860704785
:100B600002460020984B586820F47C1042EA0103AA
:100B70001843954B58607047964908667047014680
:100B80000020914A506820F00300084350607047ED
:100B90008D48406800F00C007047014600208A4AEA
:100BA000506820F0F0000843506070470146002074
:100BB000854A506820F4E060084350607047014661
:100BC0000020814A506820F4605040EAC100506023
:100BD000704729B17C4A527A02437B4B5A7206E035
:100BE000794A527AC343DBB21A40774B5A72704744
:100BF00079490860704701460020734A506820F424
:100C000040400843506070470021744A11706E4A9A
:100C100082F82010012802D0042808D103E0012125
:100C20006E4A117004E005216C4A117000E000BFAB
:100C300000BF70476A49086070476349096A014309
:100C4000614A1162704767490860704730B50021FA
:100C50000022002400235C4D6D6805F00C0121B1D9
:100C6000042905D0082923D105E05F4D056022E065
:100C70005D4D05601FE0544D6D6805F47012524DD6
:100C80006D6805F48034022505EB92421CB9574D7E
:100C9000554305600BE04C4D6D6815F4003F03D0E3
:100CA000524D5543056002E04F4D5543056002E04B
:100CB0004D4D056000BF00BF434D6D6805F0F0016C
:100CC00009094B4D6B5C0568DD4045603E4D6D6824
:100CD00005F4E061090A464D6B5C4568DD408560BE
:100CE000394D6D6805F46051C90A414D6B5C45682A
:100CF000DD40C560344D6D6805F44041890B3D4DC4
:100D00006B5CC568B5FBF3F5056130BD29B12E4AB2
:100D1000526902432C4B5A6104E02B4A52698243C8
:100D2000294B5A61704729B1274A92690243264BE1
:100D30009A6104E0244A92698243234B9A61704786
:100D400029B1214AD26902431F4BDA6104E01E4AED
:100D5000D26982431C4BDA61704729B11A4AD268C2
:100D60000243194BDA6004E0174AD2688243164BFB
:100D7000DA60704729B1144A12690243124B1A61B2
:100D800004E0114A126982430F4B1A6170471A49F5
:100D9000086070470F49C86470470B49C8717047B5
:100DA0000948406A40F08070074948627047014630
:100DB0000020054A92680A4201D0012000E000208C
:100DC0007047014988727047001002400000FFF828
:100DD000FFFFF6FE00004242D800424220100240CF
:100DE000800442423C04424200127A0000093D0065
:100DF00018000020280000204004424210B504469C
:100E0000FC48844209D101218803FFF7A6FF002195
:100E10004FF48040FFF7A1FF32E0F748844209D148
:100E200001214804FFF7A6FF00214FF40030FFF72F
:100E3000A1FF25E0F148844209D101218804FFF790
:100E400099FF00214FF48020FFF794FF18E0EC4851
:100E5000844209D10121C804FFF78CFF00214FF41F
:100E60000020FFF787FF0BE0E648844208D101210C
:100E70000805FFF77FFF00214FF48010FFF77AFF8E
:100E800010BD2DE9F04786B005460E460024A24667
:100E900000BFA1460027B08900B100BF2F462C8AB1
:100EA0004CF6FF700440F08804432C82AC894EF667
:100EB000F3100440B0883189084371890843044322
:100EC000AC81AC8A4FF6FF400440B0890443AC8249
:100ED00001A8FFF7BBFEC748874202D1DDF810A08A
:100EE00001E0DDF80CA0A88910F4004F08D00AEB4F
:100EF000CA0000EB0A1031684900B0FBF1F807E0C6
:100F00000AEBCA0000EB0A1031688900B0FBF1F867
:100F10006420B8FBF0F004012009642101FB108972
:100F2000A88910F4004F08D0322000EBC900B0FBB4
:100F3000F1F000F00700044308E0322000EB091054
:100F40006421B0FBF1F000F00F0004432C8106B0E7
:100F5000BDE8F0874FF41651016000218180C18007
:100F600001810C21418100218181704710B5024629
:100F70000020108A4FF2FF0318400B884C8823434F
:100F80008C882343CC8823431843108210BD002152
:100F9000018041808180C180704721B1828942F403
:100FA0000052828104E082894DF6FF731A408281EB
:100FB0007047F0B503460024002600250020A1F567
:100FC00010676A3F00D100BF1846C1F3421401F018
:100FD0001F06012707FA06F5012C01D10C3004E0A9
:100FE000022C01D1103000E014301AB107682F43F1
:100FF000076002E00768AF430760F0BD10B51AB1A3
:10100000838A0B43838204E0838ACC43A4B22340C7
:10101000838210BD028A4FF6F0731A400282028A60
:101020000A430282704782894FF2FF731A4082811D
:1010300082890A438281704721B1828942F002028B
:10104000828104E082894FF6FD731A4082817047E5
:10105000028A4FF6DF731A400282028A0A43028232
:10106000704721B1028A42F48042028204E0028A7F
:101070004BF6FF731A4002827047C1F30802828068
:10108000704701468888C0F308007047818941F0A5
:10109000010181817047028BD2B20283028B42EA46
:1010A000012202837047028B02F47F420283028B8B
:1010B0000A430283704721B1828A42F02002828271
:1010C00004E0828A4FF6DF731A408282704721B1B2
:1010D000828A42F01002828204E0828A4FF6EF7325
:1010E0001A408282704721B1828A42F008028282CD
:1010F00004E0828A4FF6F7731A408282704721B16A
:10110000828942F40042828103E08289C2F30E02A6
:101110008281704721B1828A42F40062828204E0B7
:10112000828A4FF2FF731A4082827047828A4FF69A
:10113000FB731A408282828A0A438282704721B1FD
:10114000828A42F00202828204E0828A4FF6FD73B4
:101150001A408282704702460020B1F5007F00D11C
:1011600000BF13880B4201D0012000E0002070472F
:1011700001F40072B2F5007F00D100BFCA430280C3
:10118000704770B502460024002300250020A1F519
:1011900010666A3E00D100BFC1F3421501F01F0383
:1011A000012606FA03F3012D02D19689334006E0A9
:1011B000022D02D1168A334001E0968A33400C1288
:1011C000012606FA04F41688344013B10CB101204C
:1011D00000E0002070BD10B500220023A1F51064CE
:1011E0006A3C00D100BF0A1201249440A3B2DC4340
:1011F000048010BD00380140004400400048004019
:10120000004C0040005000407047704770477047E6
:101210007047754600F028F8AE460500694653460B
:1012200020F00700854618B020B5FFF7DBF9BDE8D0
:1012300020404FF000064FF000074FF000084FF03D
:10124000000B21F00701AC46ACE8C009ACE8C009CE
:10125000ACE8C009ACE8C0098D4670470446AFF35E
:1012600000802046FEF7ADFF004870472C000020AC
:1012700001487047704700BF3000002010B5FFF7ED
:10128000F7FF4FF00001016010BD0000AC12000834
:10129000000000202C0000006C010008D81200089B
:1012A0002C000020640600008801000800000000F7
:1012B00000A24A0400000000000000000102030434
:1012C00006070809000000000102030401020304EC
:0812D0000607080902040608E4
:0400000508000131BD
:00000001FF
