:020000040800F2
:100000001807002005010008912A0008B7260008FB
:100010008D2A0008C707000805310008000000000D
:10002000000000000000000000000000C52A0008D9
:100030001908000800000000992A0008C72A0008D3
:100040001F0100081F0100081F0100081F01000810
:100050001F0100081F0100081F0100081F01000800
:100060001F0100081F0100081F0100081F010008F0
:100070001F0100081F0100081F010008CD0700082C
:10008000DD0700081F0100081F0100081F0100080C
:100090001F0100081F0100081F0100081F010008C0
:1000A0001F0100081F0100081F0100081F010008B0
:1000B0001F0100081F0100083D2B00081F01000858
:1000C0001F0100081F0100081F0100081F01000890
:1000D0001F010008DD300008F13000081F01000892
:1000E0001F0100081F0100081F010008DFF810D0E1
:1000F00000F0F6FA00480047CD320008AFF3008068
:10010000180700200648804706480047FEE7FEE73C
:10011000FEE7FEE7FEE7FEE7FEE7FEE7FEE7FEE7B7
:10012000392B0008ED000008202A04DB203A21FAD0
:1001300002F00021704721FA02F3D040C2F1200200
:100140009140084319467047D2B201E000F8012BF4
:10015000491EFBD270470022F6E710B513460A4647
:1001600004461946FFF7F0FF204610BD70B506465D
:1001700002F0E6FF046805460A220021304600F03E
:10018000E3F92C6070BD2DE9FE4F804681EA030043
:10019000C00F0C46009021F0004123F00045B8EB61
:1001A0000200A94105D24046214690461C460B4616
:1001B000024623F00040104347D0270DC7F30A0042
:1001C000C3F30A510290401A019040286BDAC3F33E
:1001D000130040F4801B0098924620B10023D2EB1C
:1001E000030A63EB0B0B01985946C0F140025046DD
:1001F00000F089F906460D4650465946019A00F02E
:1002000091F910EB08006141002487EA115284EA59
:10021000E7731A4340D0009A62B3019A012A4FEA69
:10022000075215DC001B61EB02014FF0004202EAAD
:100230000752CDE90042001C41F5801132462B46A1
:1002400000F000FA03B0BDE8F08F40462146F9E720
:10025000001B61EB0201001C41F5801300185B419B
:100260002018A2F5001747EB030140EAD570B61934
:100270006D4111E06D084FEA360645EAC0754FEA58
:100280000752001B61EB0201001C41F58011490877
:100290004FEA30000019514132462B4603B0BDE809
:1002A000F04F00F0C0B90098012240000023D0EBCD
:1002B000020263EBE073009821464FEAE074B8EB6A
:1002C000000061EB0401E9E783F000435BE781F0A4
:1002D000004158E72DE9FE4F81EA030404F0004491
:1002E00021F0004100944FF0000B23F0004350EA4E
:1002F00001045ED052EA03045BD0C3F30A54C1F395
:100300000A552C44A4F2F3340194A0FB0254C1F327
:10031000130141F48011C3F3130343F4801301FB71
:10032000024400FB034E840A970A44EA815447EAD8
:100330008357A4FB076802958D0A05FB07854FEAE2
:10034000932C04FB0C542705029D4FEA065847EAFC
:100350001637B5EB08056EEB070C870E920E47EAD1
:10036000811742EA8312A7FB0201B6EB0B0164EB93
:1003700000042B0D43EA0C335E1844EB1C50DA46A4
:100380005146E7FB0201C5F313044FEA0B3343EA7E
:1003900014534FEA0432019C43EA0603A4F10C040F
:1003A0000294009CCDE900B400F04CF903B0BDE824
:1003B000F08F00200146F9E72DE9F04D81EA0304B2
:1003C00004F0004B21F0004514464FF0000A23F0E2
:1003D000004150EA050220D054EA01021DD0C5F3C5
:1003E0000A570246C5F31303C1F31300C1F30A56BB
:1003F00040F4801543F48013A7EB0608101BD64683
:1004000008F2FD3873EB050002D308F1010801E0A2
:1004100092185B41B8F1000F03DA00200146BDE8F5
:10042000F08D00204FF48011064684460EE0171B25
:1004300073EB050705D3121B63EB050306434CEA78
:10044000010C49084FEA300092185B4150EA01075D
:10045000EDD152EA030012D082EA040083EA0501DA
:10046000084305D0101BAB4106D20122002306E051
:1004700000224FF0004302E06FF0010253101AEB2C
:1004800006004CEB085110EB0A0041EB0B01BDE8F4
:10049000F04D00F0C8B8C10F80EAE0700844CA0708
:1004A0009623002100F091B800F0004230F00040A7
:1004B0000AD0C10D01F56071C0F3160042EA015186
:1004C000C20840071143704700200146704701F001
:1004D000004330B421F0004150EA010206D00A0D79
:1004E000A2F56072C1F31301002A02DC30BC0020C7
:1004F0007047440F44EAC104C100E01830BC00EB6F
:10050000C25000F059B8202A04DB203A00FA02F168
:10051000002070479140C2F1200320FA03F31943F1
:1005200090407047202A06DBCB17203A41FA02F0B0
:1005300043EAE07306E041FA02F3D040C2F1200240
:1005400091400843194670472DE9F04791460F4600
:1005500080460446002614F8015B2DB100F0D2F865
:100560000068405DC007F6D12B2D02D02D2D18D08C
:10057000641E4A463946204600F0C8F827B139685B
:10058000A14201D1C7F8008071054FF002040BD5DC
:100590004042002803DD02F0D3FD0460A007BDE85F
:1005A000F08746F48066E4E70028F8DA02F0C8FD38
:1005B00004606FF00040F2E70029A8BF7047401CBC
:1005C000490008BF20F00100704710B4B0FA80FC69
:1005D00000FA0CF050EA010404BF10BC704749B1A6
:1005E000CCF1200421FA04F411FA0CF118BF012116
:1005F00021430843A3EB0C01CB1D4FEA00614FEAF6
:10060000102042BF002010BC704700EBC3501044C4
:100610000029A4BF10BC7047401C490008BF20F04F
:10062000010010BC704710B5141E73F1000408DA05
:10063000401C41F1000192185B411A4301D120F0A6
:10064000010010BD2DE9F04D92469B4611B1B1FA63
:1006500081F202E0B0FA80F220329046FFF753FFB9
:1006600004460F4640EA0A0041EA0B0153465A4647
:10067000084313D0114653EA010019D0C8F14002D3
:100680005046FFF751FD05460E4650465946424634
:10069000FFF739FF084305D0012004E02046394622
:1006A000BDE8F08D0020054346EAE0762C43374351
:1006B0000A986305E40AA0EB08000022FD0A44EA58
:1006C00047540A3002D500200146E9E70105101918
:1006D0006941DDE9084500196941BDE8F04DA2E72F
:1006E000064C074D06E0E06840F0010394E807007F
:1006F00098471034AC42F6D3FFF7FCFCB034000846
:10070000D034000800487047AC3400082DE9F05F91
:1007100082460078002715468B460AF10104B94647
:10072000302801D09DB113E014F8010B012778287F
:1007300003D0582801D045B10AE00DB1102D07D1E2
:100740000027102514F8010B02E0082500E00A2517
:100750000026B0460EE005FB080005FB06F1012768
:1007600001EB10461FFA80F8B6F5803F00D3B9467A
:1007700014F8010B294600F018F80028EBDABBF159
:10078000000F05D00FB1641E00E05446CBF80040C6
:10079000B9F1000F06D002F0D3FC02210160C81E9F
:1007A000BDE8F09F48EA0640FAE73A2800D2303820
:1007B00020F02002412A01D3A2F13700884201D360
:1007C0004FF0FF30704700BFFEE7000010B5024851
:1007D00000F028F910BD0000C001002010B502484B
:1007E00000F020F910BD00000402002030B590F8A0
:1007F00040500124AC40C56B6C6004686360446881
:10080000102C04D10468A2600468E16003E004686D
:10081000A1600468E26030BD704772B600BFFEE7B9
:1008200010B5044694F82900552818D12A20005DF7
:10083000512814D12B22115D2C22105D02F094FC62
:1008400020602D22115D2E22105D02F08DFC606073
:100850002F22115D3022105D02F086FCA060342052
:10086000005D552818D13520005D522814D136225C
:10087000115D3722105D02F0A9FDE0603822115DA4
:100880003922105D02F0A2FD20613A22115D3B2267
:10089000105D02F09BFD60613F20005D55281FD177
:1008A0004020005D53281BD14122115D4222105D82
:1008B00002F07CFCA0614322115D4422105D02F035
:1008C00075FCE0614522115D4622105D02F06EFC70
:1008D00020624722115D4822105D02F013FD606224
:1008E00010BD000010B50B480068C06840F0200043
:1008F00008490968C86007480068C06840F01000EF
:1009000004490968C8603C220349024801F06EFEB0
:1009100010BD0000400100207102002001460022AD
:1009200091F82100022808D00420886300BF00202D
:1009300081F8200000BF012070470868006820F09F
:100940000E000B6818600868006820F001000B6852
:10095000186091F8403001209840CB6B586001201E
:1009600081F8210000BF002081F8200000BF104660
:10097000E2E7000070B50446002594F82100022843
:1009800003D00420A063012548E02068006820F01F
:100990000E00216808602068006820F001002168CE
:1009A00008601F492068884201D1012026E01C49C7
:1009B00014312068884201D110201FE018492831E5
:1009C0002068884201D1801518E015493C31206823
:1009D000884201D1801411E01149503120688842C9
:1009E00002D14FF4803009E00D496431206888421B
:1009F00002D14FF4801001E04FF0807008490839AF
:100A00004860012084F8210000BF002084F8200005
:100A100000BF606B10B12046616B8847284670BDEF
:100A20000800024070B50446E06B0568206806685F
:100A300094F84010042088402840002846D006F052
:100A40000400002842D02068006800F0200028B987
:100A50002068006820F00400216808605749206879
:100A6000884201D1042027E054491431206888428B
:100A700001D1402020E0514928312068884201D12D
:100A8000001519E04D493C312068884202D14FF4ED
:100A9000804011E0494950312068884202D14FF42A
:100AA000802009E0454964312068884202D14FF432
:100AB000800001E04FF08060404908394860E06AFA
:100AC00000287AD02046E16A884776E094F8401002
:100AD000022088402840A0B306F0020088B32068B6
:100AE000006800F0200040B92068006820F00A008B
:100AF00021680860012084F821003049206888427C
:100B000001D1022028E02D4914312068884201D10A
:100B1000202021E0294928312068884201D1401550
:100B20001AE026493C312068884202D14FF4005037
:100B300012E0224950312068884203D14FF400303E
:100B40000AE017E01D4964312068884202D14FF461
:100B5000001001E04FF0007018490839486000BFEC
:100B6000002084F8200000BFA06A30B32046A16AAC
:100B7000884722E094F84010082088402840E0B1DF
:100B800006F00800C8B12068006820F00E00216857
:100B9000086094F8401001208840E16B4860012013
:100BA000A06384F8210000BF002084F8200000BF6B
:100BB000206B10B12046216B884770BD08000240B1
:100BC0000146002209B901207047164B0868C01A77
:100BD0001423B0FBF3F08000086412480838C8639F
:100BE000022081F821000868026843F6F070824311
:100BF000D1E901031843CB6818430B6918434B69CB
:100C000018438B691843CB69184302430868026094
:100C100000208863012081F82100002081F8200055
:100C200000BFD1E7080002402DE9F04104460D461F
:100C300016461F464FF0000800BF94F82000012818
:100C400002D10220BDE8F081012084F8200000BF1D
:100C500094F8210001282CD1022084F821000020E2
:100C6000A0632068006820F00100216808603B460E
:100C7000324629462046FFF7B9FDE06A30B12068C8
:100C8000006840F00E00216808600BE020680068F2
:100C900020F00400216808602068006840F00A0025
:100CA000216808602068006840F001002168086041
:100CB00006E000BF002084F8200000BF4FF00208CB
:100CC0004046BFE770B5044600F0A6F90646254643
:100CD000681C10B104480078054400BF00F09CF97E
:100CE000801BA842FAD370BD080000202DE9F84708
:100CF0000346002294466EE14FF0010808FA02F420
:100D0000D1F8008008EA0400A0427DD1DFF8DCA21F
:100D1000D1F80480A8EB0A09D0453AD014DCB8F128
:100D2000030F50D009DCB8F1000F31D0B8F1010F3A
:100D30001CD0B8F1020F49D120E0B8F1110F18D042
:100D4000B8F1120F42D11EE0B9F5881F25D006DC9C
:100D5000B9F5803F20D0B9F5801F37D11AE0B9F539
:100D6000001F18D0B9F5041F30D117E0D1F80CC01E
:100D70002DE0D1F80C8008F1040C28E0D1F80C80AB
:100D800008F1080C23E0D1F80C8008F10C0C1EE0EF
:100D900000BF00BF00BF00BF00BF00BFD1F8088088
:100DA000B8F1000F02D14FF0040C0BE0D1F808802D
:100DB000B8F1010F03D14FF0080C1C6102E04FF0B5
:100DC000080C5C6103E04FF0000C00E000BF00BFC6
:100DD000FF2801D8984601E003F104084646FF28A1
:100DE00002D84FEA820803E0A2F108084FEA880817
:100DF0004746D6F800804FF00F0909FA07F928EAAC
:100E000009080CFA07F900E088E048EA0908C6F882
:100E10000080D1F8048008F08058B8F1805F7DD15F
:100E200000BFDFF8CC81D8F8188048F00108DFF85F
:100E3000C091C9F81880C846D8F8188008F0010891
:100E4000CDF8008000BF00BF4FEAB9384FEA9209E1
:100E500058F829504FEA82784FEA18794FF00F0876
:100E600008FA09F825EA0805DFF88881434502D128
:100E70004FF0000816E0DFF88081434502D14FF0C3
:100E800001080FE0DFF87481434502D14FF00208FA
:100E900008E0DFF86C81434502D14FF0030801E020
:100EA0004FF004084FEA82794FEA197908FA09F8F5
:100EB00048EA0505DFF84C814FEA920948F82950C5
:100EC000D1F8048008F48038B8F5803F0AD1DFF803
:100ED0003881D8F8008048EA0008DFF82C91C9F87A
:100EE000008009E0DFF82081D8F8008028EA0008B7
:100EF000DFF81491C9F80080D1F8048008F40038B4
:100F0000B8F5003F10D1DFF8008108F10408D8F8E7
:100F1000008048EA0008DFF8F09000E05AE009F1AC
:100F20000409C9F800800DE0DFF8DC8008F104084E
:100F3000D8F8008028EA0008DFF8CC9009F104090D
:100F4000C9F80080D1F8048008F48018B8F5801F33
:100F50000ED1DFF8B48008F10808D8F8008048EA1C
:100F60000008DFF8A49009F10809C9F800800DE035
:100F7000DFF8948008F10808D8F8008028EA000813
:100F8000DFF8849009F10809C9F80080D1F80480DD
:100F900008F40018B8F5001F0ED1DFF86C8008F1D6
:100FA0000C08D8F8008048EA0008DFF85C9009F1E6
:100FB0000C09C9F800800DE0DFF84C8008F10C083E
:100FC000D8F8008028EA0008DFF83C9009F10C0905
:100FD000C9F80080521CD1F8008028FA02F8B8F154
:100FE000000F7FF489AEBDE8F88700000000111003
:100FF0000010024000080140000C014000100140B8
:101000000014014008000140000401400AB10161E0
:1010100001E00B040361704701480068704700005D
:10102000000000200348006803490978084401498A
:1010300008607047000000200800002010B5084834
:10104000006840F0100006490860032000F0A8F88E
:10105000002000F007F800F02BF8002010BD000081
:101060000020024070B504460E4800784FF47A71B3
:10107000B1FBF0F00C490968B1FBF0F5284600F02F
:1010800023FC08B1012070BD102C07D2002221469C
:10109000501E00F047F80548046001E00120F2E727
:1010A0000020F0E7080000200C00002004000020D1
:1010B00008B500BF1148806940F001000F49886100
:1010C0000846806900F00100009000BF00BF00BF2B
:1010D0000846C06940F08050C8610846C06900F009
:1010E0008050009000BF00BF00BF0549486820F055
:1010F000E06040F00070486000BF08BD0010024092
:101100000000014001460846002809DB00F01F03EB
:1011100001229A4043099B0003F1E023C3F8002118
:1011200000BF70472DE9F05F80460D461646002748
:1011300001F0EAFF074639462A46334601F0070028
:10114000C0F1070ABAF1040F02D94FF0040A01E016
:10115000C0F1070AD14600F1040ABAF1070F02D222
:101160004FF0000A01E0A0F1030AD4464FF0010A53
:101170000AFA09FAAAF1010A0AEA020A0AFA0CFAB8
:101180004FF0010B0BFA0CFBABF1010B0BEA030B5D
:101190004AEA0B042146404601F0BEFFBDE8F09F3D
:1011A00000BF00F00702064B19684FF6FF03194015
:1011B000044B0B4343EA0221014B196000BF704707
:1011C0000CED00E00000FA057047000070B5044621
:1011D0000D460CB9012070BD5A48006800F00700A8
:1011E000A8420ED25748006820F00700284355490E
:1011F00008600846006800F00700A84201D00120FE
:10120000E9E7207800F0020002281DD1207800F0E4
:101210000400042805D14C48406840F4E0604A4985
:101220004860207800F00800082805D1464840684A
:1012300040F46050444948604348406820F0F00062
:10124000A168084340494860207800F0010078B365
:101250006068012806D13C48006800F4003090B96D
:101260000120B8E76068022806D13748006800F01E
:10127000007040B90120AEE73348006800F002007A
:1012800008B90120A7E73048406820F003006168F2
:1012900008432D494860FFF7BFFE064609E0FFF707
:1012A000BBFE801B41F28831884202D9032092E7BD
:1012B00007E02548406800F00C006168B0EB810F42
:1012C000EDD12048006800F00700A8420ED91D4863
:1012D000006820F0070028431A49086008460068A3
:1012E00000F00700A84201D0012074E7207800F048
:1012F0000400042807D11448406820F4E060E16845
:10130000084311494860207800F00800082808D1F7
:101310000D48406820F46050216940EAC1000A4944
:10132000486000F045F808494968C1F30311074ACD
:10133000515CC8400649086006480068FFF792FE05
:10134000002048E70020024000100240103400084E
:101350000C0000200400002001200149C8647047EF
:101360000000424201480068704700000C00002065
:1013700000B5FFF7F7FF04494968C1F30221034AAA
:10138000515CC84000BD000000100240203400083D
:1013900000B5FFF7E7FF04494968C1F3C221034ADA
:1013A000515CC84000BD000000100240203400081D
:1013B000F0B585B00FF26C0C9CE8E01001A8A0E835
:1013C000E0101CA52D6800950021002200230024B8
:1013D0000020194D696801F00C05F5B1042D02D00B
:1013E000082D19D101E0154819E001ADC1F383467C
:1013F000AC5D01F4803555B10F4D6D68C5F34045C6
:101400001DF805200D4D6543B5FBF2F302E00C4DD0
:1014100004FB05F3184602E000BF084800BF00BF08
:1014200005B0F0BD02030405060708090A0B0C0D00
:101430000E0F1010010200000010024000127A008E
:1014400000093D0010B50648806800F08000802843
:1014500004D1FFF7B9FE80200149887210BD000059
:1014600000100240F8B504460CB90120F8BD207800
:1014700000F00100002878D0F848406800F00C0027
:1014800004280CD0F548406800F00C00082811D161
:10149000F248406800F48030B0F5803F0AD1EF4850
:1014A000006800F4003000285FD0606800285CD13C
:1014B0000120DBE700BF6068B0F5803F06D1E74858
:1014C000006840F48030E549086028E0606858B959
:1014D000E248006820F48030E0490860084600686F
:1014E00020F4802008601AE06068B0F5A02F0BD1CE
:1014F000DA48006840F48020D8490860084600684F
:1015000040F4803008600AE0D448006820F480305D
:10151000D24908600846006820F48020086000BFB7
:10152000606888B1FFF778FD054606E0FFF774FDB7
:10153000401B642801D9032098E7C848006800F4DC
:1015400000300028F2D010E0FFF766FD054606E007
:10155000FFF762FD401B642801D9032086E7BF48DE
:10156000006800F400300028F2D1207800F002007A
:10157000022857D1B948406800F00C0050B1B74874
:10158000406800F00C00082818D1B448406800F406
:10159000803098B9B148006800F0020020B120699D
:1015A000012801D0012061E7AC48006820F0F80074
:1015B000616940EAC100A949086033E02069E8B1E7
:1015C0000120A7490860FFF727FD054606E0FFF761
:1015D00023FD401B022801D9032047E79F480068EC
:1015E00000F002000028F2D09C48006820F0F800CB
:1015F000616940EAC1009949086013E000209849F8
:101600000860FFF709FD054606E0FFF705FD401BF2
:10161000022801D9032029E79048006800F0020061
:101620000028F2D1207800F0080008282DD1A06908
:10163000B8B101208B490860FFF7EEFC054606E0D3
:10164000FFF7EAFC401B022801D903200EE783487C
:10165000406A00F002000028F2D0012001F01EFADA
:1016600013E000207F490860FFF7D6FC054606E03E
:10167000FFF7D2FC401B022801D90320F6E6774889
:10168000406A00F002000028F2D1207800F0040047
:10169000042873D100277148C06900F0805070B9E8
:1016A00000BF6E48C06940F080506C49C861084670
:1016B000C06900F08050009000BF00BF01276A4859
:1016C000006800F48070B0B96748006840F480702A
:1016D00065490860FFF7A0FC054606E0FFF79CFCA3
:1016E000401B642801D90320C0E65F48006800F46D
:1016F00080700028F2D000BFE068012806D157486A
:10170000006A40F001005549086227E0E06858B9D6
:101710005248006A20F00100504908620846006AF9
:1017200020F00400086219E0E06805280BD14B485E
:10173000006A40F00400494908620846006A40F027
:10174000010008620AE04548006A20F001004349B0
:1017500008620846006A20F00400086200BFE068E2
:10176000A0B1FFF759FC054609E0FFF755FC401B07
:1017700041F28831884202D9032077E622E03748D7
:10178000006A00F002000028EFD012E0FFF744FCEE
:10179000054608E0FFF740FC401B41F288318842D3
:1017A00001D9032062E62D48006A00F002000028FB
:1017B000F0D1012F05D12948C06920F08050274978
:1017C000C86100BFE069C8B32448406800F00C005D
:1017D000082860D0E069022848D100202049086626
:1017E000FFF71AFC054606E0FFF716FC401B02282F
:1017F00001D903203AE61948006800F0007000287B
:10180000F2D1206AB0F5803F07D11448406820F437
:101810000030A168084311494860D4E90801084331
:101820000E49496821F4741108430C4948600120AD
:101830000B490866FFF7F0FB054607E03DE0FFF7C0
:10184000EBFB401B022801D903200FE60348006888
:1018500000F000700028F2D02FE0000000100240DD
:1018600000004242800442420070004000201449BF
:101870000866FFF7D1FB054606E0FFF7CDFB401BEE
:10188000022801D90320F1E50E48006800F000703D
:101890000028F2D111E0E069012800D1E6E509480D
:1018A000466806F48031206A814204D106F4701142
:1018B000606A814201D00120D8E50020D6E5000011
:1018C000000042420010024070B504462546681EE2
:1018D000B0F1807F01D301200FE0681E4FF0E021BE
:1018E00048610F214FF0FF3001F016FC00204FF04F
:1018F000E021886107200861002070BD70477047B3
:1019000010B50346002200BF93F83C00012801D126
:10191000022010BD012083F83C0000BF22F0FF0030
:10192000CC6840EA040222F440708C6840EA040269
:1019300022F480604C6840EA040222F400600C68E3
:1019400040EA040222F480500C6940EA040222F4C6
:1019500000504C6940EA040222F48040CC6940EA1D
:1019600004021868426400BF002083F83C0000BFF6
:1019700000BFCEE730B502460B4600BF92F83C00F0
:10198000012801D1022030BD012082F83C0000BFB7
:10199000022082F83D00106844681068816824F0D5
:1019A00070041868044310684460104D1068A84221
:1019B0000BD01068B0F1804F07D00D4D1068A842D1
:1019C00003D00C4D1068A84205D121F08001586861
:1019D000014310688160012082F83D0000BF0020B3
:1019E00082F83C0000BF00BFCDE70000002C0140A2
:1019F000000400400008004010B504460CB9012066
:101A000010BD94F83D0028B9002084F83C00204621
:101A100000F026F8022084F83D00211D206801F026
:101A200095F8012084F8460000BF84F83E000121AB
:101A30003F200155402001554120015500BF00BF06
:101A4000012084F8420043200155442001554520DF
:101A5000015500BF012084F83D000020D0E70000C0
:101A600038B504461649206888420DD100BF154894
:101A7000806940F40060134988610846806900F479
:101A80000060009000BF19E00F492068884215D11E
:101A900000BF0C48C06940F004000A49C86108460C
:101AA000C06900F00400009000BF00BF0022114692
:101AB0001E20FFF737FB1E20FFF724FB38BD000078
:101AC000002C01400010024000080040014691F83F
:101AD0003D00012801D001207047022081F83D001F
:101AE0000868C06840F001000B68D860124B0868B5
:101AF00098420BD00868B0F1804F07D00F4B0868B0
:101B0000984203D00E4B086898420CD10868806850
:101B100000F00702062A0CD00868006840F00100B7
:101B20000B68186005E00868006840F001000B6869
:101B300018600020D0E70000002C014000040040A5
:101B4000000800402DE9F04104460D4600BF94F81E
:101B50003C00012802D10220BDE8F081012084F878
:101B60003C0000BF022084F83D002068866826F013
:101B7000770626F47F46206886602868502833D090
:101B80000CDC202850D004DC00284BD0102851D188
:101B900049E0302849D040284CD139E060282DD088
:101BA000702807D0B0F5805F03D0B0F5005F41D159
:101BB0000DE040E0D5E902136A68206801F011F8F1
:101BC0002068866846F077062068866033E0D5E9AD
:101BD00002136A68206801F004F82068806840F405
:101BE00080402168886026E0EA686968206801F022
:101BF000C9F85021206800F0FFFF1CE0EA6869681E
:101C0000206801F0D2F86021206800F0F5FF12E0B2
:101C1000EA686968206801F0B5F84021206800F0A2
:101C2000EBFF08E000BF00BF00BF2968206800F09C
:101C3000E3FF00E000BF00BF012084F83D0000BFCB
:101C4000002084F83C0000BF00BF85E72DE9F0418B
:101C500004460D4614B90120BDE8F08194F83D001A
:101C600028B9002084F83C00204600F051F80220FA
:101C700084F83D002068806844F2070188432168A9
:101C80008860211D206800F061FF2068D0F808807E
:101C9000206886692068076A286840EA080840F2D8
:101CA00003308643A969A86840EA0120064340F64C
:101CB0000C4086434FF2F0008643E969E86840EA49
:101CC0000120064328690001296A40EA01300643E1
:101CD00027F022076969686840EA01100743206815
:101CE000C0F808802068866120680762012084F8B7
:101CF000460084F83E0001213F200155012084F870
:101D0000420043200155012084F83D000020A3E754
:101D100010B586B004460020029003900490059010
:101D20002068B0F1804F24D100BF2748C06940F03F
:101D300001002549C8610846C06900F00100019012
:101D400000BF00BF00BF0846806940F00400886102
:101D50000846806900F00400019000BF00BF032026
:101D6000029000200390049002A91848FEF7BEFFDD
:101D700027E017492068884223D100BF1248C06974
:101D800040F002001049C8610846C06900F0020036
:101D9000019000BF00BF00BF0846806940F004000A
:101DA00088610846806900F00400019000BF00BF10
:101DB000C020029000200390049002A90348FEF77F
:101DC00095FF06B010BD0000001002400008014061
:101DD000000400402DE9F04304460D4694F83E60AF
:101DE0003F20075D94F84280432010F804906DB9BD
:101DF000012E02D1B8F1010F02D00120BDE8F0831D
:101E0000022084F83E0084F8420025E0042D0CD125
:101E1000012F02D1B9F1010F01D00120EEE702211B
:101E20003F2001554320015516E0012E07D1012F17
:101E300005D1B8F1010F02D1B9F1010F01D0012094
:101E4000DCE7022084F83E0002213F2001550220F9
:101E500084F842004320015515B1042D0CD105E052
:101E600001220021206800F0ABFE10E001220421D5
:101E7000206800F0A5FE0AE001220021206800F0A1
:101E80009FFE01220421206800F09AFE00BF00BFDF
:101E90002068006840F00100216808600020ADE77C
:101EA000704710B5044620680069C0F34000D8B1FF
:101EB0002068C068C0F34000B0B16FF00200216834
:101EC0000861012020772068806900F0030018B1C4
:101ED0002046FFF7E5FF05E0204600F0D9F8204650
:101EE00000F089F90020207720680069C0F38000A5
:101EF000D8B12068C068C0F38000B0B16FF00400B2
:101F000021680861022020772068806900F4407011
:101F100018B12046FFF7C4FF05E0204600F0B8F8EE
:101F2000204600F068F90020207720680069C0F39F
:101F3000C000D8B12068C068C0F3C000B0B16FF075
:101F4000080021680861042020772068C06900F03B
:101F5000030018B12046FFF7A3FF05E0204600F07C
:101F600097F8204600F047F90020207720680069A4
:101F7000C0F30010D8B12068C068C0F30010B0B141
:101F80006FF0100021680861082020772068C06980
:101F900000F4407018B12046FFF782FF05E02046AC
:101FA00000F076F8204600F026F90020207720681F
:101FB000006900F0010058B12068C06800F001001D
:101FC00030B16FF0010021680861204600F014F97B
:101FD00020680069C0F3C01058B12068C068C0F321
:101FE000C01030B16FF08000216808612046FFF713
:101FF00085FC20680069C0F3801058B12068C06873
:10200000C0F3801030B16FF04000216808612046B5
:1020100000F000F920680069C0F3401058B1206852
:10202000C068C0F3401030B16FF020002168086133
:102030002046FFF764FC10BD10B586B004460020B2
:1020400002900390049005900E492068884217D1B1
:1020500000BF0D48806940F004000B4988610846C4
:10206000806900F00400019000BF00BF4FF4407091
:10207000029002200390059002A90448FEF736FE64
:1020800006B010BD002C01400010024000080140C5
:10209000704770B504460D46164600BF94F83C00E4
:1020A000012801D1022070BD012084F83C0000BF4E
:1020B00036B1042E1BD0082E31D00C2E5ED145E057
:1020C0002946206800F0A2FD2068806940F00800E1
:1020D000216888612068806920F004002168886197
:1020E00020688069296908432168886147E029469A
:1020F000206800F0BBFD2068806940F40060216822
:1021000088612068806920F4806021688861206887
:102110008069296940EA0120216888612FE0294609
:10212000206800F0D7FD2068C06940F008002168F1
:10213000C8612068C06920F004002168C861206877
:10214000C069296908432168C86118E029462068E8
:1021500000F0F4FD2068C06940F400602168C861A7
:102160002068C06920F480602168C8612068C06967
:10217000296940EA01202168C86100E000BF00BF72
:1021800000BF002084F83C0000BF00BF8BE710B503
:1021900004460CB9012010BD94F83D0028B9002078
:1021A00084F83C00204600F025F8022084F83D0029
:1021B000211D206800F0CAFC012084F8460000BF01
:1021C00084F83E0001213F20015540200155412067
:1021D000015500BF00BF012084F842004320015593
:1021E000442001554520015500BF012084F83D00E1
:1021F0000020D0E77047704700B5034603491868D0
:10220000884202D1024801F021F800BD00080040D8
:1022100010000020704770B5044600252068406912
:10222000C0F3C01594F8390021280ED16DB1206893
:10223000406920F0800021684861206B10B1206B5C
:10224000FEF76CFB204600F040FE20684069C0F3BA
:10225000801594F83A0022280ED16DB120684069AB
:1022600020F0400021684861606B10B1606BFEF7A0
:1022700055FB204600F009FE002070BD70470000AD
:102280002DE9F0470446206805682068C668206884
:1022900047694FF00008C14605F00F08B8F1000F7C
:1022A0000AD105F0200038B106F0200020B1204608
:1022B00000F015FEBDE8F087B8F1000F71D007F00F
:1022C000010018B906F4907000286AD005F00100EA
:1022D00030B106F4807018B1E06B40F00100E063AB
:1022E00005F0040030B107F0010018B1E06B40F0D8
:1022F0000200E06305F0020030B107F0010018B100
:10230000E06B40F00400E06305F0080048B106F01F
:10231000200010B907F0010018B1E06B40F0080090
:10232000E063E06B68B305F0200028B106F0200000
:1023300010B1204600F0D3FD20684069C0F3801939
:10234000E06B00F0080010B9B9F1000F22D0204670
:1023500000F09BFD2068406900F04000B0B12068AB
:10236000406920F0400021684861606B50B1184816
:10237000616B4863606BFEF7FDFA10B1606B416BF7
:1023800088470CE02046FFF779FF08E02046FFF77A
:1023900075FF04E02046FFF771FF0020E06389E746
:1023A000FFE705F0800030B106F0800018B120464C
:1023B00000F064FE7EE705F0400030B106F040001A
:1023C00018B1204600F071FD74E700BF72E700000D
:1023D000D32D000810B504460CB9012010BDA0692A
:1023E00000B100E000BF94F8390028B9002084F85B
:1023F0003800204600F028F8242084F839002068AE
:10240000C06820F400502168C860204600F0B8FD84
:102410002068006920F490402168086120684069C4
:1024200020F02A00216848612068C06840F400500C
:102430002168C8600020E063202084F8390084F817
:102440003A000020CAE7000010B586B0044600201C
:1024500002900390049005905B49206888425AD10D
:1024600000BF5A48806940F4804058498861084656
:10247000806900F48040019000BF00BF00BF0846A3
:10248000806940F0080088610846806900F0080013
:10249000019000BF00BF4020029002200390032063
:1024A000059002A94A48FEF721FC802002900020F6
:1024B0000390049002A94648FEF718FC00BF454966
:1024C000486840F0E06040F00400486000BF4248C7
:1024D0004249086000204860002140488160802116
:1024E000C16000210161416181614FF44051C161CE
:1024F000FEF766FB08B1FEF790F900BF374860634E
:10250000446200BF002201212520FEF70BFE25209A
:10251000FEF7F8FD55E032492068884251D100BFEE
:102520002A48C06940F400302849C8610846C0699B
:1025300000F40030019000BF00BF00BF0846806972
:1025400040F0040088610846806900F004000190B2
:1025500000BF00BF042002900220039003200590DA
:1025600002A92048FEF7C2FB082002900020039039
:10257000049002A91B48FEF7B9FB174814301A490A
:102580000860002048600021174881608021C160F8
:1025900000210161416181614FF40051C161FEF789
:1025A0000FFB08B1FEF739F900BF0F4860634462C2
:1025B00000BF002202212620FEF7B4FD2620FEF7F0
:1025C000A1FD06B010BD000000380140001002401F
:1025D000000C01400000014058000240C0010020F2
:1025E00000440040000801400402002077B581B09B
:1025F0000446154694F83A00202850D1029800B1BC
:1026000015B9012004B070BD00BF94F8380001284E
:1026100001D10220F6E7012084F8380000BF0298BB
:10262000A062A5850020E063222084F83A001D48BE
:10263000616B88621C48616BC8621C48616B0863EF
:102640000020616B486302AE32682368191D2B4677
:10265000606BFEF7E9FA00BF002000902068006878
:10266000009020684068009000BF00BF00BF0020BD
:1026700084F8380000BF2068C06840F4807021688A
:10268000C8602068406940F0010021684861206806
:10269000406940F04000216848610020B2E7022014
:1026A000B0E70000372E00087D2E0008E72D000857
:1026B00070477047704700BFFEE7000008B500BFD5
:1026C0000E48406940F001000C49486108464069E5
:1026D00000F00100009000BF00BF002211460F2053
:1026E000FEF720FD0F20FEF70DFD00221146102001
:1026F000FEF718FD1020FEF705FD08BD0010024092
:1027000000B585B00020019002900390049000BFB6
:102710002D48806940F010002B4988610846806987
:1027200000F01000009000BF00BF00BF08468069A5
:1027300040F0200088610846806900F02000009089
:1027400000BF00BF00BF0846806940F004008861F8
:102750000846806900F00400009000BF00BF00BF81
:102760000846806940F0080088610846806900F0EA
:102770000800009000BF00BF00224FF40051134832
:10278000FEF744FC00224FF41C411148FEF73EFCCA
:102790004FF400500190012002900020039002208D
:1027A000049001A90948FEF7A1FA4FF41C400190DA
:1027B00001200290002003900220049001A9044807
:1027C000FEF794FA05B000BD001002400010014071
:1027D0000008014000B595B00020119012901390B0
:1027E00014900F9010901C2108A8FDF7B4FC202134
:1027F0006846FDF7B0FC2F482F490860002048606C
:1028000000212D48816041F61F41C1600021016116
:1028100041618161FFF7F0F808B1FDF7FEFF4FF469
:102820008050119011A92448FFF78CF908B1FDF7E9
:10283000F4FF2148FFF7ABFC08B1FDF7EEFF0020E5
:102840000F9010900FA91C48FFF794F808B1FDF7FE
:10285000E4FF60200890002009900A900B900C90F3
:102860000D900E90002208A91348FFF712FC08B142
:10287000FDF7D3FF042208A90F48FFF70AFC08B1AF
:10288000FDF7CBFF00200090019002900390049090
:102890004FF4005005900020079069460648FFF766
:1028A0002FF808B1FDF7B9FF0348FFF7C5FB15B0D6
:1028B00000BD0000002C01402000002000B58BB0BE
:1028C000242102A8FDF747FC0020009001904FF062
:1028D000804017490860002048600021144881604A
:1028E0004FF6FF71C16000210161816101200290FA
:1028F000002003900120049000200590069007908E
:1029000001200890002009900A9002A90848FFF7CA
:102910009DF908B1FDF781FF002000900190694604
:102920000348FFF727F808B1FDF777FF0BB000BDAC
:102930006800002000B58BB0242102A8FDF70BFC35
:102940000020009001901848184908600020486055
:102950000021164881604FF6FF71C16000210161BE
:10296000816101200290002003900120049000204A
:1029700005900690079001200890002009900A9089
:1029800002A90A48FFF762F908B1FDF746FF0020E7
:102990000090019069460548FEF7ECFF08B1FDF78D
:1029A0003CFF0BB000BD000000040040B000002060
:1029B00000B587B000200390049005900690019028
:1029C00002901448144908604720486000211248CA
:1029D000816042F20F71C160002101618161FFF7E6
:1029E0000BF808B1FDF719FF4FF48050039003A9CD
:1029F0000948FFF7A7F808B1FDF70FFF0020019085
:102A0000029001A90448FEF7B5FF08B1FDF705FFE4
:102A100007B000BD00080040F800002010B50B48CA
:102A20000B4908604FF4E13048600021084881609C
:102A3000C16001610C21416100218161C161FFF729
:102A4000C9FC08B1FDF7E9FE10BD000000380140E7
:102A50004001002010B50B480B4908604FF4E130ED
:102A60004860002108488160C16001610C2141611A
:102A700000218161C161FFF7ADFC08B1FDF7CDFE1A
:102A800010BD0000004400408001002000BFFEE7B0
:102A9000FEF7D8FC00BFFEE77047000008B5084904
:102AA0000968C9084FF47A72B1FBF2F14143009111
:102AB00000BF00BF00994A1E00920029F9D108BD4D
:102AC0000C000020704710B5FEF7ACFA10BD00B541
:102AD0008FB0282105A8FDF73EFB14216846FDF7BD
:102AE0003AFB012005900004069000200790012089
:102AF000099002200C90C1030D914FF4E0110E914A
:102B000005A8FEF7AFFC08B1FDF787FE0F20009087
:102B100002200190002002904FF48060039000207A
:102B2000049002216846FEF751FB08B1FDF775FEDF
:102B3000FEF712FC0FB000BD7047000010B5024850
:102B4000FFF7AFF910BD0000F800002010B50268D3
:102B5000184B984208D0B0F1804F05D0164B9842E0
:102B600002D0164B984203D122F070024B681A43F0
:102B7000104B984208D0B0F1804F05D00E4B9842D0
:102B800002D00E4B984203D122F44072CB681A4314
:102B900022F080034C6943EA040202608B68C3623E
:102BA0000B688362034B984201D10B6903630123D5
:102BB000436110BD002C01400004004000080040AB
:102BC00030B501F01F05012404FA05F3046A9C43A3
:102BD0000462046A01F01F0502FA05F52C43046241
:102BE00030BD30B50C46816821F47F4142EA0325AF
:102BF00025432943816030BD0A46816821F0700178
:102C000042F00703194381607047000030B5056A40
:102C100025F001050562026A4368846924F07004A6
:102C200024F003040D682C4322F002028D682A432D
:102C30000D4DA84206D100BF22F00802CD682A43FC
:102C400022F00402084DA84207D123F4807323F434
:102C500000734D692B438D692B43436084614D683C
:102C60004563026230BD0000002C014030B5056AAA
:102C700025F010050562026A4368846924F4E04483
:102C800024F440740D6844EA052422F020028D6883
:102C900042EA05120E4DA84207D100BF22F0800281
:102CA000CD6842EA051222F04002094DA84209D13E
:102CB00023F4806323F400634D6943EA85038D693F
:102CC00043EA8503436084614D688563026230BDD9
:102CD000002C014030B5056A25F480750562026A52
:102CE0004368C46924F0700424F003040D682C4385
:102CF00022F400728D6842EA05220F4DA84207D1E6
:102D000000BF22F40062CD6842EA052222F480620C
:102D1000094DA84209D123F4805323F400534D698F
:102D200043EA05138D6943EA05134360C4614D68A6
:102D3000C563026230BD0000002C014030B5056A59
:102D400025F480550562036A4468C26922F4E042B2
:102D500022F440720D6842EA052223F400538D6884
:102D600043EA0533064DA84204D124F480444D695A
:102D700044EA85144460C2614D680564036230BD55
:102D8000002C014030B50B461446026A056A25F056
:102D900001050562816921F0F00141EA041122F088
:102DA0000A021A438161026230BD30B50B461446F7
:102DB000056A25F0100505628169026A21F47041F7
:102DC00041EA043122F0A00242EA03128161026268
:102DD00030BD70B505466C6A0020E085E084204671
:102DE000FFF74CFA70BD70B506460025746A20687E
:102DF0004069C0F3C01594F83900212805D125B1E8
:102E00000020E084204600F060F820684069C0F3AC
:102E1000801594F83A00222805D125B10020E085DC
:102E2000204600F032F8E06B40F01000E0632046EE
:102E3000FFF724FA70BD70B505466C6A2868006813
:102E400000F02000B0B90020E0852068C06820F4C0
:102E500080702168C8602068406920F00100216806
:102E600048612068406920F04000216848612020C6
:102E700084F83A002046FFF71BFC70BD70B504468D
:102E8000656A2846FFF715FC70BD0168C96821F422
:102E900090710268D1600168496921F001010268FE
:102EA0005161202180F83A10704710B5044620681F
:102EB000C06820F040002168C860202084F83900F4
:102EC0002046FFF7F7FB002010BD0168C96821F01C
:102ED000C0010268D160202180F83910704770B5B8
:102EE000044694F83A00222847D1A068B0F5805FE4
:102EF0000CD1206950B90025A66A20684068C0F34B
:102F000008003080A06A801CA06215E0A56A002637
:102F1000A068B0F5805F03D0A06828B9206918B90F
:102F200020684068287004E02068406800F07F0056
:102F30002870A06A401CA062E08D401E80B2E0852F
:102F4000C8B92068C06820F020002168C8602068E7
:102F5000C06820F480702168C8602068406920F053
:102F6000010021684861202084F83A002046FFF7DC
:102F70009FFB002070BD0020FCE70220FAE7000064
:102F800070B504462168096921F44051E268114393
:102F9000226811612269A1681143626941EA020550
:102FA0002168C96841F20C62914329432268D160CB
:102FB0002168496921F44071A26911432268516175
:102FC0002D4A2168914202D1FEF7E2F901E0FEF7B5
:102FD000CFF900EBC00101EB001162689200B1FB78
:102FE000F2F100EBC00202EB001263689B00B2FB3F
:102FF000F3F26423B2FBF3F202EBC20303EB02121F
:10300000A1EB8201322202EB01116422B1FBF2F149
:1030100001F0F00100EBC00202EB001263689B00BC
:10302000B2FBF3F26423B2FBF3F201EB021200EB0A
:10303000C00101EB001163689B00B1FBF3F100EBF1
:10304000C00303EB00136668B600B3FBF6F3642617
:10305000B3FBF6F303EBC30606EB0313A1EB83010B
:10306000322303EB01116423B1FBF3F101F00F01F3
:1030700011442268916070BD00380140014691F80A
:103080003900212828D18868B0F5805F0BD1086904
:1030900048B90A6A1088C0F308000B685860086ACB
:1030A000801C086205E00B6A581C086218780B68DF
:1030B0005860C88C401E80B2C88458B90868C0687F
:1030C00020F080000B68D8600868C06840F04000BD
:1030D0000B68D860002070470220FCE710B500F0B4
:1030E000C9F80248FFF7CCF810BD000040010020ED
:1030F00010B500F03FF90248FFF7C2F810BD00001C
:103100008001002000BFFEE702480068C0F30220F3
:10311000704700000CED00E010B5002804DB0A0742
:10312000130E054A135406E00A07140E034A00F072
:103130000F031B1FD45410BD00E400E018ED00E0A5
:10314000004870471C00002002E008C8121F08C198
:10315000002AFAD170477047002001E001C1121F18
:10316000002AFBD1704700002DE9F84F82468B46BC
:103170004BEA0A2108B2FDF78EF900900098FDF79E
:1031800093F906460022074BFDF716F90446002284
:10319000054BFDF79FF88046FDF799F900900098E0
:1031A000BDE8F88F0000E040000030402DE9F84F06
:1031B00082468B464BEA0A2108B2FDF76CF9009073
:1031C0000098FDF771F906460022074BFDF7F4F869
:1031D00004460022054BFDF77DF88046FDF777F9A0
:1031E00000900098BDE8F88F0000E0400080664045
:1031F00010B540F2DC50FDF765FDFDF773FB40F2C2
:10320000DC50FDF75FFD00F001F810BD10B53C216A
:103210000948FEF7DFFD3C210848FEF7DBFD0020F2
:10322000074908600907486206490860486006487F
:10323000FEF74CFC10BD000068000020B00000202C
:103240002404004010000020F80000204FF08041CE
:10325000496A09B2416000214FF08042516204493D
:10326000096809B201600021014A1160704700003D
:103270002404004008B513480068006800F01000FE
:1032800010281DD100BF002000900E480068006883
:1032900000900C4800684068009000BF00BF0948DB
:1032A000FEF7B9FF0848FDF7BBFA3C210648293074
:1032B000FCF751FF3C22044929310248FFF796F9F7
:1032C00008BD00004001002048020020FDF7B6FEC6
:1032D000FFF7FDFBFFF714FAFFF7F0F9FFF77AFAB3
:1032E000FFF79CFBFFF7EAFAFFF724FBFFF760FB11
:1032F000FFF7B0FBFFF77CFF02E01420FDF7E2FCD4
:10330000FBE700002DE9F84F82468B464BEA0A2185
:1033100008B2FDF7C0F800900098FDF7C5F8064622
:103320000022074BFDF748F80446064A064BFCF717
:103330002AFF8046FDF7CBF800900098BDE8F88F93
:1033400000407540A4703D0AD74342402DE9F0414A
:1033500007460C46254600E06D1C28780D28FBD159
:1033600068780A2804D12046FCF700FF064600BF13
:10337000BDE8F08108B512480068006800F0100050
:1033800010281CD100BF002000900D480068006884
:1033900000900B4800684068009000BF00BF0848DC
:1033A000FEF739FF07490848FFF7D0FF64210548B9
:1033B000FCF7D1FE642203490148FFF717F908BD65
:1033C00080010020B0020020180000202DE9F84FF5
:1033D00082468B464BEA0A2108B2FDF75CF8009062
:1033E0000098FDF761F806460022074BFCF7E4FF62
:1033F00004460022054BFCF76DFF8046FDF767F899
:1034000000900098BDE8F88F0000E04000409F4029
:103410000000000000000000010203040607080984
:1034200000000000010203040040404040404040D2
:103430004040414141414140404040404040404087
:10344000404040404040404040050202020202022B
:10345000020202020202020202202020202020207A
:10346000202020020202020202029090909090908E
:10347000101010101010101010101010101010104C
:1034800010101010020202020202888888888888C0
:1034900008080808080808080808080808080808AC
:1034A000080808080202020240000000293400084F
:1034B000D03400080000002020000000483100083F
:1034C000F034000820000020F80600005831000801
:1034D0000000000010000000010000000024F400C3
:1034E00000000000000000000000000000000000DC
:04000005080000ED02
:00000001FF
