:040000000C947F00DD
:04000C000C94380216
:040038000C944A02D8
:14008C008081828384858687909192939495969788898A8B82
:1400A0008C8D8E8F98999A9B9C9D9E9F00000000000000003A
:1400B4000000000000CEB4D6AA00C2CCC9AB00BBC6C9AB003F
:1400C800C0B6C9AB00BAECC9AB00C2CCC9ABB3C9B7D6A3BAB8
:1400DC0000C0B6C9ABB3C9B7D6A3BA00BAECC9ABB3C9B7D69D
:1400F000A3BA00D1D5C9ABCAB6B1F0A3BA00CFEFD0E1CDBF0C
:14010400DEBFC051D0400AEA08830024E2E7F1E011E0E237E2
:14011800F10711F00192FBCF0083ECE8F0E0A0E0B1E010E055
:14012C00EE3FF10721F0C89531960D92F9CF0E940602FFCF86
:140140000E942204A8010AC062E070E002C06150704060302B
:140154006707D9F7415050404030450799F70E941604089593
:140168000E942204A8010AC060EF7AE002C0615070406030EC
:14017C006707D9F7415050404030450799F70E94160408956B
:140190000E942204602F442708E010E0D1DF17C067FF04C010
:1401A4008BB382608BBB03C08BB38D7F8BBB8BB384608BBB26
:1401B80008E010E0C1DF660F8BB38B7F8BBB08E010E0BADF47
:1401CC004395483038F30E94160408950E9424040027222711
:1401E000442710C0220F8BB38B7F8BBB8BB384608BBB8BB36B
:1401F4008B7F8BBB8BB38695817009F023954395483070F3F9
:14020800442710C0000F8BB38B7F8BBB8BB384608BBB8BB364
:14021C008B7F8BBB8BB38695817009F003954395483070F3F0
:14023000802F8F70022F007F080F0E94270408950CEFA6DF5B
:14024400C9DF07FDFBCF08950E942404402F8BB381608BBBF5
:14025800F3DF08EF99DF042F007F96DF042F0F700F70029562
:14026C0091DF8BB38E7F8BBB0E94270408950E942404402FDA
:140280008BB381608BBBDCDF0AEF82DF042F007F7FDF042FAD
:140294000F700F7002957ADF8BB38E7F8BBB0E94270408956D
:1402A8000E942004622FA02E40E800E8CBDFBB24AA2011F4B5
:1402BC00BB2071F0C5018130E0E09E0761F08230E0E09E07AE
:1402D00059F08330E0E09E0751F00BC0462F405808C0462F63
:1402E400405705C0462F485702C0462F4856042FABDF0E9462
:1402F800190408950E942204622F402F262F042FCFDF4C816D
:14030C005D81BA01672F7727062FB1DF042FAFDF0E941604CE
:1403200008950E942404A80105C0FA010081A5DF4F5F5F4F98
:14033400FA0120802220B9F70E94270408950E942004622F67
:14034800A02E4E815F8188E08A9DF001262E3324E20DF31DFA
:14035C0080E091E0E80FF91F008172DF1BC0603199F4662755
:14037000A3948A2D843009F4AA2488E08A9DF001262E3324E1
:14038400E20DF31D80E091E0E80FF91F00815CDFFA0100814E
:1403980070DF63954F5F5F4FFA012080222009F70E94190412
:1403AC0008950E94240400E34BDF00E849DF442703C000E2A9
:1403C0005CDF43954034D8F30E942704089502E310E0CADEF0
:1403D40000E33ADF03E038DF0CE036DF01E034DF06E032DF33
:1403E80008958A98929A80E280936A00089582E08EBD83E684
:1403FC008DBD80EC8CBD08958FEF8ABB84BB08952297FADF20
:14041000ECDFF1DFDCDFCBDF87E691E0998388832227002763
:140424008EDF8CE591E099838883222701E087DF81E591E0E7
:1404380099838883222702E080DF86E491E0998388832227B4
:14044C0003E079DF85B38F7785BB85B38F7B85BB789489B715
:14046000846089BF87B7846087BFFFCF229608958A939A9387
:140474008FB78A9380912B0190912C01019690932C0180938C
:140488002B0189918FBF9991899118950E943B042297F894B5
:14049C0022242EBC87B78B7F87BF89B78B7F89BF80912301C7
:1404B0008F5F8093230180912301813009F05DC020902B013B
:1404C40030902C012092200124E630E000912B0110912C01BF
:1404D8000E94FC03C801C0968093260124E630E000912B013F
:1404EC0010912C010E94FA0310932C0100932B012AE030E0E6
:1405000000912B0110912C010E94FC03C801C0968093270161
:140514002AE030E000912B0110912C010E94FA0310932C01BF
:1405280000932B0180912B0190912C01C0968093280125E0DE
:14053C0001E0B4DE2224209224010EC086E291E0E0912401DE
:14055000FF27E80FF91F008190DE809124018F5F8093240117
:1405640080912401833070F385B38F7785BB85B3806485BB5D
:1405780026C180912301823009F05DC020902B0130902C01C2
:14058C002092210124E630E000912B0110912C010E94FC0341
:1405A000C801C0968093260124E630E000912B0110912C0149
:1405B4000E94FA0310932C0100932B012AE030E000912B012E
:1405C80010912C010E94FC03C801C096809327012AE030E03C
:1405DC0000912B0110912C010E94FA0310932C0100932B0152
:1405F00080912B0190912C01C0968093280125E002E052DEC3
:140604002224209224010EC086E291E0E0912401FF27E80F6B
:14061800F91F00812EDE809124018F5F809324018091240197
:14062C00833070F385B3806885BB85B3806485BBC4C0809153
:140640002301833009F05DC020902B0130902C01209222011B
:1406540024E630E000912B0110912C010E94FC03C801C0962D
:140668008093260124E630E000912B0110912C010E94FA0300
:14067C0010932C0100932B012AE030E000912B0110912C0136
:140690000E94FC03C801C096809327012AE030E000912B0184
:1406A40010912C010E94FA0310932C0100932B0180912B0109
:1406B80090912C01C0968093280125E003E0F0DD22242092A1
:1406CC0024010EC086E291E0E0912401FF27E80FF91F008102
:1406E000CCDD809124018F5F8093240180912401833070F3B5
:1406F40085B38F7785BB85B38F7B85BB62C0809123018430E7
:1407080009F05DC02224209223012090220130902101320CB8
:14071C00809120018B5F381640F481E491E09983888325E029
:14073000002707DE48C02090200180912101885F281678F40C
:1407440020902201809121018E5F281640F48CE391E0998340
:14075800888325E00027F1DD32C020902001809122018350BE
:14076C00821578F420902101809122018F50281640F487E3B5
:1407800091E09983888325E00027DBDD1CC02090200180912B
:1407940022018B5F281670F42090210130902201231440F482
:1407A80082E391E09983888325E00027C6DD07C08DE291E0CA
:1407BC009983888325E00027BEDD2224332430922C012092FD
:1407D0002B0182E08EBD83E68DBD80EC8CBD87B7846087BF6C
:1407E40089B7846089BF789422960E9452041895689401C06F
:1407F800E894EA92FA928A93EE24FF2480E1000F111FEE1C6D
:14080C00FF1CE216F30618F0E21AF30A03958A95A1F716F472
:140820000E2D1F2D8991F990E9900895E2E00C942804E4E032
:140834000C942804FA92EA92DA92CA92BA92AA927A936A9382
:140848005A934A930895E1E049915991E0FD08956991799132
:14085C00E1FD0895A990B990E2FD0895C990D990E3FD0895D0
:14087000E990F9900895FA93EA93BA93AA939A938A933A932A
:140884002A931A930A939A928A927A926A925A924A923A9275
:140898002A921A920A920FB60A92089509900FBE09901990A2
:1408AC0029903990499059906990799089909990099119916C
:1208C0002991399189919991A991B991E991F991089539
:00000001FF
