:020000040800F2
:1000000000090020A90A00087D0800087F080008F0
:1000100083080008870800088B080008000000001B
:100020000000000000000000000000008F08000831
:1000300091080008000000009308000895080008D7
:10004000C30A0008C30A0008C30A0008C30A00085C
:10005000C30A0008C30A0008C30A0008C30A00084C
:10006000C30A0008973C0008C30A0008C30A000836
:10007000C30A0008C30A0008C30A0008C30A00082C
:10008000C30A0008C30A0008C30A0008C30A00081C
:10009000C30A0008C30A0008C30A0008C30A00080C
:1000A000C30A0008C30A0008C30A0008C30A0008FC
:1000B000C30A0008C30A0008C30A0008C30A0008EC
:1000C000C30A0008C30A0008C30A0008C30A0008DC
:1000D000C30A000817290008C30A0008C30A000859
:1000E000C30A0008C30A0008C30A0008C30A0008BC
:1000F000C30A0008C30A0008C30A0008C30A0008AC
:10010000C30A0008C30A0008C30A0008C30A00089B
:10011000C30A0008C30A0008C30A0008B72C000875
:10012000C30A0008C30A0008C30A0008C30A00087B
:10013000C30A0008C30A0008C30A0008C30A00086B
:10014000C30A0008C30A0008C30A0008C30A00085B
:10015000C30A0008C30A0008C30A0008C30A00084B
:10016000C30A0008C30A0008C30A0008C30A00083B
:10017000C30A0008C30A0008C30A0008C30A00082B
:10018000C30A0008C30A000800F002F800F03CF8B7
:100190000AA090E8000C82448344AAF10107DA45E2
:1001A00001D100F031F8AFF2090EBAE80F0013F0F8
:1001B000010F18BFFB1A43F0010318473442000037
:1001C00054420000103A24BF78C878C1FAD85207C8
:1001D00024BF30C830C144BF04680C6070470000C1
:1001E0000023002400250026103A28BF78C1FBD840
:1001F000520728BF30C148BF0B6070471FB504F0DD
:10020000E6F81FBD10B510BD03F06DFD1146FFF7F8
:10021000F5FF00F091F803F08BFD03B4FFF7F2FF58
:1002200003BC02F019FB000070B504460D460A2C11
:1002300042D2DFE804F0050B11171D23292F353BAF
:1002400040F69211FC4801F0A4FC36E040F60201B1
:10025000F94801F09EFC30E040F25461F64801F0AC
:1002600098FC2AE04FF49661F34801F092FC24E0F8
:100270004FF44371F04801F08CFC1EE04FF47071B4
:10028000ED4801F086FC18E04FF4C871EA4801F02F
:1002900080FC12E04FF41661E74801F07AFC0CE0B4
:1002A00040F29E71E44801F074FC06E040F2DC513B
:1002B000E14801F06EFC00E000BF00BF0A2C38D21C
:1002C000DFE804F0050A0F14191E23282D322946F1
:1002D000D94801F060FC2DE02946D84801F059FCCE
:1002E00028E02946D54801F056FC23E02946D348AA
:1002F00001F055FC1EE02946D04801F04EFC19E003
:100300002946CD4801F047FC14E02946CB4801F0CE
:1003100040FC0FE02946C94801F03DFC0AE02946AF
:10032000C64801F03CFC05E02946C44801F035FC14
:1003300000E000BF00BF70BD2DED048BDFEDC00AF3
:100340009FEDBF0ABF4A0021BF4802F0DDFFDFED8D
:10035000BC0A9FEDBB0ABB4A0021BC4802F0D4FF97
:100360004FF4A06000F0C0FB542002F0F3F902F05B
:100370007DFF02F06AFB02F013FB012141F287309E
:1003800002F0B9FB012141F2873002F001FC02F0DA
:100390004DFC532144F61F6002F0A8FDA72144F64E
:1003A0001F6002F00FFEA72144F61F6002F055FE09
:1003B000532144F61F6002F09CFE40F2473140F2A8
:1003C000E73002F04CFC03F02AFC0121084603F060
:1003D000E5F840F25461984801F0DBFB4FF4FA6114
:1003E000954801F0D8FB4FF4FA61944801F0D1FB35
:1003F0004FF4FA61914801F0CEFB4FF4FA618F4857
:1004000001F0CDFB4FF4FA618C4801F0C6FB40F2DD
:10041000DC518F4801F0BDFB4FF4FA618D4801F0CB
:10042000B8FB4FF4FA6002F0F7F900208A498861BE
:10043000C8617BE04FF4FA610220FFF7F5FE4FF44C
:100440007A7002F0E9F94FF4FA710220FFF7ECFE3E
:100450004FF4FA7002F0E0F94FF4FA710720FFF759
:10046000E3FE4FF47A7002F0D7F99FED7C0B7D48E4
:1004700080ED000B10E003F079F97B4908609FEDF7
:100480007B0B53EC102B774890ED000B51EC100BCD
:1004900003F00CFE00D200E0EDE700BF45E06E483F
:1004A00090ED021BB0EE410AF0EE610A51EC100B28
:1004B00003F058FC08EE100ADFED6E0AB0EE480AB1
:1004C000614802F04FFF644890ED041BB0EE410A12
:1004D000F0EE610A51EC100B03F044FC08EE100A38
:1004E000DFED640AB0EE480A584802F03BFF574877
:1004F00090ED080A10EE101A084603F0F7FE41ECE2
:10050000180B514890ED080A10EE101A084603F037
:10051000EDFE41EC190BB0EE481AF0EE681AB0EEA1
:10052000490AF0EE690A02F032FCB8E782E770B5DA
:100530002DED048B04462546002C7CDDBFE04021D8
:100540004D4800F0B1FC4D49086080214A4800F058
:10055000ABFC4B4908604FF48071474800F0A4FCA5
:10056000484908600221484800F09EFC474908605D
:100570004FF40071404800F097FC454908604FF483
:1005800080613D4800F090FC4249086002213A48F1
:1005900000F08AFC404908600421374800F084FCE0
:1005A0003E4908600821344800F07EFC3C49086060
:1005B000294890ED021BB0EE410AF0EE610A51ECC1
:1005C000100B03F0CFFB08EE100AF8EE080AB0EEAD
:1005D000480A1D4802F0C6FE1F4890ED041BB0EE0D
:1005E000410AF0EE610A51EC100B03F0BBFB08EE80
:1005F000100AF0EE080AB0EE480A144802F0B2FE03
:10060000124890ED080A10EE101A084603F06EFE2C
:1006100041EC180B0C4890ED080A10EE101A084631
:1006200003F064FE41EC190BB0EE481AF0EE681AC4
:10063000B0EE490A36E044E00018004000080040EF
:1006400000409C45E4430008F000002038010020F1
:10065000004001400048014060020020000000000E
:1006600000000000C8000020400000200000000042
:100670000000E03F000000000008024000000020F1
:100680000400002008000020000402400C000020AC
:100690001000002014000020180000201C00002082
:1006A00020000020F0EE690A02F071FB6448C06986
:1006B000A04204DD63480068012800D100E03EE765
:1006C00000BF002C7EDC8AE040215F4800F0ECFB9C
:1006D0005C49086080215C4800F0E6FB5B490860EB
:1006E0004FF48071584800F0DFFB5949086002213F
:1006F000584800F0D9FB584908604FF4007152483F
:1007000000F0D2FB554908604FF480614E4800F07C
:10071000CBFB5349086002214B4800F0C5FB51490F
:1007200008600421484800F0BFFB4F4908600821D9
:10073000454800F0B9FB4D490860414890ED021B67
:10074000B0EE410AF0EE610A51EC100B03F00AFB27
:1007500008EE100AF0EE080AB0EE480A444802F02B
:1007600001FE374890ED041BB0EE410AF0EE610A3D
:1007700051EC100B03F0F6FA08EE100AF8EE080A36
:10078000B0EE480A3B4802F0EDFD3A4890ED080A09
:1007900010EE101A084603F0A9FD41EC180B34487E
:1007A00090ED080A10EE101A084603F09FFD41EC88
:1007B000190BB0EE481AF0EE681AB0EE490AF0EEE6
:1007C000690A00E00DE002F0E2FA1D48806961422A
:1007D000884204DD1B480068012800D100E073E76F
:1007E00000BF002022E0244951F82010491B224A72
:1007F00042F82010114651F82010B1F5C86F06DDFF
:10080000114651F82010A1F5486142F820101A490C
:1008100051F8201011F5C86F07DC174951F8201066
:1008200001F54861144A42F82010401C0828DADB20
:10083000002003498861C861BDEC048B70BD0000D5
:100840006002002000000020000802400400002098
:1008500008000020000402400C00002010000020CE
:1008600014000020180000201C00002020000020A0
:10087000F00000203801002078000020704700BF01
:10088000FEE700BFFEE700BFFEE700BFFEE77047E0
:1008900070477047704700000CB500200190009031
:1008A0007648006840F480307449086000BF73489F
:1008B000006800F4003000900198401C01900098FE
:1008C00018B90198B0F5A04FF1D16C48006800F458
:1008D000003010B10120009001E00020009000984D
:1008E000012846D165484030006840F08050634997
:1008F000403108606248006840F440406049086048
:100900005E48083000685D490831086008460068A4
:1009100040F4004008600846006840F4A0500860B9
:100920005848091F0860081F006840F08070091FC0
:10093000086000BF5148006800F000700028F9D03E
:1009400040F20570504908604C480830006820F0BB
:1009500003004A49083108600846006840F0020078
:10096000086000BF45480830006800F00C00082807
:10097000F8D10CBD10B54548006840F470004349FB
:1009800008603E48006840F001003C4908600020D3
:100990003A4908310860394800683D4908403749FC
:1009A00008603C48091D0860081F006820F480208A
:1009B000091F0860002031490C310860FFF76CFF07
:1009C0004FF0006031498039086010BD70B50020DB
:1009D0000022022300240221284D08352D6805F04D
:1009E0000C0020B1042806D0082834D107E02A4D95
:1009F0002A4E356033E02A4D284E35602FE01F4DDA
:100A00002D1D2D68C5F380541C4D2D1D2D6805F03E
:100A10003F0154B1224DB5FBF1F5184E361D366835
:100A2000C6F3881605FB06F209E01B4DB5FBF1F590
:100A3000124E361D3668C6F3881605FB06F20F4DBA
:100A40002D1D2D68C5F301456D1C6B00B2FBF3F540
:100A5000124E356003E0104D104E356000BF00BFF0
:100A6000064D08352D68C5F303150E4E705D0B4D10
:100A70002D68C540094E356070BD00000038024049
:100A80000070004008544007003C024088ED00E040
:100A9000FFFFF6FE103000240024F4009800002030
:100AA00000127A009C00002009488047094800474E
:100AB000FEE7FEE7FEE7FEE7FEE7FEE7FEE7FEE70E
:100AC000FEE7FEE704480549054A064B704700006B
:100AD00075090008890100080003002000090020B2
:100AE000000500200005002032490143324A116010
:100AF000704770B5002100230F22C4781CB32E4C20
:100B0000246804F4E064C4F5E064C4F30721C1F18F
:100B10000404E3B20A4144789C40E1B28478144072
:100B200021430C07210E254C05786155047804F00B
:100B30001F050124AC4005786D11AD0005F1E025DD
:100B4000C5F8004109E0047804F01F050124AC4019
:100B50001B4D0678761145F8264070BD194A0A40AB
:100B60000243154B1B1F1A60704739B1124A121D00
:100B700012680243104B1B1D1A6006E00E4A121D3C
:100B8000126882430C4B1B1D1A607047042808D161
:100B90004FF0E021096941F004014FF0E0221161BA
:100BA00007E04FF0E021096921F004014FF0E02255
:100BB000116170470000FA050CED00E000E400E070
:100BC00080E100E080FFFF1F002041490860091D0F
:100BD0000860091D0860091D08603E483C49143141
:100BE0000860704700213A498279002A3AD00A46C3
:100BF000126803689A430B461A600A1D126803685C
:100C00009A430B1D1A60027911440A6803681A435B
:100C10000A602F4A0832126803689A432C4B083343
:100C20001A601A1D126803689A43294B0C331A6024
:100C30004279102A0ED11A1F126803681A43244BF6
:100C400008331A601A1D126803681A43204B0C33CC
:100C50001A600DE01E49427911440A6803681A437C
:100C60000A6005E0027911440A6803689A430A6041
:100C700070470021016001710C21417100218171D7
:100C800070471349103109680143114A103211604D
:100C90007047014600200E4A143212680A400AB119
:100CA000012000E0002070470949143108607047B6
:100CB00001460020064A143212680A400AB1012097
:100CC00000E00020704702491431086070470000BE
:100CD000003C0140FFFF7F0010B504469848844265
:100CE00008D10121084600F086FB0021012000F018
:100CF00082FB76E09348844208D10121022000F073
:100D00007AFB0021022000F076FB6AE08E488442E4
:100D100008D10121042000F06EFB0021042000F026
:100D20006AFB5EE08948844208D10121082000F076
:100D300062FB0021082000F05EFB52E08448844200
:100D400008D10121102000F056FB0021102000F0F6
:100D500052FB46E07F48844208D10121202000F068
:100D60004AFB0021202000F046FB3AE07A4884420A
:100D700008D10121402000F03EFB0021402000F07E
:100D80003AFB2EE07548844208D10121802000F012
:100D900032FB0021802000F02EFB22E070488442CC
:100DA00008D10121801500F026FB0021A01500F0DC
:100DB00022FB16E06B48844208D10121401500F067
:100DC0001AFB0021601500F016FB0AE06648844219
:100DD00007D10121001500F00EFB0021201500F0C5
:100DE0000AFB10BDF0B50A4600210023002400BF15
:100DF0003DE0012505FA01F3156805EA03049C426C
:100E000034D105684F000326BE40B543056015790F
:100E10004E00B5400668354305601579012D02D0B6
:100E20001579022D16D185684F000326BE40B543C3
:100E3000856055794E00B5408668354385604568C4
:100E400001268E40B5434560456896798E40B6B21E
:100E500035434560C5684F000326BE40B543C560B5
:100E6000D5794E00B540C6683543C560491C102988
:100E7000BFD3F0BD4FF6FF710160002101714171D8
:100E80008171C171704708B54FF480320092009AA9
:100E90000A430092009AC261C161009AC261C269AC
:100EA0000092C269009208BD0246002013690B40FF
:100EB0000BB1012000E0002070470146086980B2B4
:100EC00070470246002053690B400BB1012000E03F
:100ED000002070470146486980B27047018370471F
:100EE000418370470AB1018300E04183704741614B
:100EF000704742694A4042617047F0B500230024C0
:100F00004D07ED0E02FA05F3CE1000F1200555F85D
:100F100026504E07F70E0F26BE40B543CF1000F106
:100F2000200646F82750CE1000F1200555F826502F
:100F300045EA0304CE1000F1200545F82640F0BD37
:100F4000000002400004024000080240000C024081
:100F5000001002400014024000180240001C024031
:100F6000002002400024024000280240F9480068A6
:100F700040F00100F74908600020F6490831086098
:100F8000F4480068F4490840F2490860F348091D34
:100F90000860F348EF4984310860F0481038091DB3
:100FA0000860EC48006820F48020EA4908600020CE
:100FB000E8490C310860E7498C310860704700212E
:100FC000E44A921C117011460870704710B5014632
:100FD0000022002300204A11012A02D1DD4C23689F
:100FE00008E0022A03D1DB4C7034236802E0D94CBC
:100FF0007434236801F01F02012494401C400CB19A
:10100000012000E0002010BD38B500200090002431
:10101000002500BF3120FFF7D9FF05460098401C8E
:1010200000900098B0F5A04F01D0002DF2D03120F3
:10103000FFF7CCFF08B1012400E00024204638BDB2
:1010400001460020C34A106820F0F80040EAC100C1
:1010500010607047C349086070470021BD4A703274
:1010600011701170012802D004280AD104E0012176
:10107000B84A7032117005E00521B64A703211701D
:1010800000E000BF00BF7047B7490860704770B507
:10109000049C41EA82150126C6EB530645EA064543
:1010A000054345EA0465AB4E361D356070BDAD495C
:1010B00008667047820142EA0172A64B84331A60C7
:1010C0007047A8498866704710B5830143EA0163F9
:1010D00043EA02739F4C8834236010BDA14908671E
:1010E0007047A049C864704702460020994B0833F6
:1010F000186820F0EC6042EA01031843954B08336E
:101100001860704702460020924B0833186820F0A0
:10111000784042EA010318438E4B08331860704749
:10112000014600208B4A0832106820F00300084373
:101130001060704787480830006800F00C00704766
:1011400001460020834A0832106820F0F00008436E
:1011500010607047014600207E4A0832106820F473
:10116000E05008431060704701460020794A083279
:10117000106820F4604040EAC10010607047F0B58C
:10118000002100220024022500260223714F083787
:101190003F6807F00C0121B1042905D0082937D197
:1011A00005E0724F076036E0714F076033E0694F2A
:1011B0003F1D3F68C7F38056664F3F1D3F6807F0ED
:1011C0003F036EB16A4FB7FBF3F7DFF888C10CF14C
:1011D000040CDCF800C0CCF3881C07FB0CF40CE01A
:1011E000624FB7FBF3F7DFF86CC10CF1040CDCF8CD
:1011F00000C0CCF3881C07FB0CF4564F3F1D3F6822
:10120000C7F301477F1C7D00B4FBF5F7076002E0E0
:10121000564F076000BF00BF4E4F08373F6807F0CA
:10122000F0010909534F7A5C0768D7404760494F7E
:1012300008373F6807F4E051890A4E4F7A5C4768E7
:10124000D7408760434F08373F6807F46041490B38
:10125000484F7A5C4768D740C760F0BD002100F472
:101260004072B2F5407F0AD13A4A0832116821F43F
:10127000F811414A02401143364A08321160354A9A
:1012800070321268C0F30B031A43324B70331A608A
:101290007047354944390860704733494039086020
:1012A000704736490860704701460020294A8C3251
:1012B000106820F01F004A1E1043264A8C3210602E
:1012C000704701460020234A8C32106820F4F85001
:1012D0004A1E40EA02201F4A8C32106070470146C5
:1012E00000201C4A8C32106820F440100843106023
:1012F000704701460020174A8C32106820F44000E5
:1013000008431060704701460020124A8C32106872
:1013100020F4403008431060704719490860704756
:1013200039B10C4A3032126802430A4B30331A602A
:1013300006E0084A303212688243064B30331A60A6
:101340007047F9B1034A343212680243014B343317
:101350001A601CE000380240FFFFF6EA103000245B
:101360000030002000004742800E47420024F40075
:1013700000127A00AC000020FFFCFF0F5C01474226
:10138000E01147428F4A126882438E4B1A607047C1
:1013900039B18C4A121D126802438A4B1B1D1A6018
:1013A00006E0884A121D12688243864B1B1D1A6094
:1013B000704739B1834A0C3212680243814B0C33B7
:1013C0001A6006E07F4A0C32126882437D4B0C3370
:1013D0001A60704739B17B4A103212680243794B68
:1013E00010331A6006E0774A103212688243754B58
:1013F00010331A60704739B1724A243A12680243B6
:10140000704B243B1A6006E06E4A243A126882430D
:101410006C4B243B1A60704739B16A4A203A126813
:101420000243684B203B1A6006E0664A203A126885
:101430008243644B203B1A60704739B1614A1C3AC1
:10144000126802435F4B1C3B1A6006E05D4A1C3A7F
:10145000126882435B4B1C3B1A60704739B1594A92
:10146000143A12680243574B143B1A6006E0554A7F
:10147000143A12688243534B143B1A60704739B1D7
:10148000504A103A126802434E4B103B1A6006E075
:101490004C4A103A126882434A4B103B1A6070471C
:1014A00039B1484A1C3212680243464B1C331A6059
:1014B00006E0444A1C3212688243424B1C331A60D5
:1014C000704739B13F4A2032126802433D4B203306
:1014D0001A6006E03B4A203212688243394B2033BF
:1014E0001A60704739B1374A243212680243354BCB
:1014F00024331A6006E0334A243212688243314BA7
:1015000024331A60704739B12E4A2C3212680243D4
:101510002C4B2C331A6006E02A4A2C321268824384
:10152000284B2C331A60704739B1264A3032126882
:101530000243244B30331A6006E0224A30321268EC
:101540008243204B30331A607047012808D11D496F
:101550003C31096841F008011A4A3C32116007E049
:1015600018493C31096821F00801164A3C321160E3
:10157000704739B1134A273A12780243114B273B7F
:101580001A7006E00F4A273A127882430D4B273B28
:101590001A7070470B484030006840F0807009496D
:1015A00040310860704701460020064A283A126818
:1015B0000A400AB1012000E00020704701492639A5
:1015C000087070473438024010B501218803FFF7D6
:1015D00056FF00214FF48040FFF751FF10BD1C491A
:1015E000086070471B490862704730B500228B07BE
:1015F0001C0F0F2303FA04F2154B08338C1053F819
:1016000024309343124C08348D1044F8253023467F
:101610008C1053F824308C07240F00FA04F4234371
:101620000B4C08348D1044F8253030BD0949DC31AD
:10163000086070470849086070470020044920315D
:10164000096801F4807109B1012000E000207047B1
:1016500000380140000027420004274210B504462C
:10166000FE48844208D101210846FFF708FF002107
:101670000120FFF704FF9DE0B4F1804F08D1012164
:101680000846FFF7EBFE00210120FFF7E7FE91E09F
:10169000F348844208D101210220FFF7DFFE002138
:1016A0000220FFF7DBFE85E0EE48844208D10121ED
:1016B0000420FFF7D3FE00210420FFF7CFFE79E0DE
:1016C000E948844208D101210820FFF7C7FE002124
:1016D0000820FFF7C3FE6DE0E448844208D10121F1
:1016E0001020FFF7BBFE00211020FFF7B7FE61E0DE
:1016F000DF48844208D101212020FFF7AFFE0021FE
:101700002020FFF7ABFE55E0DA48844208D10121E2
:101710000220FFF7B4FE00210220FFF7B0FE49E0EF
:10172000D548844209D101210804FFF7A8FE002111
:101730004FF48030FFF7A3FE3CE0D048844209D14B
:1017400001214804FFF79BFE00214FF40030FFF712
:1017500096FE2FE0CA48844209D101218804FFF790
:101760008EFE00214FF48020FFF789FE22E0C5485D
:10177000844208D101214020FFF770FE0021402063
:10178000FFF76CFE16E0C048844208D1012180209A
:10179000FFF764FE00218020FFF760FE0AE0BB48EF
:1017A000844207D101218015FFF758FE0021A015C2
:1017B000FFF754FE10BD00220288A84B98420ED0BD
:1017C000AC4B98420BD0B0F1804F08D0A44B98425C
:1017D00005D0A44B984202D0A34B984204D14FF6B7
:1017E0008F731A404B881A43A04B984207D0A04BE6
:1017F000984204D04FF6FF431A400B891A430280E7
:101800004B68C3620B880385944B984202D0994B76
:10181000984201D18B7A03860123838270474FF06F
:10182000FF31416000210180018141808172704758
:101830000185828270470A46002101884FF68F7326
:10184000194011430180704741627047C16270477F
:101850000146486A70470146088D704721B10288E9
:1018600042F00202028004E002884FF6FD731A4043
:101870000280704721B1028842F00402028004E035
:1018800002884FF6FB731A400280704721B102882C
:1018900042F08002028004E002884FF67F731A4013
:1018A0000280704702884FF6F7731A400280028860
:1018B0000A430280704702884FF6FF431A400280B5
:1018C00002880A430280704721B1028842F0010277
:1018D000028004E002884FF6FE731A4002807047CF
:1018E00070B5002400220023058C4FF6FE763540AB
:1018F0000584028C8388048B4FF68F752C40B51EAF
:101900002C400D882C43751E2A408D892A434D8812
:101910002A43524DA84202D0564DA84213D14FF649
:10192000F7752A40CD892A434FF6FB752A408D88EA
:101930002A434FF6FF652B404FF6FF552B400D8A8B
:101940002B434D8A2B43838004838D684563028437
:1019500070BD70B5002400220023058C4FF6EF7691
:1019600035400584028C8388048B48F6FF752C4033
:101970004FF6FF452C400D884FF6FF7606EA052509
:101980002C434FF6DF752A408D8906EA05152A4358
:101990004D8806EA05152A43304DA84202D0354D40
:1019A000A8421DD14FF67F752A40CD894FF6FF76AC
:1019B00006EA05152A434FF6BF752A408D8806EAC8
:1019C00005152A434FF6FF352B404FF2FF752B408C
:1019D0000D8A06EA85052B434D8A06EA85052B43C9
:1019E000838004838D688563028470BD70B5002494
:1019F00000220023058C4FF6FF6635400584028CDB
:101A00008388848B4FF68F752C404FF6FC752C40E5
:101A10000D882C434FF6FF552A408D894FF6FF76EF
:101A200006EA05252A434D8806EA05252A430B4D7B
:101A3000A84202D00F4DA84238D14FF2FF752A407C
:101A4000CD894FF6FF7606EA05252A434FF6FF3586
:101A50002A408D8806EA05252A4319E00000014046
:101A60000004004000080040000C0040001000404E
:101A700000140040000401400040014000440140C7
:101A80000048014000180040001C004000200040B9
:101A90004EF6FF752B404DF6FF752B400D8A06EA7A
:101AA00005152B434D8A06EA05152B438380848355
:101AB0008D68C563028470BD70B5002200230024C8
:101AC000058C4EF6FF7635400584038C8488828B26
:101AD00048F6FF752A404FF6FF452A400D884FF61D
:101AE000FF7606EA05252A434DF6FF752B408D89C2
:101AF00006EA05352B434D8806EA05352B43FE4D96
:101B0000A84202D0FD4DA84208D14BF6FF752C40EB
:101B10000D8A4FF6FF7606EA85152C438480828372
:101B20008D680564038470BD00210180418081803F
:101B300081608181C18101824182704770B5034615
:101B4000002000241846183001258D40ACB21D8CB1
:101B5000A5431D8409B108290AD100EB610005687D
:101B60004FF68F76354005600568154305600FE038
:101B70000D1FC5F34E052844056848F6FF7635402D
:101B8000056005684FF6FF7606EA022635430560D4
:101B900070BD4163704781637047C16370470164E2
:101BA00070470A460021018B4FF68F73194011438D
:101BB000018370470A460021018B48F6FF731940E4
:101BC0004FF6FF7303EA02231943018370470A4665
:101BD0000021818B4FF68F73194011438183704729
:101BE0000A460021818B48F6FF7319404FF6FF73B8
:101BF00003EA02231943818370470A460021018BBF
:101C00004FF6F77319401143018370470A460021CC
:101C1000018B4FF2FF7319404FF6FF7303EA022363
:101C20001943018370470A460021818B4FF6F773F1
:101C300019401143818370470A460021818B4FF27E
:101C4000FF7319404FF6FF7303EA022319438183A0
:101C500070470A460021018B4FF6FB731940114370
:101C6000018370470A460021018B4FF6FF3319406C
:101C70004FF6FF7303EA02231943018370470A46B4
:101C80000021818B4FF6FB7319401143818370470C
:101C90000A460021818B4FF6FF3319404FF6FF7340
:101CA00003EA02231943818370470A460021018B0E
:101CB0004FF67F7319401143018370470A46002194
:101CC000018BC1F30E014FF6FF7303EA02231943A0
:101CD000018370470A460021818B4FF67F731940BC
:101CE0001143818370470A460021818BC1F30E01A5
:101CF0004FF6FF7303EA02231943818370470A46B4
:101D00000021018C4FF6FD73194011430184704787
:101D10000A460021018C4FF6F773194011430184E4
:101D200070470A460021018C4FF6DF7319404FF6C9
:101D3000FF7303EA02131943018470470A46002126
:101D4000018C4FF67F7319404FF6FF7303EA0213BD
:101D50001943018470470A460021018C4FF6FF5356
:101D600019404FF6FF7303EA0223194301847047B9
:101D70000A460021018C4FF2FF7319404FF6FF73A2
:101D800003EA02231943018470470A460021018CAB
:101D90004DF6FF7319404FF6FF7303EA0233194300
:101DA0000184704730B5002301248C40A3B2048C19
:101DB0009C430484048C02FA01F5ADB22C430484E4
:101DC00030BD30B5002304248C40A3B2048C9C4366
:101DD0000484048C02FA01F5ADB22C43048430BDB6
:101DE000828B4FF2FF331A408283828B4FF6FF7350
:101DF00003EA01231A4382837047F0B50C46154667
:101E0000002100220026078C4EF6FF7C07EA0C0713
:101E10000784818B028C4FF6FF7707EA043640F681
:101E2000FF4739404FF6FF7707EA052739434FF65A
:101E3000FF7707EA0337394345F6FF773A4046F420
:101E400080573A4381830284F0BD828B4FF6F3734F
:101E50001A408283828B0A4382837047F0B50C4616
:101E60001546002100220026078C4FF6FF6C07EA7A
:101E70000C070784818B028C4FF6FF7707EA042654
:101E80004FF60C7739404FF6FF7707EA03172F43D9
:101E900039434FF2FF573A4046F480773A43818303
:101EA0000284F0BD028B4FF2FF331A400283028B93
:101EB0004FF6FF7303EA01231A4302837047F0B51C
:101EC0000C461546002100220026078C4FF6EF7CB9
:101ED00007EA0C070784018B028C4FF6FF7707EAAD
:101EE000041640F6FF4739404FF6FF7707EA0337FD
:101EF00039434FF6FF7703E0000001400004014042
:101F000007EA052739434FF65F773A4046F0100756
:101F10003A4301830284F0BD028B4FF6F3731A40FB
:101F20000283028B0A4302837047F0B50C461546C4
:101F300000210022068C4FF6FE773E400684018B7E
:101F4000028C4FF60C7631407E1C06EA03162E43B7
:101F500031434FF6F576324044F0010632430183B7
:101F60000284F0BD70B505460C46208850B923891F
:101F7000A28861882846FFF7D8FFE1882846FFF746
:101F8000CBFF25E0208804280AD12389A288618814
:101F90002846FFF794FFE1882846FFF783FF17E004
:101FA000208808280AD12389A28861882846FFF75B
:101FB00055FFE1882846FFF748FF09E02389A288FA
:101FC00061882846FFF719FFE1882846FFF708FFD8
:101FD00070BD002101804180012181800021C180EC
:101FE000018170472DE9F04105460C460026012786
:101FF000608808B9022600E00026A088012801D1E7
:10200000022700E001272088A0B92389A2886188DF
:102010002846FFF78AFFE1882846FFF77DFF2389DE
:102020003A4631462846FFF74AFFE1882846FFF73F
:1020300039FF13E02389A28861882846FFF73FFF14
:10204000E1882846FFF72EFF23893A463146284685
:10205000FFF76BFFE1882846FFF75EFFBDE8F081E0
:102060000146486B70470146886B70470146C86B54
:1020700070470146086C70470A884B881A438B8862
:102080001A43CB881A430B891A434B891A438B890D
:102090001A43A0F8442070470021018041808180CC
:1020A000C180018141818181704731B1B0F8442004
:1020B00042F40042A0F8442005E0B0F84420C2F306
:1020C0000E02A0F84420704721B1828842F0040239
:1020D000828004E082884FF6FB731A40828070474A
:1020E00021B1828842F00102828004E082884FF6AA
:1020F000FE731A40828070471AB183890B43838133
:1021000002E083898B438381704781827047024656
:102110000020138A0B400BB1012000E00020704723
:10212000CA430282704730B50246002000230024D3
:10213000158A05EA0103958905EA010413B10CB17A
:10214000012000E0002030BDCA430282704741EA0E
:102150000203A0F8483070471AB183890B4383818A
:1021600002E083898B438381704721B1828842F0EA
:102170000802828004E082884FF6F7731A4082805A
:10218000704701894FF6F8721140018170470A4685
:10219000002101894FF68F73194011430181704767
:1021A00030B504460D4629462046FFF7F0FF20894A
:1021B00040F00700208130BD2DE9F04104460D4676
:1021C00016461F46602D06D13B4601223146204669
:1021D000FFF775FE05E03B46012231462046FFF73A
:1021E000A4FE29462046FFF7D2FF208940F00700D1
:1021F0002081BDE8F08130B50C4600210189C9B2CB
:102200004FF6FF7505EA0325154325432943018150
:1022100030BD2DE9F04105460E461746984600248C
:1022200043463A4631462846FFF7E5FF2C894FF6EC
:10223000F870044044F007044FF68F70044044F0F7
:1022400070042C81BDE8F081F0B504460D461646B9
:102250001F463B46324629462046FFF7CCFF2089E1
:1022600040F480402081F0BD82884FF68F731A4081
:10227000828082880A438280704702894FF6F87311
:102280001A40028102890A430281704702894FF68F
:102290007F731A40028102890A4302817047F0B5B8
:1022A0000C4615461E460021002200230189028BA0
:1022B000038C4FF6F877394021434FF6FC473A40FC
:1022C00040F201173A434FF6DD773B404FF6FF7778
:1022D00007EA06172F433B43018102830384F0BDC5
:1022E00021B1828842F08002828004E082884FF629
:1022F0007F731A4082807047A0F85010704700002A
:1023000010B50446FA48844208D101211020FFF795
:10231000B6F800211020FFF7B2F857E0F5488442E4
:1023200009D101214804FFF799F800214FF400304A
:10233000FFF794F84AE0F048844209D1012188046B
:10234000FFF78CF800214FF48020FFF787F83DE07D
:10235000EA48844209D10121C804FFF77FF800212F
:102360004FF40020FFF77AF830E0E548844209D1C5
:1023700001210805FFF772F800214FF48010FFF7E4
:102380006DF823E0DF48844208D101212020FFF7C7
:1023900076F800212020FFF772F817E0DA4884422F
:1023A00009D101218807FFF759F800214FF080403B
:1023B000FFF754F80AE0D548844207D101214005CF
:1023C000FFF74CF800216005FFF748F810BD2DE934
:1023D000FF4705460E460024A14600BFA046B0892F
:1023E00000B100BF2C8A24F44054F08804432C82AE
:1023F000AC8941F20C608443B0883189084371890B
:1024000008430443AC81AC8A24F44074B08904438B
:10241000AC826846FEF7B3FEB548854202D0B948A3
:10242000854202D1DDF80C9001E0DDF80890A88922
:1024300000F4004040B109EBC90000EB091031681D
:102440004900B0FBF1F707E009EBC90000EB091008
:1024500031688900B0FBF1F76420B7FBF0F00401AC
:102460002009642101FB1078A88900F4004040B1E4
:10247000322000EBC800B0FBF1F000F0070004438D
:1024800008E0322000EB08106421B0FBF1F000F00E
:102490000F0004432C81BDE8FF874FF41651016003
:1024A00000218180C18001810C2141810021818135
:1024B000704710B502460020108A20F470600B8827
:1024C0004C8823438C882343CC88234318431082B1
:1024D00010BD0021018041808180C180704721B101
:1024E000828942F40052828104E082894DF6FF73B2
:1024F0001A4082817047028B02F47F420283028B72
:102500000A430283704721B1828942F400428281EA
:1025100003E08289C2F30E028281704721B1828A70
:1025200042F40062828204E0828A4FF2FF731A4012
:1025300082827047C1F30802828070470146888812
:10254000C0F308007047028A4FF6F0731A40028207
:10255000028A0A430282704721B1828942F0020254
:10256000828104E082894FF6FD731A4082817047B0
:1025700082894FF2FF731A40828182890A438281E5
:102580007047028A4FF6DF731A400282028A0A43BA
:102590000282704721B1028A42F48042028204E042
:1025A000028A4BF6FF731A4002827047818941F01C
:1025B00001018181704721B1828A42F00802828242
:1025C00004E0828A4FF6F7731A4082827047028BCA
:1025D000D2B20283028B42EA01220283704721B108
:1025E000828A42F02002828204E0828A4FF6DF7300
:1025F0001A408282704721B1828A42F010028282A0
:1026000004E0828A4FF6EF731A4082827047828A12
:102610004FF6FB731A408282828A0A438282704795
:1026200021B1828A42F00202828204E0828A4FF65D
:10263000FD731A40828270471AB1838A0B438382EA
:1026400002E0838A8B4383827047F0B503460024FF
:1026500000260025002040F66A17B94200D100BFCD
:102660001846C1F3421401F01F06012707FA06F5C8
:10267000012C01D10C3004E0022C01D1103000E01B
:1026800014301AB107682F43076002E00768AF43B0
:102690000760F0BD02460020B1F5007F00D100BF09
:1026A00013880B400BB1012000E00020704701F4BB
:1026B0000072B2F5007F00D100BFCA4302807047AC
:1026C00070B50246002400230025002040F66A165B
:1026D000B14200D100BFC1F3421501F01F03012632
:1026E00006FA03F3012D13D19689334017E0000059
:1026F000001001400044004000480040004C0040F1
:10270000005000400014014000780040007C004070
:10271000022D02D1168A334001E0968A33400C1212
:10272000012606FA04F41688344013B10CB10120D6
:1027300000E0002070BD10B50022002340F66A14AE
:10274000A14200D100BF0A1201249440A3B2DC438D
:10275000048010BD10B504466FF00400FEF716FAB1
:10276000E11704EB5171C1F3C701394A11701046EA
:10277000007800EB4001C1EBC0104FF6FF7101EA99
:10278000C0003449088010BD0146314A12784A43DE
:102790004FF0E0235A6100229A611A46126942F012
:1027A00001021A6100BF4FF0E022106900F001023F
:1027B0001AB100F48032002AF5D04FF0E0221269FD
:1027C00022F001024FF0E0231A6100229A61704763
:1027D0000146204A12884A434FF0E0235A61002202
:1027E0009A611A46126942F001021A6100BF4FF065
:1027F000E022106900F001021AB100F48032002AD0
:10280000F5D04FF0E022126922F001024FF0E023F0
:102810001A6100229A61704770B504464FF4077040
:1028200094FBF0F0C6B24FF4077094FBF0F100FB9C
:10283000114085B205E04FF40770FFF7C9FF701E25
:10284000C6B2002EF7D115B12846FFF7C1FF70BD03
:10285000BC000020BE00002000BF704700BF4C4AF3
:10286000128802F04002002AF9D0C2B2484B9A8086
:10287000704710B588B0044601210846FEF750FDA8
:1028800001211020FEF7A6FD072209214148FEF78D
:1028900034FB07220A213F48FEF72FFB4FF4C060AC
:1028A000069002208DF81C008DF81D0000208DF888
:1028B0001E0001208DF81F0006A93648FEF792FA87
:1028C00002940020ADF80C00ADF80E00ADF8100039
:1028D000ADF814000C20ADF8120002A92C48FFF747
:1028E00076FD01212A48FFF7FAFD012240F2255129
:1028F0002748FFF7AAFE25208DF8040003208DF855
:1029000005008DF8060001208DF8070001A8FEF7EC
:10291000F0F808B010BD10B540F225511C48FFF783
:10292000CFFE10B31A48FFF709FEC4B21A48008858
:1029300000F40040C8B91848008800F4804060B135
:102940000A2C03D000201449088020E01248008897
:1029500040F400401049088019E00D2C06D10E48C3
:10296000008840F480400C49088010E00A48008844
:10297000C0F30D0009490C5407480088401C064963
:10298000088008460088C72801DD0020088010BDA7
:102990000010014000000240C4000020940100200B
:1029A00000B589B001210846FEF7BAFC02208DF877
:1029B000200001208DF8220003208DF82100002046
:1029C0008DF82300C020079007A9FE48FEF70AFAF9
:1029D00002220621FB48FEF790FA02220721F9485D
:1029E000FEF78BFA01210220FEF7E3FCF648FEF722
:1029F00035FE04A8FEF713FF0020ADF810004FF6D7
:102A0000FF7005900020ADF81800ADF8120004A981
:102A1000ED48FEF7D0FE00231A460321EA48FFF7EF
:102A20003EFC01A8FFF7D5FA0A20ADF80C0001A979
:102A3000E548FFF797FA0021E348FEF705FF01217B
:102A4000E148FEF741FF09B000BD00B589B00121A2
:102A50000846FEF765FC02208DF8200001208DF865
:102A6000220003208DF8210000208DF823004FF470
:102A70004070079007A9D348FEF7B4F90122082156
:102A8000D048FEF73AFA01220921CE48FEF735FA7E
:102A900001210846FEF79EFCCC48FEF7DFFD04A8A6
:102AA000FEF7BDFE0020ADF810004FF6FF70059058
:102AB0000020ADF81800ADF8120004A9C348FEF7D5
:102AC0007AFE00231A460321C048FFF7E8FB01A85D
:102AD000FFF77FFA0A20ADF80C0001A9BB48FFF709
:102AE00041FA0021B948FEF7AFFE0121B748FEF7D1
:102AF000EBFE09B000BD30B58BB004460D46012198
:102B00000820FEF756FC01210846FEF709FC0222C8
:102B10000021AC48FEF7F1F90120099002208DF860
:102B2000280003208DF8290000208DF82A008DF858
:102B30002B0009A9A348FEF755F9ADF8185000205D
:102B4000ADF81A000794ADF8200006A9A048FEF7DA
:102B500032FE6020ADF804000120ADF80600002030
:102B6000ADF8100001A99A48FEF7BAFE082198486E
:102B7000FFF743F808219648FFF73FF801219448F2
:102B8000FEF784FE01219248FEF79EFE0BB030BD99
:102B900030B58BB004460D4601210846FEF709FC0E
:102BA00001210846FEF7BCFB012211468548FEF7CD
:102BB000A4F9022009908DF8280003208DF829003F
:102BC00000208DF82A008DF82B0009A97D48FEF71A
:102BD00009F9ADF818500020ADF81A000794ADF8C7
:102BE000200006A94FF08040FEF7E5FD6020ADF81B
:102BF00004000120ADF806000020ADF8100001A986
:102C00004FF08040FEF7A5FE0821C806FEF7FEFF44
:102C10000821C806FEF7FAFF01218807FEF736FEF5
:102C200001218807FEF750FE0BB030BD1CB5012115
:102C30001020FEF775FB4FF4F050009001208DF846
:102C4000040000208DF8060003208DF80500002008
:102C50008DF8070069465F48FEF7C4F81CBD7FB5D4
:102C600005460C4601212020FEF7A3FB0295ADF896
:102C700004400020ADF80600ADF80C0001A956484C
:102C8000FEF799FD012211465348FFF735FA01215D
:102C90005148FEF719FE37208DF8000001208DF80D
:102CA000010003208DF8020001208DF80300684622
:102CB000FDF71FFF7FBD10B501214748FFF733FA2D
:102CC00001285FD140482430006800B243490860C1
:102CD000084680693C492431096809B208443F49E3
:102CE00088613A48406A00B248600846C06937497E
:102CF000496A09B208443949C861084690ED000A9A
:102D0000B8EEC00ADFED360A80EE201A9FED350AD4
:102D100021EE000AF2EE040A20EE200A10EE104A1C
:102D2000204601F0E3FA2D4AC2E90201104690ED77
:102D3000010AB8EEC00ADFED2A0A80EE201A9FEDE4
:102D4000290A21EE000AF2EE040A20EE200A10EE13
:102D5000104A204601F0CAFA204AC2E904010020C4
:102D60001A4948621849243108609FED1F0B53EC43
:102D7000102B1F4890ED000B51EC100B01F024F8C4
:102D80001B4A03C201211448FFF7DEF910BD10B53C
:102D90002DED048BB0EE408AF0EE608AB0EE419AE1
:102DA000F0EE619A9FED130B53EC102B51EC180BC6
:102DB00001F07CF930D84FF480610648FEF78EF8B8
:102DC0001CE0000000000240000400400000014040
:102DD000000C00400010024000140040600200207F
:102DE0000000A544E0ED2F427B14AE47E17A843F1A
:102DF000C800002000000000000000004FF4007137
:102E00003848FEF76DF851EC180B01F091F80446C4
:102E100021463548FEF7BDFE1FED0A0B53EC102B83
:102E200051EC180B01F0B2F818D251EC180B00F06D
:102E30008DFF41EC180B4FF400712A48FEF74EF855
:102E40004FF480612748FEF74BF851EC180B01F066
:102E50006FF8044621462448FEF79BFE1FED1B0B2E
:102E600053EC102B51EC190B01F020F913D84FF44F
:102E700080511C48FEF732F84FF400611948FEF704
:102E80002FF851EC190B01F053F8044621464FF08E
:102E90008040FEF780FE1FED290B53EC102B51EC08
:102EA000190B01F073F819D251EC190B00F04EFF19
:102EB00041EC190B4FF400610A48FEF70FF84FF48C
:102EC00080510848FEF70CF851EC190B01F030F86E
:102ED000044621464FF08040FEF75DFEBDEC048BBA
:102EE00010BD000000100240000C004030B58BB057
:102EF00004460D4601214020FEF75BFA0121022025
:102F0000FEF70EFA09220E21D148FDF7F6FF09223D
:102F10000F21CF48FDF7F1FF4FF4804009900220C8
:102F20008DF8280003208DF8290000208DF82A0054
:102F300001208DF82B0009A9C548FDF753FF4FF478
:102F40000040099002208DF8280003208DF8290008
:102F500000208DF82A0001208DF82B0009A9BC481B
:102F6000FDF740FFA8B2ADF818000020ADF81A0038
:102F70000794ADF8200006A9B648FEF71CFC6020B7
:102F8000ADF804000120ADF806000020ADF81000F7
:102F900001A9B048FEF7A4FC01A9AE48FEF7D9FC90
:102FA0000821AC48FEF729FE0821AA48FEF72EFEAC
:102FB0000121A848FEF76AFC0121A648FEF784FC1F
:102FC0000BB030BD30B58BB004460D46012108046E
:102FD000FEF700FA01211020FEF7A2F903220521D5
:102FE0009D48FDF78AFF2020099002208DF82800D7
:102FF00003208DF8290000208DF82A0001208DF88B
:103000002B0009A99448FDF7EDFEA8B2ADF8180011
:103010000020ADF81A000794ADF8200006A98F48EB
:10302000FEF7C9FB6020ADF804000120ADF80600F2
:103030000020ADF8100001A98848FEF751FC0821D6
:103040008648FEF7DAFD01218448FEF71FFC0121C6
:103050008248FEF739FC0BB030BD30B58BB004466A
:103060000D4601218804FEF7B5F901210220FEF783
:1030700057F9032209217648FDF73FFF4FF400700E
:10308000099002208DF8280003208DF829000020E7
:103090008DF82A0001208DF82B0009A96C48FDF756
:1030A000A1FEA8B2ADF818000020ADF81A000794F0
:1030B000ADF8200006A96A48FEF77DFB6020ADF858
:1030C00004000120ADF806000020ADF8100001A9B1
:1030D0006348FEF705FC08216148FEF78EFD0121DB
:1030E0005F48FEF7D3FB01215D48FEF7EDFB0BB017
:1030F00030BD30B58BB004460D4601210420FEF7EB
:1031000058F901210220FEF70BF901210820FEF7F2
:1031100007F9022206214E48FDF7EFFE02220721A1
:103120004B48FDF7EAFE022208214948FDF7E5FE7B
:1031300002220F214B48FDF7E0FE402009900220BB
:103140008DF8280003208DF8290000208DF82A0032
:1031500001208DF82B0009A93D48FDF743FE802092
:10316000099002208DF8280003208DF82900002006
:103170008DF82A0001208DF82B0009A93448FDF7AD
:1031800031FE4FF48070099002208DF82800032052
:103190008DF8290000208DF82A0001208DF82B00E1
:1031A00009A92B48FDF71EFE4FF4004009900220AC
:1031B0008DF8280003208DF8290000208DF82A00C2
:1031C00001208DF82B0009A92648FDF70BFEA8B2B7
:1031D000ADF818000020ADF81A000794ADF82000F3
:1031E00006A92148FEF7E7FA6020ADF804000120A7
:1031F000ADF806000020ADF8100001A91A48FEF74E
:103200006FFB01A91848FEF7A4FB01A91648FEF7B9
:10321000EDFB01A91448FEF74FFC08211248FEF708
:10322000ECFC08211048FEF7F1FC08210E48FEF7DF
:10323000FAFC08210C48FEF7FFFC01210A48FEF7C2
:1032400025FB01210848FEF73FFB0BB030BD000015
:1032500000040240001800400010024000400140FD
:1032600000480140000C0240000800401CB501214C
:103270000420FEF755F801210820FEF751F801213E
:103280000220FEF74DF840F6DE70009000208DF829
:10329000040003208DF8050000208DF806000220B0
:1032A0008DF8070069461548FDF79CFD4CF20200B9
:1032B000009000208DF8040003208DF80500002008
:1032C0008DF8060002208DF8070069460C48FDF7CE
:1032D00089FD4FF48050009000208DF804000320F9
:1032E0008DF8050000208DF8060002208DF80700FB
:1032F00069460448FDF776FD1CBD00000008024049
:1033000000040240000C024000B102B97047017095
:1033100092ED001A80ED011A92ED011A80ED021A69
:1033200092ED021A80ED031A80ED040AC0ED050A41
:103330009FED991A80ED0E1A80ED0D1A80ED0C1A92
:103340009FED951A80ED081A80ED0B1A80ED0A1A90
:1033500080ED091A80ED111A80ED101A80ED0F1A18
:1033600000BFD3E7B0EE401A10B99FED8B0A70474B
:1033700090ED100A80ED110A90ED0F0A80ED100A11
:10338000C0ED060A80ED071A30EEC10A80ED0F0A83
:103390000178002975D190ED010AD0ED0F1A20EEC9
:1033A000210A80ED090A90ED0A0AD0ED021A90ED8B
:1033B0000F2A01EE820A80ED0A0A90ED0D0A80EDD7
:1033C0000E0A90ED0C0A80ED0D0A90ED0F0AD0ED7B
:1033D000101A30EE610A80ED0C0A90ED030AD0ED70
:1033E0000C1A20EE210A80ED0B0A90ED0A0AD0EDAE
:1033F000051AB4EEE10AF1EE10FA04DD90ED050ACB
:1034000080ED0A0A10E090ED0A0AD0ED051AF1EEFF
:10341000611AB4EEE10AF1EE10FA05D290ED050A58
:10342000B1EE400A80ED0A0A90ED090AD0ED0A1AC1
:1034300030EE210AD0ED0B1A30EE210A80ED080A99
:1034400090ED080AD0ED041AB4EEE10AF1EE10FA9C
:1034500004DD90ED040A80ED080A76E090ED080A9C
:10346000D0ED041AF1EE611AB4EEE10AF1EE10FAB1
:103470006BD290ED040AB1EE400A80ED080A64E0D8
:10348000FFE70178012960D190ED0F0AD0ED101A05
:1034900030EE610AD0ED011A20EE210A80ED090A12
:1034A00090ED020AD0ED0F1A20EE210A80ED0A0AF3
:1034B00090ED0D0A80ED0E0A90ED0C0A80ED0D0ADC
:1034C00090ED0F0AD0ED101AB0EE002A02EE610A5C
:1034D000D0ED111A30EE210A80ED0C0A90ED030AAE
:1034E000D0ED0C1A20EE210A80ED0B0A90ED090AAE
:1034F000D0ED0A1A30EE210AD0ED0B1A30EE210A77
:10350000D0ED081A30EE210A80ED080A90ED080A85
:10351000D0ED041AB4EEE10AF1EE10FA04DD90EDFC
:10352000040A80ED080A10E090ED080AD0ED041AB4
:10353000F1EE611AB4EEE10AF1EE10FA05D290ED67
:10354000040AB1EE400A80ED080A90ED080A0EE781
:1035500000B970479FED100A80ED110A80ED100A46
:1035600080ED0F0A9FED0C0A80ED0E0A80ED0D0A2A
:1035700080ED0C0A9FED080A80ED0B0A80ED0A0A27
:1035800080ED090A80ED080A9FED030A80ED060A26
:1035900080ED070A00BFDCE7000000007CB50546AF
:1035A0000C4601210220FDF715FF01211020FDF737
:1035B00011FF4FF44060009001208DF804000020BE
:1035C0008DF8060001208DF8070002208DF8050017
:1035D0006946FE48FDF706FC4FF4C040009001200C
:1035E0008DF8040000208DF8060001208DF80700FA
:1035F00002208DF805006946F548FDF7F3FBF54814
:103600000560F548C0F8AC427CBD10B50020F34918
:103610000860F349C1F8B802F24908800A20FFF7B0
:10362000FBF8F048008800EE100AB8EE400AEE48B9
:1036300080ED000A0020EB4908800120E74908607E
:10364000091D08600020E74908800A20FFF7E4F818
:10365000E448008800EE100AB8EE400AE24880ED27
:10366000010A0020DF490880DC4908600120091DAB
:1036700008600020DB4908800A20FFF7CDF8D94810
:10368000008800EE100AB8EE400AD74880ED020A22
:103690000020D44908800120D04908600020D0498A
:1036A000C1F8B80210BD10B50020CC490860CC4963
:1036B000C1F8B802CB4908800A20FFF7ADF8012015
:1036C000C64908600020C649C1F8B802C54800884C
:1036D000C0EB0020C5490988B0FBF1F0C44908805F
:1036E0000846008810BD10B50120BC490860BC49DF
:1036F000C1F8B8020020BB4908800A20FFF78CF807
:103700000120B64908600020B549C1F8B802B548A3
:103710000088C0EB0020B7490988B0FBF1F0B6493A
:1037200008800846008810BD10B50020AB4908602D
:103730000120AB49C1F8B8020020AA4908800A203C
:10374000FFF76AF80120A54908600020A449C1F8E4
:10375000B802A4480088C0EB0020A8490988B0FB43
:10376000F1F0A74908800846008810BD10B5FFF7A2
:103770009AFFA4490880FFF7B6FFA3490880FFF726
:10378000D3FFA24908809F48008800EE100AB8EED7
:10379000400A9F4880ED020A9B48008800EE100A0C
:1037A000B8EE400A9A4880ED030A0846008800EE09
:1037B000100AB8EE400A964880ED040A9148008845
:1037C0009149098888420BDD8E4800888F49098815
:1037D000884202DD8B4800880DE08C4800880AE0B2
:1037E0008948008889490988884202DD864800881E
:1037F00001E08648008800EE100AB8EEC00A85484D
:1038000080ED000A7F4800887F49098888420BDAEA
:103810007C4800887D490988884202DA7948008816
:103820000DE07A4800880AE07748008877490988DF
:10383000884202DA7448008801E07448008800EE8B
:10384000100AB8EEC00A744880ED000A714890ED85
:10385000000AF2EE000A30EE200AF3EE010A80EED2
:10386000201A90ED000A30EE410A6B48D0ED000AB4
:10387000B2EE001A70EE810AB3EE011AC0EE811AA0
:10388000D0ED000A70EEE10A30EE200A604880EDCB
:10389000010A5C48008800EE100AB8EE400A5D4854
:1038A000D0ED000AB4EE600AF1EE10FA27D15748C5
:1038B000008800EE100AB8EE400A5748D0ED000A22
:1038C000B4EE600AF1EE10FA19D14F4800884F4962
:1038D0000988401A00EE100AB8EEC00ADFED4F0A60
:1038E00020EE200A4B48D0ED000A4B4890ED001A1C
:1038F00070EEC10A80EE201A454880ED001A41485A
:10390000008800EE100AB8EE400A4248D0ED000AE6
:10391000B4EE600AF1EE10FA2BD13B48008800EEBD
:10392000100AB8EE400A3C48D0ED000AB4EE600A36
:10393000F1EE10FA1DD13348008834490988401A45
:1039400000EE100AB8EEC00ADFED340A20EE200ABD
:103950003048D0ED000A304890ED001A70EEC10AF0
:1039600080EE201AB3EE040A31EE000A284880EDFA
:10397000000A2548008800EE100AB8EE400A2548E3
:10398000D0ED000AB4EE600AF1EE10FA56D11D48EF
:10399000008800EE100AB8EE400A1F48D0ED000A79
:1039A000B4EE600AF1EE10FA48D1184800881549C3
:1039B0000988401A00EE100AB8EEC00ADFED170AB7
:1039C00020EE200A1348D0ED000A29E0000402404E
:1039D00000100240A882404200804042B4024242AD
:1039E00000004242D600002080020020E0000020BB
:1039F000D0000020E2000020D2000020E4000020DF
:103A0000D4000020DA000020DC000020DE000020CE
:103A10008C020020E8000020EC0000200000204282
:103A2000A24890ED001A70EEC10A80EE201A9FEDB8
:103A3000A00A31EE000A9F4880ED000A9E480088E7
:103A400000EE100AB8EE400A9C48D0ED000AB4EE31
:103A5000600AF1EE10FA2BD19948008800EE100AA6
:103A6000B8EE400A9148D0ED000AB4EE600AF1EEDB
:103A700010FA1DD19048008892490988401A00EE3A
:103A8000100AB8EEC00A5FED1B0A20EE200A8B4830
:103A9000D0ED000A854890ED001A70EEC10A80EE64
:103AA000201A1FED220A31EE000A824880ED000A3A
:103AB0008348008800EE100AB8EE400A7F48D0ED37
:103AC000000AB4EE600AF1EE10FA2BD17D480088AE
:103AD00000EE100AB8EE400A7448D0ED000AB4EEC9
:103AE000600AF1EE10FA1DD1754800887249098804
:103AF000401A00EE100AB8EEC00A5FED380A20EE58
:103B0000200A6E48D0ED000A684890ED001A70EE69
:103B1000C10A80EE201A9FED6C0A31EE000A65485A
:103B200080ED000A6648008800EE100AB8EE400AF0
:103B30006248D0ED000AB4EE600AF1EE10FA2BD123
:103B40005D48008800EE100AB8EE400A5748D0EDF4
:103B5000000AB4EE600AF1EE10FA1DD1594800884F
:103B600055490988401A00EE100AB8EEC00A5FED08
:103B7000550A20EE200A5148D0ED000A4B4890ED3E
:103B8000001A70EEC10A80EE201A9FED500A31EE45
:103B9000000A484880ED000A464890ED010ADFED32
:103BA0004C0AB4EEE00AF1EE10FA10DD4548008848
:103BB000B0F5FA7F0BDD40480088B0F5FA7F06DDEE
:103BC0003F480088B0F5FA7F01DD032425E03D4839
:103BD000008839490988884207DD3A480088384911
:103BE0000988884201DD042417E0354800883549FA
:103BF0000988884210DD324800882F4909888842A8
:103C00000ADD2F4801882F4800882830814201DDD5
:103C1000062402E0052400E00224204610BD00B581
:103C200085B001210846FDF77BFB01218803FDF7E4
:103C3000D1FB0820009000208DF8040001208DF8B1
:103C4000070003208DF8050069462248FDF7CAF8F1
:103C500003210020FDF7C9FC0820029000208DF808
:103C60000C000C208DF80D0001208DF80E0002A82C
:103C7000FCF7B8FF09208DF8100000208DF8110026
:103C800002208DF8120001208DF8130004A8FCF723
:103C900030FF05B000BD10B50F480088401C0E492C
:103CA00008800820FDF70FF810BD0000EC00002090
:103CB0000000A0428C020020DC000020E800002070
:103CC000DE000020DA0000200000F0420000204367
:103CD00000007A4400000240D60000207047704780
:103CE000704770477047754600F02CF8AE460500E7
:103CF0006946534620F00700854618B020B5FCF70A
:103D0000E1FEBDE820404FF000064FF000074FF005
:103D100000084FF0000B21F00701AC46ACE8C009E9
:103D2000ACE8C009ACE8C009ACE8C0098D467047F2
:103D300010B50446AFF300802046BDE81040FCF704
:103D40006CBA000000487047A002002081F00041DA
:103D5000704780F00040704721F00041704720F02C
:103D60000040704721F00042A2F16052B2F5801F7E
:103D700001F0004328BFD2F17F6C0BD95FEA001C31
:103D800043EAC20242EB507018BF704728BF20F0D0
:103D900001007047B2F5801FBCBF184670474FEA5C
:103DA000410C1CF5001F02D2084600F015BB70B58F
:103DB00000F028F900000089FFF7F6BF4FF000403F
:103DC000A0F580007047000010B591EA030F48BFCE
:103DD00083F0004300F1A881841A71EB030C05D233
:103DE000121943EB0C03001B61EB0C01DFF824E11B
:103DF0004FEA1154A4EB135C1EEA430F18BF9EEA6E
:103E0000445F73D023EA0E03DCF1200E21EA045153
:103E100043F4801332D322FA0CFE10EB0E0023FA87
:103E20000CFE41EB0E01CCF1200E03FA0EFE10EB5E
:103E30000E0051F10001B1F5801FCCF1200E32D2FD
:103E400001EB045112FA0EF2BDE8104058BF704762
:103E5000401C38BF5FEA420218BF7047002814BFF9
:103E600020F0010041F100014FEA410313F5001F6A
:103E700038BF7047A1F1C04100F012B9012A43EBED
:103E80000302ACF1200CDCF11F0E32BF4FF0000E2C
:103E900023FA0CF310EB030041EB0451B4EB115F78
:103EA000D0D0A1EB045101F5801149085FEA300040
:103EB00001EB04510ED350F1000038BF12FA0EFE90
:103EC00008D1BDE81040C9E7401C38BF5FEA420294
:103ED000CAD1C3E7BDE810404FEA410313F5001F04
:103EE00038BF7047A1F1C04100F0DAB89EEA445FE4
:103EF00008D011EA5E0FBDE8104004BF01F0004198
:103F000000207047BDE8104070B500F07BF800BF9E
:103F100064FBBE3E0000E0FF491058BFC1F14041C4
:103F20005B1058BFC3F140438B42EFF300807047F2
:103F30004FEA1153A3F58063D3F11E03A8BFD3F159
:103F4000200C08DB4FF0004242EAC12252EA5052F4
:103F500032FA03F0704709420BD4102BC4BF002083
:103F6000704703F5787CBCF1FF3F05D04FF0FF3080
:103F700070474FF00000704770B500F043F800BF85
:103F80004992248000207047F0E7000051EA030CBA
:103F900017D41CF5801F58BFBCF5801F00F10680A8
:103FA000994218BF704708BF9042704707D711F574
:103FB000801F58BF13F5801F19D49942704789425A
:103FC00070471CF5801F08D5BCF5801FF7D58B42C4
:103FD00018BF704708BF824270474FF4001C1CEBAB
:103FE000410F38BF1CEB430F01D28B42704770B5B5
:103FF00000F008F8922449004FF000514FF0805330
:10400000FFF78ABF0EF1020E2EF0030E5EF8046B6E
:10401000364205D4012A43EB030515F5001F12D8DB
:10402000012841EB010C1CF5001F0CD80ED14FEA02
:10403000D17C15F5001F0CEB4C0C0CF1020C08BFE9
:104040004CEBD37C04E04FF0080C01E04FEAD37C4A
:104050000CEB4C0526FA05F606F00706B6F1040C43
:1040600006D20EEB860CBDE870404CF0010C6047A8
:10407000DFE80CF0090B02024FF000414FF00000A6
:10408000A1F5002170BD19461046012851EB01042D
:1040900018BFD4F5001484BF002001F0004170BDAA
:1040A0000808A0F500114FEA3101704753EA010CEE
:1040B00017D41CF5801F58BFBCF5801F00F1068087
:1040C0008B4218BF704708BF8242704707D713F56D
:1040D000801F58BF11F5801F19D48B4270479B4237
:1040E00070471CF5801F08D5BCF5801FF7D5994295
:1040F00018BF704708BF904270474FF4001C1CEB7C
:10410000430F38BF1CEB410F01D2994270470FB4E7
:104110000CBC03BCFFF76BBF10B591EA030F48BF9F
:1041200083F000433FF558AE841A71EB030C07D2BD
:1041300012198CF0004C43EB0C03001B61EB0C01DB
:10414000DFF8A4E14FEA1154A4EB135C1EEA430F1D
:1041500018BF9EEA445F00F0B08023EA6E0352422B
:1041600021EA0451C3EB6E0338BF5B1EDCF1200E65
:1041700025D322FA0CFE10EB0E0043FA0CFE41EBA5
:104180000E01CCF1200E03FA0EFE10EB0E0051F1E1
:104190000001CCF1200E29D412FA0EF201EB0451E9
:1041A000BDE8104058BF7047401C1CBFB2F1004F23
:1041B000704700280CBF491C20F00100704712EB2B
:1041C000020E43EB030218BF4FF0010E4EEA42020B
:1041D000ACF1200CDCF11E0E54D943FA0CFE10EBAE
:1041E0000E0051F1FF31CCF11E0ED5D50EF1010EAE
:1041F00012FA0EFE404141EB010101EB445C5FEA23
:104200005C5C10D910EBDE7001EB045138BFBEF1DD
:10421000004FBDE8104018BF704700280CBF491C74
:1042200020F00100704730D24FEAD42C11F5001174
:1042300024F400641BD0B1FA81F20B3AA41AA41E34
:10424000D2F12003914030FA03F31943904001EB7F
:10425000CC71002C01EB0451BDE81040A8BF7047A1
:1042600001F1C0414FF0000001F000417047B0FA89
:1042700080F310FA03F100D110BDE41A173C480591
:10428000C90AE4E701EB045110BD491001EB0451E8
:10429000BDE810404FEA300002E04FF000017047E7
:1042A0004A0008BF0042F8D0B2F5001F28BF70478F
:1042B00001F000414FF0000070479EEA445F07D0D4
:1042C00011EA5E0FBDE8104004BF002100207047D6
:1042D000BDE8104070B5FFF795FE00BF40DFF63E29
:1042E00083F00041104670470000E0FF43004FEAB2
:1042F000D30C4FEA3C0C43401FBF40070CF1605108
:1043000013F0FE4F70471CF0006F03D100200CF03B
:10431000004170470CF0004343EA507010B540EA8A
:10432000CC0000F00EF800BF000000924FEA000140
:10433000FFF7B6BE4FF000414FF00000A1F500219D
:1043400070470EF1020E2EF0030E5EF8044B24426D
:1043500004D44FEA4102B2F17F4F11D84FEA400333
:10436000B3F17F4F0CD80ED14FEAD07CB2F17F4F22
:104370000CEB4C0C0CF1020C08BF4CEBD17C04E0B4
:104380004FF0080C01E04FEAD17C0CEB4C0324FA0F
:1043900003F404F00704B4F1040C06D20EEB840C11
:1043A000BDE810404CF0010C6047DFE80CF0070856
:1043B00002024FF00040A0F5800010BD0846420008
:1043C00018BFD2F1807288BF00F0004010BD4FF0DE
:1043D0004070E1EE100A7047FF2141EAD050C0055D
:1043E0007047000000007A44CDCCCC3D0000A040D6
:1043F0001044000800000020F0000000C401000884
:1044000000450008F000002010080000E00100084E
:10441000000000000000000000000000000000009C
:10442000000000000000000000000000000000008C
:10443000000000000000000000000000000000007C
:10444000000000000000000000000000000000006C
:104450000000000002000000040000000000000056
:104460000200000001000000040000000300000042
:104470000000000004000000000000000200000036
:10448000030000000100000040060000B00400002E
:1044900020030000900100000000000070FEFFFFFC
:1044A000E0FCFFFF50FBFFFF007A030A0000000062
:1044B00000000000010203040607080900000000D4
:1044C00001020304010203040607080900000000BA
:1044D00000000000000000000000000000000000DC
:1044E00000000000000000000000000000000000CC
:1044F00066005B0069000000000000000000000092
:040000050800018965
:00000001FF
