:020000040800F2
:10000000900B0020ED010008CD1800087F170008B4
:10001000C9180008CD120008A71F00080000000042
:10002000000000000000000000000000BF1B0008EE
:10003000D11200080000000055190008D11C00086A
:10004000070200080702000807020008070200086C
:10005000070200080702000807020008070200085C
:10006000070200080702000807020008070200084C
:10007000070200080702000807020008070200083C
:10008000070200080702000807020008070200082C
:10009000070200080702000807020008070200081C
:1000A000070200080702000807020008070200080C
:1000B00007020008351D00080702000807020008B3
:1000C00007020008070200080702000807020008EC
:1000D00007020008851D0008070200080702000843
:1000E000D5120008070200080702000807020008EE
:1000F00007020008070200080702000807020008BC
:1001000007020008070200080702000807020008AB
:10011000070200080702000807020008070200089B
:10012000070200080702000807020008070200088B
:1001300000F002F800F04AF80AA090E8000C8244AF
:100140008344AAF10107DA4501D100F03FF8AFF28C
:10015000090EBAE80F0013F0010F18BFFB1A43F0A5
:10016000010318473829000058290000103A24BF1D
:1001700078C878C1FAD8520724BF30C830C144BF0C
:1001800004680C607047000000230024002500264E
:10019000103A28BF78C1FBD8520728BF30C148BFEA
:1001A0000B607047662902F02C84642900F080807F
:1001B000002070471FB500F033FB04000020002131
:1001C00002F05AFAE0601FBD10B510BD00F040FC0F
:1001D0001146FFF7EFFF01F073FF00F05EFC03B480
:1001E000FFF7F2FF03BC01F0F4FE0000094880476E
:1001F00009480047FEE7FEE7FEE7FEE7FEE7FEE709
:10020000FEE7FEE7FEE7FEE704480549054A064B20
:1002100070470000D51C000831010008900500203F
:10022000900B0020900700209007002070470000EE
:100230000FB4044910B503AA029800F0DFFA10BC0D
:100240005DF814FB480000202DE9F0410E460446FD
:10025000002020622046E168884730B3252805D079
:10026000D4E901219047206A401CF2E7E16820466A
:1002700000278847050018D0A5F14100192802D8A9
:1002800020354FF400673246294620462760FFF7A5
:1002900089FF40B1012804D0F61D26F00706083674
:1002A000D8E7361DD6E72846DAE7206ABDE8F081B0
:1002B0002DE9F0410646002410687529314616A53F
:1002C00010D0AFF30080002802DA404213A507E007
:1002D00031688A0701D512A502E0490704D511A5A6
:1002E000012401E0AFF3008000210A2206F1240777
:1002F00009E0B0FBF2FCB0FBF2F302FB1C00303073
:1003000078541846491C0028F3D123462A46304623
:10031000BDE8F04100F00CB8000000002D00000026
:100320002B000000200000007047704770477047A6
:100330002DE9F0470D4699469246044600F12408FF
:100340000168880604D5E06921F01001216000E011
:100350000120A84201DD471B00E00027A1697A19AE
:1003600002EB0900081AA0612078C00602D42046DA
:10037000AFF30080002608E0D4E901211AF8060056
:100380009047206A401C761C20624E45F4DB2078A2
:10039000C0060AD52046AFF3008006E0D4E901216B
:1003A00030209047206A401C2062381EA7F10107C8
:1003B000F4DC07E0D4E9012118F805009047206A31
:1003C000401C2062281EA5F10105F3DC2046AFF396
:1003D00000802078000602D50220BDE8F0870120C9
:1003E000FBE770472DE9FF4F0C461E464FF0FF37E5
:1003F0008BB0D2E90001DDF860800A908A46C1F333
:100400000A5505B93D46002108464FF00000BAF1F3
:10041000000F00F4400005DA00EB80004FF44001CB
:1004200001EA50004FEA9059B9F1010F00DDB946D9
:100430000A9850EA4A000ED044F61050A5F2FF3553
:1004400045432F14B8F1000F1ED07542291E1EDD42
:10045000C9F100021CE0B8F1010F4FF0000001D01B
:10046000302103E0F24305E02154401CB042FBDBA5
:1004700030460022002121540B99C1F80880C1E9BF
:1004800000200FB0BDE8F08FBD1B6D1CDEE74A46B3
:1004900000DA694206A800F065FA06AB93E80700A7
:1004A00003AB83E8070050460A9900F03DFB8DE856
:1004B0000700A0F500501F3800900398002D09DDBB
:1004C00042F21F014A46084403A90390684600F01F
:1004D0009CFD08E0A0F500504A461F3803A9039090
:1004E000684600F0A6FD8DE807000004000C03D06C
:1004F0004FF0FF30410800E01046B8F1000F03D084
:100500000022009215461EE0751E05D400F08CF9FD
:10051000303262556D1EF9D5B3460122084302D030
:1005200000227F1C04E02078302801D100227F1EA9
:10053000002A099786D01DE0112D07DA00F074F922
:10054000303262556D1C50EA0102F5D1084302D0E9
:100550000098C8B10EE00021681E05E0235C625CD3
:1005600063542254401E491C8142F7DBAB46A81B52
:10057000401E0990002004F80B000B98099AC0F85F
:100580000880C0E9002B7CE711264FF0000859E7EE
:100590002DE9F04F88460446D21D22F0070191B0A4
:1005A000D1E90001CDE90A0101F0FFFC02460B98F8
:1005B000C00F01D02D2007E02068810701D52B2036
:1005C00002E0202101EAC000032A099001D0072A95
:1005D00005DB03464146204600F084F90BE1207814
:1005E000800601D5E06900E00620B8F1650F81467C
:1005F00006D0B8F1660F18D0B8F1670F70D131E0AE
:100600000020B9F1110F009001DB112301E009F185
:1006100001030AAA01A90CA8FFF7E4FEDDE90C70AA
:10062000002609F10105834647E001204B46009072
:100630004FF000470AAA01A90CA8FFF7D3FEDDE995
:100640000DB00C995D46002610B909F101000D1896
:10065000B9EB050003D4C0F1FF3609F10105A5EBA4
:1006600009002BE0B9F1010F01DA4FF00109002078
:10067000B9F1110F0090484601DD112300E0034657
:100680000AAA01A90CA8FFF7ADFEDDE90C704D46E2
:1006900000268346207800070AD4AB4500DA5D4681
:1006A00001A8012D04DD411911F8011C302907D0E2
:1006B0004F4502DA17F1040F04DA012082460FE0F9
:1006C0006D1EEEE7002F02DCED1B3E4403E0781CBC
:1006D000A84200DD7D1CB81B00F1010A4FF0004765
:1006E0002078000703D4AA4501DB4FF0FF3A002130
:1006F000B7F1004F0DF143088DF8431024D00220CC
:100700002B23002F01DA7F422D230A21021EA0F1A4
:10071000010000DC5FB197FBF1FC97FBF1F201FBFC
:100720001C7C17460CF1300C08F801CDEEE7A8F15F
:10073000010003702188090501D5452100E06521EC
:10074000A0F1010800F8011C09980FA9A1EB080706
:10075000FF1D00B10120411901EBEA70A169384485
:10076000081A401EA0612078C00602D42046AFF3CC
:100770000080099828B1D4E901219047206A401CE3
:1007800020622078C00622D52046AFF300801EE00C
:10079000002E04DBB34502DD01A8805D00E03020BF
:1007A000D4E901219047206A401C2062761CAAF1FE
:1007B00001005FEA000A0AD100F032F8C06801685F
:1007C000405CD4E901219047206A401C2062281E29
:1007D000A5F10105DCDC07E0D4E9012118F8010BE3
:1007E0009047206A401C2062381EA7F10107F3DC05
:1007F0002046AFF30080032011B043E6074B70B5ED
:100800000D467B4400F05BF80446284600F018F9DA
:1008100010B14FF0FF3070BD204670BD9F18000032
:10082000004870474C05002030B5B0F10A024FEA8D
:10083000900E71F100034EEA817EB0EB0E0061EB89
:1008400091014FEA101E4EEA017E10EB0E0041EBC3
:1008500011114FEA102E4EEA016E10EB0E0041EB23
:1008600011214FEA104E4EEA014E10EB0E0041EB03
:100870001141401841F100014FEAD00040EA4170B7
:100880004FEAD10110EB80054FEA810444EA9074ED
:1008900044EB01046D1944EB0404521BA3414FF0D7
:1008A000000348BF0A3200D530BD401C41F10001B1
:1008B00030BD000001694A1C02610878704700B52C
:1008C0008FB0CDE901310021059105497944CDE989
:1008D000031011466846FFF7B7FC0FB000BD0000DB
:1008E000E5FFFFFF2DE9F0411F460446032601689E
:1008F000072A01F4006004DB08B116A505E016A57F
:1009000003E008B115A500E015A521F01000206056
:10091000A069C01EA0610FB1401EA0612046AFF3C8
:1009200000804FB1D4E9012138469047206A401C2D
:100930002062C01C206206E0206AFAE7D4E90121A7
:1009400015F8010B9047761EF8D22046AFF30080D1
:10095000BDE8F0814E414E006E616E00494E46008A
:10096000696E66002DE9F047814616468AB0334825
:1009700078440DC88DE80D0030487844801C03ACE5
:100980000DC884E80D0041F69B300844372190FBE8
:10099000F1F290FBF1F5A5F1800501FB12041B3C7F
:1009A00002D56442012000E00020DFF890A08046DC
:1009B0000027FA44AAF1BE0A0DE0E00709D032464A
:1009C000684607EB47010AEB810100F032FB8DE836
:1009D000070064107F1C002CEFD1184F7F44AC3F00
:1009E00018E0E80714D007EB04100DF1180A90E89E
:1009F0000E008AE80E00C068F04201D198190890F4
:100A0000324606A903A800F014FB03AB83E80700F5
:100A10006D10641C002DE4D132466946B8F1000F18
:100A200003A802D000F0F1FA01E000F002FBC9E9EE
:100A30000001C9F808200AB0BDE8F08710210000C5
:100A4000007B00F080007047004870472C050020B4
:100A50007546FFF7F9FFAE4605006946534620F09C
:100A60000700854618B020B5FFF7CEFBBDE8204053
:100A70004FF000064FF000074FF000084FF0000B5A
:100A800021F00701AC46ACE8C009ACE8C009ACE80D
:100A9000C009ACE8C0098D4670470446AFF300803A
:100AA0002046FFF79CFB00004FF0013C50F8042B60
:100AB00051F8043B9A4221D1A2EB0C03934313EA71
:100AC000CC1317D150F8042B51F8043B9A4215D19E
:100AD000A2EB0C03934313EACC130BD150F8042B75
:100AE00051F8043B9A4209D1A2EB0C03934313EA59
:100AF000CC13DBD04FF00000704700BFD01A01BA12
:100B0000B1FA81F101F0180122FA01F0CB40C1F1F4
:100B10002001DBB2C0B2C01A2CFA01F3D11A914302
:100B200011EAC311E6D170475FEA400C08BF91F0AB
:100B3000000F4FEA8C234FEAC12243EA51514FEA9A
:100B40001C5018BF00F5F0404FEA300018BF41F0CC
:100B500000415FEA6C5C00F02980BCF1FF3F08BFF8
:100B600040F080407047130C06BF12044FF0100C89
:100B70004FF0000C130E04BF12020CF1080C130FFF
:100B800004BF12010CF1040C930F04BF92000CF18E
:100B9000020CD30F04BF52000CF1010C11464FF0B0
:100BA0000002A0F11F00A0EB0C00704711F0004FF5
:100BB00008BF704731F000413FF4D5AF0B0C06BFC2
:100BC00009044FF0100C4FF0000C0B0E04BF09028B
:100BD0000CF1080C0B0F04BF09010CF1040C8B0F76
:100BE00004BF89000CF1020CCB0F04BF49000CF1CB
:100BF000010CCCF12003A0EB0C0022FA03F302FA63
:100C00000CF241EA030100F10100704720F07F4C33
:100C100080EA030023F07F47ACEB070303F57C5326
:100C200000F0004003F1FF032DE980494FEA154B26
:100C300009B44FEA144325EA0B4E24EA03480FF2A5
:100C4000042606EB132749083E785FEA320203FBCD
:100C50000667C7F5000707FB06F64FEA54374FEA69
:100C6000D64606F1020607FB066CCCF1005C4FEAA3
:100C70001C472CEA074C07FB06F40CFB06F504EBBB
:100C800015464FEA961634BF00204FF000404FEA59
:100C9000D13706FB07FC4FEA1C4C0CFB0BF7D21BB1
:100CA00003FB0CF761EB07010CFB0EF7B0EB074001
:100CB00072EB17420CFB08F734BFA2EB0742B2EB12
:100CC000074261EB17414FEA0C444FEA910706FBDC
:100CD00007FC4FEA1C4C0CFB0BF7B0EBC74072EB68
:100CE000573203FB0CF734BFA2EBC742B2EBC7424B
:100CF00061EB57310CFB0EF7B0EBC70072EB57728C
:100D00000CFB08F734BFA2EBC702B2EBC70261EBE2
:100D10005771039F4FEA816141EA921104EBCC04C1
:100D20004FEAD1374FEA826206FB07FC42EA901293
:100D30004FEA80604FEA1C4C0CFB0BF7D21B03FB05
:100D40000CF761EB07010CFB0EF7B0EB074072EB01
:100D500017420CFB08F734BFA2EB0742B2EB074285
:100D600061EB17414FEA8C554FEA910704EB9C2445
:100D700006FB07FC4FEA1C4C0CFB0BF7B0EBC74023
:100D800072EB573203FB0CF734BFA2EBC742B2EB56
:100D9000C74261EB57310CFB0EF7B0EBC70072EBAB
:100DA00057720CFB08F734BFA2EBC702B2EBC702C5
:100DB00061EB577115EB4C254FEA816141EA9211C5
:100DC0004FEA82624FEAD13742EA901206FB07FCF3
:100DD00044F100044FEA80604FEA1C4C0CFB0BF717
:100DE000D21B03FB0CF761EB07010CFB0EF7B0EB1A
:100DF000074072EB17420CFB08F734BFA2EB074227
:100E0000B2EB074261EB174115EB1C154FEA81313C
:100E100041EA92414FEA823242EA90424FEA803000
:100E20004FEA0C7644F1000448EA03434EEA0B48CB
:100E30004FF0000EB2EB080C71EB030724BF6246C3
:100E400039464EEB0E0E4FF0000B0018524149414F
:100E50004BEB0B0BB2EB080C71EB03077BF1000BB8
:100E600024BF624639464EEB0E0E4FF0000B0018C1
:100E7000524149414BEB0B0BB2EB080C71EB0307F2
:100E80007BF1000B24BF624639464EEB0E0E51EA51
:100E9000020718BF46F0010616EB0E7655F1000268
:100EA00054F1000103D5BDE88901BDE80088BDE823
:100EB0008901BDE80048B619524141EB0101A3F197
:100EC0000103704780807F7E7D7C7B7A797877769E
:100ED00076757473727171706F6E6E6D6C6C6B6A17
:100EE0006A696868676666656464636362616160B5
:100EF000605F5F5E5E5D5D5C5C5B5B5A5A59595832
:100F0000585757565655555554545353525252519B
:100F1000515050504F4F4F4E4E4D4D4D4C4C4C4BF1
:100F20004B4B4A4A4A494949484848474747474638
:100F30004646454545444444444343434342424274
:100F400042414141002B26D4770021D01CB54FEA05
:100F5000370703B44FF010004FF010014FF00000BE
:100F60000FBCBDE810400BF1010BBBF1010F08BF36
:100F70005FEA170722BF12F1010211F101014FF0E0
:100F8000004143F1000300F0004043EA00007047D5
:100F9000F9D35708DAE746EA064613F1400F4FEA5D
:100FA00016461FDD13F1200FDFBF16430A4600214E
:100FB00020335B42C8D0C3F1200746EA064602FA56
:100FC00007F74FEA164646EA0706C3F1200722FA5A
:100FD00003F201FA07F721FA03F14FF0000342EAA6
:100FE0000702B1E746EA020646EA06464FEA164617
:100FF00046EA0106BCBF46EA0646360C4FF000033F
:101000004FF000024FF000019EE72DE9C0489346E3
:1010100030B491E8380007C831EA400C48BF34EAE0
:10102000430C03D5FFF7F2FDFFF78CFFF0BCBDE8E2
:1010300000882DE9C048934630B491E8380007C8CD
:1010400010F0804F08BF13F0804F03D100F005F877
:10105000FFF778FFF0BCBDE8008820F07F4780EA0A
:10106000030023F07F4C07EB0C03A3F57C5300F047
:101070000040A3F1FE0392F0000F00F0B38095F062
:10108000000F00F077802DE901494FEA11404FEA47
:10109000144621EA004800FB06FC24EA064708FB48
:1010A00006F607FB08F800FB07F718EB06484CEBC1
:1010B000164C4FEA124B18EB07484FEA15464CEB1B
:1010C000174022EA0B4E0BFB06FC25EA06470EFBF7
:1010D00006F607FB0EFE0BFB07F71EEB064E4CEB6E
:1010E000164C4FF000061EEB074E4CEB174B18EB5F
:1010F0000B0840F1000018EB0E0B58EB000840F114
:1011000000008F1A4FF000013CBFC943661B14BF9B
:10111000B5EB040C00213CBFC943F61B4FEA174452
:101120004EEA8E0E27EA04454FEA1C4704FB07628D
:101130002CEA074C05FB07F70CFB05F604FB0CFC3F
:1011400016EB074642EB174216EB0C4642EB1C42ED
:101150001BEB060658EB0202414146EA9E0601D50A
:10116000BDE80189B619524141EB0101A3F1010328
:10117000BDE801894FEA14454FEA114724EA0546C4
:1011800021EA074C05FB07F406FB07F70CFB06F109
:1011900005FB0CFC11EB074144EB17444FEA1247E7
:1011A00011EB0C4144EB1C4422EA074C05FB07F20F
:1011B00006FB07F70CFB06F605FB0CFC16EB0746D7
:1011C00042EB174216EB0C4642EB1C456A1854F1F1
:1011D000000148BF7047B619524141EB0101A3F12C
:1011E0000103704795F0000F37D04FEA11424FEAE4
:1011F000144721EA024624EA074C02FB07F106FBEA
:1012000007F70CFB06F402FB0CFC14EB074441EB64
:1012100017414FEA154714EB0C4441EB1C4125EAFA
:10122000074C02FB07F506FB07F70CFB06F602FB73
:101230000CFC16EB074645EB174516EB0C4645EB49
:101240001C42121951F1000148BF7047B6195241B2
:1012500041EB0101A3F1010370474FEA14454FEA46
:10126000114724EA054621EA074C05FB07F106FB76
:1012700007F70CFB06F24FF0000605FB0CFC12EB27
:10128000074241EB174112EB0C4251EB1C4148BFA6
:101290007047921841EB0101A3F101037047000070
:1012A00008B50121082000F057FB0220ADF800002E
:1012B00010208DF8030003208DF8020069460248D3
:1012C00000F07AF908BD0000000C014000BFFEE705
:1012D0007047000010B5074800880749884204DAC3
:1012E00004480088401C034908804FF4004000F087
:1012F0003FF810BD180000203F420F001FB501212C
:10130000082000F029FB0121084600F025FB4FF4DE
:101310000040ADF8000048208DF8030069461348EE
:1013200000F04AF90F21012000F026F94FF40040A7
:10133000029000208DF80C000C208DF80D0001208B
:101340008DF80E0002A800F019F828208DF804008E
:1013500002208DF8050000208DF8060001208DF890
:10136000070001A800F0B4FA1FBD0000000C014006
:10137000014908607047000014040140002123491E
:101380008279002A3AD00A46126803689A430B46CB
:101390001A600A1D126803689A430B1D1A600279CD
:1013A00011440A6803681A430A60184A083212682E
:1013B00003689A43154B08331A601A1D12680368B4
:1013C0009A43124B0C331A604279102A0ED11A1F1D
:1013D000126803681A430D4B08331A601A1D12680D
:1013E00003681A43094B0C331A600DE00749427930
:1013F00011440A6803681A430A6005E0027911443F
:101400000A6803689A430A607047000000040140BC
:1014100030B5044604254FF4302000F06FF805463F
:10142000042D17D10C48006940F002000A490861F8
:1014300008464461006940F0400008614FF43020E4
:1014400000F05CF805460448006941F6FD7108406B
:1014500001490861284630BD0020024004200B49A4
:10146000C96801F0010109B101200EE00749C9680E
:1014700001F0040109B1022007E00449C96801F044
:10148000100109B1032000E0042070470020024051
:101490000348006940F0800001490861704700007E
:1014A0000020024070B504460D460426F00200F00C
:1014B00025F80646042E11D10948006940F00100C4
:1014C000074908612580F00200F018F80646044834
:1014D000006941F6FE71084001490861304670BD5F
:1014E00000200240024803494860034848607047B2
:1014F0002301674500200240AB89EFCD00B50246CD
:101500000423FFF7ABFF034603E0FFF7A7FF034603
:10151000521E012B01D1002AF7D102B9052318462A
:1015200000BD000008B50121042000F015FA0121DA
:10153000102000F011FAFF20ADF8000014208DF803
:10154000030003208DF802006946094800F034F8D2
:101550004FF44040ADF8000010208DF80300032048
:101560008DF802006946034800F026F808BD000027
:10157000000801400010014030B500228B071C0F0D
:101580000F2303FA04F20B4B8C1053F824309343CF
:10159000084C8D1044F8253023468C1053F8243025
:1015A0008C07240F00FA04F42343024C8D1044F8F6
:1015B000253030BD080001402DE9F04102460025EC
:1015C0000026002000230024002791F803C00CF01F
:1015D0000F0591F803C00CF0100CBCF1000F03D004
:1015E00091F802C04CEA050591F800C0BCF1000F6B
:1015F00031D0146800202BE04FF0010C0CFA00F3FE
:10160000B1F800C00CEA03069E4220D183004FF0DF
:101610000F0C0CFA03F7BC4305FA03FC4CEA040474
:1016200091F803C0BCF1280F06D14FF0010C0CFA61
:1016300000FCC2F814C00AE091F803C0BCF1480FE6
:1016400005D14FF0010C0CFA00FCC2F810C0401C90
:101650000828D1D31460B1F800C0BCF1FF0F34DD0D
:10166000546800202EE000F1080C4FF0010808FA41
:101670000CF3B1F800C00CEA03069E4221D18300AE
:101680004FF00F0C0CFA03F7BC4305FA03FC4CEACD
:10169000040491F803C0BCF1280F05D100F1080C37
:1016A00008FA0CF8C2F8148091F803C0BCF1480F96
:1016B00007D100F1080C4FF0010808FA0CF8C2F845
:1016C0001080401C0828CED35460BDE8F081000093
:1016D000F0B50A46002300240021002500F0004652
:1016E000B6F1004F02D11D4EF16901E01B4E716849
:1016F000C0F3034583B200F44016B6F5401F08D18D
:1017000021F07061154E766826F07066134F7E608A
:1017100012E000F48016B6F5801F06D1032606FA03
:1017200005F4A14341F0706106E0460D360103FA6D
:1017300006F6B14341F0706122B1460D360103FA5D
:1017400006F6314300F00046B6F1004F02D1034ED9
:10175000F16101E0014E7160F0BD00000000014048
:101760000246002093680B400BB1012000E00020EE
:1017700070474161704701617047C160704700BFA9
:10178000FEE7000008B50121084600F0E5F8012158
:101790000E48FFF79DFF0121082000F0DDF84FF40F
:1017A0000060ADF8000048208DF803006946084845
:1017B000FFF702FF4FF48060ADF8000048208DF87D
:1017C000030069460248FFF7F7FE08BD000230003B
:1017D000000C014010B5FFF7A5FE012000F030F825
:1017E000382000F02DF80C2000F02AF8062000F038
:1017F00027F8D02000F024F8012000F021F810BDD7
:1018000070B504460E460EB9E5B202E004F14000A0
:10181000C5B245F0800000F013F870BD70B5054604
:101820000E46144631462846FFF7EAFF03E014F857
:10183000010B00F027F820780028F8D170BD0000D7
:1018400010B504464FF400410C48FFF792FF4FF4E7
:1018500080410A48FFF78DFF21460948FFF78DFFB9
:101860004FF400410548FFF786FF052000F0F4FB28
:101870004FF400410148FFF77CFF10BD001001400C
:101880000008014010B504464FF400410C48FFF732
:1018900070FF4FF480410A48FFF76DFF2146094869
:1018A000FFF76BFF4FF400410548FFF764FF052089
:1018B00000F0D2FB4FF400410148FFF75AFF10BD82
:1018C000001001400008014000BFFEE77047000023
:1018D00070B5002100230F22C47804B3154C24688E
:1018E00004F4E064C4F5E064210AC1F10403CA40D1
:1018F000447804FA03F184781440214309010E4C22
:101900000678A155047804F01F050124AC40057841
:101910006D11AD0005F1E025C5F8004109E004783E
:1019200004F01F050124AC40044D0678761145F8FB
:10193000264070BD0CED00E000E400E080E100E036
:1019400002490143024A1160704700000000FA0595
:101950000CED00E07047000029B1064A926902438D
:10196000044B9A6104E0034A92698243014B9A61F5
:10197000704700000010024030B500210022002412
:1019800000232D4D6D6805F00C0121B1042905D00F
:10199000082923D105E0294D056022E0274D056087
:1019A0001FE0254D6D6805F47012234D6D6805F438
:1019B0008034022505EB92421CB9214D5543056048
:1019C0000BE01D4D6D6805F400351DB11C4D5543F0
:1019D000056002E0194D5543056002E0174D0560B2
:1019E00000BF00BF144D6D6805F0F0010909154DE9
:1019F0006B5C0568DD4045600F4D6D6805F4E06186
:101A0000090A104D6B5C4568DD4085600A4D6D68C4
:101A100005F46051C90A0B4D6B5C4568DD40C5603B
:101A2000054D6D6805F44041890B074D6B5CC56839
:101A3000B5FBF3F5056130BD0010024000127A00DD
:101A400000093D004E0000205E0000202DE9F0411D
:101A500007460D46164600240CE0384600F016F8FE
:101A600025F81400BF1C35F8141004A0FEF7E0FBA5
:101A7000601C84B2B442F0DBBDE8F08153544D46A3
:101A80004C4153485F4255463A2564000146088858
:101A9000704700002DE9F05F80468A461746B8F18E
:101AA000006F02D33648804501D3BDE8F09FFFF7B1
:101AB00019FDA8F1006B4FEA9B26CBF34809C9F545
:101AC0000074A74200DC3C4654E04FF0006101EB9B
:101AD00086208A142B49FFF7B9FF00250BE009EB9C
:101AE0000500284931F810004FF6FF71884200D0F8
:101AF00003E0681C85B2A542F1DB00BFA54222DAF3
:101B00004FF0006101EB8620FFF782FC00250FE01B
:101B10003AF8150005EB09011A4A22F8110005EB05
:101B2000090032F8101018A0FEF782FB681C85B27D
:101B3000A542EDDB4FF0006101EB86208A141149CC
:101B400000F02AF804E022465146404600F024F80E
:101B5000A74200D10FE0761C4FF000090AEB440ABF
:101B6000A044381B87B2B7F5007F02DD4FF4007444
:101B700000E03C46A9E700BFFFF78AFC00BF94E7FE
:101B8000000001086400002053544D464C41534866
:101B90005F4255463A2564002DE9F04105460E4660
:101BA0001746002407E036F814102846FFF77AFCA1
:101BB000AD1C601C84B2BC42F5DBBDE8F08170470F
:101BC00010B500F001F810BD0CB500200190009098
:101BD0003348006840F480303149086000BF304825
:101BE000006800F4003000900198401C01900098BB
:101BF00018B90198B0F5A06FF1D12948006800F438
:101C0000003010B10120009001E000200090009809
:101C1000012843D12348006840F0100021490860A2
:101C20000846006820F0030008600846006840F09D
:101C3000020008601A484068194948600846406830
:101C400048600846406840F4806048600846406844
:101C500020F47C1048600846406840F4E810486072
:101C60000846006840F08070086000BF0C480068BB
:101C700000F000700028F9D00948406820F0030007
:101C8000074948600846406840F00200486000BFCD
:101C90000348406800F00C000828F9D10CBD000092
:101CA0000010024000200240042808D14FF0E0213B
:101CB000096941F004014FF0E022116107E04FF0A3
:101CC000E021096921F004014FF0E0221161704721
:101CD0007047000010B51348006840F0010011493A
:101CE000086008464068104908400E4948600846A8
:101CF00000680E4908400B4908600846006820F457
:101D0000802008600846406820F4FE0048604FF4D8
:101D10001F008860FFF754FF4FF00060044908601F
:101D200010BD0000001002400000FFF8FFFFF6FEAB
:101D300008ED00E010B50121064800F012F840B1AE
:101D40000121044800F00AF803480068401C0249D9
:101D5000086010BD0004004040000020CA43028219
:101D6000704730B50246002000230024158A05EA9A
:101D70000103958905EA010413B10CB1012000E0CB
:101D8000002030BD10B540F225511D4800F04AF842
:101D900010B31B4800F002F9C4B21A48008800F4DE
:101DA0000040C8B91748008800F4804060B10A2C90
:101DB00003D000201349088020E01248008840F436
:101DC00000401049088019E00D2C06D10D4800880C
:101DD00040F480400B49088010E00A480088C0F3B6
:101DE0000D0009490C5407480088401C054908802B
:101DF00008460088C72801DD0020088010BD0000CB
:101E0000003801404C0000206404002021B1828988
:101E100042F40052828104E082894DF6FF731A4039
:101E20008281704770B502460024002300250020FF
:101E300040F66A16B14200D100BFC1F3421501F06D
:101E40001F03012606FA03F3012D02D196893340C0
:101E500006E0022D02D1168A334001E0968A334013
:101E60000C12012606FA04F41688344013B10CB1A2
:101E7000012000E0002070BDF0B5034600240026DC
:101E80000025002040F66A17B94200D100BF18466D
:101E9000C1F3421401F01F06012707FA06F5012CD1
:101EA00001D10C3004E0022C01D1103000E01430DC
:101EB0001AB107682F43076002E00768AF43076065
:101EC000F0BD00002DE9F04786B005460E4600241F
:101ED000A24600BFA1460027B08900B100BF2F462F
:101EE0002C8A4CF6FF700440F08804432C82AC89A5
:101EF0004EF6F3100440B0883189084371890843D5
:101F00000443AC81AC8A4FF6FF400440B0890443DF
:101F1000AC8201A8FFF730FD1F48874202D1DDF8EF
:101F200010A001E0DDF80CA0A88900F4004040B149
:101F30000AEBCA0000EB0A1031684900B0FBF1F867
:101F400007E00AEBCA0000EB0A1031688900B0FB19
:101F5000F1F86420B8FBF0F004012009642101FBD2
:101F60001089A88900F4004040B1322000EBC9007C
:101F7000B0FBF1F000F00700044308E0322000EB72
:101F800009106421B0FBF1F000F00F0004432C8134
:101F900006B0BDE8F087000000380140014688889F
:101FA000C0F30800704700BFFEE7490050EAC120B7
:101FB00018BF04204A0D18BF40F0010040F2FF7224
:101FC000B2EB515F08BF40F00200012808BF0520B6
:101FD0007047014600BF704710B503220849094801
:101FE000FFF734FD06480088074908800448408808
:101FF00006490880024880880549088010BD000015
:102000001A000020004000080C0000200E000020F4
:102010001000002010B56FF00400FFF745FE0A48DD
:1020200000680A49B0FBF1F00949087008460078D9
:1020300000EB4001C1EBC0104FF6FF7101EAC00098
:102040000449088010BD00002800002000127A001A
:1020500044000020460000200146114A12884A43ED
:102060004FF0E0235A6100229A611A46126942F049
:1020700001021A6100BF4FF0E022106900F0010276
:102080001AB100F48032002AF5D04FF0E022126934
:1020900022F001024FF0E0231A6100229A6170479A
:1020A0004600002000BF054A128802F04002002AC4
:1020B000F9D0C2B2014B1B1D1A8070470038014095
:1020C0001FB5FFF7A7FFFFF705FEFFF717F9FFF7AB
:1020D00081FBFFF757FBFFF7E3F84FF4A060FFF732
:1020E0002FFC4FF4E13000F015FA0121084600F012
:1020F000EFF9FFF771FF84E04FF400614148FFF70B
:102100002FFB414908800846008820B901203F493B
:10211000087000F04FFA4FF480613A48FFF720FB57
:1021200010B901203A4908703220FFF795FF00F0FE
:10213000A5F9044600F0D2FB3649086000F074F9B6
:10214000044600F0CBFB3449086000F041F9044636
:1021500000F0C4FB314908600846006800F0A8FAA6
:1021600004460D462C48006800F0A2FA06460F46C9
:102170002848006800F09CFA804642460B4628A09A
:10218000CDE90067CDE90245FEF752F800F066F8A8
:102190001F480078012834D11E480168254800F006
:1021A000B1FB26D224491B48006800F0ABFB20D2CB
:1021B00019480168214800F0A5FB1AD220491648A9
:1021C000006800F09FFB14D2144801681D4800F01D
:1021D00099FB0ED21C491148006800F093FB08D20D
:1021E00001201A4908601AA200210A20FFF716FBF5
:1021F00007E000201549086016A200210A20FFF719
:102200000DFB79E7000C0140200000202500002094
:10221000240000200000002004000020080000200E
:10222000723A256620673B256620623B2566200DB5
:102230000A00000000002A430000484300008C42CE
:102240000000BE420000C8420000024384812142D7
:102250005265640020202020000000002DE9F0419C
:102260004FF07E515148006800F05AFA074600F0DE
:1022700019FB04464EA200210320FFF7CFFA4EA21D
:1022800000210820FFF7CAFA4CA201210846FFF7F7
:10229000C5FA642094FBF0F00A2190FBF1F201FBF7
:1022A00012003030C7B23846FFF7ECFA0A2094FB30
:1022B000F0F00A2190FBF1F201FB12003030C7B2BE
:1022C0003846FFF7DFFA0A2094FBF0F100FB1140DB
:1022D0003030C7B23846FFF7D5FA4FF07E51384854
:1022E000006800F01DFA074600F0DCFA054635A24A
:1022F00001210620FFF792FA642095FBF0F00A21F5
:1023000090FBF1F201FB12003030C7B23846FFF704
:10231000B9FA0A2095FBF0F00A2190FBF1F201FBDB
:1023200012003030C7B23846FFF7ACFA0A2095FBEE
:10233000F0F100FB11503030C7B23846FFF7A2FA77
:102340004FF07E512048006800F0EAF9074600F09F
:10235000A9FA06461DA201210B20FFF75FFA6420AF
:1023600096FBF0F00A2190FBF1F201FB12003030F5
:10237000C7B23846FFF786FA0A2096FBF0F00A212A
:1023800090FBF1F201FB12003030C7B23846FFF784
:1023900079FA0A2096FBF0F100FB11603030C7B2E9
:1023A0003846FFF76FFABDE8F0810000000000201A
:1023B000436F6C6F720000003A0000005200000092
:1023C0000400002047000000080000204200000038
:1023D00010B500200F49086001200F49C1F8B40171
:1023E00000200E4908800A20FFF736FE0B480088BF
:1023F000C0EB00200A490988B0FBF1F009490880C8
:1024000008460088FF2801DDFF2008800548008875
:1024100010BD0000B8812142008021421800002038
:10242000100000201600002010B501200E490860A1
:102430000E49C1F8B40100200D4908800A20FFF7B9
:102440000BFE0B480088C0EB00200A490988B0FB4E
:10245000F1F00949088008460088FF2801DDFF20C7
:1024600008800548008810BDB881214200802142C3
:10247000180000200E0000201400002010B50020DD
:102480000E4908600E49C1F8B4010E4908800A20BF
:10249000FFF7E2FD0B480088C0EB00200A490988DD
:1024A000B0FBF1F00949088008460088FF2801DDEB
:1024B000FF2008800548008810BD0000B881214237
:1024C00000802142180000200C0000201200002093
:1024D00038B505460C4601210820FFF73DFA4FF4B8
:1024E000F040ADF8000010208DF8030003208DF8B7
:1024F000020069460448FFF75FF804480560044895
:10250000C0F8B04138BD0000000C0140A881214254
:102510000080214210B586B00446012144F2040037
:10252000FFF71AFA4FF40070ADF8140003208DF88D
:10253000160018208DF8170005A91C48FFF73CF875
:102540004FF48060ADF8140004208DF8170005A941
:102550001648FFF731F825208DF8000003208DF88C
:1025600001008DF8020001208DF803006846FFF796
:10257000AFF901940020ADF80800ADF80A00ADF8FD
:102580000C00ADF810000C20ADF80E0001A90848B1
:10259000FFF798FC012240F225510548FFF76CFC3B
:1025A00001210348FFF732FC06B010BD00080140CE
:1025B000003801401CB5FEF7A1FE00202749086045
:1025C0002749C1F8B401274908800A20FFF744FDD4
:1025D0002448008824490880002022490880224895
:1025E0000088ADF8000001201C490860091F086040
:1025F00000201C4908800A20FFF72EFD194800889A
:102600001A49088000201749088018480088ADF84A
:1026100002000020114908600120091F0860002005
:10262000104908800A20FFF717FD0E48008810495E
:10263000088000200B4908800D480088ADF8040090
:10264000032269460B48FFF725FA01200349086079
:1026500000200349C1F8B4011CBD0000B88121422B
:1026600000802142180000200C0000200E000020F5
:10267000100000200040000810B500290AD008789A
:10268000002807D005487844FEF70EFA002801D04C
:10269000002010BD0248784410BD00003604000040
:1026A0002E0400000808A0F500114FEA3101704720
:1026B00043004FEAD30C4FEA3C0C43401FBF400796
:1026C0000CF1605113F0FE4F70471CF0006F03D106
:1026D00000200CF0004170470CF0004343EA5070BA
:1026E00010B540EACC0000F041F900BF00000092B4
:1026F0004FEA0001FFF7D6BF4FF000414FF0000056
:10270000A1F500217047401058BFC0F1404049106A
:1027100058BFC1F140418142EFF300807047000093
:102720004FF47F0C1CEAD0121EBF1CEAD11392EAB0
:102730000C0F93EA0C0F00F0858090EA010F48BF60
:1027400042F4807240F4000C41F400002CF07F4110
:1027500020F07F4000B58142A2EB03020FF2081C7B
:10276000ACEB504EC0F100009EF800E04FEA4E0E78
:1027700000FB0EFC38BF49004FEA2C1C02F5FA02A0
:102780000CFB0EF34FEACE1E4FEA112C4FEAC1218B
:102790000EEB635E42EB22420EFB0CFC4FEA1C5335
:1027A00000FB03114FEA112C4FEA01310EFB0CFC28
:1027B0004FEADC4C00FB0C11C14228BF09184CEB5E
:1027C00003335DF804EB10EB410143EBC250B2F56B
:1027D0007C0F38BF704729D512F0F00F1CBF00F1F5
:1027E000C04000F000407047008182838485868766
:1027F00088898B8C8D8E8F919293959697999A9CC0
:102800009D9FA0A2A3A5A7A8AAACAEB0B2B3B5B72E
:10281000B9BCBEC0C2C5C7C9CCCED1D4D7D9DCDF04
:10282000E2E6E9ECF0F3F7FAFE0000004FEA400CB4
:102830000CF1807CBCF17E4F28BF7047B0F1C040E6
:1028400000F0DAB890EA010F0CEAD11348BF42F465
:102850008072624538BF634507D213F47F0F16D0EC
:1028600080EA010000F00040704710B500F07EF8EB
:10287000097EFC3E00F005B880EA010000F000404F
:10288000704780EA010000F0004000F0B5B812F493
:102890007F0F04BF0248704780EA010000F0ACB827
:1028A0000000C07F41000B0ED3F19E0208D950F406
:1028B00000034FEA032323FA02F048BF4042704767
:1028C00010B500F053F800BF4992248000207047F3
:1028D0006FF0004282EA200070470000B0FA80F3F7
:1028E00010FA03F2C3F19D030AD0D90501EB1220BF
:1028F000530638BF704700F1010008BF20F0010007
:102900007047000050EA010C00F113801CF5000F25
:1029100058BFBCF5000F01D48842704707D710F5A7
:10292000000F58BF11F5000F15D488427047894237
:1029300070471CF5000F04D5BCF5000FF7D5814298
:1029400070474FF0807C1CEB400F38BF1CEB410FF1
:1029500001D28142704710B500F008F89224490076
:102960004FF000504FF08051FFF7CDBE0EF1020E38
:102970002EF0030E5EF8044B244204D44FEA4102C9
:10298000B2F17F4F11D84FEA4003B3F17F4F0CD81B
:102990000ED14FEAD07CB2F17F4F0CEB4C0C0CF116
:1029A000020C08BF4CEBD17C04E04FF0080C01E0B6
:1029B0004FEAD17C0CEB4C0324FA03F404F0070437
:1029C000B4F1040C06D20EEB840CBDE810404CF0C0
:1029D000010C6047DFE80CF0070802024FF00040EE
:1029E000A0F5800010BD0846420018BFD2F18072E9
:1029F00088BF00F0004010BDFF2141EAD050C00563
:102A00007047FDF7C5BD000002400000000000A0B7
:102A10000000000005400000000000C800000000A9
:102A20000C4000000000409C000000001940000025
:102A30000020BCBE0000000034400000BFC91B8E57
:102A400000000004B5400000504BCFD06607E2CF35
:102A5000010000006C4100003E8251AADFEEA73465
:102A600001000000D9420000DCB5A0E23A301F9717
:102A7000FFFFFFFFB4450000FD25A0C8E9A3C14F3B
:102A8000FFFFFFFFFF3F000000000080000000008C
:102A9000FF3F00000000008000000000D82A00086E
:102AA00000000020640000006C0100083C2B0008BE
:102AB000640000202C0B0000880100081C000000AE
:102AC00043000000F8FFFFFF0C0000000E000000B4
:102AD0000F0000002E0000000000000000000000B9
:102AE00000000000000000000000000000000000E6
:102AF00000000000000000000000000000000000D6
:102B000000A24A04000000000000000001020304CB
:102B10000607080900000000000000000000000097
:102B20000000000000000000000001020304010298
:0C2B300003040607080902040608000060
:04000005080001ED01
:00000001FF
