:020000040800F2
:1000000078070020C5520008995000089B5000084E
:100010009F500008A3500008A750000800000000EF
:10002000000000000000000000000000AB500008CD
:10003000AD50000800000000AF500008B1500008AB
:10004000DF520008DF520008DF520008DF520008CC
:10005000DF520008DF520008DF520008DF520008BC
:10006000DF520008CD7B0008DF520008DF52000895
:10007000DF520008DF520008DF520008DF5200089C
:10008000DF520008DF520008DF520008DF5200088C
:10009000DF520008DF520008DF520008DF5200087C
:1000A000DF520008DF520008DF520008DF5200086C
:1000B000DF520008DF520008DF520008DF5200085C
:1000C000DF520008DF520008DF520008DF5200084C
:1000D000DF520008DF520008DF520008C373000837
:1000E000DF520008DF520008DF520008DF5200082C
:1000F000DF520008DF520008DF520008DF5200081C
:10010000DF520008DF520008DF520008DF5200080B
:10011000DF520008DF520008DF5200083572000885
:10012000DF520008DF520008DF520008DF520008EB
:10013000DF520008DF520008DF520008DF520008DB
:10014000DF520008DF520008DF520008DF520008CB
:10015000DF520008DF520008DF520008DF520008BB
:10016000DF520008DF520008DF520008DF520008AB
:10017000DF520008DF520008DF520008DF5200089B
:10018000DF520008DF52000800F002F800F03CF8EF
:100190000AA090E8000C82448344AAF10107DA45E2
:1001A00001D100F031F8AFF2090EBAE80F0013F0F8
:1001B000010F18BFFB1A43F001031847AC7F000082
:1001C000CC7F0000103A24BF78C878C1FAD8520713
:1001D00024BF30C830C144BF04680C6070470000C1
:1001E0000023002400250026103A28BF78C1FBD840
:1001F000520728BF30C148BF0B6070471FB507F0DA
:10020000ADFF1FBD10B510BD07F0F1FC1146FFF7A3
:10021000F5FF00F0C9FA07F00FFD03B4FFF7F2FF96
:1002200003BC07F017FD000010B50446052C24D2CE
:10023000DFE804F0030910161D004FF4AF61481009
:1002400007F0ECF81FE040F214514FF47A7007F019
:10025000E5F818E04FF49661084607F0DFF812E081
:100260004FF47A7140F2145007F0D8F80BE04FF4D5
:100270002F71480007F0D2F805E04FF49661084668
:1002800007F0CCF800BF00BF10BD10B50446052C28
:1002900026D2DFE804F0030A11171E004FF42F7175
:1002A0004FF4966007F0BAF820E04FF4617140F225
:1002B0004C4007F0B3F819E04FF47A71084607F0A4
:1002C000ADF813E04FF496614FF4617007F0A6F8B3
:1002D0000CE040F24C414FF42F7007F09FF805E01E
:1002E0004FF47A71084607F099F800BF00BF10BDBF
:1002F00010B52DED028BB0EE408AF0EE608A00243E
:1003000061E0F74800EBC40090ED001BB0EE410A3D
:10031000F0EE610A53EC102B51EC180B07F028FE9D
:10032000EF4A02EBC40203C2ED4800EBC40090EDBB
:10033000001BB0EE410AF0EE610A9FEDEA1B53ECA0
:10034000112B51EC100B07F0DDFD14D2E44800EB4B
:10035000C40090ED001BB0EE410AF0EE610A9FED83
:10036000E31B53EC112B51EC100B07F00DFEDC4A94
:1003700002EBC40203C2DA4800EBC40090ED001B9C
:10038000B0EE410AF0EE610A9FEDDA1B53EC112B3F
:1003900051EC100B07F026FD14D8D14800EBC40037
:1003A00090ED001BB0EE410AF0EE610A9FEDCF1B0D
:1003B00053EC112B51EC100B07F060FCC84A02EB18
:1003C000C40203C2641C082C9BDBBDEC028B10BD75
:1003D00010B52DED068BB0EE408AF0EE608A9FEDF1
:1003E000C70BC84880ED000BB0EE489AF0EE689A53
:1003F0009FEDC20B53EC102B51EC180B07F082FD54
:1004000069D266E04021C04805F05CF9BF49086048
:100410008021BD4805F056F9BD4908604FF4807150
:10042000B94805F04FF9BB4908604FF40071B64870
:1004300005F048F9B84908604FF48061B24805F00A
:1004400041F9B64908604FF40061AF4805F03AF948
:10045000B34908600221AC4805F034F9B14908609D
:100460000421A94805F02EF9AF4908600821A648E3
:1004700005F028F9AD4908604FF48061AC4805F0FB
:100480003BF94FF40071AA4805F038F94FF40061C8
:10049000A74805F031F94FF48051A54805F02EF931
:1004A0004FF44871A34805F082FF4FF448714806A5
:1004B00005F07FFF934890ED000B53EC102B51ECAF
:1004C000180B07F08FFC04D290480068012800D177
:1004D00000E097E779E09FED890B53EC102B51EC8E
:1004E000180B07F07FFC70D26CE04021864805F0C5
:1004F000E9F8864908608021834805F0E3F88449DB
:1005000008604FF48071804805F0DCF8814908608C
:100510004FF400717C4805F0D5F87F4908604FF42E
:100520008061794805F0CEF87C4908604FF400619D
:10053000754805F0C7F87A4908600221724805F04D
:10054000C1F87849086004216F4805F0BBF8764986
:10055000086008216C4805F0B5F8744908604FF44C
:100560000071734805F0C8F84FF48061704805F0D9
:10057000C5F84FF480516E4805F0BEF84FF40061A5
:100580006B4805F0BBF84FF448716A4805F00FFF5F
:100590004FF44871480605F00CFF51EC180B07F0BA
:1005A00060FB41EC1A0B574890ED000B53EC102BFD
:1005B00051EC1A0B07F016FC04D2544800680128CD
:1005C00000D101E091E700E000BF9FED4C0B4D48EA
:1005D00080ED000B20E04FF40071554805F08EF8D7
:1005E0004FF48061524805F089F84FF4805150482B
:1005F00005F084F84FF400614D4805F07FF89FED59
:100600004E0B53EC102B3F4890ED000B51EC100BB0
:1006100007F078FC00D200E0DDE700BFB0EE490A49
:10062000F0EE690AFFF764FEBDEC068B10BD70B5F5
:1006300004460D460A2C42D2DFE804F0050B1117E0
:100640001D23292F353B40F28A213D4805F0AFFE9E
:1006500036E040F6FC013A4805F0A9FE30E040F2F1
:100660006C71374805F0A3FE2AE040F2DC513448B3
:1006700005F09DFE24E040F24C41314805F097FE24
:100680001EE04FF4AF612E4805F091FE18E04FF4E4
:100690007A712B4805F08BFE12E04FF41671284852
:1006A00005F085FE0CE040F6FC01254805F07FFED4
:1006B00006E04FF4E161224805F079FE00E000BF5A
:1006C00000BF0A2C6DD2DFE804F0053F44494E53C9
:1006D000585D626729461B4805F06BFE62E000002A
:1006E000400000200000000000000040000000006A
:1006F0000000104000000000000000C000000000EA
:1007000000000000F000002000080240000000206F
:1007100004000020080000200C0000201000002031
:1007200014000020180000201C00002020000020E1
:1007300000100240000C0040000000000000E03FFC
:1007400000180040000400402946FE4805F02FFE36
:1007500028E02946FB4805F02CFE23E02946F9480D
:1007600005F029FE1EE02946F64805F026FE19E0B0
:100770002946F54805F01DFE14E02946F14805F02C
:1007800016FE0FE02946EF4805F013FE0AE0294661
:10079000EC4805F010FE05E02946EA4805F00DFE9C
:1007A00000E000BF00BF70BD4FF4A06004F0AAFDE0
:1007B000542006F0DDFB07F0CDF906F022FD06F02F
:1007C00014FE0121084607F039F8012141F2873073
:1007D00006F050FC012141F2873006F098FC5321CD
:1007E00044F61F6006F03EFEA72144F61F6006F0A7
:1007F00085FEA72144F61F6006F0CBFE532144F688
:100800001F6006F0C0FF532144F61F6006F00DFF85
:10081000532142F20F7006F0C8FC40F26C71CB48D5
:1008200005F0C5FD4FF4FA61C74805F0C2FD4FF46D
:10083000FA61C44805F0BBFD4FF4FA61C14805F008
:10084000B8FD4FF4FA61BF4805F0B5FD4FF4FA6109
:10085000BC4805F0B2FD4FF47A71BD4805F0A7FD24
:1008600040F2DC51BB4805F0A2FD4FF4FA6006F0FF
:10087000E1FB04F00CBC1FED5F0BB74880ED000BF3
:10088000F9E04021B54804F01DFFB549086080211A
:10089000B24804F017FFB34908604FF48071AF48C5
:1008A00004F010FFB04908604FF40071AB4804F049
:1008B00009FFAE4908604FF48061A84804F002FFC8
:1008C000AB4908604FF40061A44804F0FBFEA9495D
:1008D00008600221A14804F0F5FEA7490860042140
:1008E0009E4804F0EFFEA549086008219B4804F0EB
:1008F000E9FEA34908604FF40071A24804F0FCFE31
:100900004FF480619F4804F0F9FE4FF400619D4868
:1009100004F0F2FE4FF480519A4804F0EFFE924842
:100920000068012808D18E48006828B98D48006801
:1009300010B90020944908608B480068012809D14B
:1009400087480068012805D18648006810B9012051
:100950008D4908608448006848B9814800680128CA
:1009600005D18048006810B90220874908607E4898
:10097000006850B97A480068012806D179480068B3
:10098000012802D10320804908607748006848B9EF
:100990007348006830B973480068012802D1042008
:1009A000794908607048006801280AD16C480068DD
:1009B000012806D16B480068012802D10220724943
:1009C000086071480068FFF72FFC4FF4FA610220BD
:1009D000FFF72DFE9FED6D0B53EC102B5E4890ED55
:1009E000000B51EC100B07F08DFA44D264480068FC
:1009F000012840D106F01EFB4021584804F062FE59
:100A0000574908608021554804F05CFE554908604C
:100A10004FF48071514804F055FE534908604FF47B
:100A200000714E4804F04EFE504908604FF480615A
:100A30004A4804F047FE4E4908604FF400614748B9
:100A400004F040FE4B4908600221444804F03AFE9D
:100A5000494908600421414804F034FE47490860D0
:100A600008213E4804F02EFE45490860084600680B
:100A7000012800D100E004E700BF1FEDE00B36487D
:100A800080ED000B20E04FF400713E4804F036FE8C
:100A90004FF480613B4804F031FE4FF480513948F7
:100AA00004F02CFE4FF40061364804F027FE9FED61
:100AB000390B53EC102B284890ED000B51EC100B28
:100AC00007F020FA00D200E0DDE700BF4FF4FA7132
:100AD0000220FFF7ACFD4FF47A7006F0ABFA1FED81
:100AE000F90B1D4880ED000B21E140211B4804F06B
:100AF000E9FD1B4908608021184804F0E3FD19490D
:100B000008604FF48071154804F0DCFD1649086058
:100B10004FF40071114804F0D5FD144908604FF4FA
:100B200080610E4804F0CEFD114908604FF4006169
:100B30000A4804F0C7FD0F4908600221074804F085
:100B4000C1FD2BE0000800400004004000180040F8
:100B50000048014000400140F00000200008024031
:100B60000000002004000020080000200C000020ED
:100B70001000002014000020180000201C0000209D
:100B8000200000200010024028000020000000008B
:100B9000000008409A9999999999B93FFE490860CF
:100BA0000421FE4804F08EFDFD4908600821FB4841
:100BB00004F088FDFB4908604FF48061FA4804F0B6
:100BC0009BFD4FF40071F84804F098FD4FF48051FC
:100BD000F54804F091FD4FF40061F34804F08EFDF8
:100BE000F2480068012808D1F148006828B9F148A6
:100BF000006810B90020F0490860EC48006801283E
:100C000009D1EB480068012805D1EA48006810B90D
:100C10000120E9490860E548006848B9E4480068EF
:100C2000012805D1E348006810B90220E2490860B4
:100C3000DE48006850B9DE480068012806D1DD486A
:100C40000068012802D10320DB490860D74800680A
:100C500048B9D748006830B9D6480068012802D1A1
:100C60000420D5490860D148006801280AD1D0483D
:100C70000068012806D1CF480068012802D102206F
:100C8000CD490860CC480068FFF7FFFA9FEDCB0B19
:100C900053EC102BCB4890ED000B51EC100B07F0F0
:100CA00031F944D2BC480068012840D106F0C2F9AD
:100CB0004021BA4804F006FDC34908608021B748C6
:100CC00004F000FDC14908604FF48071B34804F09E
:100CD000F9FCBF4908604FF40071B04804F0F2FC21
:100CE000B34908604FF48061AC4804F0EBFCB149B3
:100CF00008604FF40061A94804F0E4FCAB490860C7
:100D00000221A64804F0DEFCA34908600421A348A0
:100D100004F0D8FCA24908600821A04804F0D2FCE5
:100D2000A04908609C480068012800D100E0DCE68A
:100D300000BF9FEDA80BA34880ED000B20E04FF40F
:100D40000071994804F0DAFC4FF48061964804F091
:100D5000D5FC4FF48051944804F0D0FC4FF400616E
:100D6000914804F0CBFC9FED950B53EC102B95486C
:100D700090ED000B51EC100B07F0C4F800D200E02E
:100D8000DDE700BF954890ED0C1BB0EE410AF0EE98
:100D9000610AFFF71DFB9FED8F0B8A4880ED000B6A
:100DA0001EE140217D4804F08DFC874908608021C8
:100DB0007A4804F087FC854908604FF480717748D1
:100DC00004F080FC824908604FF40071734804F01D
:100DD00079FC774908604FF48061704804F072FC38
:100DE000744908604FF400616C4804F06BFC6F4973
:100DF00008600221694804F065FC67490860042125
:100E0000664804F05FFC664908600821634804F006
:100E100059FC644908604FF40071634804F06CFCAD
:100E20004FF48061604804F069FC4FF400615E4853
:100E300004F062FC4FF480515B4804F05FFC6448AE
:100E40000068012808D16048006828B95F48006838
:100E500010B90020584908605D480068012809D190
:100E600059480068012805D15848006810B9012088
:100E7000514908605648006848B95348006801283D
:100E800005D15248006810B902204B49086050480B
:100E9000006850B94C480068012806D14B480068EA
:100EA000012802D10320444908604948006848B934
:100EB0004548006830B945480068012802D104203F
:100EC0003D4908604248006801280AD13E48006850
:100ED000012806D13D480068012802D10220364988
:100EE000086035480068FFF79FF94FF4FA61042065
:100EF000FFF79DFB9FED310B53EC102B314890ED2C
:100F0000000B51EC100B06F0FDFF69D2254800687C
:100F1000012865D106F08EF84021204804F0D2FB6C
:100F20002949086080211D4804F0CCFB274908604E
:100F30004FF48071194804F0C5FB254908604FF44F
:100F40000071164804F0BEFB194908604FF4806137
:100F5000124804F0B7FB174908604FF400610F48CE
:100F600004F0B0FB1149086002210C4804F0AAFB10
:100F7000094908600421094804F0A4FB08490860F5
:100F80000821064804F09EFB0649086008460068F0
:100F9000012825D125E023E01800002000080240A8
:100FA0001C0000202000002000100240140000203F
:100FB0000C00002010000020280000209A99999928
:100FC0009999C93FF0000020000000200400002093
:100FD0000800002000000000000000004000002089
:100FE000DFE600BF1FED050BFE4880ED000B20E0A3
:100FF0004FF40071FC4804F081FB4FF48061FA4823
:1010000004F07CFB4FF48051F74804F077FB4FF479
:101010000061F54804F072FB9FEDF40B53EC102BCC
:10102000F04890ED000B51EC100B06F06BFF00D276
:1010300000E0DDE700BF4FF4FA710420FFF7F7FA94
:101040004FF47A7005F0F6FF1FED1E0BE54880EDBA
:10105000000BF4E04021E74804F034FBE649086067
:101060008021E44804F02EFBE44908604FF48071CD
:10107000E04804F027FBE24908604FF40071DD48C6
:1010800004F020FBDF4908604FF48061D94804F088
:1010900019FBDD4908604FF40061D64804F012FBEB
:1010A000DA4908600221D34804F00CFBD8490860F3
:1010B0000421D04804F006FBD64908600821CD4839
:1010C00004F000FBD44908604FF48061C64804F086
:1010D00013FB4FF40071C44804F010FB4FF480512F
:1010E000C14804F009FB4FF40061BF4804F006FB5F
:1010F000C6480068012808D1C248006828B9C2481B
:10110000006810B90020C5490860C048006801287F
:1011100009D1BC480068012805D1BB48006810B956
:101120000120BE490860B948006848B9B548006860
:10113000012805D1B448006810B90220B7490860F9
:10114000B248006850B9AF480068012806D1AE48DF
:101150000068012802D10320B0490860AB4800684C
:1011600048B9A848006830B9A7480068012802D1EA
:101170000420AA490860A548006801280AD1A148AE
:101180000068012806D1A0480068012802D1022089
:10119000A2490860A1480068FFF777F81FED790BB6
:1011A00053EC102B8F4890ED000B51EC100B06F018
:1011B000A9FE44D296480068012840D105F03AFFC4
:1011C00040218C4804F07EFA8B49086080218948D0
:1011D00004F078FA894908604FF48071854804F07A
:1011E00071FA874908604FF40071824804F06AFA86
:1011F000844908604FF480617E4804F063FA8249B4
:1012000008604FF400617B4804F05CFA7F49086095
:101210000221784804F056FA7D4908600421754897
:1012200004F050FA7B4908600821724804F04AFA39
:101230007949086076480068012800D100E009E794
:1012400000BF1FED9C0B674880ED000B20E04FF4C2
:101250000071654804F052FA4FF48061624804F06E
:101260004DFA4FF48051604804F048FA4FF40061A1
:101270005D4804F043FA1FEDAF0B53EC102B5948B7
:1012800090ED000B51EC100B06F03CFE00D200E09C
:10129000DDE700BF624890ED041BB0EE410AF0EEBE
:1012A000610AFFF795F81FEDB50B4E4880ED000B76
:1012B0001AE140214F4804F005FA4F4908608021A7
:1012C0004C4804F0FFF94D4908604FF480714948DB
:1012D00004F0F8F94A4908604FF40071454804F0F9
:1012E000F1F9484908604FF48061424804F0EAF996
:1012F000454908604FF400613E4804F0E3F9434972
:10130000086002213B4804F0DDF9414908600421EE
:10131000384804F0D7F93F4908600821354804F0FF
:10132000D1F93D4908604FF400712F4804F0E4F909
:101330004FF480612C4804F0E1F94FF400612A4831
:1013400004F0DAF94FF48051274804F0D7F92C481B
:101350000068012808D12848006828B92748006893
:1013600010B900202D49086025480068012809D1DE
:1013700021480068012805D12048006810B90120E3
:10138000264908601E48006848B91B4800680128C3
:1013900005D11A48006810B9022020490860184891
:1013A000006850B914480068012806D11348006845
:1013B000012802D10320194908601148006848B982
:1013C0000D48006830B90D480068012802D104209A
:1013D000124908600A48006801282BD106480068B5
:1013E00001281FE0F00000200010024033333333A7
:1013F0003333D33F000802400000002004000020E7
:10140000080000200C000020100000201400002024
:10141000180000201C0000202000002028000020D0
:101420004000002006D1FE480068012802D10220B9
:10143000FC490860FB480068FEF7F6FE4FF4FA61CD
:101440000020FFF7F4F89FEDF80B53EC102BF84851
:1014500090ED000B51EC100B06F054FD44D2F54812
:101460000068012840D105F0E5FD4021F24804F074
:1014700029F9F24908608021EF4804F023F9E8498E
:1014800008604FF48071EC4804F01CF9EC490860E6
:101490004FF40071E84804F015F9EA4908604FF488
:1014A0008061E54804F00EF9E74908604FF40061F7
:1014B000E14804F007F9E54908600221DE4804F03C
:1014C00001F9E34908600421DB4804F0FBF8E14935
:1014D00008600821D84804F0F5F8D64908600846A5
:1014E0000068012800D100E0E3E600BF9FEDDA0BC1
:1014F000CF4880ED000B20E04FF40071D84804F095
:10150000FDF84FF48061D64804F0F8F84FF48051AC
:10151000D34804F0F3F84FF40061D14804F0EEF83A
:101520009FEDD00B53EC102BC14890ED000B51EC0C
:10153000100B06F0E7FC00D200E0DDE700BF4FF43F
:10154000FA710020FFF773F84FF47A7005F072FD1E
:101550009FEDC10BB64880ED000BF4E04021B6488A
:1015600004F0B0F8B54908608021B34804F0AAF847
:10157000AB4908604FF48071AF4804F0A3F8B0495C
:1015800008604FF40071AC4804F09CF8AD49086065
:101590004FF48061A84804F095F8AB4908604FF417
:1015A0000061A54804F08EF8A84908600221A2480D
:1015B00004F088F8A649086004219F4804F082F8E6
:1015C000A449086008219C4804F07CF89949086007
:1015D0004FF48061A24804F08FF84FF40071A048E6
:1015E00004F08CF84FF480519D4804F085F84FF4D6
:1015F00000619B4804F082F894480068012808D1F3
:101600009048006828B99048006810B900208549C2
:1016100008608E480068012809D18A4800680128BE
:1016200005D18948006810B901207E4908608748C3
:10163000006848B983480068012805D182480068DD
:1016400010B90220774908608048006850B97D4889
:101650000068012806D17C480068012802D10320D7
:10166000704908607948006848B97648006830B920
:1016700075480068012802D104206A49086073484F
:10168000006801280AD16F480068012806D16E4819
:101690000068012802D102206249086061480068A0
:1016A000FEF7F3FD9FED600B53EC102B604890EDBF
:1016B000000B51EC100B06F025FC44D26448006886
:1016C000012840D105F0B6FC40215B4803F0FAFF49
:1016D0005A4908608021584803F0F4FF50490860D7
:1016E0004FF48071544803F0EDFF554908604FF402
:1016F0000071514803F0E6FF524908604FF48061E1
:101700004D4803F0DFFF504908604FF400614A483C
:1017100003F0D8FF4D4908600221474803F0D2FF8B
:101720004B4908600421444803F0CCFF4949086054
:101730000821414803F0C6FF3E490860444800685C
:10174000012800D100E009E700BF9FED430B3848B6
:1017500080ED000B20E04FF40071414803F0CEFF14
:101760004FF480613E4803F0C9FF4FF480513C487C
:1017700003F0C4FF4FF40061394803F0BFFF9FED51
:101780002A0B53EC102B2A4890ED000B51EC100B58
:1017900006F0B8FB00D200E0DDE700BF00203349CF
:1017A000086033490860CFE232483149096850F88F
:1017B0002100314901EBC00090ED001BB0EE410A61
:1017C000F0EE610AFEF704FE9FED230B184880ED52
:1017D000000B2DE14021184803F074FF1749086001
:1017E0008021154803F06EFF0D4908604FF48071A9
:1017F000114803F067FF124908604FF400710E486A
:1018000003F060FF0F4908604FF480610A4803F05D
:1018100059FF0D4908604FF4006107482EE00000B1
:1018200004000020280000209A9999999999C93FAD
:10183000F0000020200000200008024000000020EE
:10184000080000200C0000201000002014000020E0
:10185000180000201C000020000000000000000014
:10186000001002409A9999999999B93F3000002047
:1018700034000020800000204000002003F022FF00
:10188000FE4908600221FE4803F01CFFFD49086084
:101890000421FB4803F016FFFB4908600821F848C3
:1018A00003F010FFF94908604FF40071F84803F0A5
:1018B00023FF4FF48061F64803F020FF4FF40061EE
:1018C000F34803F019FF4FF48051F14803F016FF7D
:1018D000F0480068012808D1EF48006828B9EF48AF
:1018E000006810B90020EE490860EA480068012845
:1018F00009D1E9480068012805D1E848006810B915
:101900000120E7490860E348006848B9E2480068F8
:10191000012805D1E148006810B90220E0490860BB
:10192000DC48006850B9DC480068012806D1DB4873
:101930000068012802D10320D9490860D548006811
:1019400048B9D548006830B9D4480068012802D1A8
:101950000420D3490860CF48006801280AD1CE4846
:101960000068012806D1CD480068012802D1022074
:10197000CB490860CA480068FEF756FCC949CA4A04
:10198000126851F822004FF4FA71FEF750FE9FEDF5
:10199000C70B53EC102BC74890ED000B51EC100B0C
:1019A00006F0B0FA44D2B9480068012840D105F0E9
:1019B00041FB4021B24803F085FEB7490860802111
:1019C000AF4803F07FFEB54908604FF48071AC4822
:1019D00003F078FEAF4908604FF40071A84803F0A7
:1019E00071FEB54908604FF48061A54803F06AFEB6
:1019F000B24908604FF40061A14803F063FE9F49BB
:101A0000086002219E4803F05DFE9E4908600421A3
:101A10009B4803F057FE9C4908600821984803F052
:101A200051FE9A49086008460068012800D100E08C
:101A3000D0E600BF1FED780B9E4880ED000B20E044
:101A40004FF40071924803F059FE4FF480619048C2
:101A500003F054FE4FF480518D4803F04FFE4FF4D5
:101A600000618B4803F04AFE1FED820B53EC102BF4
:101A7000904890ED000B51EC100B06F043FA00D2A9
:101A800000E0DDE700BF8749874A126851F822006D
:101A90004FF4FA61FEF7CBFD4FF47A7005F0CAFA05
:101AA0001FED930B834880ED000B18E14021744833
:101AB00003F008FE784908608021714803F002FEB7
:101AC000764908604FF480716D4803F0FBFD714961
:101AD00008604FF400716A4803F0F4FD764908602D
:101AE0004FF48061664803F0EDFD744908604FF4DF
:101AF0000061634803F0E6FD604908600221604828
:101B000003F0E0FD5F49086004215D4803F0DAFD61
:101B10005D49086008215A4803F0D4FD5B4908601C
:101B20004FF480615A4803F0E7FD4FF400715848C4
:101B300003F0E4FD4FF48051554803F0DDFD4FF410
:101B40000061534803F0DAFD4C480068012808D1D1
:101B50005948006828B95948006810B90020504910
:101B6000086046480068012809D1534800680128E8
:101B700005D15248006810B90120494908603F4822
:101B8000006848B94C480068012805D14B480068F6
:101B900010B90220424908603848006850B94648E8
:101BA0000068012806D145480068012802D10320B9
:101BB0003B4908603148006848B93F48006830B97F
:101BC0003E480068012802D10420354908602B48AE
:101BD000006801280AD138480068012806D1374832
:101BE0000068012802D102202D4908602C480068B5
:101BF000FEF74BFB9FED2D0B53EC102B2D4890ED7A
:101C0000000B51EC100B06F07DF968D21D480068FE
:101C1000012864D105F00EFA4021194803F052FD65
:101C20001D4908608021164803F04CFD1B490860DF
:101C30004FF48071124803F045FD164908604FF4D7
:101C400000710F4803F03EFD1B4908604FF48061AE
:101C50000B4803F037FD194908604FF4006108484C
:101C600003F030FD054908600221054803F02AFD14
:101C7000044908600421024822E00000140000200A
:101C800000080240180000201C0000202000002056
:101C90000010024008000020000000200400002086
:101CA00028000020940000203000002000000000E8
:101CB0000000F83FF00000200C0000201000002081
:101CC00003F000FDFE4908600821FE4803F0FAFC1D
:101CD000FD490860FD480068012800D100E0E5E604
:101CE00000BF9FEDFB0BFC4880ED000B20E04FF4A4
:101CF0000071FA4803F002FD4FF48061F74803F0E9
:101D0000FDFC4FF48051F54803F0F8FC4FF40061FE
:101D1000F24803F0F3FC9FEDF20B53EC102BEE486E
:101D200090ED000B51EC100B06F0ECF800D200E047
:101D3000DDE700BFEC480068401CEB490860EB4859
:101D40000068801CE9490860E74800680328FFF63E
:101D50002BADE74890ED021BB0EE410AF0EE610AB0
:101D6000FEF736FB9FEDDA0BDB4880ED000BF9E068
:101D70004021D44803F0A6FCDE4908608021D14808
:101D800003F0A0FCDC4908604FF48071CD4803F0FB
:101D900099FCDA4908604FF40071CA4803F092FCDC
:101DA000D74908604FF48061C64803F08BFCD549E1
:101DB00008604FF40061C34803F084FCD249086016
:101DC0000221C04803F07EFCC04908600421BD48E0
:101DD00003F078FCBA4908600821BA4803F072FCA5
:101DE000B94908604FF40071BC4803F085FC4FF41A
:101DF0008061BA4803F082FC4FF40061B74803F0F9
:101E00007BFC4FF48051B54803F078FCBB48006878
:101E1000012808D1B748006828B9B748006810B948
:101E20000020BA490860B5480068012809D1B148C6
:101E30000068012805D1B048006810B90120B349F5
:101E40000860AE48006848B9AA480068012805D172
:101E5000A948006810B90220AC490860A74800688A
:101E600050B9A4480068012806D1A3480068012899
:101E700002D10320A5490860A048006848B99D48E0
:101E8000006830B99C480068012802D104209F49AD
:101E900008609A48006801280AD19648006801281D
:101EA00006D195480068012802D1022097490860B0
:101EB00096480068FEF7B8F94FF4FA610320FEF780
:101EC000B6FB9FED930B53EC102B834890ED000B6A
:101ED00051EC100B06F016F844D27B48006801283C
:101EE00040D105F0A7F84021764803F0EBFB81498B
:101EF00008608021734803F0E5FB7F4908604FF4D8
:101F00008071704803F0DEFB7C4908604FF400717B
:101F10006C4803F0D7FB7A4908604FF48061694848
:101F200003F0D0FB774908604FF40061654803F087
:101F3000C9FB754908600221624803F0C3FB63498D
:101F4000086004215F4803F0BDFB5D49086008217B
:101F50005C4803F0B7FB5C4908600846006801284C
:101F600000D100E004E700BF9FED590B5A4880ED17
:101F7000000B20E04FF40071584803F0BFFB4FF412
:101F80008061564803F0BAFB4FF48051534803F088
:101F9000B5FB4FF40061514803F0B0FB9FED5E0BC1
:101FA00053EC102B4C4890ED000B51EC100B05F04E
:101FB000A9FF00D200E0DDE700BF9FED450B4648DA
:101FC00080ED000BE2E040213E4803F07BFB4949F5
:101FD000086080213B4803F075FB474908604FF4D7
:101FE0008071384803F06EFB444908604FF400717B
:101FF000344803F067FB424908604FF48061314880
:1020000003F060FB3F4908604FF400612D4803F086
:1020100059FB3D49086002212A4803F053FB2B4934
:1020200008600421274803F04DFB2549086008217A
:10203000244803F047FB244908604FF40071274807
:1020400003F05AFB4FF48061244803F057FB4FF430
:102050000061224803F050FB4FF480511F4803F009
:102060004DFB26480068012808D12248006828B99D
:102070002148006810B90020244908601F48006802
:10208000012809D11B480068012805D11A480068B9
:1020900010B901201D4908601848006848B9154862
:1020A0000068012805D11448006810B902201749BA
:1020B00008601248006898BB0E480068012830E0AC
:1020C0001C00002000080240200000201800002012
:1020D0000000000000000000F0000020001002409E
:1020E0009A9999999999B93F3000002034000020BD
:1020F0004000002000000020040000200800002014
:102100000C000020100000201400002028000020F7
:10211000000000000000F03F9A9999999999C93FF1
:1021200007E006D1FE480068012802D10320FD49DE
:102130000860FD48006848B9FC48006830B9F848B4
:102140000068012802D10420F6490860F6480068BA
:1021500001280AD1F5480068012806D1F048006836
:10216000012802D10220EF490860EE480068FEF71E
:102170005BF89FEDEF0B53EC102BEF4890ED000B4D
:1021800051EC100B05F0BEFE00D200E01BE700BFD3
:102190001FED310BE84880ED000B20E04FF400719B
:1021A000E64803F0ABFA4FF48061E44803F0A6FA86
:1021B0004FF48051E14803F0A1FA4FF40061DF4889
:1021C00003F09CFA9FEDDE0B53EC102BDA4890EDF8
:1021D000000B51EC100B05F095FE00D200E0DDE79E
:1021E00000BF4FF4FA71D84804F0E3F84FF4FA71E5
:1021F000D64804F0DCF84FF4FA71D44804F0D9F86A
:102200004FF4FA71D14804F0D6F84FF4FA71CF4880
:1022100004F0D3F84FF47A7004F00CFF1FED540B68
:10222000C54880ED000BF4E04021C94803F04AFAAC
:10223000BE4908608021C64803F044FAB8490860E6
:102240004FF48071C24803F03DFAB74908604FF47B
:102250000071BF4803F036FABE4908604FF4806150
:10226000BB4803F02FFABC4908604FF40061B8483E
:1022700003F028FAB94908600221B54803F022FAB0
:10228000B74908600421B24803F01CFAB549086058
:102290000821AF4803F016FAB34908604FF4806193
:1022A000A64803F029FA4FF40071A44803F026FA77
:1022B0004FF48051A14803F01FFA4FF400619F488A
:1022C00003F01CFAA5480068012808D1A14800685D
:1022D00028B9A148006810B90020924908609F48B9
:1022E0000068012809D19B480068012805D19A4857
:1022F000006810B901208B4908609848006848B907
:1023000094480068012805D19348006810B902205C
:10231000844908609148006850B98E4800680128D7
:1023200006D18D480068012802D103207D4908604C
:102330008A48006848B98748006830B9864800680C
:10234000012802D1042077490860844800680128E8
:102350000AD180480068012806D17F48006801281A
:1023600002D102206F4908606E480068FDF78DFFBA
:102370009FED7E0B53EC102B6F4890ED000B51EC52
:10238000100B05F0BFFD44D275480068012840D10C
:1023900004F050FE40216E4803F094F96349086050
:1023A00080216B4803F08EF95D4908604FF480711D
:1023B000674803F087F95C4908604FF4007164488E
:1023C00003F080F9634908604FF48061604803F0CE
:1023D00079F9614908604FF400615D4803F072F9D2
:1023E0005E49086002215A4803F06CF95C490860B4
:1023F0000421574803F066F95A49086008215448F7
:1024000003F060F95849086055480068012800D178
:1024100000E009E700BF1FEDD20B474880ED000B3D
:1024200020E04FF40071454803F068F94FF48061F3
:10243000424803F063F94FF48051404803F05EF9DD
:102440004FF400613D4803F059F91FEDCD0B53ECFB
:10245000102B394890ED000B51EC100B05F052FD9C
:1024600000D200E0DDE700BF00204249086063E2DF
:1024700041484049096850F82100404901EBC0003B
:1024800090ED001BB0EE410AF0EE610AFDF7A0FFEF
:102490001FEDF10B284880ED000BEAE040212C48AD
:1024A00003F010F9214908608021294803F00AF956
:1024B0001B4908604FF48071254803F003F91A495D
:1024C00008604FF40071224803F0FCF821490860CD
:1024D0004FF480611E4803F0F5F81F4908604FF47F
:1024E00000611B4803F0EEF81C49086002211848FF
:1024F00003F0E8F81A4908600421154803F0E2F8EF
:10250000184908600821124803F0DCF816490860F1
:102510004FF40071094803F0EFF84FF480612FE0A9
:1025200004000020280000200800002000000020F7
:102530009A9999999999E13FF00000200010024082
:10254000000000000000E03F0004004000080040E0
:10255000000802400C0000201000002014000020A1
:10256000180000201C0000202000002000000000B7
:1025700000000040300000208000002040000020CB
:10258000F74803F0BBF84FF40061F54803F0B4F8E6
:102590004FF48051F24803F0B1F8F2480068012886
:1025A00008D1F148006828B9F048006810B9002047
:1025B000EF490860EB480068012809D1EA48006843
:1025C000012805D1E948006810B90120E8490860F0
:1025D000E448006848B9E4480068012805D1E348A8
:1025E000006810B90220E2490860DE48006850B96E
:1025F000DD480068012806D1DC480068012802D1C6
:102600000320DB490860D748006848B9D64800680D
:1026100030B9D6480068012802D10420D4490860A6
:10262000D048006801280AD1CF480068012806D1A7
:10263000CE480068012802D10220CD490860CC486C
:102640000068FDF7F1FDCB49CB4A126851F8220032
:102650004FF4FA71FDF7EBFF9FEDC80B53EC102B15
:10266000C84890ED000B51EC100B05F04BFC00D26C
:1026700000E013E700BF9FEDC40BC24880ED000BE4
:1026800020E04FF40071B64803F038F84FF4806151
:10269000B34803F033F84FF48051B14803F02EF8FB
:1026A0004FF40061AE4803F029F89FEDB90B53ECED
:1026B000102BB44890ED000B51EC100B05F022FCF0
:1026C00000D200E0DDE700BFAA49AB4A126851F82A
:1026D00022004FF4FA61FDF7AAFF4FF47A7004F07C
:1026E000A9FC9FEDA90BA74880ED000BF4E0402169
:1026F000A94802F0E7FF9C4908608021A64802F043
:10270000E1FF9A4908604FF48071A34802F0DAFFB4
:10271000944908604FF400719F4802F0D3FF9F492D
:1027200008604FF480619C4802F0CCFF9C4908602F
:102730004FF40061984802F0C5FF9A4908600221F1
:10274000954802F0BFFF984908600421924802F0C2
:10275000B9FF9649086008218F4802F0B3FF9449F9
:1027600008604FF480617E4802F0C6FF4FF40071AC
:102770007B4802F0C3FF4FF48051794802F0BCFF60
:102780004FF40061764802F0B9FF864800680128DE
:1027900008D18248006828B98148006810B9002033
:1027A000734908607F480068012809D17B480068A8
:1027B000012805D17A48006810B901206C490860E9
:1027C0007848006848B975480068012805D1744800
:1027D000006810B90220664908607248006850B964
:1027E0006E480068012806D16D480068012802D1B2
:1027F00003205F4908606B48006848B96748006873
:1028000030B967480068012802D10420584908609F
:102810006448006801280AD160480068012806D190
:102820005F480068012802D10220514908605048E1
:102830000068FDF72AFD9FED5F0B53EC102B51480C
:1028400090ED000B51EC100B05F05CFB44D25648A8
:102850000068012840D104F0EDFB40214E4802F011
:1028600031FF4149086080214B4802F02BFF3F496E
:1028700008604FF48071484802F024FF394908602D
:102880004FF40071444802F01DFF444908604FF4C2
:102890008061414802F016FF414908604FF4006131
:1028A0003D4802F00FFF3F49086002213A4802F01C
:1028B00009FF3D4908600421374802F003FF3B4906
:1028C00008600821344802F0FDFE394908603648A6
:1028D0000068012800D100E009E700BF9FED2A0B46
:1028E000284880ED000B20E04FF400711C4802F0F6
:1028F00005FF4FF480611A4802F000FF4FF4805149
:10290000174802F0FBFE4FF40061154802F0F6FE96
:102910009FED1F0B53EC102B1A4890ED000B51EC60
:10292000100B05F0EFFA00D200E0DDE700BF12481F
:102930000068401C104908600F4800680528FFF631
:1029400097AD1E4890ED0E1BB0EE410AF0EE610A05
:10295000FDF73EFD9FED0C0B0A4880ED000B29E1D1
:1029600000100240080000200000002004000020A9
:1029700028000020A0000020300000209A9999999A
:102980009999F13FF00000200000000000000000D5
:102990009A9999999999B93F000802400C00002032
:1029A0001000002014000020180000201C0000204F
:1029B00020000020333333333333F33F4000002013
:1029C0004021FE4802F07EFEFD4908608021FB4860
:1029D00002F078FEFB4908604FF48071F74802F07E
:1029E00071FEF94908604FF40071F44802F06AFE84
:1029F000F64908604FF48061F04802F063FEF44944
:102A000008604FF40061ED4802F05CFEF149086097
:102A10000221EA4802F056FEEF4908600421E74827
:102A200002F050FEED4908600821E44802F04AFE39
:102A3000EB4908604FF40071EA4802F05DFE4FF484
:102A40008061E84802F05AFE4FF40061E54802F068
:102A500053FE4FF48051E34802F050FEDA4800681C
:102A6000012808D1D648006828B9D648006810B9AE
:102A70000020DD490860D4480068012809D1D04809
:102A80000068012805D1CF48006810B90120D64957
:102A90000860CD48006848B9C9480068012805D1D8
:102AA000C848006810B90220CF490860C6480068CD
:102AB00050B9C3480068012806D1C24800680128FF
:102AC00002D10320C8490860BF48006848B9BC4823
:102AD000006830B9BB480068012802D10420C2490F
:102AE0000860B948006801280AD1B5480068012883
:102AF00006D1B4480068012802D10220BA49086012
:102B0000B9480068FDF790FB4FF4FA610320FDF728
:102B10008EFD1FED580B53EC102BB44890ED000BBD
:102B200051EC100B05F0EEF944D2AD4800680128D5
:102B300040D104F07FFA4021A04802F0C3FDA04933
:102B4000086080219D4802F0BDFD9E4908604FF459
:102B500080719A4802F0B6FD9B4908604FF40071FD
:102B6000964802F0AFFD994908604FF480619348A0
:102B700002F0A8FD964908604FF400618F4802F00A
:102B8000A1FD9449086002218C4802F09BFD924906
:102B900008600421894802F095FD904908600821E9
:102BA000864802F08FFD8E490860084600680128BB
:102BB00000D100E004E700BF1FED8D0B8B4880EDD6
:102BC000000B20E04FF40071864802F097FD4FF4AF
:102BD0008061844802F092FD4FF48051814802F0F8
:102BE0008DFD4FF400617F4802F088FD9FED800B62
:102BF00053EC102B7D4890ED000B51EC100B05F0C1
:102C000081F900D200E0DDE700BF1FEDA10B77489E
:102C100080ED000BB0E04021684802F053FD6849A8
:102C200008608021654802F04DFD664908604FF458
:102C30008071624802F046FD634908604FF40071FC
:102C40005E4802F03FFD614908604FF480615B48D7
:102C500002F038FD5E4908604FF40061574802F009
:102C600031FD5C4908600221544802F02BFD5A49AD
:102C700008600421514802F025FD584908600821E8
:102C80004E4802F01FFD564908604FF40071554848
:102C900002F032FD4FF48061524802F02FFD4FF4F4
:102CA0000061504802F028FD4FF480514D4802F079
:102CB00025FD45480068012808D14148006828B929
:102CC0004048006810B90020474908603E48006845
:102CD000012809D13A480068012805D1394800681F
:102CE00010B90120404908603748006848B93448A5
:102CF0000068012805D13348006810B902203A491C
:102D000008603148006850B92D480068012806D194
:102D10002C480068012802D10320334908602A4862
:102D2000006848B92648006830B92648006801287C
:102D300002D104202C4908602348006801280AD1E8
:102D40001F480068012806D11E480068012802D1EA
:102D500002202549086024480068FDF765FA9FEDC8
:102D6000260B53EC102B214890ED000B51EC100B6F
:102D700005F0C8F800D200E04DE700BF9FED200B42
:102D80001A4880ED000B47E04FF40071154802F03F
:102D9000B5FC4FF48061134802F0B0FC4FF4805151
:102DA000104802F0ABFC4FF400610E4802F0A6FCA4
:102DB0009FED0F0B53EC102B0C4825E00008024050
:102DC0000000002004000020080000200C0000206B
:102DD0001000002014000020180000201C0000201B
:102DE000200000200010024028000020F0000020F9
:102DF0009A9999999999C93F9A9999999999E13F7D
:102E0000000000000000000090ED000B51EC100BE2
:102E100005F078F800D200E0B6E700BF4FF4FA7191
:102E2000FE4803F0C6FA4FF4FA71FD4803F0BFFA0A
:102E30004FF4FA71FA4803F0BCFA4FF4FA71F8480B
:102E400003F0B9FA4FF4FA71F54803F0B6FA4FF40B
:102E50007A7004F0EFF81FED160BF24880ED000BCE
:102E6000F4E04021F04802F02DFCF0490860802198
:102E7000ED4802F027FCEE4908604FF48071EA4803
:102E800002F020FCEB4908604FF40071E64802F0C4
:102E900019FCE94908604FF48061E34802F012FC34
:102EA000E64908604FF40061DF4802F00BFCE4499A
:102EB00008600221DC4802F005FCE24908600421B8
:102EC000D94802F0FFFBE04908600821D64802F02B
:102ED000F9FBDE4908604FF48061DD4802F00CFC2C
:102EE0004FF40071DA4802F009FC4FF48051D848E1
:102EF00002F002FC4FF40061D54802F0FFFBD0481D
:102F00000068012808D1CC48006828B9CB4800687F
:102F100010B90020CF490860C9480068012809D1CC
:102F2000C5480068012805D1C448006810B90120CF
:102F3000C8490860C248006848B9BF48006801280D
:102F400005D1BE48006810B90220C2490860BC48DB
:102F5000006850B9B8480068012806D1B748006831
:102F6000012802D10320BB490860B548006848B970
:102F7000B148006830B9B1480068012802D1042086
:102F8000B4490860AE48006801280AD1AA48006820
:102F9000012806D1A9480068012802D10220AD49C4
:102FA0000860AC480068FDF770F99FEDAB0B53EC7F
:102FB000102B9C4890ED000B51EC100B04F0A2FF7D
:102FC00044D2A0480068012840D104F033F84021E1
:102FD000954802F077FB954908608021924802F0FD
:102FE00071FB934908604FF480718F4802F06AFBCF
:102FF000904908604FF400718B4802F063FB8E49E2
:1030000008604FF48061884802F05CFB8B490860DF
:103010004FF40061844802F055FB894908600221A1
:10302000814802F04FFB8749086004217E4802F086
:1030300049FB8549086008217B4802F043FB83492E
:10304000086080480068012800D100E009E700BF5F
:103050001FED950B734880ED000B20E04FF40071DD
:103060007B4802F04BFB4FF48061794802F046FB4D
:103070004FF48051764802F041FB4FF400617448F0
:1030800002F03CFB1FEDA60B53EC102B654890EDB6
:10309000000B51EC100B04F035FF00D200E0DDE72F
:1030A00000BF00206E4908609FE26E486C490968C5
:1030B00050F821006C4901EBC00090ED001BB0EE10
:1030C000410AF0EE610AFDF783F91FEDB30B554895
:1030D00080ED000B26E14021534802F0F3FA5349FA
:1030E00008608021504802F0EDFA514908604FF421
:1030F00080714D4802F0E6FA4E4908604FF40071C5
:10310000494802F0DFFA4C4908604FF480614648B4
:1031100002F0D8FA494908604FF40061424802F0D1
:10312000D1FA4749086002213F4802F0CBFA4549ED
:10313000086004213C4802F0C5FA434908600821B0
:10314000394802F0BFFA414908604FF40071404825
:1031500002F0D2FA4FF480613D4802F0CFFA4FF40A
:1031600000613B4802F0C8FA4FF48051384802F041
:10317000C5FA30480068012808D12C48006828B9F1
:103180002B48006810B900203249086029480068BF
:10319000012809D125480068012805D12448006884
:1031A00010B901202B4908602248006848B91F481F
:1031B0000068012805D11E48006810B90220254981
:1031C00008601C48006850B918480068012806D1FA
:1031D00017480068012802D103201E4908601548DD
:1031E000006848B91148006830B9114800680128E2
:1031F00002D10420174908600E48006801280AD14E
:103200000A480068012806D109480068012802D14F
:103210000220104908600F48006827E000040040C1
:1032200000080040F00000200008024000000020DC
:1032300004000020080000200C00002010000020E6
:1032400014000020180000201C0000202000002096
:103250000010024028000020000000000000004094
:10326000300000208000002040000020FCF7DCFF40
:10327000FD49FE4A126851F822004FF4FA71FDF739
:10328000D6F99FEDFB0B53EC102BFB4890ED000B98
:1032900051EC100B04F036FE44D2F84800680128C7
:1032A00040D103F0C7FE4021F54802F00BFAF54982
:1032B00008608021F24802F005FAF34908604FF4F3
:1032C0008071EF4802F0FEF9F04908604FF4007198
:1032D000EB4802F0F7F9EE4908604FF48061E848E6
:1032E00002F0F0F9EB4908604FF40061E44802F0A5
:1032F000E9F9E94908600221E14802F0E3F9E74908
:1033000008600421DE4802F0DDF9E5490860082183
:10331000DB4802F0D7F9D94908600846006801285F
:1033200000D100E0D7E600BF9FEDDE0BD24880ED74
:10333000000B20E04FF40071DC4802F0DFF94FF49D
:103340008061DA4802F0DAF94FF48051D74802F090
:10335000D5F94FF40061D54802F0D0F99FEDD40BB8
:1033600053EC102BC44890ED000B51EC100B04F003
:10337000C9FD00D200E0DDE700BFBB49BB4A1268CF
:1033800051F822004FF4FA61FDF751F94FF47A70C9
:1033900003F050FE9FEDC30BB74880ED000BF4E047
:1033A0004021B74802F08EF9B64908608021B44840
:1033B00002F088F9B44908604FF48071B04802F017
:1033C00081F9B24908604FF40071AD4802F07AF912
:1033D000AF4908604FF48061A94802F073F9AD4924
:1033E00008604FF40061A64802F06CF9AA49086031
:1033F0000221A34802F066F9A84908600421A04808
:1034000002F060F9A649086008219D4802F05AF9C7
:103410009A4908604FF48061A44802F06DF94FF4B6
:103420000071A24802F06AF94FF480519F4802F0FF
:1034300063F94FF400619D4802F060F99648006816
:10344000012808D19248006828B99248006810B94C
:1034500000209949086090480068012809D18C48EB
:103460000068012805D18B48006810B901209249F5
:1034700008608948006848B985480068012805D176
:103480008448006810B902208B49086082480068AF
:1034900050B97F480068012806D17E48006801289D
:1034A00002D10320844908607B48006848B9784805
:1034B000006830B977480068012802D104207E49AD
:1034C00008607548006801280AD171480068012821
:1034D00006D170480068012802D1022076490860B0
:1034E00075480068FCF7D1FE9FED740B53EC102B70
:1034F000614890ED000B51EC100B04F003FD44D239
:1035000066480068012840D103F094FD40215C48E2
:1035100002F0D8F85B4908608021594802F0D2F8DF
:10352000594908604FF48071554802F0CBF857496B
:1035300008604FF40071524802F0C4F85449086022
:103540004FF480614E4802F0BDF8524908604FF4D4
:1035500000614B4802F0B6F84F4908600221484824
:1035600002F0B0F84D4908600421454802F0AAF87D
:103570004B4908600821424802F0A4F83F4908601E
:1035800046480068012800D100E009E700BF9FED30
:10359000450B394880ED000B20E04FF400714348A3
:1035A00002F0ACF84FF48061404802F0A7F84FF405
:1035B00080513E4802F0A2F84FF400613B4802F00F
:1035C0009DF89FED3E0B53EC102B2B4890ED000B1C
:1035D00051EC100B04F096FC00D200E0DDE700BFD8
:1035E00022480068401C21490860204800680528DE
:1035F000FFF65BAD00201D49086001F0F8BB4FF4F9
:10360000FA7003F017FD9FED2F0BFCF7E1FE174852
:103610000068012807D015480068022803D0134825
:10362000006803287DD19FED1F0B134880ED000B30
:1036300033E14021124802F045F812490860802128
:103640000F4802F03FF8104908604FF480710C48B1
:1036500002F038F80D4908604FF40071084802F094
:1036600031F80B49086031E0B40000203000002040
:103670009A9999999999C93FF0000020200000205B
:103680000008024000000020040000200800002084
:103690000C00002010000020140000201800002062
:1036A0001C0000200000000000000000001002408C
:1036B000000000000000F03F280000200000000093
:1036C0000000E03F000000000000E0BF4FF4806118
:1036D000FE4801F0F7FFFE4908604FF40061FB4827
:1036E00001F0F0FFFB4908600221F84801F0EAFF11
:1036F000F94908600421F54801F0E4FFF749086042
:103700000821F24801F0DEFFF54908604FF48061BE
:10371000F44801F0F1FF4FF40071F24801F0EEFFC0
:1037200000E0EEE34FF48051EE4801F0E5FF4FF486
:103730000061EC4801F0E2FFE6480068012808D18A
:10374000E948006828B9E248006810B90020E74954
:103750000860E0480068012809D1E34800680128B2
:1037600005D1DB48006810B90120E0490860D9485C
:10377000006848B9DC480068012805D1D4480068D1
:1037800010B90220D9490860D248006850B9D6481B
:103790000068012806D1CE480068012802D1032024
:1037A000D2490860CB48006848B9CF48006830B9B2
:1037B000C7480068012802D10420CC490860C548E8
:1037C000006801280AD1C8480068012806D1C0480D
:1037D0000068012802D10220C4490860C34800687B
:1037E000FCF753FD40F2AA51C14802F0E0FD40F25F
:1037F000DC51C04802F0DBFD1FED500B53EC102BE9
:10380000BD4890ED000B51EC100B04F07BFB44D253
:10381000B2480068012840D103F00CFC4021AB48BD
:1038200001F050FFB54908608021A84801F04AFF27
:10383000B34908604FF48071A44801F043FFB149D7
:1038400008604FF40071A14801F03CFFA6490860F0
:103850004FF480619D4801F035FF9D4908604FF4A9
:1038600000619A4801F02EFF9A49086002219748AA
:1038700001F028FF984908600421944801F022FFD4
:10388000964908600821914801F01CFF944908609E
:1038900092480068012800D100E0CAE600BF1FED91
:1038A0007F0B954880ED000BBAE04021874801F07E
:1038B00009FF924908608021844801F003FF904984
:1038C00008604FF48071814801F0FCFE8D4908606A
:1038D0004FF400717D4801F0F5FE834908604FF414
:1038E00080617A4801F0EEFE794908604FF400618A
:1038F000764801F0E7FE774908600221734801F03D
:10390000E1FE754908600421704801F0DBFE73494F
:10391000086008216D4801F0D5FE714908604FF438
:103920008061704801F0E8FE4FF400716D4801F0CD
:10393000E5FE4FF480516B4801F0DEFE4FF400616C
:10394000684801F0DBFE63480068012808D166483A
:10395000006828B95E48006810B900206349086013
:103960005C480068012809D15F480068012805D13A
:103970005748006810B901205C4908605548006844
:1039800048B959480068012805D15148006810B964
:103990000220564908604F48006850B952480068F4
:1039A000012806D14A480068012802D103204F4966
:1039B00008604848006848B94B48006830B9444836
:1039C0000068012802D10420484908604148006885
:1039D00001280AD144480068012806D13C48006803
:1039E000012802D102204149086040480068FCF7E4
:1039F0004CFC40F2AA513E4802F0D9FC40F2DC51A6
:103A00003C4802F0D4FC9FED400B53EC102B3A489D
:103A100090ED000B51EC100B04F074FA00D200E0B2
:103A200043E700BF1FEDE10B334880ED000B20E0C2
:103A30004FF400712B4801F061FE4FF4806129487A
:103A400001F05CFE4FF48051264801F057FE4FF420
:103A50000061244801F052FE9FED2D0B53EC102B1A
:103A6000254890ED000B51EC100B04F04BFA00D2FE
:103A700000E0DDE700BF4FF4FA711E4802F097FC4A
:103A80004FF4FA6003F0D6FA40F27261184802F07F
:103A90008EFC4FF4FA6003F0CDFA9FED1F0B164831
:103AA00080ED000B1FE14021084801F00BFE134997
:103AB00008608021054801F005FE114908604FF4B7
:103AC0008071024801F0FEFD0E4929E00008024025
:103AD0001000002014000020180000201C0000200E
:103AE00020000020001002400C00002028000020D0
:103AF0000040014000480140F0000020000000208C
:103B000004000020080000209A9999999999B93FDA
:103B1000333333333333D33F000000000000000061
:103B200008604FF40071F74801F0CCFDF6490860D9
:103B30004FF48061F34801F0C5FDF44908604FF48B
:103B40000061F04801F0BEFDF14908600221ED4836
:103B500001F0B8FDEF4908600421EA4801F0B2FD28
:103B6000ED4908600821E74801F0ACFDEB49086029
:103B70004FF48061EA4801F0BFFD4FF40071E8485E
:103B800001F0BCFD4FF48051E54801F0B5FD4FF464
:103B90000061E34801F0B2FDDD480068012808D16A
:103BA000D948006828B9D948006810B90020DD4913
:103BB0000860D7480068012809D1D3480068012867
:103BC00005D1D248006810B90120D6490860D04814
:103BD000006848B9CC480068012805D1CB48006886
:103BE00010B90220CF490860C948006850B9C648DA
:103BF0000068012806D1C5480068012802D10320C9
:103C0000C8490860C248006848B9BF48006830B970
:103C1000BE480068012802D10420C2490860BC489F
:103C2000006801280AD1B8480068012806D1B748C1
:103C30000068012802D10220BA490860B94800682A
:103C4000FCF723FB9FEDB80B53EC102BB84890ED1D
:103C5000000B51EC100B04F055F944D2AF4800684A
:103C6000012840D103F0E6F94021A64801F02AFDE1
:103C7000B04908608021A34801F024FDAE490860E6
:103C80004FF480719F4801F01DFDAC4908604FF46E
:103C900000719C4801F016FD9B4908604FF480615B
:103CA000984801F00FFD994908604FF4006195486C
:103CB00001F008FD964908600221924801F002FDDA
:103CC0009449086004218F4801F0FCFC9249086087
:103CD00008218C4801F0F6FC90490860084600680D
:103CE000012800D100E0DEE600BF1FED750B904813
:103CF00080ED000BB0E04021824801F0E3FC8D49EB
:103D0000086080217F4801F0DDFC8B4908604FF49A
:103D100080717C4801F0D6FC884908604FF400713E
:103D2000784801F0CFFC784908604FF4806175480D
:103D300001F0C8FC754908604FF40061714801F05A
:103D4000C1FC7349086002216E4801F0BBFC714957
:103D5000086004216B4801F0B5FC6F490860082138
:103D6000684801F0AFFC6D4908604FF480616C4811
:103D700001F0C2FC4FF40071694801F0BFFC4FF440
:103D80008051674801F0B8FC4FF40061644801F0CD
:103D9000B5FC5F480068012808D15B48006828B975
:103DA0005A48006810B900205E4908605848006809
:103DB000012809D154480068012805D153480068FA
:103DC00010B90120574908605148006848B94E4869
:103DD0000068012805D14D48006810B902205149FA
:103DE00008604B48006850B947480068012806D170
:103DF00046480068012802D103204A490860444827
:103E0000006848B94048006830B940480068012857
:103E100002D10420434908603D48006801280AD1C6
:103E200039480068012806D138480068012802D1C5
:103E300002203C4908603B480068FCF726FA1FED69
:103E4000CE0B53EC102B3A4890ED000B51EC100BBD
:103E500004F058F800D200E04DE700BF1FEDD20B90
:103E6000334880ED000B20E04FF400712C4801F046
:103E700045FC4FF480612A4801F040FC4FF480512A
:103E8000274801F03BFC4FF40061254801F036FC67
:103E90001FEDE10B53EC102B254890ED000B51EC7E
:103EA000100B04F02FF800D200E0DDE700BF40F275
:103EB000DC51234802F07BFA4FF47A7003F0BAF831
:103EC00040F2AA511F4802F072FA4FF47A7003F0E0
:103ED000B1F84FF4FA711A4802F069FA4FF47A70A7
:103EE00003F0A8F840F27261164802F060FA4FF44D
:103EF0007A7003F09FF81FEDF80B0D4880ED000B72
:103F000017E175E2000802400C00002010000020BC
:103F100014000020180000201C00002020000020B9
:103F20000010024028000020000000000000E03FD8
:103F3000F000002000000020040000200800002005
:103F400000480140004001404021FE4801F0BAFB1A
:103F5000FD4908608021FB4801F0B4FBFB49086083
:103F60004FF48071F74801F0ADFBF94908604FF458
:103F70000071F44801F0A6FBF64908604FF4806137
:103F8000F04801F09FFBF44908604FF40061ED48F0
:103F900001F098FBF14908600221EA4801F092FB28
:103FA000EF4908600421E74801F08CFBED49086007
:103FB0000821E44801F086FBEB4908604FF480617A
:103FC000EA4801F099FB4FF40071E84801F096FBD4
:103FD0004FF48051E54801F08FFB4FF40061E34856
:103FE00001F08CFBDD480068012808D1D948006841
:103FF00028B9D948006810B90020DD490860D748C1
:104000000068012809D1D3480068012805D1D248A9
:10401000006810B90120D6490860D048006848B946
:10402000CC480068012805D1CB48006810B90220AF
:10403000CF490860C948006850B9C64800680128DF
:1040400006D1C5480068012802D10320C84908608C
:10405000C248006848B9BF48006830B9BE48006827
:10406000012802D10420C2490860BC480068012828
:104070000AD1B8480068012806D1B748006801286D
:1040800002D10220BA490860B9480068FCF7FDF87F
:104090001FED5B0B53EC102BB64890ED000B51EC71
:1040A000100B03F02FFF44D2AE480068012840D126
:1040B00002F0C0FF4021A34801F004FBA2490860C0
:1040C0008021A04801F0FEFAA04908604FF48071F9
:1040D0009C4801F0F7FA9E4908604FF40071994836
:1040E00001F0F0FA9B4908604FF48061954801F0B7
:1040F000E9FA994908604FF40061924801F0E2FA48
:104100009649086002218F4801F0DCFA9449086062
:1041100004218C4801F0D6FA9249086008218948A8
:1041200001F0D0FA904908608E480068012800D15B
:1041300000E009E700BF9FED900B8E4880ED000B7B
:1041400020E04FF40071894801F0D8FA4FF4806103
:10415000864801F0D3FA4FF48051844801F0CEFA3A
:104160004FF40061814801F0C9FA9FED850B53ECD3
:10417000102B804890ED000B51EC100B03F0C2FEA9
:1041800000D200E0DDE700BF40F2DC517E4802F0E3
:104190000EF94FF47A7002F04DFF40F2AA517B48BD
:1041A00002F005F94FF47A7002F044FF4FF4FA710F
:1041B000754802F0FCF84FF47A7002F03BFF40F2D1
:1041C000DC51714802F0F3F84FF47A7002F032FFDC
:1041D0009FED690B674880ED000BE3E040215948F3
:1041E00001F070FA584908608021564801F06AFAD7
:1041F000564908604FF48071524801F063FA5449FF
:1042000008604FF400714F4801F05CFA51490860B2
:104210004FF480614B4801F055FA4F4908604FF464
:104220000061484801F04EFA4C49086002214548B7
:1042300001F048FA4A4908600421424801F042FA74
:104240004849086008213F4801F03CFA46490860A7
:104250004FF40071454801F04FFA4FF48061434834
:1042600001F04CFA4FF40061404801F045FA4FF478
:1042700080513E4801F042FA35480068012808D1D3
:104280003148006828B93148006810B90020384921
:1042900008602F480068012809D12B4800680128D0
:1042A00005D12A48006810B9012031490860284822
:1042B000006848B924480068012805D123480068EF
:1042C00010B902202A4908602148006850B91E48E8
:1042D0000068012806D11D480068012802D103208A
:1042E000234908601A48006848B91748006830B97F
:1042F00016480068012802D104201D4908601448AE
:10430000006801280AD110480068012806D10F482A
:104310000068012802D1022015490860144800688D
:10432000FBF782FF9FED1A0B53EC102B114890ED19
:10433000000B51EC100B03F0E5FD33D20848006888
:10434000012829E0000802400000002004000020AD
:10435000080000200C0000201000002014000020A5
:10436000180000201C000020200000200010024047
:1043700028000020F00000200000000000000000E5
:10438000333333333333D33F0048014000400140DF
:10439000000000000000E03F04D1F8480068012858
:1043A00000D100E01AE700BF20E04FF40071F448AC
:1043B00001F0A4F94FF48061F14801F09FF94FF446
:1043C0008051EF4801F09AF94FF40061EC4801F098
:1043D00095F91FED150B53EC102BEA4890ED000BEF
:1043E00051EC100B03F08EFD00D200E0DDE7EDE3B1
:1043F0001FED1F0BE34880ED000BFEE04021E2487B
:1044000001F060F9E14908608021DF4801F05AF9C4
:10441000DF4908604FF48071DB4801F053F9DD4952
:1044200008604FF40071D84801F04CF9DA4908608F
:104430004FF48061D44801F045F9D84908604FF441
:104440000061D14801F03EF9D54908600221CE480B
:1044500001F038F9D34908600421CB4801F032F962
:10446000C64908600821C84801F02CF9CE49086007
:104470004FF48061C24801F03FF94FF40071C04829
:1044800001F03CF94FF48051BD4801F035F94FF48B
:104490000061BB4801F032F9C1480068012808D129
:1044A000BD48006828B9BD48006810B90020BF4960
:1044B0000860BB480068012809D1B7480068012896
:1044C00005D1B648006810B90120B8490860B44861
:1044D000006848B9B0480068012805D1AF480068B5
:1044E00010B90220B1490860AD48006850B9AA4827
:1044F0000068012806D1A9480068012802D10320DC
:10450000AA490860A648006848B9A348006830B9BD
:10451000A2480068012802D10420A4490860A048EC
:10452000006801280AD19C480068012806D19B48F0
:104530000068012802D102209C4908609B4800685D
:10454000FBF7A3FE40F2AA51994801F030FF40F278
:10455000DC51984801F02BFF9FED970B53EC102B8B
:10456000884890ED000B51EC100B03F0CBFC44D2CB
:1045700082480068012840D102F05CFD4021824859
:1045800001F0A0F88149086080217F4801F09AF885
:104590007F4908604FF480717B4801F093F87D49B2
:1045A00008604FF40071784801F08CF87A4908608F
:1045B0004FF48061744801F085F8784908604FF441
:1045C0000061714801F07EF87549086002216E486B
:1045D00001F078F87349086004216B4801F072F823
:1045E000664908600821684801F06CF86E49086067
:1045F00062480068012800D100E0FFE600BF1FED1F
:10460000A20B604880ED000BB0E040215E4801F055
:1046100059F85E49086080215B4801F053F85C4915
:1046200008604FF48071584801F04CF8594908600F
:104630004FF40071544801F045F8574908604FF4B1
:104640008061514801F03EF8544908604FF4006120
:104650004D4801F037F85249086002214A4801F0FC
:1046600031F8504908600421474801F02BF84349CC
:1046700008600821444801F025F84B4908604FF4D0
:1046800080613F4801F038F84FF400713C4801F078
:1046900035F84FF480513A4801F02EF84FF400619C
:1046A000374801F02BF83E480068012808D13A4805
:1046B000006828B93948006810B900203B490860F3
:1046C00037480068012809D133480068012805D11E
:1046D0003248006810B90120344908603048006849
:1046E00048B92D480068012805D12C48006810B948
:1046F00002202E4908602A48006850B92648006800
:10470000012806D125480068012802D10320274945
:1047100008602348006848B91F48006830B91F483E
:104720000068012802D10420204908601C48006864
:1047300001280AD118480068012806D117480068E6
:10474000012802D102201949086018480068FBF7C7
:104750009CFD9FED1B0B53EC102B0A4890ED000BBA
:1047600051EC100B03F0CEFB00D200E04DE700BF90
:104770009FED150B034880ED000B4AE01C00002064
:1047800000100240F000002000080240000000205D
:1047900004000020080000200C0000201000002071
:1047A0001400002018000020200000202800002015
:1047B0000040014000480140000000000000F03FC0
:1047C0009A9999999999C93F00000000000000004A
:1047D0004FF40071FE4800F091FF4FF48061FC48F7
:1047E00000F08CFF4FF48051F94800F087FF4FF440
:1047F0000061F74800F082FF9FEDF60B53EC102BA1
:10480000F64890ED000B51EC100B03F07BFB00D24F
:1048100000E0DDE700BF40F2DC51F14801F0C7FDE8
:104820004FF47A7002F006FC40F2AA51ED4801F014
:10483000BEFD4FF47A7002F0FDFB4FF4FA71E848C8
:1048400001F0B5FD4FF47A7002F0F4FB40F27261B2
:10485000E44801F0ACFD4FF47A7002F0EBFB1FED81
:10486000260BDE4880ED000BF4E04021DE4800F02E
:1048700029FFDE4908608021DB4800F023FFDC4986
:1048800008604FF48071D84800F01CFFD9490860D7
:104890004FF40071D44800F015FFD74908604FF479
:1048A0008061D14800F00EFFD44908604FF40061E8
:1048B000CD4800F007FFD24908600221CA4800F045
:1048C00001FFD04908600421C74800F0FBFECE4933
:1048D00008600821C44800F0F5FECC4908604FF498
:1048E0008061BB4800F008FF4FF40071B84800F049
:1048F00005FF4FF48051B64800F0FEFE4FF4006112
:10490000B34800F0FBFEBE480068012808D1BA4851
:10491000006828B9B948006810B90020BC4908608F
:10492000B7480068012809D1B3480068012805D1BB
:10493000B248006810B90120B5490860B048006865
:1049400048B9AD480068012805D1AC48006810B9E5
:104950000220AF490860AA48006850B9A64800681C
:10496000012806D1A5480068012802D10320A849E2
:104970000860A348006848B99F48006830B99F485C
:104980000068012802D10420A14908609C48006801
:1049900001280AD198480068012806D19748006884
:1049A000012802D102209A49086099480068FBF763
:1049B0006CFC9FED980B53EC102B884890ED000B8E
:1049C00051EC100B03F09EFA44D28F480068012886
:1049D00040D102F02FFB4021834800F073FE834951
:1049E00008608021804800F06DFE814908604FF426
:1049F00080717D4800F066FE7E4908604FF40071CA
:104A0000794800F05FFE7C4908604FF48061764889
:104A100000F058FE794908604FF40061724800F0D8
:104A200051FE7749086002216F4800F04BFE75493E
:104A3000086004216C4800F045FE734908600821B5
:104A4000694800F03FFE714908606F48006801281E
:104A500000D100E009E700BF1FEDA50B5F4880ED26
:104A6000000B20E04FF40071594800F047FE4FF46E
:104A70008061574800F042FE4FF48051544800F0E6
:104A80003DFE4FF40061524800F038FE9FED510B9F
:104A900053EC102B514890ED000B51EC100B03F030
:104AA00031FA00D200E0DDE700BF40F2DC514C48B3
:104AB00001F07DFC4FF47A7002F0BCFA40F2AA518A
:104AC000484801F074FC4FF47A7002F0B3FA4FF4E6
:104AD000FA71434801F06BFC4FF47A7002F0AAFAC5
:104AE00040F2DC513E4801F062FC4FF47A7002F073
:104AF000A1FA1FEDCB0B394880ED000B4CE14021B2
:104B0000394800F0DFFD394908608021364800F05F
:104B1000D9FD374908604FF48071334800F0D2FD69
:104B2000344908604FF400712F4800F0CBFD324942
:104B300008604FF480612C4800F0C4FD2F490860E4
:104B40004FF40061284800F0BDFD2D4908600221A6
:104B5000254800F0B7FD2B4908600421224800F0E9
:104B6000B1FD2949086008211F4800F0ABFD274925
:104B700008604FF40071164800F0BEFD4FF48061EC
:104B8000134800F0BBFD4FF40061114800F0B4FD84
:104B90004FF480510E4800F0B1FD1648006801281E
:104BA00008D11248006828B91148006810B90020DF
:104BB000174908600F480068012832D10B48006887
:104BC00001282ED10A48006808B927E00AE128E048
:104BD00000100240333333333333D33FF00000202F
:104BE0000048014000400140000802400000002051
:104BF00004000020080000200C000020100000200D
:104C000014000020180000201C00002020000020BC
:104C100028000020000000000000E03F0120FA49C9
:104C20000860FA48006848B9F9480068012805D1C9
:104C3000F848006810B90220F3490860F34800689A
:104C400050B9F3480068012806D1F24800680128ED
:104C500002D10320EC490860EC48006848B9EC48F0
:104C6000006830B9EB480068012802D10420E64909
:104C70000860E648006801280AD1E5480068012874
:104C800006D1E4480068012802D10220DE4908600C
:104C9000DD480068052826D2DFE800F0030A111776
:104CA0001E004FF496614FF4FA7002F0B7FB21E05A
:104CB00040F24C414FF4487002F0B0FB1AE04FF460
:104CC0007A71084602F0AAFB14E04FF4487140F2F2
:104CD0004C4002F0A3FB0DE04FF4FA714FF49660E4
:104CE00002F09CFB06E04FF47A7140F24C4002F077
:104CF00095FB00BF00BF9FEDC80B53EC102BC848BD
:104D000090ED000B51EC100B03F0FCF844D2C548B9
:104D10000068012840D102F08DF94021C24800F01E
:104D2000D1FCBB4908608021BF4800F0CBFCB949E9
:104D300008604FF48071BC4800F0C4FCB3490860BF
:104D40004FF40071B84800F0BDFCB84908604FF45A
:104D50008061B54800F0B6FCB54908604FF40061C9
:104D6000B14800F0AFFCB34908600221AE4800F042
:104D7000A9FCB14908600421AB4800F0A3FCA94993
:104D800008600821A84800F09DFCAC490860A548CF
:104D90000068012800D100E0B1E600BF20E04FF438
:104DA0000071A74800F0AAFC4FF48061A44800F00D
:104DB000A5FC4FF48051A24800F0A0FC4FF4006124
:104DC0009F4800F09BFC1FED7D0B53EC102B94488B
:104DD00090ED000B51EC100B03F094F800D200E0C2
:104DE000DDE700BF97480068401C96490860954879
:104DF00000680528FEF603AC4FF4FA7002F01AF9C9
:104E0000914890ED001BB0EE410AF0EE610AFBF70D
:104E1000DFFA9FED8E0B824880ED000B1FE14021F1
:104E2000814800F04FFC7A49086080217E4800F0FC
:104E300049FC784908604FF480717B4800F042FCDF
:104E4000724908604FF40071774800F03BFC7749E5
:104E500008604FF48061744800F034FC74490860C5
:104E60004FF40061704800F02DFC72490860022187
:104E70006D4800F027FC7049086004216A4800F082
:104E800021FC684908600821674800F01BFC6B4959
:104E900008604FF400716A4800F02EFC4FF4806106
:104EA000674800F02BFC4FF40061654800F024FCDB
:104EB0004FF48051624800F021FC544800680128FA
:104EC00008D15348006828B95248006810B900203A
:104ED0004D4908604D480068012809D14C480068D8
:104EE000012805D14B48006810B9012046490860E7
:104EF0004648006848B946480068012805D1454839
:104F0000006810B90220404908604048006850B964
:104F10003F480068012806D13E480068012802D1B8
:104F20000320394908603948006848B938480068A2
:104F300030B938480068012802D10420324908609D
:104F40003248006801280AD131480068012806D19A
:104F500030480068012802D102202B4908602A4805
:104F60000068FBF761F99FED3B0B53EC102B2C48CD
:104F700090ED000B51EC100B02F0C4FF6FD22948EA
:104F8000006801286BD102F055F84021264800F056
:104F900099FB1F4908608021234800F093FB1D49BD
:104FA00008604FF48071204800F08CFB17490860BE
:104FB0004FF400711C4800F085FB1C4908604FF459
:104FC0008061194800F07EFB194908604FF40061C8
:104FD000154800F077FB174908600221124800F0DD
:104FE00071FB1549086004210F4800F06BFB0D4967
:104FF000086008210C4800F065FB1049086009486A
:10500000006801282BD12BE0280000200800002098
:105010000000002004000020000000000000044008
:10502000F00000201C000020000802400C000020BE
:105030001000002014000020180000202000002094
:10504000001002403000002040000020000000005E
:10505000000000000000000000000040FFE7DEE666
:1050600000BF13E04FF400710A4800F047FB4FF413
:105070008061084800F042FB4FF48051054800F081
:105080003DFB4FF40061034800F038FBEAE7FBF713
:10509000F2BB000000100240704700BFFEE700BFF7
:1050A000FEE700BFFEE700BFFEE7704770477047AE
:1050B000704700000CB50020019000907648006811
:1050C00040F480307449086000BF7348006800F401
:1050D000003000900198401C0190009818B9019888
:1050E000B0F5A04FF1D16C48006800F4003010B169
:1050F0000120009001E0002000900098012846D196
:1051000065484030006840F0805063494031086095
:105110006248006840F44040604908605E480830DA
:1051200000685D49083108600846006840F40040A6
:1051300008600846006840F4A05008605848091FFD
:105140000860081F006840F08070091F086000BFF9
:105150005148006800F000700028F9D040F2057056
:10516000504908604C480830006820F003004A4964
:10517000083108600846006840F00200086000BF7F
:1051800045480830006800F00C000828F8D10CBD34
:1051900010B54548006840F47000434908603E4837
:1051A000006840F001003C49086000203A4908319D
:1051B0000860394800683D490840374908603C4864
:1051C000091D0860081F006820F48020091F08607E
:1051D000002031490C310860FFF76CFF4FF0006090
:1051E00031498039086010BD70B5002000220223CB
:1051F00000240221284D08352D6805F00C0020B14F
:10520000042806D0082834D107E02A4D2A4E3560FC
:1052100033E02A4D284E35602FE01F4D2D1D2D689F
:10522000C5F380541C4D2D1D2D6805F03F0154B170
:10523000224DB5FBF1F5184E361D3668C6F38816BB
:1052400005FB06F209E01B4DB5FBF1F5124E361DCC
:105250003668C6F3881605FB06F20F4D2D1D2D6826
:10526000C5F301456D1C6B00B2FBF3F5124E3560C2
:1052700003E0104D104E356000BF00BF064D0835ED
:105280002D68C5F303150E4E705D0B4D2D68C5409E
:10529000094E356070BD00000038024000700040CB
:1052A00008544007003C024088ED00E0FFFFF6FE96
:1052B000103000240024F400C800002000127A00FE
:1052C000CC0000200948804709480047FEE7FEE778
:1052D000FEE7FEE7FEE7FEE7FEE7FEE7FEE7FEE7A6
:1052E00004480549054A064B7047000091510008E3
:1052F0008901000878010020780700207803002049
:105300007803002032490143324A1160704770B57A
:10531000002100230F22C4781CB32E4C246804F40F
:10532000E064C4F5E064C4F30721C1F10404E3B20E
:105330000A4144789C40E1B28478144021430C0730
:10534000210E254C05786155047804F01F050124D1
:10535000AC4005786D11AD0005F1E025C5F80041C0
:1053600009E0047804F01F050124AC401B4D0678C9
:10537000761145F8264070BD194A0A400243154B84
:105380001B1F1A60704739B1124A121D126802437E
:10539000104B1B1D1A6006E00E4A121D1268824354
:1053A0000C4B1B1D1A607047042808D14FF0E021F8
:1053B000096941F004014FF0E022116107E04FF06C
:1053C000E021096921F004014FF0E02211617047EA
:1053D0000000FA050CED00E000E400E080E100E0F0
:1053E00080FFFF1F002041490860091D0860091D5A
:1053F0000860091D08603E483C4914310860704748
:1054000000213A498279002A3AD00A461268036894
:105410009A430B461A600A1D126803689A430B1DD3
:105420001A60027911440A6803681A430A602F4A15
:105430000832126803689A432C4B08331A601A1D0D
:10544000126803689A43294B0C331A604279102A78
:105450000ED11A1F126803681A43244B08331A60CE
:105460001A1D126803681A43204B0C331A600DE0B2
:105470001E49427911440A6803681A430A6005E02C
:10548000027911440A6803689A430A607047002150
:10549000016001710C214171002181717047134934
:1054A000103109680143114A1032116070470146FA
:1054B00000200E4A143212680A400AB1012000E0AE
:1054C00000207047094914310860704701460020E8
:1054D000064A143212680A400AB1012000E0002096
:1054E000704702491431086070470000003C0140D9
:1054F000FFFF7F0010B504469848844208D101217F
:10550000084600F086FB0021012000F082FB76E0D7
:105510009348844208D10121022000F07AFB002147
:10552000022000F076FB6AE08E48844208D1012117
:10553000042000F06EFB0021042000F06AFB5EE016
:105540008948844208D10121082000F062FB002133
:10555000082000F05EFB52E08448844208D101211B
:10556000102000F056FB0021102000F052FB46E016
:105570007F48844208D10121202000F04AFB00210D
:10558000202000F046FB3AE07A48844208D101210D
:10559000402000F03EFB0021402000F03AFB2EE0CE
:1055A0007548844208D10121802000F032FB00219F
:1055B000802000F02EFB22E07048844208D10121B7
:1055C000801500F026FB0021A01500F022FB16E05C
:1055D0006B48844208D10121401500F01AFB0021DC
:1055E000601500F016FB0AE06648844207D10121ED
:1055F000001500F00EFB0021201500F00AFB10BD85
:10560000F0B50A4600210023002400BF3DE001253B
:1056100005FA01F3156805EA03049C4234D10568D4
:105620004F000326BE40B543056015794E00B540D6
:105630000668354305601579012D02D01579022DD4
:1056400016D185684F000326BE40B5438560557965
:105650004E00B540866835438560456801268E401A
:10566000B5434560456896798E40B6B2354345608E
:10567000C5684F000326BE40B543C560D5794E00CE
:10568000B540C6683543C560491C1029BFD3F0BD7D
:105690004FF6FF7101600021017141718171C1718B
:1056A000704708B54FF480320092009A0A43009286
:1056B000009AC261C161009AC261C2690092C26966
:1056C000009208BD0246002013690B400BB1012077
:1056D00000E0002070470146086980B2704702462A
:1056E000002053690B400BB1012000E000207047FF
:1056F0000146486980B27047018370474183704713
:105700000AB1018300E041837047416170474269FB
:105710004A4042617047F0B5002300244D07ED0E6A
:1057200002FA05F3CE1000F1200555F826504E0779
:10573000F70E0F26BE40B543CF1000F1200646F805
:105740002750CE1000F1200555F8265045EA0304F5
:10575000CE1000F1200545F82640F0BD00000240C3
:105760000004024000080240000C02400010024009
:105770000014024000180240001C024000200240B9
:105780000024024000280240F948006840F001006F
:10579000F74908600020F64908310860F4480068BD
:1057A000F4490840F2490860F348091D0860F348CD
:1057B000EF4984310860F0481038091D0860EC4852
:1057C000006820F48020EA4908600020E8490C3194
:1057D0000860E7498C31086070470021E44A921C58
:1057E000117011460870704710B501460022002361
:1057F00000204A11012A02D1DD4C236808E0022A68
:1058000003D1DB4C7034236802E0D94C7434236834
:1058100001F01F02012494401C400CB1012000E063
:10582000002010BD38B5002000900024002500BFE6
:105830003120FFF7D9FF05460098401C00900098E2
:10584000B0F5A04F01D0002DF2D03120FFF7CCFFF2
:1058500008B1012400E00024204638BD01460020A4
:10586000C34A106820F0F80040EAC1001060704799
:10587000C349086070470021BD4A70321170117031
:10588000012802D004280AD104E00121B84A70326C
:10589000117005E00521B64A7032117000E000BFBA
:1058A00000BF7047B7490860704770B5049C41EA73
:1058B00082150126C6EB530645EA0645054345EA2F
:1058C0000465AB4E361D356070BDAD490866704746
:1058D000820142EA0172A64B84331A607047A849DC
:1058E0008866704710B5830143EA016343EA027397
:1058F0009F4C8834236010BDA14908677047A049B8
:10590000C864704702460020994B0833186820F09D
:10591000EC6042EA01031843954B08331860704766
:1059200002460020924B0833186820F0784042EA83
:10593000010318438E4B083318607047014600205E
:105940008B4A0832106820F003000843106070474B
:1059500087480830006800F00C00704701460020BE
:10596000834A0832106820F0F00008431060704746
:10597000014600207E4A0832106820F4E0500843B7
:105980001060704701460020794A0832106820F400
:10599000604040EAC10010607047F0B5002100226D
:1059A0000024022500260223714F08373F6807F0C4
:1059B0000C0121B1042905D0082937D105E0724F27
:1059C000076036E0714F076033E0694F3F1D3F6865
:1059D000C7F38056664F3F1D3F6807F03F036EB127
:1059E0006A4FB7FBF3F7DFF888C10CF1040CDCF861
:1059F00000C0CCF3881C07FB0CF40CE0624FB7FB33
:105A0000F3F7DFF86CC10CF1040CDCF800C0CCF348
:105A1000881C07FB0CF4564F3F1D3F68C7F3014736
:105A20007F1C7D00B4FBF5F7076002E0564F07606E
:105A300000BF00BF4E4F08373F6807F0F00109096B
:105A4000534F7A5C0768D7404760494F08373F6833
:105A500007F4E051890A4E4F7A5C4768D740876067
:105A6000434F08373F6807F46041490B484F7A5C61
:105A70004768D740C760F0BD002100F44072B2F51E
:105A8000407F0AD13A4A0832116821F4F811414A9C
:105A900002401143364A08321160354A70321268AA
:105AA000C0F30B031A43324B70331A607047354909
:105AB00044390860704733494039086070473649B7
:105AC0000860704701460020294A8C32106820F097
:105AD0001F004A1E1043264A8C3210607047014650
