:020000040800F2
:1000000000090020D5690008A9670008AB6700084F
:10001000AF670008B3670008B7670008000000007A
:10002000000000000000000000000000BB670008A6
:10003000BD67000800000000BF670008C167000836
:10004000EF690008EF690008EF690008EF69000830
:10005000EF690008EF690008EF690008EF69000820
:10006000EF690008C39B0008EF690008EF6900080A
:10007000EF690008EF690008EF690008EF69000800
:10008000EF690008EF690008EF690008EF690008F0
:10009000EF690008EF690008EF690008EF690008E0
:1000A000EF690008EF690008EF690008EF690008D0
:1000B000EF690008EF690008EF690008EF690008C0
:1000C000EF690008EF690008EF690008EF690008B0
:1000D000EF69000843880008EF690008EF6900082D
:1000E000EF690008EF690008EF690008EF69000890
:1000F000EF690008EF690008EF690008EF69000880
:10010000EF690008EF690008EF690008EF6900086F
:10011000EF690008EF690008EF690008E38B000849
:10012000EF690008EF690008EF690008EF6900084F
:10013000EF690008EF690008EF690008EF6900083F
:10014000EF690008EF690008EF690008EF6900082F
:10015000EF690008EF690008EF690008EF6900081F
:10016000EF690008EF690008EF690008EF6900080F
:10017000EF690008EF690008EF690008EF690008FF
:10018000EF690008EF69000800F002F800F03CF8A1
:100190000AA090E8000C82448344AAF10107DA45E2
:1001A00001D100F031F8AFF2090EBAE80F0013F0F8
:1001B000010F18BFFB1A43F00103184760A10000AC
:1001C00080A10000103A24BF78C878C1FAD852073D
:1001D00024BF30C830C144BF04680C6070470000C1
:1001E0000023002400250026103A28BF78C1FBD840
:1001F000520728BF30C148BF0B6070471FB50AF0D7
:100200007CF81FBD10B510BD09F003FD1146FFF7C6
:10021000F5FF00F07BFA09F021FD03B4FFF7F2FFD0
:1002200003BC08F0AFFA000070B52DED048B044656
:100230002546002C7EDD91E04021F84806F0CAFDFD
:10024000F74908608021F54806F0C4FDF5490860CB
:100250004FF48071F14806F0BDFDF34908600221BA
:10026000F24806F0B7FDF24908604FF40071EB4820
:1002700006F0B0FDEF4908604FF48061E74806F0F2
:10028000A9FDED4908600221E44806F0A3FDEB4911
:1002900008600421E14806F09DFDE9490860082155
:1002A000DE4806F097FDE7490860E74890ED021B3D
:1002B000B0EE410AF0EE610A51EC100B09F0E8FCD7
:1002C00008EE100AF8EE080AB0EE480ADF4808F017
:1002D000DFFFDD4890ED041BB0EE410AF0EE610A4D
:1002E00051EC100B09F0D4FC08EE100AF0EE080AED
:1002F000B0EE480AD64808F0CBFFD54890ED080A82
:1003000010EE101A084609F087FF41EC180BCF4891
:1003100090ED080A10EE101A084609F07DFF41EC36
:10032000190BB0EE481AF0EE681AB0EE490AF0EE7A
:10033000690A00E014E008F0C0FCC348C069A042AC
:100340000CDDB7480068012807D0B64800680128CE
:1003500003D0B5480068012800D100E06CE700BF79
:10036000002C7CDC92E04021AC4806F033FDAC4927
:1003700008608021A94806F02DFDAA4908604FF4C5
:100380008071A64806F026FDA74908600221A7480B
:1003900006F020FDA64908604FF400719F4806F062
:1003A00019FDA44908604FF480619C4806F012FDD5
:1003B000A14908600221994806F00CFD9F49086098
:1003C0000421964806F006FD9D49086008219348DF
:1003D00006F000FD9B4908609B4890ED021BB0EEC3
:1003E000410AF0EE610A51EC100B09F051FC08EEE5
:1003F000100AF0EE080AB0EE480A944808F048FFE8
:10040000914890ED041BB0EE410AF0EE610A51EC08
:10041000100B09F03DFC08EE100AF8EE080AB0EEE9
:10042000480A8B4808F034FF894890ED080A10EE1E
:10043000101A084609F0F0FE41EC180B834890EDC5
:10044000080A10EE101A084609F0E6FE41EC190BF6
:10045000B0EE481AF0EE681AB0EE490A00E017E074
:10046000F0EE690A08F029FC774880696142884209
:100470000CDD6B480068012807D06A480068012835
:1004800003D069480068012800D100E06BE700BF95
:10049000002022E06F4951F82010491B6D4A42F8B4
:1004A0002010114651F82010B1F5C86F06DD114635
:1004B00051F82010A1F5486142F82010654951F823
:1004C000201011F5C86F07DC624951F8201001F5C2
:1004D0004861604A42F82010401C0828DADB0020FE
:1004E00059498861C8619FED5C0B5D4880ED000B48
:1004F00052E0554890ED021BB0EE410AF0EE610A61
:1005000051EC100B09F0C4FB08EE100ADFED550AA0
:10051000B0EE480A4D4808F0BBFE4B4890ED041B76
:10052000B0EE410AF0EE610A51EC100B09F0B0FB9D
:1005300008EE100ADFED4B0AB0EE480A444808F016
:10054000A7FE434890ED080A10EE101A084609F07D
:1005500063FE41EC180B3D4890ED080A10EE101AAE
:10056000084609F059FE41EC190BB0EE481AF0EEBE
:10057000681AB0EE490AF0EE690A08F09EFB9FED9A
:100580003A0B53EC102B364890ED000B51EC100B4E
:1005900009F022FD00D200E0ABE700BFBDEC048B08
:1005A00070BD70B504460D460A2C6FD2DFE804F02A
:1005B000050B11171D23292F626840F692112C4854
:1005C00007F07DFA63E040F60201294807F077FA68
:1005D0005DE040F25461264807F071FA57E04FF4AD
:1005E0009661234807F06BFA51E04FF443712048BD
:1005F00007F065FA4BE04FF470711D4807F05FFAA1
:1006000045E04FF4C8711A4807F059FA3FE04FF43B
:100610001661174807F053FA39E037E00008024046
:100620000000002004000020080000200004024018
:100630000C000020100000201400002018000020F2
:100640001C0000202000002060020020F00000209C
:1006500038010020780000200000000000000000A9
:10066000C8000020000000009A9999999999B93F13
:100670000018004040F29E71FE4807F020FA06E0A4
:1006800040F2DC51FB4807F01AFA00E000BF00BF5F
:100690000A2C38D2DFE804F0050A0F14191E2328AB
:1006A0002D322946F34807F00CFA2DE02946F2488E
:1006B00007F005FA28E02946EF4807F002FA23E0A0
:1006C0002946ED4807F001FA1EE02946EA4807F0FE
:1006D000FAF919E02946E74807F0F3F914E029464A
:1006E000E54807F0ECF90FE02946E34807F0E9F99F
:1006F0000AE02946E04807F0E8F905E02946DE4827
:1007000007F0E1F900E000BF00BF70BD86B0DFED8B
:10071000DB0A9FEDDA0ADA4A0021DA4808F08AFD9E
:10072000DFEDD60A9FEDD50AD54A0021D64808F05C
:1007300081FD4FF4A06006F06DF9542007F0A0FF92
:1007400008F02AFD08F017F908F0C0F8012141F27D
:10075000873008F066F9012141F2873008F0AEF9E0
:1007600008F0FAF9532144F61F6008F055FBA72161
:1007700044F61F6008F0BCFBA72144F61F6008F098
:1007800002FC532144F61F6008F049FC40F2473157
:1007900040F2E73008F0F9F909F0D7F901210846ED
:1007A00008F092FE40F25461B24807F088F94FF425
:1007B000FA61B04807F085F94FF4FA61AE4807F0E6
:1007C0007EF94FF4FA61AC4807F07BF94FF4FA6117
:1007D000A94807F07AF94FF4FA61A74807F073F9CE
:1007E00040F2DC51A94807F06AF94FF4FA61A848D1
:1007F00007F065F94FF4FA6007F0A4FF0020A5495F
:100800008861C86105F097BFF2E04021A24806F078
:10081000E1FAA249086080219F4806F0DBFAA0496E
:1008200008604FF480719C4806F0D4FA9D49086036
:1008300002219D4806F0CEFA9C4908604FF40071F1
:10084000954806F0C7FA9A4908604FF480619248CB
:1008500006F0C0FA9749086002218F4806F0BAFAFC
:100860009549086004218C4806F0B4FA9349086061
:100870000821894806F0AEFA914908608948006865
:1008800090B98648006801280ED185480068012883
:100890000AD19FED8C0B8D4880ED000B9FED8C0BEA
:1008A0008D4880ED000B49E07E48006888B97B48A0
:1008B000006870B97A48006801280AD19FED870B5B
:1008C000824880ED000B9FED870B834880ED000B85
:1008D00034E074480068012811D17048006801288C
:1008E0000DD16F48006850B99FED790B774880EDC6
:1008F000000B9FED740B784880ED000B1EE06948FB
:100900000068012810D16548006868B9644800682B
:1009100050B99FED740B6D4880ED000B9FED6F0B90
:100920006D4880ED000B09E09FED700B674880ED8E
:10093000000B9FED6E0B684880ED000B634890ED57
:10094000000B51EC100B09F0A3F90590514890ED04
:10095000020B8DED020B9DED020B51EC100B09F01B
:1009600097F90490DDED050A9DED040A454808F06D
:100970008FFC594890ED000B51EC100B09F088F9F1
:100980000590444890ED040B8DED020B9DED020B9C
:1009900051EC100B09F07CF90490DDED050A9DED9A
:1009A000040A394808F074FC3748006A019009F0DD
:1009B00033FCCDE904013348006A019009F02CFCB6
:1009C000CDE902019DED041B9DED020B08F075F9C8
:1009D0004FF4FA610220FFF7E4FD2E48C06941F2AE
:1009E0008831884204DD34480068012800D100E0E5
:1009F0000BE700BF002027498861C8611FEDEA0BA3
:100A00003C4880ED000B8AE0224890ED020B8DED12
:100A1000020B9DED020B51EC100B09F039F95FED63
:100A2000EF0A05909DED050A164808F031FC1948BB
:100A300090ED040B8DED020B9DED020B51EC100BB4
:100A400009F026F95FEDF90A05909DED050A0E48BB
:100A500008F01EFC0C48006A019009F0DDFBCDE9AE
:100A600004010848006A019009F0D6FBCDE90201B3
:100A700042E00000001800400008004000409C4593
:100A800010A30008F00000203801002000400140C1
:100A900000480140600200200008024000000020E1
:100AA0000400002008000020000402400C00002088
:100AB0001000002014000020180000201C0000205E
:100AC000200000200000000000001C402800002042
:100AD0000000000000001440300000200000000072
:100AE0000000204000000000000010400000000056
:100AF00000001840C80000209DED041B9DED020B76
:100B000008F0DBF89FEDFB0B53EC102BFB4890ED4E
:100B1000000B51EC100B09F05FFA00D200E073E714
:100B200000BF9FEDF70BF54880ED000B4BE0F6485A
:100B300090ED020B8DED020B9DED020B51EC100BB5
:100B400009F0A6F8DFEDF10A05909DED050AF048E1
:100B500008F09EFBEC4890ED040B8DED020B9DED33
:100B6000020B51EC100B09F093F8DFEDE80A059049
:100B70009DED050AE74808F08BFBE648006A019006
:100B800009F04AFBCDE90401E148006A019009F04F
:100B900043FBCDE902019DED041B9DED020B08F026
:100BA0008CF84FF4FA710220FFF7FBFC9FEDDA0B93
:100BB00053EC102BD14890ED000B51EC100B09F0C9
:100BC0000BFA00D200E0B2E700BF9FEDCD0BCB489F
:100BD00080ED000B4BE0CC4890ED020B8DED020B4D
:100BE0009DED020B51EC100B09F052F8DFEDC70A36
:100BF00005909DED050AC64808F04AFBC24890EDF5
:100C0000040B8DED020B9DED020B51EC100B09F066
:100C10003FF8DFEDBE0A05909DED050ABD4808F0DE
:100C200037FBBC48006A019009F0F6FACDE90401EF
:100C3000B748006A019009F0EFFACDE902019DED95
:100C4000041B9DED020B08F038F84FF4FA710720F1
:100C5000FFF7A7FC9FEDB20B53EC102BA74890EDCC
:100C6000000B51EC100B09F0B7F900D200E0B2E72D
:100C700000BF9FEDA30BA14880ED000B49E0A24807
:100C800090ED020B8DED020B9DED020B51EC100B64
:100C900008F0FEFFDFED9D0A05909DED050A9C48DA
:100CA00008F0F6FA984890ED040B8DED020B9DEDDF
:100CB000020B51EC100B08F0EBFFDFED940A0590EE
:100CC0009DED050A934808F0E3FA9248006A019006
:100CD00009F0A2FACDE904018D48006A019009F0FB
:100CE0009BFACDE902019DED041B9DED020B07F07F
:100CF000E4FF06208C4988609FED8C0B53EC102B91
:100D00007E4890ED000B51EC100B09F065F900D214
:100D100000E0B4E700BF3BE14021864806F05AF806
:100D2000854908608021834806F054F883490860AB
:100D30004FF480717F4806F04DF881490860022128
:100D4000804806F047F8804908604FF40071794800
:100D500006F040F87D4908604FF48061754806F060
:100D600039F87B4908600221724806F033F8794966
:100D7000086004216F4806F02DF8774908600821C3
:100D80006C4806F027F8754908607148006890B90A
:100D90006D48006801280ED16C48006801280AD10E
:100DA0009FED6F0B704880ED000B9FED700B71484D
:100DB00080ED000B49E06648006888B96248006829
:100DC00070B96248006801280AD19FED6B0B664834
:100DD00080ED000B9FED6A0B664880ED000B34E060
:100DE0005B480068012811D15748006801280DD1DF
:100DF0005648006850B99FED5D0B5B4880ED000BD5
:100E00009FED570B5B4880ED000B1EE050480068DB
:100E1000012810D14C48006868B94C48006850B9A6
:100E20009FED570B504880ED000B9FED530B514841
:100E300080ED000B09E09FED540B4B4880ED000B5B
:100E40009FED510B4B4880ED000B474890ED000B98
:100E500051EC100B08F01CFF05902B4890ED020B95
:100E60008DED020B9DED020B51EC100B08F010FF05
:100E70000490DDED050A9DED040A254808F008FA06
:100E80003C4890ED000B51EC100B08F001FF059071
:100E90001D4890ED040B8DED020B9DED020B51EC06
:100EA000100B08F0F5FE0490DDED050A9DED040A37
:100EB000184808F0EDF91748006A019009F0ACF9FC
:100EC000CDE904011248006A019009F0A5F9CDE9C5
:100ED00002019DED041B9DED020B07F0EEFE4FF4A9
:100EE000FA610420FFF75DFB1B48006801284FD121
:100EF0004FE000009A9999999999B93FC80000204C
:100F0000000000000000000060020020000000005F
:100F1000F000002038010020000000000000F03F39
:100F200000000000000000408001002000000000E0
:100F30000000E03F00080240000000200400002004
:100F400008000020000402400C00002010000020D7
:100F500014000020180000201C00002020000020A9
:100F600000000000000012C0280000200000000067
:100F7000000016C03000002000000000000010C07B
:100F800000000000000018C000000000000014C0B5
:100F9000C2E600BF0020FE498861C8611FED280B32
:100FA000FC4880ED000B46E0F94890ED020B8DED1A
:100FB000020B9DED020B51EC100B08F069FE5FED8A
:100FC0002D0A05909DED050AF34808F061F9F048F7
:100FD00090ED040B8DED020B9DED020B51EC100B0F
:100FE00008F056FE5FED370A05909DED050AEB48C7
:100FF00008F04EF9E948006A019009F00DF9CDE9D1
:101000000401E548006A019009F006F9CDE9020102
:101010009DED041B9DED020B07F04FFE1FED3D0BF8
:1010200053EC102BDB4890ED000B51EC100B08F04B
:10103000D3FF00D200E0B7E700BFD9488069059030
:10104000FFF7F2F81FED520BD24880ED000B46E09F
:10105000CF4890ED020B8DED020B9DED020B51EC94
:10106000100B08F015FE5FED570A05909DED050A7F
:10107000C94808F00DF9C64890ED040B8DED020B40
:101080009DED020B51EC100B08F002FE5FED610AC2
:1010900005909DED050AC14808F0FAF8BF48006ABE
:1010A000019009F0B9F8CDE90401BB48006A01904C
:1010B00009F0B2F8CDE902019DED041B9DED020B94
:1010C00007F0FBFD1FED670B53EC102BB14890EDC3
:1010D000000B51EC100B08F07FFF00D200E0B7E7E7
:1010E00000BF2BE14021AF4805F074FEAE49086017
:1010F0008021AC4805F06EFEAC4908604FF4807169
:10110000A84805F067FEAA4908600221A94805F031
:1011100061FEA94908604FF40071A24805F05AFE2B
:10112000A64908604FF480619E4805F053FEA4492B
:10113000086002219B4805F04DFEA2490860042189
:10114000984805F047FEA04908600821954805F039
:1011500041FE9E4908609648006890B99248006830
:1011600001280ED19148006801280AD19FED980B03
:10117000994880ED000B9FED990B9A4880ED000B8C
:1011800049E08B48006888B98748006870B987488B
:10119000006801280AD19FED940B8F4880ED000B69
:1011A0009FED930B8F4880ED000B34E08048006882
:1011B000012811D17C48006801280DD17B480068C6
:1011C00050B99FED860B844880ED000B9FED800B9E
:1011D000844880ED000B1EE075480068012810D19E
:1011E0007148006868B97148006850B99FED800B7C
:1011F000794880ED000B9FED7C0B7A4880ED000B69
:1012000009E09FED7D0B744880ED000B9FED7A0B9C
:10121000744880ED000B704890ED000B51EC100B02
:1012200008F036FD05905A4890ED020B8DED020B4B
:101230009DED020B51EC100B08F02AFD0490DDED42
:10124000050A9DED040A544808F022F8654890ED1F
:10125000000B51EC100B08F01BFD05904C4890ED75
:10126000040B8DED020B9DED020B51EC100B08F001
:101270000FFD0490DDED050A9DED040A474808F0D6
:1012800007F84648006A019008F0C6FFCDE904015E
:101290004148006A019008F0BFFFCDE902019DEDD1
:1012A000041B9DED020B07F008FD4FF4FA610420CA
:1012B000FFF777F94348006801283FD107F042FA69
:1012C0004021384805F086FD3749086080213548BF
:1012D00005F080FD354908604FF48071314805F014
:1012E00079FD334908600221324805F073FD324927
:1012F00008604FF400712B4805F06CFD2F49086021
:101300004FF48061274805F065FD2D4908600221F2
:10131000244805F05FFD2B4908600421214805F0B1
:1013200059FD2949086008211E4805F053FD274949
:10133000086024480068012800D100E0D2E600BF20
:10134000002013498861C8619FED2D0B114880ED85
:10135000000B86E00E4890ED020B8DED020B9DED2B
:10136000020B51EC100B08F093FCDFED270A0590FF
:101370009DED050A084807F08BFF054890ED040B2A
:101380008DED020B9DED020B51EC100B3EE00000C9
:1013900060020020C8000020F0000020380100207A
:1013A0007800002000080240000000200400002017
:1013B00008000020000402400C0000201000002063
:1013C00014000020180000201C0000202000002035
:1013D0000000000000001C40280000200000000069
:1013E00000001440300000200000000000002040F9
:1013F0000000000000001040000000000000184045
:1014000000000000000000000000000008F040FCA8
:101410005FED030A05909DED050AFE4807F038FFD1
:10142000FC48006A019008F0F7FECDE90401FA4893
:10143000006A019008F0F0FECDE902019DED041B69
:101440009DED020B07F039FC9FEDF40B53EC102BD4
:10145000F44890ED000B51EC100B08F0BDFD00D2EC
:1014600000E077E700BF1FED1A0BEE4880ED000BA0
:101470004BE0ED4890ED020B8DED020B9DED020B64
:1014800051EC100B08F004FC5FED210A05909DED76
:10149000050AE14807F0FCFEE34890ED040B8DEDF2
:1014A000020B9DED020B51EC100B08F0F1FB5FED10
:1014B0002A0A05909DED050AD64807F0E9FED548B1
:1014C000006A019008F0A8FECDE90401D248006A44
:1014D000019008F0A1FECDE902019DED041B9DEDF8
:1014E000020B07F0EAFB4FF4FA710420FFF759F8FA
:1014F0009FEDCE0B53EC102BCA4890ED000B51EC36
:10150000100B08F069FD00D200E0B2E700BF1FED4C
:10151000440BC44880ED000B4BE0C34890ED020B38
:101520008DED020B9DED020B51EC100B08F0B0FBA2
:101530005FED4B0A05909DED050AB74807F0A8FE40
:10154000B94890ED040B8DED020B9DED020B51ECB3
:10155000100B08F09DFB5FED540A05909DED050A08
:10156000AC4807F095FEAB48006A019008F054FEC5
:10157000CDE90401A848006A019008F04DFECDE9CC
:1015800002019DED041B9DED020B07F096FB4FF44D
:10159000FA710920FFF705F89FEDA60B53EC102B0D
:1015A000A04890ED000B51EC100B08F015FD00D297
:1015B00000E0B2E700BF1FED6E0B9A4880ED000B14
:1015C0000FE005209D4908619FED9D0B53EC102B0A
:1015D000944890ED000B51EC100B08F0FDFC00D28C
:1015E00000E0EEE700BF75E14021974805F0F2FB0F
:1015F000964908608021944805F0ECFB9449086006
:101600004FF48071904805F0E5FB92490860022193
:10161000914805F0DFFB914908604FF400718A485A
:1016200005F0D8FB8E4908604FF48061864805F0CC
:10163000D1FB8C4908600221834805F0CBFB8A4925
:1016400008600421804805F0C5FB8849086008212E
:101650007D4805F0BFFB864908608248006890B964
:101660007E48006801280ED17D48006801280AD113
:101670009FED800B814880ED000B9FED810B824830
:1016800080ED000B49E07748006888B9734800682E
:1016900070B97348006801280AD19FED7C0B774828
:1016A00080ED000B9FED7B0B774880ED000B34E065
:1016B0006C480068012811D16848006801280DD1E4
:1016C0006748006850B99FED6E0B6C4880ED000BC9
:1016D0009FED680B6C4880ED000B1EE061480068D0
:1016E000012810D15D48006868B95D48006850B9AC
:1016F0009FED680B614880ED000B9FED640B624825
:1017000080ED000B09E09FED650B5C4880ED000B60
:101710009FED620B5C4880ED000B584890ED000B8C
:1017200051EC100B08F0B4FA05903F4890ED020B15
:101730008DED020B9DED020B51EC100B08F0A8FA99
:101740000490DDED050A9DED040A334807F0A0FD85
:101750004D4890ED000B51EC100B08F099FA0590F4
:10176000314890ED040B8DED020B9DED020B51EC19
:10177000100B08F08DFA0490DDED050A9DED040ACA
:10178000244807F085FD2348006A019008F044FDD5
:10179000CDE904012048006A019008F03DFDCDE943
:1017A00002019DED041B9DED020B07F086FA4FF43C
:1017B000FA610020FEF7F5FE2C480068012871D17F
:1017C00006F0C0FF4021204805F004FB1F490860D7
:1017D00080211D4805F0FEFA1D4908604FF4807114
:1017E000194805F0F7FA1B49086002211A4805F06C
:1017F000F1FA1A4908604FF40071134805F0EAFA4B
:10180000174908604FF480610F4805F0E3FA154965
:10181000086048E038010020F00000209A9999996A
:101820009999B93FC8000020600200200000000024
:101830000000F03F00000000000000408001002098
:10184000000000000000E03F00080240000000200F
:101850000400002008000020000402400C000020CA
:101860001000002014000020180000201C000020A0
:101870002000002000000000000012C0280000200E
:1018800000000000000016C0300000200000000032
:10189000000010C000000000000018C000000000A0
:1018A000000014C016E00221FB4805F093FAFB4942
:1018B00008600421F84805F08DFAF949086008210C
:1018C000F54805F087FAF7490860F54800680128EF
:1018D00000D100E088E600BF0020F3498861C861BC
:1018E0009FEDF20BF34880ED000B46E0EE4890EDE3
:1018F000020B8DED020B9DED020B51EC100B08F06D
:10190000C7F9DFEDED0A05909DED050AEB4807F0FC
:10191000BFFCE54890ED040B8DED020B9DED020B35
:1019200051EC100B08F0B4F9DFEDE30A05909DEDE2
:10193000050AE34807F0ACFCE148006A019008F0B2
:101940006BFCCDE90401DD48006A019008F064FCFD
:10195000CDE902019DED041B9DED020B07F0ADF9F1
:101960001FED490B53EC102BD24890ED000B51ECBE
:10197000100B08F031FB00D200E0B7E700BFD14800
:1019800080680590FEF750FC9FEDC80BC94880EDBC
:10199000000B46E0C44890ED020B8DED020B9DED6F
:1019A000020B51EC100B08F073F9DFEDC30A059040
:1019B0009DED050AC14807F06BFCBB4890ED040B98
:1019C0008DED020B9DED020B51EC100B08F060F950
:1019D000DFEDB90A05909DED050AB94807F058FCFE
:1019E000B748006A019008F017FCCDE90401B3483C
:1019F000006A019008F010FCCDE902019DED041B86
:101A00009DED020B07F059F91FED730B53EC102BF2
:101A1000A84890ED000B51EC100B08F0DDFA00D255
:101A200000E0B7E700BF2BE140219B4805F0D2F969
:101A3000A54908608021984805F0CCF9A3490860C1
:101A40004FF48071944805F0C5F9A149086002215E
:101A5000A04805F0BFF9A04908604FF400718E4816
:101A600005F0B8F99D4908604FF480618A4805F097
:101A7000B1F99B4908600221874805F0ABF9874915
:101A800008600421844805F0A5F98549086008210B
:101A9000814805F09FF9834908608D48006890B936
:101AA0008948006801280ED18848006801280AD1B9
:101AB0009FED8C0B8D4880ED000B9FED8D0B8E48BC
:101AC00080ED000B49E08248006888B97E480068D4
:101AD00070B97E48006801280AD19FED880B8348C1
:101AE00080ED000B9FED870B834880ED000B34E009
:101AF00077480068012811D17348006801280DD18A
:101B00007248006850B99FED7A0B784880ED000B61
:101B10009FED740B784880ED000B1EE06C48006868
:101B2000012810D16848006868B96848006850B951
:101B30009FED740B6D4880ED000B9FED700B6E48B0
:101B400080ED000B09E09FED710B684880ED000B04
:101B50009FED6E0B684880ED000B644890ED000B24
:101B600051EC100B08F094F805904F4890ED020BE3
:101B70008DED020B9DED020B51EC100B08F088F877
:101B80000490DDED050A9DED040A4C4807F080FB4A
:101B9000594890ED000B51EC100B08F079F80590C6
:101BA000414890ED040B8DED020B9DED020B51ECC5
:101BB000100B08F06DF80490DDED050A9DED040AA8
:101BC0003F4807F065FB3E48006A019008F024FB9F
:101BD000CDE904013948006A019008F01DFBCDE908
:101BE00002019DED041B9DED020B07F066F84FF41A
:101BF000FA610020FEF7D5FC2848006801283FD193
:101C000006F0A0FD4021244805F0E4F82E490860C4
:101C10008021214805F0DEF82C4908604FF48071DE
:101C20001D4805F0D7F82A4908600221294805F027
:101C3000D1F8294908604FF40071174805F0CAF837
:101C4000264908604FF48061134805F0C3F8244921
:101C500008600221104805F0BDF810490860042111
:101C60000D4805F0B7F80E49086008210A4805F04C
:101C7000B1F80C49086009480068012800D100E06B
:101C8000D2E600BF002008498861C8619FED070BBC
:101C9000084880ED000B84E0000802401800002096
:101CA0001C00002020000020600200200000000036
:101CB00000000000C800002000000000F00000202C
:101CC00038010020780000200000002004000020DF
:101CD00008000020000402400C000020100000203A
:101CE000140000200000000000001C40280000201C
:101CF0000000000000001440300000200000000040
:101D00000000204000000000000010400000000023
:101D100000001840FE4890ED020B8DED020B9DED8A
:101D2000020B51EC100B07F0B3FF5FED1D0A05909D
:101D30009DED050AF74807F0ABFAF54890ED040B66
:101D40008DED020B9DED020B51EC100B07F0A0FF87
:101D50005FED270A05909DED050AEF4807F098FA18
:101D6000ED48006A019008F057FACDE90401E9480E
:101D7000006A019008F050FACDE902019DED041BC4
:101D80009DED020B06F099FF9FEDE40B53EC102B39
:101D9000E44890ED000B51EC100B08F01DF900D257
:101DA00000E0B7E700BF1FED3F0BDE4880ED000B02
:101DB0004BE0D74890ED020B8DED020B9DED020B31
:101DC00051EC100B07F064FF5FED450A05909DEDA7
:101DD000050AD04807F05CFACD4890ED040B8DED74
:101DE000020B9DED020B51EC100B07F051FF5FED64
:101DF0004E0A05909DED050AC74807F049FAC64806
:101E0000006A019008F008FACDE90401C148006AAF
:101E1000019008F001FACDE902019DED041B9DED52
:101E2000020B06F04AFF4FF4FA710020FEF7B9FBEF
:101E30009FEDBD0B53EC102BBA4890ED000B51EC0D
:101E4000100B08F0C9F800D200E0B2E700BF1FEDA8
:101E5000690BB44880ED000B4BE0AD4890ED020BF0
:101E60008DED020B9DED020B51EC100B07F010FFF6
:101E70005FED6F0A05909DED050AA64807F008FA88
:101E8000A34890ED040B8DED020B9DED020B51EC80
:101E9000100B07F0FDFE5FED780A05909DED050A39
:101EA0009D4807F0F5F99C48006A019008F0B4F9E4
:101EB000CDE904019748006A019008F0ADF9CDE939
:101EC00002019DED041B9DED020B06F0F6FE4FF4A2
:101ED000FA710520FEF765FB9FED950B53EC102B77
:101EE000904890ED000B51EC100B08F075F800D203
:101EF00000E0B2E700BF1FED930B8A4880ED000BB6
:101F00000FE004208C4908609FED8C0B53EC102BE4
:101F1000844890ED000B51EC100B08F05DF800D2F6
:101F200000E0EEE700BF71E14021864804F052FF77
:101F3000854908608021834804F04CFF834908608C
:101F40004FF480717F4804F045FF81490860022109
:101F5000804804F03FFF804908604FF400717948E1
:101F600004F038FF7D4908604FF48061754804F043
:101F700031FF7B4908600221724804F02BFF794948
:101F8000086004216F4804F025FF774908600821A4
:101F90006C4804F01FFF754908607148006890B9EB
:101FA0006D48006801280ED16C48006801280AD1EC
:101FB0009FED6F0B704880ED000B9FED700B71482B
:101FC00080ED000B49E06648006888B96248006807
:101FD00070B96248006801280AD19FED6B0B664812
:101FE00080ED000B9FED6A0B664880ED000B34E03E
:101FF0005B480068012811D15748006801280DD1BD
:102000005648006850B99FED5D0B5B4880ED000BB2
:102010009FED570B5B4880ED000B1EE050480068B9
:10202000012810D14C48006868B94C48006850B984
:102030009FED570B504880ED000B9FED530B51481F
:1020400080ED000B09E09FED540B4B4880ED000B39
:102050009FED510B4B4880ED000B474890ED000B76
:1020600051EC100B07F014FE0590294890ED020B7F
:102070008DED020B9DED020B51EC100B07F008FEED
:102080000490DDED050A9DED040A224807F000F9F1
:102090003C4890ED000B51EC100B07F0F9FD05905A
:1020A0001B4890ED040B8DED020B9DED020B51ECE6
:1020B000100B07F0EDFD0490DDED050A9DED040A1F
:1020C000154807F0E5F81448006A019008F0A4F8F4
:1020D000CDE904010F48006A019008F09DF8CDE9B0
:1020E00002019DED041B9DED020B06F0E6FD1E486E
:1020F000006801287ED106F025FB4021114804F03C
:1021000069FE1149086080210E4804F063FE47E033
:1021100060020020F0000020380100209A9999996F
:102120009999B93FC8000020000000000000F03F6E
:1021300000000000000000408001002000000000BE
:102140000000E03F000802400000002004000020E2
:1021500008000020000402400C00002010000020B5
:1021600014000020180000201C0000202000002087
:1021700000000000000012C0280000200000000045
:10218000000016C03000002000000000000010C059
:1021900000000000000018C000000000000014C093
:1021A000F84908604FF48071F74804F013FEF749CE
:1021B00008600221F64804F00DFEF64908604FF46D
:1021C0000071F14804F006FEF34908604FF48061A5
:1021D000ED4804F0FFFDF14908600221EA4804F0EF
:1021E000F9FDEF4908600421E74804F0F3FDED49EB
:1021F000086000E00AE00821E34804F0EBFDEA494A
:102200000860E8480068012800D100E08CE600BFC3
:102210000020E6498861C8619FEDE50BE64880ED46
:10222000000B46E0E14890ED020B8DED020B9DEDB9
:10223000020B51EC100B07F02BFDDFEDE00A0590CF
:102240009DED050ADE4807F023F8D84890ED040B11
:102250008DED020B9DED020B51EC100B07F018FDFC
:10226000DFEDD60A05909DED050AD64807F010F877
:10227000D448006A019007F0CFFFCDE90401D048AF
:10228000006A019007F0C8FFCDE902019DED041B33
:102290009DED020B06F011FD1FED580B53EC102BBA
:1022A000C54890ED000B51EC100B07F095FE00D2E5
:1022B00000E0B7E700BF0020C349086049E3C34816
:1022C000C149096850F82100C14951F82000C149AD
:1022D00051F820000590FDF7A7FF9FEDB50BB6481C
:1022E00080ED000BF3E04021A74804F073FDBA49EC
:1022F00008608021A44804F06DFDA24908604FF4F5
:102300008071A14804F066FDA04908600221A04840
:1023100004F060FD9F4908604FF400719A4804F092
:1023200059FD9D4908604FF48061974804F052FDC3
:102330009A4908600221944804F04CFD98490860CD
:102340000421914804F046FD9649086008218E4812
:1023500004F040FD944908608C48006890B99E489C
:10236000006801280ED18748006801280AD19FED36
:102370009B0B9C4880ED000B9FED9B0B9C4880EDD8
:10238000000B49E08148006888B99348006870B93B
:102390007C48006801280AD19FED960B914880ED9A
:1023A000000B9FED960B924880ED000B34E07748D0
:1023B0000068012811D18848006801280DD17148B2
:1023C000006850B99FED880B864880ED000B9FEDAB
:1023D000830B874880ED000B1EE06C4800680128E5
:1023E00010D17D48006868B96648006850B99FED13
:1023F000830B7C4880ED000B9FED7E0B7C4880EDCD
:10240000000B09E09FED7F0B764880ED000B9FED00
:102410007D0B774880ED000B724890ED000B51EC7E
:10242000100B07F035FC0590604890ED020B8DED28
:10243000020B9DED020B51EC100B07F029FC0490F0
:10244000DDED050A9DED040A5D4806F021FF6848B0
:1024500090ED000B51EC100B07F01AFC059053485F
:1024600090ED040B8DED020B9DED020B51EC100B6A
:1024700007F00EFC0490DDED050A9DED040A5148BD
:1024800006F006FF4F48006A019007F0C5FECDE94F
:1024900004014B48006A019007F0BEFECDE902013D
:1024A0009DED041B9DED020B06F007FC47484649D5
:1024B000096850F821004FF4FA710590FEF771F8A1
:1024C0003A48C06940F6B831884200DD00E00AE7CA
:1024D00000BF002035498861C8619FED350B364843
:1024E00080ED000B46E0314890ED020B8DED020BC4
:1024F0009DED020B51EC100B07F0CAFBDFED2F0A2C
:1025000005909DED050A2E4806F0C2FE274890ED85
:10251000040B8DED020B9DED020B51EC100B07F03F
:10252000B7FBDFED260A05909DED050A254806F06C
:10253000AFFE2448006A019007F06EFECDE9040169
:102540001F48006A019007F067FECDE902019DED8A
:10255000041B9DED020B06F0B0FB9FED2C0B53EC22
:10256000102B154890ED000B51EC100B07F034FDCB
:1025700000D200E0B7E700BF9FED0D0B0E4880EDE5
:10258000000B98E004000020000802400800002032
:10259000000402400C000020100000201400002065
:1025A000180000201C0000202000002060020020F5
:1025B0000000000000000000C80000200000000033
:1025C000F0000020380100203800002044000020E6
:1025D00080010020780000200000002000000000A2
:1025E00000001C40280000200000000000001440F3
:1025F000300000200000000000002040000000002B
:102600000000104000000000000018409A999999BD
:102610009999C93FFA48FB49096850F821004FF4DD
:10262000FA610590FDF7BDFFF74890ED020B8DEDC7
:10263000020B9DED020B51EC100B07F029FB5FED37
:10264000210A05909DED050AF04806F021FEEE48AE
:1026500090ED040B8DED020B9DED020B51EC100B78
:1026600007F016FB5FED2B0A05909DED050AE84883
:1026700006F00EFEE648006A019007F0CDFDCDE9B8
:102680000401E248006A019007F0C6FDCDE90201AD
:102690009DED041B9DED020B06F00FFB9FEDDD0B86
:1026A00053EC102BDD4890ED000B51EC100B07F0B4
:1026B00093FC00D200E0ADE700BF0020D249886162
:1026C000C861ECE04021D64804F084FBD54908609D
:1026D0008021D34804F07EFBD34908604FF4807119
:1026E000CF4804F077FBD14908600221D04804F0BC
:1026F00071FBD04908604FF40071C94804F06AFBCF
:10270000CD4908604FF48061C54804F063FBCB49B4
:1027100008600221C24804F05DFBC9490860042139
:10272000BF4804F057FBC74908600821BC4804F0C3
:1027300051FBC5490860C148006890B9BD480068B0
:1027400001280ED1BC48006801280AD19FEDBF0BBB
:10275000C04880ED000B9FEDC00BC14880ED000B21
:1027600049E0B648006888B9B248006870B9B24814
:10277000006801280AD19FEDBB0BB64880ED000B25
:102780009FEDBA0BB64880ED000B34E0AB48006813
:10279000012811D1A748006801280DD1A64800687A
:1027A00050B99FEDAD0BAB4880ED000B9FEDA70B33
:1027B000AB4880ED000B1EE0A0480068012810D156
:1027C0009C48006868B99C48006850B99FEDA70B09
:1027D000A04880ED000B9FEDA30BA14880ED000BFE
:1027E00009E09FEDA40B9B4880ED000B9FEDA10B32
:1027F0009B4880ED000B974890ED000B51EC100BBF
:1028000007F046FA0590804890ED020B8DED020B23
:102810009DED020B51EC100B07F03AFA0490DDED40
:10282000050A9DED040A794806F032FD8C4890EDCA
:10283000000B51EC100B07F02BFA0590724890ED4D
:10284000040B8DED020B9DED020B51EC100B07F00C
:102850001FFA0490DDED050A9DED040A6C4806F0B0
:1028600017FD6B48006A019007F0D6FCCDE9040122
:102870006648006A019007F0CFFCCDE902019DEDAA
:10288000041B9DED020B06F018FA5F48C0697B49F6
:10289000884204DA6B480068012800D100E011E7A3
:1028A00000BF1FEDBD0B5D4880ED000B46E05648B4
:1028B00090ED020B8DED020B9DED020B51EC100B18
:1028C00007F0E6F95FEDC30A05909DED050A4F4854
:1028D00006F0DEFC4C4890ED040B8DED020B9DEDF7
:1028E000020B51EC100B07F0D3F95FEDCC0A059009
:1028F0009DED050A464806F0CBFC4548006A01906C
:1029000007F08AFCCDE904014048006A019007F015
:1029100083FCCDE902019DED041B9DED020B06F049
:10292000CCF91FEDC60B53EC102B3C4890ED000B7F
:1029300051EC100B07F050FB00D200E0B7E700BFEE
:10294000002031498861C8612E480068401C2D492B
:1029500008602C4800680328FFF6B1AC484840687E
:102960000590FDF761FC1FEDEE0B2C4880ED000B90
:102970008EE0254890ED020B8DED020B9DED020BD4
:1029800051EC100B07F084F95FEDF40A05909DED12
:10299000050A1E4806F07CFC1B4890ED040B8DEDEB
:1029A000020B9DED020B51EC100B07F071F9DFEDFE
:1029B000350A05909DED050A154806F069FC144896
:1029C000006A019007F028FCCDE904010F48006A75
:1029D000019007F021FCCDE902019DED041B9DED66
:1029E000020B06F06AF99FED280B53EC102B0B48F5
:1029F00090ED000B51EC100B07F0EEFA48D248E0D6
:102A0000440000203800002060020020F000002078
:102A100038010020000000000000F03FC800002046
:102A200000080240000000200400002008000020F0
:102A3000000402400C0000201000002014000020C0
:102A4000180000201C0000202000002000000000D2
:102A5000000012C02800002000000000000016C086
:102A60003000002000000000000010C00000000046
:102A7000000018C000000000000014C048F4FFFF70
:102A80007800002000000000000000000000E03F8F
:102A90006FE700BFF1E04FF4FA610320FDF781FD1D
:102AA0004021FB4804F096F9FA4908608021F84873
:102AB00004F090F9F84908604FF48071F44804F08C
:102AC00089F9F64908600221F54804F083F9F549CF
:102AD00008604FF40071EE4804F07CF9F249086098
:102AE0004FF48061EA4804F075F9F049086002216A
:102AF000E74804F06FF9EE4908600421E44804F067
:102B000069F9EC4908600821E14804F063F9EA49F1
:102B10000860E248006890B9DE48006801280ED1DC
:102B2000DD48006801280AD19FEDE40BE54880EDFF
:102B3000000B9FEDE50BE64880ED000B49E0D74820
:102B4000006888B9D348006870B9D3480068012884
:102B50000AD19FEDE00BDB4880ED000B9FEDDF0B12
:102B6000DB4880ED000B34E0CC480068012811D12F
:102B7000C848006801280DD1C748006850B99FEDCA
:102B8000D20BD04880ED000B9FEDCC0BD04880EDF0
:102B9000000B1EE0C1480068012810D1BD48006844
:102BA00068B9BD48006850B99FEDCC0BC54880EDB1
:102BB000000B9FEDC80BC64880ED000B09E09FEDB0
:102BC000C90BC04880ED000B9FEDC60BC04880EDDF
:102BD000000BBC4890ED000B51EC100B07F058F8BF
:102BE0000590C24890ED020B8DED020B9DED020B9E
:102BF00051EC100B07F04CF80490DDED050A9DED4B
:102C0000040ABB4806F044FBB14890ED000B51ECC0
:102C1000100B07F03DF80590B44890ED040B8DEDD6
:102C2000020B9DED020B51EC100B07F031F80490F4
:102C3000DDED050A9DED040AAE4806F029FBAD481E
:102C4000006A019007F0E8FACDE90401A848006A9B
:102C5000019007F0E1FACDE902019DED041B9DED25
:102C6000020B06F02AF8A148C069B0F5FA6F04DD3E
:102C70008F480068012800D100E00CE700BF002069
:102C80009A498861C86143E14021814804F0A2F873
:102C90008049086080217E4804F09CF87E490860E5
:102CA0004FF480717A4804F095F87C49086002215D
:102CB0007B4804F08FF87B4908604FF4007174483A
:102CC00004F088F8784908604FF48061704804F097
:102CD00081F87649086002216D4804F07BF8744958
:102CE000086004216A4804F075F8724908600821F8
:102CF000674804F06FF8704908606848006890B948
:102D00006448006801280ED16348006801280AD190
:102D10009FED720B6B4880ED000B9FED770B6C48BD
:102D200080ED000B49E05D48006888B959480068AB
:102D300070B95948006801280AD19FED630B6148BA
:102D400080ED000B1FEDCD0B614880ED000B34E0F2
:102D500052480068012811D14E48006801280DD161
:102D60004D48006850B99FED640B564880ED000B4C
:102D70009FED5A0B564880ED000B1EE04748006857
:102D8000012810D14348006868B94348006850B929
:102D90001FEDE00B4B4880ED000B9FED4B0B4C48BB
:102DA00080ED000B09E09FED560B464880ED000BCF
:102DB0009FED530B464880ED000B424890ED000B11
:102DC00051EC100B06F064FF0590484890ED020BA3
:102DD0008DED020B9DED020B51EC100B06F058FF30
:102DE0000490DDED050A9DED040A414806F050FA15
:102DF000374890ED000B51EC100B06F049FF0590A1
:102E00003A4890ED040B8DED020B9DED020B51EC59
:102E1000100B06F03DFF0490DDED050A9DED040A60
:102E2000344806F035FA3348006A019007F0F4F9A7
:102E3000CDE904012E48006A019007F0EDF9CDE9D3
:102E400002019DED041B9DED020B05F036FF4FF4D2
:102E5000FA612D4804F035FE4FF4FA612B4804F076
:102E60002EFE4FF4FA61294804F02BFE4FF4FA616C
:102E7000264804F02AFE4FF4FA61244804F023FEA9
:102E80001A48C06940F26A41884241DD41E00000D1
:102E9000000802400000002004000020080000207C
:102EA000000402400C00002010000020140000204C
:102EB000180000201C00002020000020000000005E
:102EC00000001C402800002000000000000014400A
:102ED0003000002000000000000020400000000042
:102EE00000001040000000000000184060020020B8
:102EF000F000002038010020000000000000004029
:102F000000000000000008400018004000080040D9
:102F1000BAE600BF4FF4FA71FE4804F0D2FD4FF458
:102F2000FA71FD4804F0CBFD4FF4FA71FA4804F051
:102F3000C8FD4FF4FA71F84804F0C7FD4FF4FA7178
:102F4000F54804F0C0FD9FEDF50BF64880ED000B51
:102F500046E0F54890ED020B8DED020B9DED020B66
:102F600051EC100B06F094FEDFEDF00A05909DED9C
:102F7000050AEF4806F08CF9EB4890ED040B8DED57
:102F8000020B9DED020B51EC100B06F081FEDFED04
:102F9000E70A05909DED050AE64806F079F9E5484F
:102FA000006A019007F038F9CDE90401E048006AB1
:102FB000019007F031F9CDE902019DED041B9DED73
:102FC000020B05F07AFE9FEDDC0B53EC102BD5487D
:102FD00090ED000B51EC100B06F0FEFF00D200E06C
:102FE000B7E700BF9FEDCD0BCE4880ED000B4BE067
:102FF000CD4890ED020B8DED020B9DED020B51ECD7
:10300000100B06F045FEDFEDC90A05909DED050A9F
:10301000C74806F03DF9C44890ED040B8DED020B56
:103020009DED020B51EC100B06F032FEDFEDBF0AF6
:1030300005909DED050ABF4806F02AF9BD48006AD3
:10304000019007F0E9F8CDE90401B948006A019060
:1030500007F0E2F8CDE902019DED041B9DED020BA6
:1030600005F02BFE4FF4FA710620FDF79AFA1FEDDA
:103070005E0B53EC102BAB4890ED000B51EC100B9A
:1030800006F0AAFF00D200E0B2E700BF9FEDA30B5D
:10309000A44880ED000B49E0A34890ED020B8DEDB4
:1030A000020B9DED020B51EC100B06F0F1FDDFED74
:1030B0009F0A05909DED050A9D4806F0E9F89A489B
:1030C00090ED040B8DED020B9DED020B51EC100BFE
:1030D00006F0DEFDDFED950A05909DED050A9548A9
:1030E00006F0D6F89348006A019007F095F8CDE90C
:1030F00004018F48006A019007F08EF8CDE90201C3
:103100009DED041B9DED020B05F0D7FD02208C49BF
:1031100048609FED8C0B53EC102B824890ED000B18
:1031200051EC100B06F058FF00D200E0B4E700BFEE
:1031300000207D498861C86138E14021834803F05F
:1031400049FE834908608021804803F043FE81499D
:1031500008604FF480717D4803F03CFE7E490860B2
:1031600002217E4803F036FE7D4908604FF400716D
:10317000764803F02FFE7B4908604FF48061734866
:1031800003F028FE784908600221704803F022FE0F
:103190007649086004216D4803F01CFE74490860FC
:1031A00008216A4803F016FE724908606E480068FC
:1031B00090B96B48006801280ED16A480068012860
:1031C0000AD19FED6D0B6E4880ED000B9FED6D0BEE
:1031D0006E4880ED000B49E06348006888B960489C
:1031E000006870B95F48006801280AD19FED680B3C
:1031F000634880ED000B9FED680B644880ED000B89
:1032000034E059480068012811D155480068012868
:103210000DD15448006850B99FED5A0B584880EDC5
:10322000000B9FED550B594880ED000B1EE04E48FA
:103230000068012810D14A48006868B94948006808
:1032400050B99FED550B4E4880ED000B9FED500B94
:103250004E4880ED000B09E09FED510B484880ED92
:10326000000B9FED4F0B494880ED000B444890ED5B
:10327000000B51EC100B06F00BFD05902A4890ED69
:10328000020B8DED020B9DED020B51EC100B06F0C5
:10329000FFFC0490DDED050A9DED040A244805F0CD
:1032A000F7FF3A4890ED000B51EC100B06F0F0FCE4
:1032B00005901D4890ED040B8DED020B9DED020B6A
:1032C00051EC100B06F0E4FC0490DDED050A9DEDD9
:1032D000040A184805F0DCFF1648006A019006F061
:1032E0009BFFCDE904011248006A019006F094FFAB
:1032F000CDE902019DED041B9DED020B05F0DDFC07
:103300000948C0692849884250DA194800680128EC
:103310004CD14CE0001800400008004000000000C4
:1033200000000000C8000020600200200000000033
:10333000F000002038010020000000000000F03FF5
:1033400080010020000000000000E03F0008024073
:1033500000000020040000200800002000040240BB
:103360000C00002010000020140000201800002095
:103370001C0000202000002000000000000012C0FF
:103380002800002000000000000016C030000020CF
:1033900000000000000010C000000000000018C085
:1033A00000000000000014C048F4FFFFC5E600BFA5
:1033B000FE484068C0F11400FC498968401AFB4986
:1033C0000969401AF9490968401AF849C86000209B
:1033D000F7490860F749086053E30020F64988611F
:1033E000C861F648F249096850F82100EF4951F8E0
:1033F0002000F34951F820000590FCF715FF1FED60
:10340000390BF04880ED000BF2E04021EE4803F06C
:10341000E1FCEE4908608021EB4803F0DBFCEC495D
:1034200008604FF48071E84803F0D4FCE949086073
:103430000221E94803F0CEFCE84908604FF400712E
:10344000E14803F0C7FCE64908604FF48061DE48BC
:1034500003F0C0FCE34908600221DB4803F0BAFC3A
:10346000E14908600421D84803F0B4FCDF49086052
:103470000821D54803F0AEFCDD490860D548006856
:1034800090B9D248006801280ED1D14800680128BF
:103490000AD19FEDD80BD94880ED000B9FEDD80BDA
:1034A000D94880ED000B49E0CA48006888B9C74890
:1034B000006870B9C648006801280AD19FEDD30B97
:1034C000CE4880ED000B9FEDD30BCF4880ED000B75
:1034D00034E0C0480068012811D1BC4800680128C8
:1034E0000DD1BB48006850B99FEDC50BC34880EDB6
:1034F000000B9FEDC00BC44880ED000B1EE0B548EB
:103500000068012810D1B148006868B9B048006867
:1035100050B99FEDC00BB94880ED000B9FEDBB0B80
:10352000B94880ED000B09E09FEDBC0BB34880ED7E
:10353000000B9FEDBA0BB44880ED000BAF4890ED47
:10354000000B51EC100B06F0A3FB05909A4890ED90
:10355000020B8DED020B9DED020B51EC100B06F0F2
:1035600097FB0490DDED050A9DED040AAD4805F0DA
:103570008FFEA54890ED000B51EC100B06F088FB78
:1035800005908D4890ED040B8DED020B9DED020B27
:1035900051EC100B06F07CFB0490DDED050A9DED6F
:1035A000040AA14805F074FE9F48006A019006F0E5
:1035B00033FECDE904019B48006A019006F02CFE21
:1035C000CDE902019DED041B9DED020B05F075FB9D
:1035D0007A487749096850F821004FF4FA7105904C
:1035E000FCF7DFFF7448C069B0F5FA6F00DD00E05A
:1035F0000BE700BF002070498861C8611FEDB90B5F
:10360000704880ED000B46E06B4890ED020B8DEDAD
:10361000020B9DED020B51EC100B06F039FB5FED38
:10362000BD0A05909DED050A7E4805F031FE624811
:1036300090ED040B8DED020B9DED020B51EC100B88
:1036400006F026FB5FEDC70A05909DED050A76485A
:1036500005F01EFE7448006A019006F0DDFDCDE91C
:1036600004017048006A019006F0D6FDCDE9020120
:103670009DED041B9DED020B05F01FFB9FED6B0BF9
:1036800053EC102B4F4890ED000B51EC100B06F053
:10369000A3FC00D200E0B7E700BF1FEDE00B4948F4
:1036A00080ED000B50E045484149096850F8210081
:1036B0004FF4FA610590FCF774FF3F4890ED020B60
:1036C0008DED020B9DED020B51EC100B06F0E0FAB4
:1036D0005FEDEA0A05909DED050A524805F0D8FD18
:1036E000354890ED040B8DED020B9DED020B51EC76
:1036F000100B06F0CDFA5FEDF30A05909DED050A7B
:10370000494805F0C5FD4848006A019006F084FD6F
:10371000CDE904014348006A019006F07DFDCDE942
:1037200002019DED041B9DED020B05F0C6FA9FED15
:10373000410B53EC102B234890ED000B51EC100B78
:1037400006F04AFC00D200E0ADE700BF00201A49B5
:103750008861C86136E140211B4803F03BFB1B49EF
:1037600008608021184803F035FB194908604FF4C0
:103770008071154803F02EFB164908600221164897
:1037800003F028FB154908604FF400710E4803F060
:1037900021FB134908604FF480610B4803F01AFBCA
:1037A000104908600221084848E00000800100201C
:1037B000380000203C000020600200205000002063
:1037C00078000020C800002000080240000000200F
:1037D0000400002008000020000402400C0000202B
:1037E0001000002014000020180000201C00002001
:1037F000200000200000000000001C4028000020E5
:103800000000000000001440300000200000000014
:1038100000002040000000000000104000000000F8
:1038200000001840F0000020380100209A99999972
:103830009999C93F000000000000F03F03F0CAFA68
:10384000FD4908600421FD4803F0C4FAFC49086002
:103850000821FA4803F0BEFAFA490860FA480068FD
:1038600090B9FA48006801280ED1F948006801288B
:103870000AD19FEDF80BF94880ED000B9FEDF80B96
:10388000F94880ED000B49E0EF48006888B9EF483F
:10389000006870B9EE48006801280AD19FEDF30B6B
:1038A000EE4880ED000B9FEDF30BEF4880ED000B31
:1038B00034E0E5480068012811D1E4480068012897
:1038C0000DD1E348006850B99FEDE50BE34880ED6A
:1038D000000B9FEDE00BE44880ED000B1EE0DA48A2
:1038E0000068012810D1D948006868B9D848006834
:1038F00050B99FEDE00BD94880ED000B9FEDDB0B3D
:10390000D94880ED000B09E09FEDDC0BD34880ED3A
:10391000000B9FEDDA0BD44880ED000BCF4890ED03
:10392000000B51EC100B06F0B3F90590D54890ED63
:10393000020B8DED020B9DED020B51EC100B06F00E
:10394000A7F90490DDED050A9DED040ACE4805F0C7
:103950009FFCC54890ED000B51EC100B06F098F958
:103960000590C84890ED040B8DED020B9DED020B08
:1039700051EC100B06F08CF90490DDED050A9DED7D
:10398000040AC24805F084FCC048006A019006F0B1
:1039900043FCCDE90401BC48006A019006F03CFC00
:1039A000CDE902019DED041B9DED020B05F085F9AB
:1039B000B448C06910F57A7F04DAA148006801288C
:1039C00000D100E0C7E600BF9FEDB10BB24880ED2B
:1039D000000B46E0AB4890ED020B8DED020B9DED28
:1039E000020B51EC100B06F053F9DFEDAC0A059019
:1039F0009DED050AA44805F04BFCA24890ED040B90
:103A00008DED020B9DED020B51EC100B06F040F911
:103A1000DFEDA20A05909DED050A9C4805F038FCF3
:103A20009A48006A019006F0F7FBCDE90401964838
:103A3000006A019006F0F0FBCDE902019DED041B48
:103A40009DED020B05F039F91FED880B53EC102B9F
:103A5000914890ED000B51EC100B06F0BDFA00D22E
:103A600000E0B7E700BF002086498861C8618C4844
:103A70000068401C8A4908608A480068401C8949DF
:103A80000860874800680528FFF6A7AC8648C0692B
:103A90000590FCF7C9FB9FED7E0B7F4880ED000B86
:103AA00046E0784890ED020B8DED020B9DED020B88
:103AB00051EC100B06F0ECF8DFED780A05909DED67
:103AC000050A714805F0E4FB6E4890ED040B8DED9E
:103AD000020B9DED020B51EC100B06F0D9F8DFED57
:103AE0006F0A05909DED050A684805F0D1FB67480F
:103AF000006A019006F090FBCDE904016248006A7B
:103B0000019006F089FBCDE902019DED041B9DEDBE
:103B1000020B05F0D2F89FED650B53EC102B5E48BD
:103B200090ED000B51EC100B06F056FA00D200E0BD
:103B3000B7E700BF41E14FF4FA610320FCF731FD24
:103B400040213E4803F046F95A49086080213B482D
:103B500003F040F9584908604FF48071374803F08A
:103B600039F9564908600221554803F033F93749BD
:103B700008604FF40071314803F02CF934490860B3
:103B80004FF480612D4803F025F92F490860022188
:103B90002A4803F01FF9284908600421274803F048
:103BA00019F9274908600821244803F013F9254929
:103BB00008604248006890B93E48006801280ED16C
:103BC0003D48006801280AD11FEDF60B234880ED1F
:103BD000000B1FEDF50B244880ED000B99E03748F2
:103BE000006888B93348006870B933480068012814
:103BF0000AD11FEDFA0B194880ED000B1FEDFB0BEE
:103C0000194880ED000B84E02C480068012861D140
:103C10002848006801285DD12748006850B99FED09
:103C2000290B0E4880ED000B9FED280B0E4880ED10
:103C3000000B6EE04EE0000018000020000802407B
:103C40001C00002020000020140000200C00002098
:103C50001000002000000000000012C0280000201A
:103C600000000000000016C030000020000000002E
:103C7000000010C000000000000018C0000000009C
:103C8000000014C060020020F00000203801002075
:103C90000000000000000000C8000020000000003C
:103CA000380000203C0000207800002000000000C8
:103CB0000000E03F00000020040000200800002079
:103CC000000402400000000000001440000000005A
:103CD00000001C40FE480068012810D1FD48006823
:103CE00068B9FD48006850B99FEDFC0BFD4880EDB8
:103CF000000B9FEDFD0BFE4880ED000B09E09FEDF2
:103D0000FD0BF84880ED000B9FEDFA0BF84880EDB5
:103D1000000BF44890ED000B51EC100B05F0B8FFD0
:103D20000590F64890ED020B8DED020B9DED020B18
:103D300051EC100B05F0ACFF0490DDED050A9DED94
:103D4000040AEF4805F0A4FAE94890ED000B51ECA5
:103D5000100B05F09DFF0590E84890ED040B8DEDEC
:103D6000020B9DED020B51EC100B05F091FF04903E
:103D7000DDED050A9DED040AE24805F089FAE14807
:103D8000006A019006F048FACDE90401DC48006AB7
:103D9000019006F041FACDE902019DED041B9DED75
:103DA000020B04F08AFFD548C069B0F5FA6F04DD54
:103DB000D5480068012800D100E0BCE600BF002023
:103DC000CE498861C86102E14021D04803F002F881
:103DD000C04908608021CD4802F0FCFFBE49086060
:103DE0004FF48071C94802F0F5FFB949086002211B
:103DF000C74802F0EFFFC74908604FF40071C3489D
:103E000002F0E8FFC44908604FF48061BF4802F047
:103E1000E1FFC24908600221BC4802F0DBFFBA4959
:103E200008600421B94802F0D5FFBD4908600821A7
:103E3000B64802F0CFFFBB490860A548006890B9BA
:103E4000A448006801280ED1A348006801280AD1BF
:103E50009FEDA20BA34880ED000B9FEDB30BA44890
:103E600080ED000B49E09A48006888B999480068DD
:103E700070B99948006801280AD11FED6E0B994866
:103E800080ED000B9FEDAA0B994880ED000B34E00C
:103E90008F480068012811D18E48006801280DD193
:103EA0008D48006850B99FEDA00B8E4880ED000B47
:103EB0009FED8A0B8E4880ED000B1EE08448006861
:103EC000012810D18348006868B98348006850B958
:103ED0009FED970B834880ED000B1FED860B844808
:103EE00080ED000B09E09FED940B7E4880ED000B08
:103EF0009FED910B7E4880ED000B7A4890ED000B12
:103F000051EC100B05F0C4FE05907C4890ED020BBF
:103F10008DED020B9DED020B51EC100B05F0B8FE80
:103F20000490DDED050A9DED040A754805F0B0F931
:103F30006F4890ED000B51EC100B05F0A9FE0590B9
:103F40006E4890ED040B8DED020B9DED020B51ECD4
:103F5000100B05F09DFE0490DDED050A9DED040AB1
:103F6000684805F095F96748006A019006F054F931
:103F7000CDE904016248006A019006F04DF9CDE9EF
:103F800002019DED041B9DED020B04F096FE4FF423
:103F9000FA616B4803F095FD4FF4FA61694803F04C
:103FA0008EFD4FF4FA61674803F08BFD4FF4FA6120
:103FB000644803F08AFD4FF4FA61624803F083FD20
:103FC0004E48C06940F26A41884200DD00E0FBE6ED
:103FD00000BF4FF4FA715A4803F073FD4FF4FA71C1
:103FE000584803F06CFD4FF4FA71564803F069FD30
:103FF0004FF4FA71534803F068FD4FF4FA715148D9
:1040000003F061FD1FEDDE0B4F4880ED000B46E035
:104010003A4890ED020B8DED020B9DED020B51EC39
:10402000100B05F035FE5FEDE30A05909DED050AE6
:10403000334805F02DF9314890ED040B8DED020B5E
:104040009DED020B51EC100B05F022FE5FEDED0A29
:1040500005909DED050A2B4805F01AF92948006ADC
:10406000019006F0D9F8CDE904012548006A0190D5
:1040700006F0D2F8CDE902019DED041B9DED020B87
:1040800004F01BFE9FED2A0B53EC102B2E4890EDF5
:10409000000B51EC100B05F09FFF00D200E0B7E7DA
:1040A00000BF002015498861C8612BE140211748F5
:1040B00002F090FE074908608021144802F08AFE51
:1040C000054908604FF48071104802F083FE3DE01E
:1040D0000800002000000020040000200000000074
:1040E00000001040280000200000000000002040D8
:1040F0003000002000000000000018406002002096
:10410000F0000020380100201800002000080240C4
:10411000000402400C0000201000002014000020C9
:104120001C000020200000200000000000000040D3
:10413000000000000000F03F000000000000084008
:104140000018004000080040C8000020FE49086038
:104150000221FE4802F03EFEFD4908604FF4007166
:10416000FC4802F037FEFC4908604FF48061F948D2
:1041700002F030FEF94908600221F64802F02AFEFA
:10418000F74908600421F34802F024FEF54908606D
:104190000821F04802F01EFEF3490860EF4800686D
:1041A00090B9EB48006801280ED1EB48006801285F
:1041B0000AD19FEDEE0BEF4880ED000B9FEDEE0B6B
:1041C000EF4880ED000B49E0E448006888B9E0481A
:1041D000006870B9E048006801280AD19FEDE90B3A
:1041E000E44880ED000B9FEDE90BE54880ED000B06
:1041F00034E0DA480068012811D1D5480068012868
:104200000DD1D548006850B99FEDDB0BD94880ED42
:10421000000B9FEDD60BDA4880ED000B1EE0CF4877
:104220000068012810D1CA48006868B9CA48006807
:1042300050B99FEDD60BCF4880ED000B9FEDD10B11
:10424000CF4880ED000B09E09FEDD20BC94880ED0F
:10425000000B9FEDD00BCA4880ED000BC54890EDD8
:10426000000B51EC100B05F013FD0590CB4890EDC1
:10427000020B8DED020B9DED020B51EC100B05F0C6
:1042800007FD0490DDED050A9DED040AC44804F025
:10429000FFFFBB4890ED000B51EC100B05F0F8FC54
:1042A0000590BE4890ED040B8DED020B9DED020BC9
:1042B00051EC100B05F0ECFC0490DDED050A9DEDD2
:1042C000040AB84804F0E4FFB648006A019005F01B
:1042D000A3FFCDE90401B248006A019005F09CFFFC
:1042E000CDE902019DED041B9DED020B04F0E5FC00
:1042F000AA48C069AC49884204DA9A480068012893
:1043000000D100E0D2E600BF9FEDA80BA94880EDE8
:10431000000B46E0A14890ED020B8DED020B9DEDE8
:10432000020B51EC100B05F0B3FCDFEDA30A059076
:104330009DED050A9A4804F0ABFF984890ED040BF8
:104340008DED020B9DED020B51EC100B05F0A0FC66
:10435000DFED990A05909DED050A924804F098FF5B
:104360009048006A019005F057FFCDE904018C48A0
:10437000006A019005F050FFCDE902019DED041B9C
:104380009DED020B04F099FC9FED8C0B53EC102B70
:10439000884890ED000B51EC100B05F01DFE00D28B
:1043A00000E0B7E700BF00208649086090E30020E6
:1043B0007A498861C86184488249096850F82100B7
:1043C000824951F82000824951F820000590FBF7FE
:1043D0002BFF9FED760B774880ED000B51E14021DC
:1043E0005C4802F0F7FC7B4908608021594802F0E4
:1043F000F1FC794908604FF48071564802F0EAFCFC
:10440000514908600221514802F0E4FC504908601B
:104410004FF400714F4802F0DDFC4F4908604FF443
:1044200080614C4802F0D6FC4C49086002214948A2
:1044300002F0D0FC4A4908600421464802F0CAFC58
:10444000484908600821434802F0C4FC4649086016
:104450003D48006890B95F48006801280ED15E4869
:10446000006801280AD19FED5D0B424880ED000BEA
:104470009FED5C0B424880ED000B49E0324800683C
:1044800088B95448006870B95348006801280AD1B7
:104490001FEDEB0B374880ED000B1FEDF00B38489C
:1044A00080ED000B34E028480068012811D149480C
:1044B000006801280DD14848006850B99FED490BAC
:1044C0002C4880ED000B9FED450B2D4880ED000B37
:1044D0001EE01D480068012810D13E48006868B9F8
:1044E0003D48006850B99FED410B224880ED000B1C
:1044F0009FED400B224880ED000B09E09FED3F0B44
:104500001C4880ED000B9FED3D0B1D4880ED000B1E
:10451000184890ED000B51EC100B05F0B9FB05901D
:104520001E4890ED020B8DED020B9DED020B51EC40
:10453000100B05F0ADFB0490DDED050A9DED040ABE
:10454000174804F0A5FE5DE00800002000040240CA
:104550000C00002000080240100000201400002081
:10456000180000201C000020200000200000000097
:10457000000012C02800002000000000000016C04B
:104580003000002000000000000010C0000000000B
:10459000000018C000000000000014C060020020ED
:1045A000F00000203801002048F4FFFF0000000068
:1045B00000000000C8000020000000000000000013
:1045C0000000E03F38000020500000208001002063
:1045D00078000020000000200400002000000000FF
:1045E00000001C400000000000001440000000001B
:1045F000000010400000000000002040000000000B
:1046000000001840FE4890ED000B51EC100B05F037
:104610003FFB0590FB4890ED040B8DED020B9DEDEB
:10462000020B51EC100B05F033FB0490DDED050A95
:104630009DED040AF44804F02BFEF348006A019053
:1046400005F0EAFDCDE90401F048006A019005F0AB
:10465000E3FDCDE902019DED041B9DED020B04F08D
:104660002CFBEB48EB49096850F821004FF4FA7134
:104670000590FBF796FFE348C069B0F5487F00DD81
:1046800000E0ACE600BF0020DE498861C8611FED94
:10469000390BE14880ED000B46E0DA4890ED020B63
:1046A0008DED020B9DED020B51EC100B05F0F0FAB5
:1046B0005FED3F0A05909DED050AD44804F0E8FD42
:1046C000D04890ED040B8DED020B9DED020B51ECEB
:1046D000100B05F0DDFA5FED480A05909DED050A27
:1046E000C94804F0D5FDC848006A019005F094FD62
:1046F000CDE90401C548006A019005F08DFDCDE9C2
:1047000002019DED041B9DED020B04F0D6FA9FED16
:10471000C30B53EC102BC04890ED000B51EC100B69
:1047200005F05AFC00D200E0B7E700BF1FED610BB7
:10473000B94880ED000B50E0B548B649096850F81B
:1047400021004FF4FA610590FBF72BFFAD4890ED87
:10475000020B8DED020B9DED020B51EC100B05F0E1
:1047600097FA5FED6B0A05909DED050AA74804F0E6
:104770008FFDA44890ED040B8DED020B9DED020B17
:1047800051EC100B05F084FA5FED750A05909DED74
:10479000050A9D4804F07CFD9B48006A019005F0E5
:1047A0003BFDCDE904019948006A019005F034FD14
:1047B000CDE902019DED041B9DED020B04F07DFA95
:1047C0009FED960B53EC102B934890ED000B51ECA2
:1047D000100B05F001FC00D200E0ADE700BF0020A7
:1047E00088498861C861E7E040218E4802F0F2FA0A
:1047F0008D49086080218B4802F0ECFA8B490860F3
:104800004FF48071874802F0E5FA89490860022177
:10481000884802F0DFFA884908604FF40071814847
:1048200002F0D8FA854908604FF480617D4802F0B3
:10483000D1FA8349086002217A4802F0CBFA814913
:1048400008600421774802F0C5FA7F490860082112
:10485000744802F0BFFA7D4908607948006890B951
:104860007548006801280ED17448006801280AD1F3
:104870001FEDC20B764880ED000B1FEDC10B6048A9
:1048800080ED000B49E06E48006888B96A4800680E
:1048900070B96A48006801280AD11FEDC60B6C4840
:1048A00080ED000B1FEDC70B554880ED000B34E089
:1048B00063480068012811D15F48006801280DD1C4
:1048C0005E48006850B91FEDD40B614880ED000BC5
:1048D0001FEDDA0B4A4880ED000B1EE058480068D7
:1048E000012810D15448006868B95448006850B98C
:1048F0001FEDDA0B564880ED000B1FEDDE0B404834
:1049000080ED000B09E01FEDDD0B514880ED000B41
:104910001FEDE00B3A4880ED000B4D4890ED000B89
:1049200051EC100B05F0B4F90590364890ED020BF0
:104930008DED020B9DED020B51EC100B05F0A8F96B
:104940000490DDED050A9DED040A304804F0A0FC5A
:104950002B4890ED000B51EC100B05F099F90590E8
:10496000284890ED040B8DED020B9DED020B51ECF0
:10497000100B05F08DF90490DDED050A9DED040A9C
:10498000214804F085FC2048006A019005F044FCB1
:10499000CDE904011D48006A019005F03DFCCDE918
:1049A00002019DED041B9DED020B04F086F92648E3
:1049B0000068012800D100E016E700BF9FED250B3D
:1049C000154880ED000B78E00E4890ED020B8DED60
:1049D000020B9DED020B51EC100B05F059F9DFEDC8
:1049E0001F0A05909DED050A084804F051FC054892
:1049F00090ED040B8DED020B9DED020B30E00000FD
:104A0000300000206002002038010020F00000206B
:104A10006400002038000020C800002000000000D2
:104A20000000F03F000802400000002004000020C9
:104A300008000020000402400C00002010000020AC
:104A400014000020180000201C000020200000207E
:104A5000280000200000000000000000000000000E
:104A600051EC100B05F014F95FED040A05909DED73
:104A7000050AFA4804F00CFCF848006A019005F0B9
:104A8000CBFBCDE90401F648006A019005F0C4FBB8
:104A9000CDE902019DED041B9DED020B04F00DF923
:104AA0009FEDF00B53EC102BF04890ED000B51EC08
:104AB000100B05F091FA00D200E085E700BF00205E
:104AC000EB498861C861EB480068401CE94908600F
:104AD000E84800680528FFF66AAC1FED220BE348A2
:104AE00080ED000B46E0E24890ED020B8DED020BED
:104AF0009DED020B51EC100B05F0CAF85FED290A91
:104B000005909DED050AD64804F0C2FBD84890ED0B
:104B1000040B8DED020B9DED020B51EC100B05F01B
:104B2000B7F85FED320A05909DED050ACB4804F019
:104B3000AFFBCA48006A019005F06EFBCDE90401A5
:104B4000C748006A019005F067FBCDE902019DEDC1
:104B5000041B9DED020B04F0B0F89FEDC20B53EC6B
:104B6000102BC24890ED000B51EC100B05F034FAFD
:104B700000D200E0B7E700BF0020BD498861C861EE
:104B8000BD4880690590FBF74FFB1FED4E0BB74802
:104B900080ED000B46E0B64890ED020B8DED020B68
:104BA0009DED020B51EC100B05F072F85FED550A0C
:104BB00005909DED050AAA4804F06AFBAC4890ED0B
:104BC000040B8DED020B9DED020B51EC100B05F06B
:104BD0005FF85FED5E0A05909DED050A9F4804F0C1
:104BE00057FB9E48006A019005F016FBCDE90401D1
:104BF0009B48006A019005F00FFBCDE902019DED95
:104C0000041B9DED020B04F058F89FED960B53EC3E
:104C1000102B964890ED000B51EC100B05F0DCF9D1
:104C200000D200E0B7E700BF002092490860F5E33A
:104C300000208F498861C8618E48006800287DDDAA
:104C400086E040218D4802F0C5F88D49086080213A
:104C50008A4802F0BFF88B4908604FF4807187489A
:104C600002F0B8F8884908600221884802F0B2F8DA
:104C7000874908604FF40071804802F0ABF885491D
:104C800008604FF480617D4802F0A4F88249086012
:104C900002217A4802F09EF8804908600421774892
:104CA00002F098F87E4908600821744802F092F8F2
:104CB0007C4908606E4890ED020B8DED020B9DED76
:104CC000020B51EC100B04F0E3FFF0EE080A059024
:104CD0009DED050A624804F0DBFA654890ED040B8F
:104CE0008DED020B9DED020B51EC100B04F0D0FF8B
:104CF000F8EE080A05909DED050A584804F0C8FA38
:104D00005648006A019005F087FACDE9040154483D
:104D1000006A019005F080FACDE902019DED041BC7
:104D20009DED020B03F0C9FF51488069B0F5C87FC3
:104D30000EDD57480068012809D000E0BAE0554868
:104D40000068012803D054480068012800D100E021
:104D500077E700BF002005902BE04749059851F800
:104D6000200000F5C8700A46059942F82100114656
:104D7000059851F82000B0F5C86F07DD059851F887
:104D80002000A0F54860059942F821003A490598AD
:104D900051F8200010F5C86F08DC059851F8200084
:104DA00000F548600A46059942F821000598401C24
:104DB000059005980828D0DB00202D498861C8613E
:104DC0001FEDDC0B294880ED000B71E0284890EDC9
:104DD000020B8DED020B9DED020B51EC100B04F05C
:104DE00057FF5FEDE20A05909DED050A1C4804F0AF
:104DF0004FFA1F4890ED040B8DED020B9DED020B59
:104E000051EC100B04F044FF5FEDEC0A05909DEDB2
:104E1000050A124804F03CFA1048006A019005F0B7
:104E2000FBF9CDE904010E48006A019005F0F4F9A0
:104E3000CDE902019DED041B9DED020B03F03DFF4A
:104E40009FED190B53EC102B084890ED000B51EC23
:104E5000100B05F0C1F82BD22BE000003801002028
:104E6000F00000209A9999999999C93FC8000020AB
:104E70006002002038000020780000200008024076
:104E80000000002004000020080000200004024070
:104E90000C0000201000002014000020180000204A
:104EA0001C00002020000020000000000000E03F67
:104EB0008CE700BFF2E04021F74801F08BFFF74993
:104EC00008608021F44801F085FFF54908604FF43F
:104ED0008071F14801F07EFFF24908600221F2483A
:104EE00001F078FFF14908604FF40071EA4801F0E1
:104EF00071FFEF4908604FF48061E74801F06AFFF5
:104F0000EC4908600221E44801F064FFEA490860C6
:104F10000421E14801F05EFFE84908600821DE480D
:104F200001F058FFE6490860E248006890B9DF48A0
:104F3000006801280ED1DE48006801280AD19FEDE3
:104F4000E10BE24880ED000B9FEDE10BE24880EDC4
:104F5000000B49E0D748006888B9D448006870B9A8
:104F6000D348006801280AD19FEDDC0BD74880EDBB
:104F7000000B9FEDDC0BD84880ED000B34E0CD48F2
:104F80000068012811D1C948006801280DD1C8481E
:104F9000006850B99FEDCE0BCC4880ED000B9FED23
:104FA000C90BCD4880ED000B1EE0C2480068012807
:104FB00010D1BE48006868B9BD48006850B99FED7F
:104FC000C90BC24880ED000B9FEDC40BC24880EDB9
:104FD000000B09E09FEDC50BBC4880ED000B9FED79
:104FE000C30BBD4880ED000BB84890ED000B51ECB1
:104FF000100B04F04DFE0590BE4890ED020B8DEDB8
:10500000020B9DED020B51EC100B04F041FE0490DD
:10501000DDED050A9DED040AB74804F039F9AE4804
:1050200090ED000B51EC100B04F032FE0590B148EE
:1050300090ED040B8DED020B9DED020B51EC100B6E
:1050400004F026FE0490DDED050A9DED040AAB4850
:1050500004F01EF9A948006A019005F0DDF8CDE9D9
:105060000401A548006A019005F0D6F8CDE90201D7
:105070009DED041B9DED020B03F01FFE40F2DC5181
:105080009F4802F01CFD4FF4FA619E4802F017FDA4
:105090009848C0699C49884200DA00E00BE700BFED
:1050A0009FED9A0B9B4880ED000B46E0914890EDF8
:1050B000020B8DED020B9DED020B51EC100B04F079
:1050C000E7FDDFED950A05909DED050A8A4804F09D
:1050D000DFF8884890ED040B8DED020B9DED020B7F
:1050E00051EC100B04F0D4FDDFED8B0A05909DED23
:1050F000050A824804F0CCF88048006A019005F067
:105100008BF8CDE904017C48006A019005F084F831
:10511000CDE902019DED041B9DED020B03F0CDFDD9
:105120001FEDB00B53EC102B7A4890ED000B51ECB7
:10513000100B04F051FF00D200E0B7E700BF50E0D1
:105140006C4890ED020B8DED020B9DED020B51ECC6
:10515000100B04F09DFDDFED700A05909DED050A32
:10516000654804F095F8634890ED040B8DED020B53
:105170009DED020B51EC100B04F08AFDDFED660A89
:1051800005909DED050A5D4804F082F85B48006AD1
:10519000019005F041F8CDE904015748006A0190FB
:1051A00005F03AF8CDE902019DED041B9DED020BDF
:1051B00003F083FD40F2DC51514802F080FC4FF4D3
:1051C0006171504802F07BFC1FEDC90B53EC102BB2
:1051D000504890ED000B51EC100B04F0FDFE00D296
:1051E00000E0ADE700BF9FED490B4A4880ED000BA2
:1051F00050E0404890ED020B8DED020B9DED020B4F
:1052000051EC100B04F044FDDFED430A05909DEDD9
:10521000050A394804F03CF8364890ED040B8DED52
:10522000020B9DED020B51EC100B04F031FDDFED94
:105230003A0A05909DED050A304804F029F82F48F8
:10524000006A019004F0E8FFCDE904012A48006AF1
:10525000019004F0E1FFCDE902019DED041B9DEDFD
:10526000020B03F02AFD40F2A461254802F027FC5E
:105270004FF46171234802F022FC9FED280B53ECA0
:10528000102B244890ED000B51EC100B04F0A4FE01
:1052900000D247E0ADE70000000802400000002017
:1052A0000400002008000020000402400C00002040
:1052B0001000002014000020180000201C00002016
:1052C0002000002000000000000012C02800002084
:1052D00000000000000016C03000002000000000A8
:1052E000000010C000000000000018C00000000016
:1052F000000014C060020020F000002038010020EF
:10530000004001400048014024FAFFFF0000000077
:1053100000000000C80000200000000033333333D9
:105320003333D33F00BFF3E04021FE4801F052FD8C
:10533000FD4908608021FB4801F04CFDFB490860F5
:105340004FF48071F74801F045FDF94908600221EA
:10535000F84801F03FFDF84908604FF40071F1484A
:1053600001F038FDF54908604FF48061ED4801F027
:1053700031FDF34908600221EA4801F02BFDF149B3
:1053800008600421E74801F025FDEF490860082185
:10539000E44801F01FFDED490860E948006890B954
:1053A000E548006801280ED1E448006801280AD1C8
:1053B0001FED3C0BE64880ED000B1FED3B0BE54875
:1053C00080ED000B4AE0DE48006888B9DA480068E2
:1053D00070B9DA48006801280AD11FED400BDC489B
:1053E00080ED000B1FED410BDA4880ED000B35E03E
:1053F000D3480068012812D1CF48006801280ED197
:10540000CE48006858B91FED4E0BD14880ED000B17
:105410001FED540BCF4880ED000B1FE0ADE3C848F3
:105420000068012810D1C448006868B9C348006802
:1054300050B91FED540BC64880ED000B1FED590B02
:10544000C44880ED000B09E01FED580BC04880ED0B
:10545000000B1FED5A0BBF4880ED000BBC4890EDD0
:10546000000B51EC100B04F013FC0590BA4890EDC2
:10547000020B8DED020B9DED020B51EC100B04F0B5
:1054800007FC0490DDED050A9DED040AB34803F026
:10549000FFFEB04890ED000B51EC100B04F0F8FB50
:1054A0000590AD4890ED040B8DED020B9DED020BC8
:1054B00051EC100B04F0ECFB0490DDED050A9DEDC2
:1054C000040AA74803F0E4FEA548006A019004F02E
:1054D000A3FECDE90401A148006A019004F09CFEFE
:1054E000CDE902019DED041B9DED020B03F0E5FBF0
:1054F00040F2A4619B4802F0E2FA4FF461719A48CD
:1055000002F0DDFA9448C0699849884200DA00E068
:105510000AE700BF1FED830B954880ED000B50E0BC
:105520008D4890ED020B8DED020B9DED020B51ECC1
:10553000100B04F0ADFB5FED880A05909DED050AA8
:10554000864803F0A5FE844890ED040B8DED020B18
:105550009DED020B51EC100B04F09AFB5FED920AEB
:1055600005909DED050A7E4803F092FE7C48006A96
:10557000019004F051FECDE904017848006A0190E1
:1055800004F04AFECDE902019DED041B9DED020BE6
:1055900003F093FB40F2A461724802F090FA40F2EB
:1055A0001451714802F08BFA1FEDA40B53EC102B31
:1055B0006F4890ED000B51EC100B04F00DFD00D284
:1055C00000E0ADE700BF1FEDAF0B694880ED000BB9
:1055D00050E0614890ED020B8DED020B9DED020B4A
:1055E00051EC100B04F054FB5FEDB50A05909DEDF6
:1055F000050A5A4803F04CFE574890ED040B8DED18
:10560000020B9DED020B51EC100B04F041FB5FED22
:10561000BE0A05909DED050A514803F039FE504839
:10562000006A019004F0F8FDCDE904014B48006ADE
:10563000019004F0F1FDCDE902019DED041B9DED0B
:10564000020B03F03AFB40F2DC51464802F037FA15
:1056500040F21451444802F032FA9FED460B53ECED
:10566000102B434890ED000B51EC100B04F0B4FCF0
:1056700000D200E0ADE700BF1FEDDC0B3C4880ED41
:10568000000B7DE0344890ED020B8DED020B9DED9B
:10569000020B51EC100B04F0FBFA5FEDE10A0590F0
:1056A0009DED050A2D4803F0F3FD2B4890ED040B0A
:1056B0008DED020B9DED020B51EC100B04F0E8FA9E
:1056C0005FEDEB0A05909DED050A254803F0E0FD2E
:1056D0002348006A019004F09FFDCDE904011F48B2
:1056E000006A019004F098FDCDE902019DED041BD4
:1056F0009DED020B03F0E1FA40F2DC51194802F093
:10570000DEF94FF46171184802F0D9F91FEDFD0B75
:1057100053EC102B164890ED000B51EC100B04F0DD
:105720005BFC2BE000080240000000200400002089
:1057300008000020000402400C000020100000209F
:1057400014000020180000201C0000202000002071
:10575000280000203000002060020020F00000201F
:1057600038010020004001400048014048F4FFFF9C
:10577000C8000020000000000000E03F00D200E070
:1057800080E700BF9FEDFD0BFE4880ED000B50E071
:10579000FD4890ED020B8DED020B9DED020B51ECDF
:1057A000100B04F075FADFEDF90A05909DED050A7E
:1057B000F74803F06DFDF44890ED040B8DED020BFE
:1057C0009DED020B51EC100B04F062FADFEDEF0AD5
:1057D00005909DED050AEF4803F05AFDED48006A7B
:1057E000019004F019FDCDE90401E948006A019037
:1057F00004F012FDCDE902019DED041B9DED020BAD
:1058000003F05BFA40F2A461E34802F058F94FF468
:105810006171E24802F053F99FEDE10B53EC102B5C
:10582000D84890ED000B51EC100B04F0D5FB00D2E2
:1058300000E0ADE700BFF1E04021DB4801F0CAFA2B
:10584000DA4908608021D84801F0C4FAD8490860D4
:105850004FF48071D44801F0BDFAD64908600221A6
:10586000D54801F0B7FAD54908604FF40071CE4829
:1058700001F0B0FAD24908604FF48061CA4801F0E3
:10588000A9FAD04908600221C74801F0A3FACE491D
:1058900008600421C44801F09DFACC490860082141
:1058A000C14801F097FACA490860C648006890B933
:1058B000C248006801280ED1C148006801280AD1F9
:1058C0009FEDC40BC54880ED000B9FEDC50BC6488E
:1058D00080ED000B49E0BB48006888B9B748006814
:1058E00070B9B748006801280AD19FEDC00BBB48CA
:1058F00080ED000B9FEDBF0BBB4880ED000B34E04B
:10590000B0480068012811D1AC48006801280DD1C9
:10591000AB48006850B99FEDB20BB04880ED000B6A
:105920009FEDAC0BB04880ED000B1EE0A548006871
:10593000012810D1A148006868B9A148006850B991
:105940009FEDAC0BA54880ED000B9FEDA80BA64882
:1059500080ED000B09E09FEDA90BA04880ED000B46
:105960009FEDA60BA04880ED000B9C4890ED000B2E
:1059700051EC100B04F08CF90590834890ED020B6C
:105980008DED020B9DED020B51EC100B04F080F934
:105990000490DDED050A9DED040A7D4803F078FCD6
:1059A000914890ED000B51EC100B04F071F905904B
:1059B000754890ED040B8DED020B9DED020B51EC43
:1059C000100B04F065F90490DDED050A9DED040A65
:1059D000704803F05DFC6F48006A019004F01CFC05
:1059E000CDE904016A48006A019004F015FCCDE994
:1059F00002019DED041B9DED020B03F05EF940F2E8
:105A0000A461654802F05BF84FF46171634802F0ED
:105A100056F86F480068012800D100E00CE700BF8D
:105A20009FED560B574880ED000B50E0564890ED27
:105A3000020B8DED020B9DED020B51EC100B04F0EF
:105A400027F9DFED520A05909DED050A504803F055
:105A50001FFC4D4890ED040B8DED020B9DED020BEC
:105A600051EC100B04F014F9DFED480A05909DEDA0
:105A7000050A484803F00CFC4648006A019004F00F
:105A8000CBFBCDE904014248006A019004F0C4FB5D
:105A9000CDE902019DED041B9DED020B03F00DF914
:105AA00040F2A4613C4802F00AF840F214513B482D
:105AB00002F005F89FED3A0B53EC102B314890EDB6
:105AC000000B51EC100B04F087FA00D200E0ADE7B8
:105AD00000BF9FED2A0B2B4880ED000B9AE02A486F
